{
	"data": {
		"bytecode": {
			"linkReferences": {},
			"object": "60a06040525f608090815260059061001790826102e3565b50348015610023575f5ffd5b5060408051602081019091525f81526001805460ff19169055610045816100fa565b506100505f3361010a565b5061007b7f9f2df0fed2c77648de5860a4cc508cd0818c85b8b8a1ab4ceeef8d981c8956a63361010a565b506100a67fe926d122b799dcbe5c2eccdf60ae0aefbb1a4bc75a7848bb07befecf8c775f5c3361010a565b5060408051808201909152601381527f436172626f6e20437265646974204173736574000000000000000000000000006020820152600b906100e890826102e3565b506100f5308060016101b3565b61039d565b600461010682826102e3565b5050565b5f828152602081815260408083206001600160a01b038516845290915281205460ff166101aa575f838152602081815260408083206001600160a01b03861684529091529020805460ff191660011790556101623390565b6001600160a01b0316826001600160a01b0316847f2f8788117e7eff1d82e926ec794901d17c78024a50270940304540a733656f0d60405160405180910390a45060016101ad565b505f5b92915050565b6001600160a01b0382166101df5760405162ced3e160e81b81525f600482015260240160405180910390fd5b6001600160a01b038381165f81815260036020908152604080832094871680845294825291829020805460ff191686151590811790915591519182527f17307eab39ab6107e8899845ad3d59bd9653f200f220920489ca2b5937696c31910160405180910390a3505050565b634e487b7160e01b5f52604160045260245ffd5b600181811c9082168061027357607f821691505b60208210810361029157634e487b7160e01b5f52602260045260245ffd5b50919050565b601f8211156102de57805f5260205f20601f840160051c810160208510156102bc5750805b601f840160051c820191505b818110156102db575f81556001016102c8565b50505b505050565b81516001600160401b038111156102fc576102fc61024b565b6103108161030a845461025f565b84610297565b6020601f821160018114610342575f831561032b5750848201515b5f19600385901b1c1916600184901b1784556102db565b5f84815260208120601f198516915b828110156103715787850151825560209485019460019092019101610351565b508482101561038e57868401515f19600387901b60f8161c191681555b50505050600190811b01905550565b613a9e806103aa5f395ff3fe608060405234801561000f575f5ffd5b506004361061028b575f3560e01c80638456cb5911610161578063c71d0ea3116100ca578063e22c451511610084578063e22c451514610647578063e985e9c51461065a578063f23a6e611461066d578063f242432a1461068d578063f5298aca146106a0578063fdbda0ec146106b3575f5ffd5b8063c71d0ea3146105b1578063caff99ce146105c6578063d5391393146105ed578063d547741f14610601578063d58778d614610614578063df6f5b2014610627575f5ffd5b8063a70987281161011b578063a709872814610509578063a9b566a31461051e578063b21fa65414610531578063bc197c8114610544578063bd85b0391461057f578063be7cf7501461059e575f5ffd5b80638456cb59146104ae57806391d14854146104b65780639dd6a449146104c9578063a217fddf146104dc578063a22cb465146104e3578063a5e2361d146104f6575f5ffd5b80632f2ff15d116102035780635a1f3c28116101bd5780635a1f3c28146104355780635c975abb146104555780636804a958146104605780636b20c4541461047557806370164f0e14610488578063731133e91461049b575f5ffd5b80632f2ff15d146103b35780633038bfdf146103c657806336568abe146103d95780633f4ba83a146103ec5780634e1273f4146103f45780634f558e7914610414575f5ffd5b8063162094c411610254578063162094c41461031557806318160ddd146103285780631f7fdffa14610330578063248a9ca314610343578063258672aa146103655780632eb2c2d6146103a0575f5ffd5b8062fdd58e1461028f57806301ffc9a7146102b5578063059dfe13146102d857806306fdde03146102ed5780630e89341c14610302575b5f5ffd5b6102a261029d366004612a78565b6106d4565b6040519081526020015b60405180910390f35b6102c86102c3366004612ab5565b6106fd565b60405190151581526020016102ac565b6102eb6102e6366004612b85565b610721565b005b6102f56108dd565b6040516102ac9190612bec565b6102f5610310366004612bfe565b610969565b6102eb610323366004612c15565b610974565b6008546102a2565b6102eb61033e366004612ce4565b6109fe565b6102a2610351366004612bfe565b5f9081526020819052604090206001015490565b61038b610373366004612bfe565b600d6020525f90815260409020805460019091015482565b604080519283526020830191909152016102ac565b6102eb6103ae366004612d80565b610a28565b6102eb6103c1366004612e2c565b610a8f565b6102eb6103d4366004612e56565b610ab9565b6102eb6103e7366004612e2c565b610bd2565b6102eb610c05565b610407610402366004612ea9565b610c1a565b6040516102ac9190612f9a565b6102c8610422366004612bfe565b5f90815260076020526040902054151590565b610448610443366004612bfe565b610ce4565b6040516102ac9190612fca565b60015460ff166102c8565b610468610de0565b6040516102ac9190612fdc565b6102eb61048336600461303f565b610f4e565b6102eb610496366004612b85565b610fad565b6102eb6104a93660046130b1565b611168565b6102eb61118b565b6102c86104c4366004612e2c565b61119d565b6102eb6104d7366004613102565b6111c5565b6102a25f81565b6102eb6104f1366004613102565b61127f565b6102eb610504366004612e2c565b61128a565b610511611294565b6040516102ac9190613137565b6102a261052c366004612bfe565b611406565b6102f561053f366004612bfe565b611425565b610566610552366004613251565b63bc197c8160e01b98975050505050505050565b6040516001600160e01b031990911681526020016102ac565b6102a261058d366004612bfe565b5f9081526007602052604090205490565b6102eb6105ac36600461330d565b6114f1565b6105b96116e8565b6040516102ac919061336a565b6102a27fe926d122b799dcbe5c2eccdf60ae0aefbb1a4bc75a7848bb07befecf8c775f5c81565b6102a25f516020613a495f395f51905f5281565b6102eb61060f366004612e2c565b6117c9565b6102a2610622366004612bfe565b6117ed565b61063a610635366004612bfe565b6117fc565b6040516102ac91906133c1565b6102eb6106553660046133d8565b61189e565b6102c8610668366004613423565b611c3f565b61056661067b36600461344b565b63f23a6e6160e01b9695505050505050565b6102eb61069b3660046134bd565b611c6c565b6102eb6106ae366004613510565b611ccb565b6106c66106c1366004612bfe565b611d01565b6040516102ac929190613540565b5f8181526002602090815260408083206001600160a01b03861684529091529020545b92915050565b5f6001600160e01b03198216630271189760e51b14806106f757506106f782611da3565b7fe926d122b799dcbe5c2eccdf60ae0aefbb1a4bc75a7848bb07befecf8c775f5c61074b81611de2565b5f5b600e54811015610815575f600e828154811061076b5761076b613558565b905f5260205f20015490508380519060200120600c5f8381526020019081526020015f2060010160405161079f919061360c565b60405180910390200361080c5760405162461bcd60e51b815260206004820152602a60248201527f53686172656431313535546f6b656e3a204475706c69636174652073756666696044820152691e0819195d1958dd195960b21b60648201526084015b60405180910390fd5b5060010161074d565b50610824600a80546001019055565b5f61082e600a5490565b60408051808201825282815260208082018781525f858152600c909252929020815181559151929350916001820190610867908261365b565b5050600e80546001810182555f919091527fbb7b4a454dc3493923482f07822329ed19e8244eff582cc204f8554c3620c3fd018290555060405181907f62b7b5ba11bfc95430fab0460fdf99b9c8fbc2b3a6a48caf79c3ee1b591c0336906108d0908690612bec565b60405180910390a2505050565b600b80546108ea9061356c565b80601f01602080910402602001604051908101604052809291908181526020018280546109169061356c565b80156109615780601f1061093857610100808354040283529160200191610961565b820191905f5260205f20905b81548152906001019060200180831161094457829003601f168201915b505050505081565b60606106f782611dec565b5f61097e81611de2565b5f83815260076020526040812054116109ef5760405162461bcd60e51b815260206004820152602d60248201527f53686172656431313535546f6b656e3a2055524920736574206f66206e6f6e6560448201526c3c34b9ba32b73a103a37b5b2b760991b6064820152608401610803565b6109f98383611ec8565b505050565b5f516020613a495f395f51905f52610a1581611de2565b610a2185858585611f24565b5050505050565b336001600160a01b0386168114801590610a495750610a478682611c3f565b155b15610a7a5760405163711bec9160e11b81526001600160a01b03808316600483015287166024820152604401610803565b610a878686868686611f5a565b505050505050565b5f82815260208190526040902060010154610aa981611de2565b610ab38383611fb8565b50505050565b6001600160a01b038316610adf5760405162461bcd60e51b815260040161080390613715565b5f8111610afe5760405162461bcd60e51b81526004016108039061375f565b5f805b600f54811015610b6e578380519060200120610b37600f8381548110610b2957610b29613558565b905f5260205f200154610969565b8051906020012003610b6657600f8181548110610b5657610b56613558565b905f5260205f2001549150610b6e565b600101610b01565b50805f03610b8e5760405162461bcd60e51b8152600401610803906137bc565b81610b9930836106d4565b1015610bb75760405162461bcd60e51b815260040161080390613812565b610ab33085838560405180602001604052805f815250611c6c565b6001600160a01b0381163314610bfb5760405163334bd91960e11b815260040160405180910390fd5b6109f98282612047565b5f610c0f81611de2565b610c176120b0565b50565b60608151835114610c4b5781518351604051635b05999160e01b815260048101929092526024820152604401610803565b5f83516001600160401b03811115610c6557610c65612ad0565b604051908082528060200260200182016040528015610c8e578160200160208202803683370190505b5090505f5b8451811015610cdc57602080820286010151610cb7906020808402870101516106d4565b828281518110610cc957610cc9613558565b6020908102919091010152600101610c93565b509392505050565b604080518082019091525f8152606060208201525f828152600c60205260408120549003610d245760405162461bcd60e51b81526004016108039061385b565b600c5f8381526020019081526020015f206040518060400160405290815f8201548152602001600182018054610d599061356c565b80601f0160208091040260200160405190810160405280929190818152602001828054610d859061356c565b8015610dd05780601f10610da757610100808354040283529160200191610dd0565b820191905f5260205f20905b815481529060010190602001808311610db357829003601f168201915b5050505050815250509050919050565b600e546060905f906001600160401b03811115610dff57610dff612ad0565b604051908082528060200260200182016040528015610e4457816020015b604080518082019091525f815260606020820152815260200190600190039081610e1d5790505b5090505f5b600e54811015610f4857600c5f600e8381548110610e6957610e69613558565b905f5260205f20015481526020019081526020015f206040518060400160405290815f8201548152602001600182018054610ea39061356c565b80601f0160208091040260200160405190810160405280929190818152602001828054610ecf9061356c565b8015610f1a5780601f10610ef157610100808354040283529160200191610f1a565b820191905f5260205f20905b815481529060010190602001808311610efd57829003601f168201915b505050505081525050828281518110610f3557610f35613558565b6020908102919091010152600101610e49565b50919050565b6001600160a01b0383163314801590610f6e5750610f6c8333611c3f565b155b15610fa257335b60405163711bec9160e11b81526001600160a01b0391821660048201529084166024820152604401610803565b6109f9838383612102565b5f610fb781611de2565b5f5b600e54811015611101575f600e8281548110610fd757610fd7613558565b905f5260205f20015490508380519060200120600c5f8381526020019081526020015f2060010160405161100b919061360c565b6040518091039020036110f8575f818152600c602052604081208181559061103660018301826129d0565b5050600e54611047906001906138b9565b82101561109657600e805461105e906001906138b9565b8154811061106e5761106e613558565b905f5260205f200154600e838154811061108a5761108a613558565b5f918252602090912001555b600e8054806110a7576110a76138cc565b600190038181905f5260205f20015f90559055807ff2c458821d360029e0b4d57e1f001b05db9d486ef001529d2e931753d7cf32f4856040516110ea9190612bec565b60405180910390a250505050565b50600101610fb9565b5060405162461bcd60e51b815260206004820152603160248201527f53686172656431313535546f6b656e3a20436f6c6c656374696f6e2077697468604482015270081cdd59999a5e081b9bdd08199bdd5b99607a1b6064820152608401610803565b5050565b5f516020613a495f395f51905f5261117f81611de2565b610a2185858585612145565b5f61119581611de2565b610c176121a0565b5f918252602082815260408084206001600160a01b0393909316845291905290205460ff1690565b5f6111cf81611de2565b6001600160a01b0383166112375760405162461bcd60e51b815260206004820152602960248201527f53686172656431313535546f6b656e3a20496e76616c6964206f70657261746f60448201526872206164647265737360b81b6064820152608401610803565b6112423084846121db565b826001600160a01b03167f8d3369e8ce7e1085710a510ca605f9599e0ae164e4c5a0c65b8106d6681f8efe836040516108d0911515815260200190565b6111643383836121db565b5f610aa981611de2565b60605f805b600f548110156112e5575f6112c930600f84815481106112bb576112bb613558565b905f5260205f2001546106d4565b11156112dd57816112d9816138e0565b9250505b600101611299565b505f816001600160401b038111156112ff576112ff612ad0565b60405190808252806020026020018201604052801561133857816020015b611325612a07565b81526020019060019003908161131d5790505b5090505f805b600f548110156113fd575f600f828154811061135c5761135c613558565b905f5260205f20015490505f61137230836106d4565b905080156113f357604051806080016040528083815260200182815260200161139a84610969565b81525f848152600d602090815260409182902082518084019093528054835260010154828201529091015285518690869081106113d9576113d9613558565b602002602001018190525083806113ef906138e0565b9450505b505060010161133e565b50909392505050565b600e8181548110611415575f80fd5b5f91825260209091200154905081565b5f818152600c6020526040812054606091036114535760405162461bcd60e51b81526004016108039061385b565b5f828152600c60205260409020600101805461146e9061356c565b80601f016020809104026020016040519081016040528092919081815260200182805461149a9061356c565b80156114e55780601f106114bc576101008083540402835291602001916114e5565b820191905f5260205f20905b8154815290600101906020018083116114c857829003601f168201915b50505050509050919050565b5f516020613a495f395f51905f5261150881611de2565b5f805b600e548110156115a4578380519060200120600c5f600e848154811061153357611533613558565b905f5260205f20015481526020019081526020015f20600101604051611559919061360c565b60405180910390200361159c57600c5f600e838154811061157c5761157c613558565b905f5260205f20015481526020019081526020015f205f015491506115a4565b60010161150b565b50805f036116135760405162461bcd60e51b815260206004820152603660248201527f53686172656431313535546f6b656e3a20436f6c6c656374696f6e2077697468604482015275081cdd59999a5e08191bd95cc81b9bdd08195e1a5cdd60521b6064820152608401610803565b611621600980546001019055565b5f61162b60095490565b905061164730828860405180602001604052805f815250612145565b6116518188611ec8565b5f818152600d602090815260408083208881556001808201879055600f805491820181559094527f8d1108e10bcb7c27dddfc02ed9d693a074039d026cf4ea4240b40f7d581ac8029093018490558051848152918201889052810188905230907fafde70c98492a2ca81a3e5545bed44efeb0747a64b5e63a918df2e9d8e83ef359060600160405180910390a25050505050505050565b600f546060905f906001600160401b0381111561170757611707612ad0565b60405190808252806020026020018201604052801561174b57816020015b604080518082019091525f80825260208201528152602001906001900390816117255790505b5090505f5b600f54811015610f4857600d5f600f838154811061177057611770613558565b905f5260205f20015481526020019081526020015f206040518060400160405290815f82015481526020016001820154815250508282815181106117b6576117b6613558565b6020908102919091010152600101611750565b5f828152602081905260409020600101546117e381611de2565b610ab38383612047565b600f8181548110611415575f80fd5b604080518082019091525f80825260208201525f82815260076020526040812054116118755760405162461bcd60e51b815260206004820152602260248201527f53686172656431313535546f6b656e3a204e6f6e6578697374656e7420746f6b60448201526132b760f11b6064820152608401610803565b505f908152600d6020908152604091829020825180840190935280548352600101549082015290565b6001600160a01b0383166118c45760405162461bcd60e51b815260040161080390613715565b5f82116118e35760405162461bcd60e51b81526004016108039061375f565b6040516370a0823160e01b8152336004820152849083906001600160a01b038316906370a0823190602401602060405180830381865afa158015611929573d5f5f3e3d5ffd5b505050506040513d601f19601f8201168201806040525081019061194d91906138f8565b10156119af5760405162461bcd60e51b815260206004820152602b60248201527f53686172656431313535546f6b656e3a20496e73756666696369656e7420455260448201526a4332302062616c616e636560a81b6064820152608401610803565b604051636eb1769f60e11b815233600482015230602482015283906001600160a01b0383169063dd62ed3e90604401602060405180830381865afa1580156119f9573d5f5f3e3d5ffd5b505050506040513d601f19601f82011682018060405250810190611a1d91906138f8565b1015611a815760405162461bcd60e51b815260206004820152602d60248201527f53686172656431313535546f6b656e3a20496e73756666696369656e7420455260448201526c43323020616c6c6f77616e636560981b6064820152608401610803565b6040516323b872dd60e01b81523360048201526001600160a01b038581166024830152604482018590528216906323b872dd906064016020604051808303815f875af1158015611ad3573d5f5f3e3d5ffd5b505050506040513d601f19601f82011682018060405250810190611af7919061390f565b505f805b600f54811015611b5a578380519060200120611b23600f8381548110610b2957610b29613558565b8051906020012003611b5257600f8181548110611b4257611b42613558565b905f5260205f2001549150611b5a565b600101611afb565b50805f03611b7a5760405162461bcd60e51b8152600401610803906137bc565b6001611b8630836106d4565b1015611ba45760405162461bcd60e51b815260040161080390613812565b611bc0303383600160405180602001604052805f815250611c6c565b6040516323b872dd60e01b81523360048201526001600160a01b038681166024830152604482018690528316906323b872dd906064016020604051808303815f875af1158015611c12573d5f5f3e3d5ffd5b505050506040513d601f19601f82011682018060405250810190611c36919061390f565b50505050505050565b6001600160a01b039182165f90815260036020908152604080832093909416825291909152205460ff1690565b336001600160a01b0386168114801590611c8d5750611c8b8682611c3f565b155b15611cbe5760405163711bec9160e11b81526001600160a01b03808316600483015287166024820152604401610803565b610a87868686868661226f565b6001600160a01b0383163314801590611ceb5750611ce98333611c3f565b155b15611cf65733610f75565b6109f98383836122f2565b600c6020525f908152604090208054600182018054919291611d229061356c565b80601f0160208091040260200160405190810160405280929190818152602001828054611d4e9061356c565b8015611d995780601f10611d7057610100808354040283529160200191611d99565b820191905f5260205f20905b815481529060010190602001808311611d7c57829003601f168201915b5050505050905082565b5f6001600160e01b03198216636cdb3d1360e11b1480611dd357506001600160e01b031982166303a24d0760e21b145b806106f757506106f782612358565b610c17813361238c565b5f81815260066020526040812080546060929190611e099061356c565b80601f0160208091040260200160405190810160405280929190818152602001828054611e359061356c565b8015611e805780601f10611e5757610100808354040283529160200191611e80565b820191905f5260205f20905b815481529060010190602001808311611e6357829003601f168201915b505050505090505f815111611e9d57611e98836123c5565b611ec1565b600581604051602001611eb192919061392a565b6040516020818303038152906040525b9392505050565b5f828152600660205260409020611edf828261365b565b50817f6bb7ff708619ba0610cba295a58592e0451dee2622938c8755667688daf3529b611f0b84610969565b604051611f189190612bec565b60405180910390a25050565b6001600160a01b038416611f4d57604051632bfa23e760e11b81525f6004820152602401610803565b610ab35f858585856123d4565b6001600160a01b038416611f8357604051632bfa23e760e11b81525f6004820152602401610803565b6001600160a01b038516611fab57604051626a0d4560e21b81525f6004820152602401610803565b610a2185858585856123d4565b5f611fc3838361119d565b612040575f838152602081815260408083206001600160a01b03861684529091529020805460ff19166001179055611ff83390565b6001600160a01b0316826001600160a01b0316847f2f8788117e7eff1d82e926ec794901d17c78024a50270940304540a733656f0d60405160405180910390a45060016106f7565b505f6106f7565b5f612052838361119d565b15612040575f838152602081815260408083206001600160a01b0386168085529252808320805460ff1916905551339286917ff6391f5c32d9c69d2a47ea670b442974b53935d1edc7fd64eb21e047a839171b9190a45060016106f7565b6120b8612427565b6001805460ff191690557f5db9ee0a495bf2e6ff9c91a7834c1ba4fdd244a5e8aa4e537bd38aeae4b073aa335b6040516001600160a01b03909116815260200160405180910390a1565b6001600160a01b03831661212a57604051626a0d4560e21b81525f6004820152602401610803565b6109f9835f848460405180602001604052805f8152506123d4565b6001600160a01b03841661216e57604051632bfa23e760e11b81525f6004820152602401610803565b60408051600180825260208201869052818301908152606082018590526080820190925290610a875f878484876123d4565b6121a8612472565b6001805460ff1916811790557f62e78cea01bee320cd4e420270b5ea74000d11b0c9f74754ebdbfc544b05a258336120e5565b6001600160a01b0382166122035760405162ced3e160e81b81525f6004820152602401610803565b6001600160a01b038381165f81815260036020908152604080832094871680845294825291829020805460ff191686151590811790915591519182527f17307eab39ab6107e8899845ad3d59bd9653f200f220920489ca2b5937696c31910160405180910390a3505050565b6001600160a01b03841661229857604051632bfa23e760e11b81525f6004820152602401610803565b6001600160a01b0385166122c057604051626a0d4560e21b81525f6004820152602401610803565b60408051600180825260208201869052818301908152606082018590526080820190925290611c3687878484876123d4565b6001600160a01b03831661231a57604051626a0d4560e21b81525f6004820152602401610803565b604080516001808252602082018590528183019081526060820184905260a082019092525f60808201818152919291610a21918791859085906123d4565b5f6001600160e01b03198216637965db0b60e01b14806106f757506301ffc9a760e01b6001600160e01b03198316146106f7565b612396828261119d565b6111645760405163e2517d3f60e01b81526001600160a01b038216600482015260248101839052604401610803565b60606004805461146e9061356c565b6123e0858585856124b8565b6001600160a01b03841615610a21578251339060010361241957602084810151908401516124128389898585896124cc565b5050610a87565b610a878187878787876125ed565b60015460ff166124705760405162461bcd60e51b815260206004820152601460248201527314185d5cd8589b194e881b9bdd081c185d5cd95960621b6044820152606401610803565b565b60015460ff16156124705760405162461bcd60e51b815260206004820152601060248201526f14185d5cd8589b194e881c185d5cd95960821b6044820152606401610803565b6124c0612472565b610ab3848484846126d4565b6001600160a01b0384163b15610a875760405163f23a6e6160e01b81526001600160a01b0385169063f23a6e6190612510908990899088908890889060040161394c565b6020604051808303815f875af192505050801561254a575060408051601f3d908101601f1916820190925261254791810190613990565b60015b6125b1573d808015612577576040519150601f19603f3d011682016040523d82523d5f602084013e61257c565b606091505b5080515f036125a957604051632bfa23e760e11b81526001600160a01b0386166004820152602401610803565b805160208201fd5b6001600160e01b0319811663f23a6e6160e01b14611c3657604051632bfa23e760e11b81526001600160a01b0386166004820152602401610803565b6001600160a01b0384163b15610a875760405163bc197c8160e01b81526001600160a01b0385169063bc197c819061263190899089908890889088906004016139ab565b6020604051808303815f875af192505050801561266b575060408051601f3d908101601f1916820190925261266891810190613990565b60015b612698573d808015612577576040519150601f19603f3d011682016040523d82523d5f602084013e61257c565b6001600160e01b0319811663bc197c8160e01b14611c3657604051632bfa23e760e11b81526001600160a01b0386166004820152602401610803565b6126e0848484846127bb565b6001600160a01b03841661275d575f805b83518110156127445760208181028481018201519086018201515f908152600790925260408220805491928392612729908490613a08565b9091555061273990508184613a08565b9250506001016126f1565b508060085f8282546127569190613a08565b9091555050505b6001600160a01b038316610ab3575f805b83518110156127aa5760208181028481018201519086018201515f9081526007909252604090912080548290039055919091019060010161276e565b506008805491909103905550505050565b80518251146127ea5781518151604051635b05999160e01b815260048101929092526024820152604401610803565b335f5b83518110156128f2576020818102858101820151908501909101516001600160a01b038816156128a2575f8281526002602090815260408083206001600160a01b038c1684529091529020548181101561287a576040516303dee4c560e01b81526001600160a01b038a166004820152602481018290526044810183905260648101849052608401610803565b5f8381526002602090815260408083206001600160a01b038d16845290915290209082900390555b6001600160a01b038716156128e8575f8281526002602090815260408083206001600160a01b038b168452909152812080548392906128e2908490613a08565b90915550505b50506001016127ed565b5082516001036129725760208301515f906020840151909150856001600160a01b0316876001600160a01b0316846001600160a01b03167fc3d58168c5ae7397731d063d5bbf3d657854427343f4c083240f7aacaa2d0f628585604051612963929190918252602082015260400190565b60405180910390a45050610a21565b836001600160a01b0316856001600160a01b0316826001600160a01b03167f4a39dc06d4c0dbc64b70af90fd698a233a518aa5d07e595d983b8c0526c8f7fb86866040516129c1929190613a1b565b60405180910390a45050505050565b5080546129dc9061356c565b5f825580601f106129eb575050565b601f0160209004905f5260205f2090810190610c179190612a45565b60405180608001604052805f81526020015f815260200160608152602001612a4060405180604001604052805f81526020015f81525090565b905290565b5b80821115612a59575f8155600101612a46565b5090565b80356001600160a01b0381168114612a73575f5ffd5b919050565b5f5f60408385031215612a89575f5ffd5b612a9283612a5d565b946020939093013593505050565b6001600160e01b031981168114610c17575f5ffd5b5f60208284031215612ac5575f5ffd5b8135611ec181612aa0565b634e487b7160e01b5f52604160045260245ffd5b604051601f8201601f191681016001600160401b0381118282101715612b0c57612b0c612ad0565b604052919050565b5f82601f830112612b23575f5ffd5b8135602083015f5f6001600160401b03841115612b4257612b42612ad0565b50601f8301601f1916602001612b5781612ae4565b915050828152858383011115612b6b575f5ffd5b828260208301375f92810160200192909252509392505050565b5f60208284031215612b95575f5ffd5b81356001600160401b03811115612baa575f5ffd5b612bb684828501612b14565b949350505050565b5f81518084528060208401602086015e5f602082860101526020601f19601f83011685010191505092915050565b602081525f611ec16020830184612bbe565b5f60208284031215612c0e575f5ffd5b5035919050565b5f5f60408385031215612c26575f5ffd5b8235915060208301356001600160401b03811115612c42575f5ffd5b612c4e85828601612b14565b9150509250929050565b5f6001600160401b03821115612c7057612c70612ad0565b5060051b60200190565b5f82601f830112612c89575f5ffd5b8135612c9c612c9782612c58565b612ae4565b8082825260208201915060208360051b860101925085831115612cbd575f5ffd5b602085015b83811015612cda578035835260209283019201612cc2565b5095945050505050565b5f5f5f5f60808587031215612cf7575f5ffd5b612d0085612a5d565b935060208501356001600160401b03811115612d1a575f5ffd5b612d2687828801612c7a565b93505060408501356001600160401b03811115612d41575f5ffd5b612d4d87828801612c7a565b92505060608501356001600160401b03811115612d68575f5ffd5b612d7487828801612b14565b91505092959194509250565b5f5f5f5f5f60a08688031215612d94575f5ffd5b612d9d86612a5d565b9450612dab60208701612a5d565b935060408601356001600160401b03811115612dc5575f5ffd5b612dd188828901612c7a565b93505060608601356001600160401b03811115612dec575f5ffd5b612df888828901612c7a565b92505060808601356001600160401b03811115612e13575f5ffd5b612e1f88828901612b14565b9150509295509295909350565b5f5f60408385031215612e3d575f5ffd5b82359150612e4d60208401612a5d565b90509250929050565b5f5f5f60608486031215612e68575f5ffd5b612e7184612a5d565b925060208401356001600160401b03811115612e8b575f5ffd5b612e9786828701612b14565b93969395505050506040919091013590565b5f5f60408385031215612eba575f5ffd5b82356001600160401b03811115612ecf575f5ffd5b8301601f81018513612edf575f5ffd5b8035612eed612c9782612c58565b8082825260208201915060208360051b850101925087831115612f0e575f5ffd5b6020840193505b82841015612f3757612f2684612a5d565b825260209384019390910190612f15565b945050505060208301356001600160401b03811115612f54575f5ffd5b612c4e85828601612c7a565b5f8151808452602084019350602083015f5b82811015612f90578151865260209586019590910190600101612f72565b5093949350505050565b602081525f611ec16020830184612f60565b805182525f602082015160406020850152612bb66040850182612bbe565b602081525f611ec16020830184612fac565b5f602082016020835280845180835260408501915060408160051b8601019250602086015f5b8281101561303357603f1987860301845261301e858351612fac565b94506020938401939190910190600101613002565b50929695505050505050565b5f5f5f60608486031215613051575f5ffd5b61305a84612a5d565b925060208401356001600160401b03811115613074575f5ffd5b61308086828701612c7a565b92505060408401356001600160401b0381111561309b575f5ffd5b6130a786828701612c7a565b9150509250925092565b5f5f5f5f608085870312156130c4575f5ffd5b6130cd85612a5d565b9350602085013592506040850135915060608501356001600160401b03811115612d68575f5ffd5b8015158114610c17575f5ffd5b5f5f60408385031215613113575f5ffd5b61311c83612a5d565b9150602083013561312c816130f5565b809150509250929050565b5f602082016020835280845180835260408501915060408160051b8601019250602086015f5b8281101561303357603f1987860301845281518051865260208101516020870152604081015160a0604088015261319760a0880182612bbe565b9050606082015191506131b7606088018380518252602090810151910152565b955050602093840193919091019060010161315d565b5f5f83601f8401126131dd575f5ffd5b5081356001600160401b038111156131f3575f5ffd5b6020830191508360208260051b850101111561320d575f5ffd5b9250929050565b5f5f83601f840112613224575f5ffd5b5081356001600160401b0381111561323a575f5ffd5b60208301915083602082850101111561320d575f5ffd5b5f5f5f5f5f5f5f5f60a0898b031215613268575f5ffd5b61327189612a5d565b975061327f60208a01612a5d565b965060408901356001600160401b03811115613299575f5ffd5b6132a58b828c016131cd565b90975095505060608901356001600160401b038111156132c3575f5ffd5b6132cf8b828c016131cd565b90955093505060808901356001600160401b038111156132ed575f5ffd5b6132f98b828c01613214565b999c989b5096995094979396929594505050565b5f5f5f5f60808587031215613320575f5ffd5b84356001600160401b03811115613335575f5ffd5b61334187828801612b14565b945050602085013592506040850135915060608501356001600160401b03811115612d68575f5ffd5b602080825282518282018190525f918401906040840190835b818110156133b6576133a083855180518252602090810151910152565b6020939093019260409290920191600101613383565b509095945050505050565b8151815260208083015190820152604081016106f7565b5f5f5f5f608085870312156133eb575f5ffd5b6133f485612a5d565b935061340260208601612a5d565b92506040850135915060608501356001600160401b03811115612d68575f5ffd5b5f5f60408385031215613434575f5ffd5b61343d83612a5d565b9150612e4d60208401612a5d565b5f5f5f5f5f5f60a08789031215613460575f5ffd5b61346987612a5d565b955061347760208801612a5d565b9450604087013593506060870135925060808701356001600160401b0381111561349f575f5ffd5b6134ab89828a01613214565b979a9699509497509295939492505050565b5f5f5f5f5f60a086880312156134d1575f5ffd5b6134da86612a5d565b94506134e860208701612a5d565b9350604086013592506060860135915060808601356001600160401b03811115612e13575f5ffd5b5f5f5f60608486031215613522575f5ffd5b61352b84612a5d565b95602085013595506040909401359392505050565b828152604060208201525f612bb66040830184612bbe565b634e487b7160e01b5f52603260045260245ffd5b600181811c9082168061358057607f821691505b602082108103610f4857634e487b7160e01b5f52602260045260245ffd5b5f81546135aa8161356c565b6001821680156135c157600181146135d657613603565b60ff1983168652811515820286019350613603565b845f5260205f205f5b838110156135fb578154888201526001909101906020016135df565b505081860193505b50505092915050565b5f611ec1828461359e565b601f8211156109f957805f5260205f20601f840160051c8101602085101561363c5750805b601f840160051c820191505b81811015610a21575f8155600101613648565b81516001600160401b0381111561367457613674612ad0565b61368881613682845461356c565b84613617565b6020601f8211600181146136ba575f83156136a35750848201515b5f19600385901b1c1916600184901b178455610a21565b5f84815260208120601f198516915b828110156136e957878501518255602094850194600190920191016136c9565b508482101561370657868401515f19600387901b60f8161c191681555b50505050600190811b01905550565b6020808252602a908201527f53686172656431313535546f6b656e3a20496e76616c696420726563697069656040820152696e74206164647265737360b01b606082015260800190565b60208082526037908201527f53686172656431313535546f6b656e3a205472616e7366657220616d6f756e7460408201527f206d7573742062652067726561746572207468616e2030000000000000000000606082015260800190565b60208082526036908201527f53686172656431313535546f6b656e3a204e46542077697468207370656369666040820152751a59590815549248191bd95cc81b9bdd08195e1a5cdd60521b606082015260800190565b60208082526029908201527f53686172656431313535546f6b656e3a20496e73756666696369656e74204e46604082015268542062616c616e636560b81b606082015260800190565b6020808252602a908201527f53686172656431313535546f6b656e3a20436f6c6c656374696f6e20646f6573604082015269081b9bdd08195e1a5cdd60b21b606082015260800190565b634e487b7160e01b5f52601160045260245ffd5b818103818111156106f7576106f76138a5565b634e487b7160e01b5f52603160045260245ffd5b5f600182016138f1576138f16138a5565b5060010190565b5f60208284031215613908575f5ffd5b5051919050565b5f6020828403121561391f575f5ffd5b8151611ec1816130f5565b5f613935828561359e565b83518060208601835e5f9101908152949350505050565b6001600160a01b03868116825285166020820152604081018490526060810183905260a0608082018190525f9061398590830184612bbe565b979650505050505050565b5f602082840312156139a0575f5ffd5b8151611ec181612aa0565b6001600160a01b0386811682528516602082015260a0604082018190525f906139d690830186612f60565b82810360608401526139e88186612f60565b905082810360808401526139fc8185612bbe565b98975050505050505050565b808201808211156106f7576106f76138a5565b604081525f613a2d6040830185612f60565b8281036020840152613a3f8185612f60565b9594505050505056fe9f2df0fed2c77648de5860a4cc508cd0818c85b8b8a1ab4ceeef8d981c8956a6a2646970667358221220768fdee0ebfeda8ebdb58018e320d6033180ee76e42a89c58e5682e2f30ef5b964736f6c634300081e0033",
			"opcodes": "PUSH1 0xA0 PUSH1 0x40 MSTORE PUSH0 PUSH1 0x80 SWAP1 DUP2 MSTORE PUSH1 0x5 SWAP1 PUSH2 0x17 SWAP1 DUP3 PUSH2 0x2E3 JUMP JUMPDEST POP CALLVALUE DUP1 ISZERO PUSH2 0x23 JUMPI PUSH0 PUSH0 REVERT JUMPDEST POP PUSH1 0x40 DUP1 MLOAD PUSH1 0x20 DUP2 ADD SWAP1 SWAP2 MSTORE PUSH0 DUP2 MSTORE PUSH1 0x1 DUP1 SLOAD PUSH1 0xFF NOT AND SWAP1 SSTORE PUSH2 0x45 DUP2 PUSH2 0xFA JUMP JUMPDEST POP PUSH2 0x50 PUSH0 CALLER PUSH2 0x10A JUMP JUMPDEST POP PUSH2 0x7B PUSH32 0x9F2DF0FED2C77648DE5860A4CC508CD0818C85B8B8A1AB4CEEEF8D981C8956A6 CALLER PUSH2 0x10A JUMP JUMPDEST POP PUSH2 0xA6 PUSH32 0xE926D122B799DCBE5C2ECCDF60AE0AEFBB1A4BC75A7848BB07BEFECF8C775F5C CALLER PUSH2 0x10A JUMP JUMPDEST POP PUSH1 0x40 DUP1 MLOAD DUP1 DUP3 ADD SWAP1 SWAP2 MSTORE PUSH1 0x13 DUP2 MSTORE PUSH32 0x436172626F6E2043726564697420417373657400000000000000000000000000 PUSH1 0x20 DUP3 ADD MSTORE PUSH1 0xB SWAP1 PUSH2 0xE8 SWAP1 DUP3 PUSH2 0x2E3 JUMP JUMPDEST POP PUSH2 0xF5 ADDRESS DUP1 PUSH1 0x1 PUSH2 0x1B3 JUMP JUMPDEST PUSH2 0x39D JUMP JUMPDEST PUSH1 0x4 PUSH2 0x106 DUP3 DUP3 PUSH2 0x2E3 JUMP JUMPDEST POP POP JUMP JUMPDEST PUSH0 DUP3 DUP2 MSTORE PUSH1 0x20 DUP2 DUP2 MSTORE PUSH1 0x40 DUP1 DUP4 KECCAK256 PUSH1 0x1 PUSH1 0x1 PUSH1 0xA0 SHL SUB DUP6 AND DUP5 MSTORE SWAP1 SWAP2 MSTORE DUP2 KECCAK256 SLOAD PUSH1 0xFF AND PUSH2 0x1AA JUMPI PUSH0 DUP4 DUP2 MSTORE PUSH1 0x20 DUP2 DUP2 MSTORE PUSH1 0x40 DUP1 DUP4 KECCAK256 PUSH1 0x1 PUSH1 0x1 PUSH1 0xA0 SHL SUB DUP7 AND DUP5 MSTORE SWAP1 SWAP2 MSTORE SWAP1 KECCAK256 DUP1 SLOAD PUSH1 0xFF NOT AND PUSH1 0x1 OR SWAP1 SSTORE PUSH2 0x162 CALLER SWAP1 JUMP JUMPDEST PUSH1 0x1 PUSH1 0x1 PUSH1 0xA0 SHL SUB AND DUP3 PUSH1 0x1 PUSH1 0x1 PUSH1 0xA0 SHL SUB AND DUP5 PUSH32 0x2F8788117E7EFF1D82E926EC794901D17C78024A50270940304540A733656F0D PUSH1 0x40 MLOAD PUSH1 0x40 MLOAD DUP1 SWAP2 SUB SWAP1 LOG4 POP PUSH1 0x1 PUSH2 0x1AD JUMP JUMPDEST POP PUSH0 JUMPDEST SWAP3 SWAP2 POP POP JUMP JUMPDEST PUSH1 0x1 PUSH1 0x1 PUSH1 0xA0 SHL SUB DUP3 AND PUSH2 0x1DF JUMPI PUSH1 0x40 MLOAD PUSH3 0xCED3E1 PUSH1 0xE8 SHL DUP2 MSTORE PUSH0 PUSH1 0x4 DUP3 ADD MSTORE PUSH1 0x24 ADD PUSH1 0x40 MLOAD DUP1 SWAP2 SUB SWAP1 REVERT JUMPDEST PUSH1 0x1 PUSH1 0x1 PUSH1 0xA0 SHL SUB DUP4 DUP2 AND PUSH0 DUP2 DUP2 MSTORE PUSH1 0x3 PUSH1 0x20 SWAP1 DUP2 MSTORE PUSH1 0x40 DUP1 DUP4 KECCAK256 SWAP5 DUP8 AND DUP1 DUP5 MSTORE SWAP5 DUP3 MSTORE SWAP2 DUP3 SWAP1 KECCAK256 DUP1 SLOAD PUSH1 0xFF NOT AND DUP7 ISZERO ISZERO SWAP1 DUP2 OR SWAP1 SWAP2 SSTORE SWAP2 MLOAD SWAP2 DUP3 MSTORE PUSH32 0x17307EAB39AB6107E8899845AD3D59BD9653F200F220920489CA2B5937696C31 SWAP2 ADD PUSH1 0x40 MLOAD DUP1 SWAP2 SUB SWAP1 LOG3 POP POP POP JUMP JUMPDEST PUSH4 0x4E487B71 PUSH1 0xE0 SHL PUSH0 MSTORE PUSH1 0x41 PUSH1 0x4 MSTORE PUSH1 0x24 PUSH0 REVERT JUMPDEST PUSH1 0x1 DUP2 DUP2 SHR SWAP1 DUP3 AND DUP1 PUSH2 0x273 JUMPI PUSH1 0x7F DUP3 AND SWAP2 POP JUMPDEST PUSH1 0x20 DUP3 LT DUP2 SUB PUSH2 0x291 JUMPI PUSH4 0x4E487B71 PUSH1 0xE0 SHL PUSH0 MSTORE PUSH1 0x22 PUSH1 0x4 MSTORE PUSH1 0x24 PUSH0 REVERT JUMPDEST POP SWAP2 SWAP1 POP JUMP JUMPDEST PUSH1 0x1F DUP3 GT ISZERO PUSH2 0x2DE JUMPI DUP1 PUSH0 MSTORE PUSH1 0x20 PUSH0 KECCAK256 PUSH1 0x1F DUP5 ADD PUSH1 0x5 SHR DUP2 ADD PUSH1 0x20 DUP6 LT ISZERO PUSH2 0x2BC JUMPI POP DUP1 JUMPDEST PUSH1 0x1F DUP5 ADD PUSH1 0x5 SHR DUP3 ADD SWAP2 POP JUMPDEST DUP2 DUP2 LT ISZERO PUSH2 0x2DB JUMPI PUSH0 DUP2 SSTORE PUSH1 0x1 ADD PUSH2 0x2C8 JUMP JUMPDEST POP POP JUMPDEST POP POP POP JUMP JUMPDEST DUP2 MLOAD PUSH1 0x1 PUSH1 0x1 PUSH1 0x40 SHL SUB DUP2 GT ISZERO PUSH2 0x2FC JUMPI PUSH2 0x2FC PUSH2 0x24B JUMP JUMPDEST PUSH2 0x310 DUP2 PUSH2 0x30A DUP5 SLOAD PUSH2 0x25F JUMP JUMPDEST DUP5 PUSH2 0x297 JUMP JUMPDEST PUSH1 0x20 PUSH1 0x1F DUP3 GT PUSH1 0x1 DUP2 EQ PUSH2 0x342 JUMPI PUSH0 DUP4 ISZERO PUSH2 0x32B JUMPI POP DUP5 DUP3 ADD MLOAD JUMPDEST PUSH0 NOT PUSH1 0x3 DUP6 SWAP1 SHL SHR NOT AND PUSH1 0x1 DUP5 SWAP1 SHL OR DUP5 SSTORE PUSH2 0x2DB JUMP JUMPDEST PUSH0 DUP5 DUP2 MSTORE PUSH1 0x20 DUP2 KECCAK256 PUSH1 0x1F NOT DUP6 AND SWAP2 JUMPDEST DUP3 DUP2 LT ISZERO PUSH2 0x371 JUMPI DUP8 DUP6 ADD MLOAD DUP3 SSTORE PUSH1 0x20 SWAP5 DUP6 ADD SWAP5 PUSH1 0x1 SWAP1 SWAP3 ADD SWAP2 ADD PUSH2 0x351 JUMP JUMPDEST POP DUP5 DUP3 LT ISZERO PUSH2 0x38E JUMPI DUP7 DUP5 ADD MLOAD PUSH0 NOT PUSH1 0x3 DUP8 SWAP1 SHL PUSH1 0xF8 AND SHR NOT AND DUP2 SSTORE JUMPDEST POP POP POP POP PUSH1 0x1 SWAP1 DUP2 SHL ADD SWAP1 SSTORE POP JUMP JUMPDEST PUSH2 0x3A9E DUP1 PUSH2 0x3AA PUSH0 CODECOPY PUSH0 RETURN INVALID PUSH1 0x80 PUSH1 0x40 MSTORE CALLVALUE DUP1 ISZERO PUSH2 0xF JUMPI PUSH0 PUSH0 REVERT JUMPDEST POP PUSH1 0x4 CALLDATASIZE LT PUSH2 0x28B JUMPI PUSH0 CALLDATALOAD PUSH1 0xE0 SHR DUP1 PUSH4 0x8456CB59 GT PUSH2 0x161 JUMPI DUP1 PUSH4 0xC71D0EA3 GT PUSH2 0xCA JUMPI DUP1 PUSH4 0xE22C4515 GT PUSH2 0x84 JUMPI DUP1 PUSH4 0xE22C4515 EQ PUSH2 0x647 JUMPI DUP1 PUSH4 0xE985E9C5 EQ PUSH2 0x65A JUMPI DUP1 PUSH4 0xF23A6E61 EQ PUSH2 0x66D JUMPI DUP1 PUSH4 0xF242432A EQ PUSH2 0x68D JUMPI DUP1 PUSH4 0xF5298ACA EQ PUSH2 0x6A0 JUMPI DUP1 PUSH4 0xFDBDA0EC EQ PUSH2 0x6B3 JUMPI PUSH0 PUSH0 REVERT JUMPDEST DUP1 PUSH4 0xC71D0EA3 EQ PUSH2 0x5B1 JUMPI DUP1 PUSH4 0xCAFF99CE EQ PUSH2 0x5C6 JUMPI DUP1 PUSH4 0xD5391393 EQ PUSH2 0x5ED JUMPI DUP1 PUSH4 0xD547741F EQ PUSH2 0x601 JUMPI DUP1 PUSH4 0xD58778D6 EQ PUSH2 0x614 JUMPI DUP1 PUSH4 0xDF6F5B20 EQ PUSH2 0x627 JUMPI PUSH0 PUSH0 REVERT JUMPDEST DUP1 PUSH4 0xA7098728 GT PUSH2 0x11B JUMPI DUP1 PUSH4 0xA7098728 EQ PUSH2 0x509 JUMPI DUP1 PUSH4 0xA9B566A3 EQ PUSH2 0x51E JUMPI DUP1 PUSH4 0xB21FA654 EQ PUSH2 0x531 JUMPI DUP1 PUSH4 0xBC197C81 EQ PUSH2 0x544 JUMPI DUP1 PUSH4 0xBD85B039 EQ PUSH2 0x57F JUMPI DUP1 PUSH4 0xBE7CF750 EQ PUSH2 0x59E JUMPI PUSH0 PUSH0 REVERT JUMPDEST DUP1 PUSH4 0x8456CB59 EQ PUSH2 0x4AE JUMPI DUP1 PUSH4 0x91D14854 EQ PUSH2 0x4B6 JUMPI DUP1 PUSH4 0x9DD6A449 EQ PUSH2 0x4C9 JUMPI DUP1 PUSH4 0xA217FDDF EQ PUSH2 0x4DC JUMPI DUP1 PUSH4 0xA22CB465 EQ PUSH2 0x4E3 JUMPI DUP1 PUSH4 0xA5E2361D EQ PUSH2 0x4F6 JUMPI PUSH0 PUSH0 REVERT JUMPDEST DUP1 PUSH4 0x2F2FF15D GT PUSH2 0x203 JUMPI DUP1 PUSH4 0x5A1F3C28 GT PUSH2 0x1BD JUMPI DUP1 PUSH4 0x5A1F3C28 EQ PUSH2 0x435 JUMPI DUP1 PUSH4 0x5C975ABB EQ PUSH2 0x455 JUMPI DUP1 PUSH4 0x6804A958 EQ PUSH2 0x460 JUMPI DUP1 PUSH4 0x6B20C454 EQ PUSH2 0x475 JUMPI DUP1 PUSH4 0x70164F0E EQ PUSH2 0x488 JUMPI DUP1 PUSH4 0x731133E9 EQ PUSH2 0x49B JUMPI PUSH0 PUSH0 REVERT JUMPDEST DUP1 PUSH4 0x2F2FF15D EQ PUSH2 0x3B3 JUMPI DUP1 PUSH4 0x3038BFDF EQ PUSH2 0x3C6 JUMPI DUP1 PUSH4 0x36568ABE EQ PUSH2 0x3D9 JUMPI DUP1 PUSH4 0x3F4BA83A EQ PUSH2 0x3EC JUMPI DUP1 PUSH4 0x4E1273F4 EQ PUSH2 0x3F4 JUMPI DUP1 PUSH4 0x4F558E79 EQ PUSH2 0x414 JUMPI PUSH0 PUSH0 REVERT JUMPDEST DUP1 PUSH4 0x162094C4 GT PUSH2 0x254 JUMPI DUP1 PUSH4 0x162094C4 EQ PUSH2 0x315 JUMPI DUP1 PUSH4 0x18160DDD EQ PUSH2 0x328 JUMPI DUP1 PUSH4 0x1F7FDFFA EQ PUSH2 0x330 JUMPI DUP1 PUSH4 0x248A9CA3 EQ PUSH2 0x343 JUMPI DUP1 PUSH4 0x258672AA EQ PUSH2 0x365 JUMPI DUP1 PUSH4 0x2EB2C2D6 EQ PUSH2 0x3A0 JUMPI PUSH0 PUSH0 REVERT JUMPDEST DUP1 PUSH3 0xFDD58E EQ PUSH2 0x28F JUMPI DUP1 PUSH4 0x1FFC9A7 EQ PUSH2 0x2B5 JUMPI DUP1 PUSH4 0x59DFE13 EQ PUSH2 0x2D8 JUMPI DUP1 PUSH4 0x6FDDE03 EQ PUSH2 0x2ED JUMPI DUP1 PUSH4 0xE89341C EQ PUSH2 0x302 JUMPI JUMPDEST PUSH0 PUSH0 REVERT JUMPDEST PUSH2 0x2A2 PUSH2 0x29D CALLDATASIZE PUSH1 0x4 PUSH2 0x2A78 JUMP JUMPDEST PUSH2 0x6D4 JUMP JUMPDEST PUSH1 0x40 MLOAD SWAP1 DUP2 MSTORE PUSH1 0x20 ADD JUMPDEST PUSH1 0x40 MLOAD DUP1 SWAP2 SUB SWAP1 RETURN JUMPDEST PUSH2 0x2C8 PUSH2 0x2C3 CALLDATASIZE PUSH1 0x4 PUSH2 0x2AB5 JUMP JUMPDEST PUSH2 0x6FD JUMP JUMPDEST PUSH1 0x40 MLOAD SWAP1 ISZERO ISZERO DUP2 MSTORE PUSH1 0x20 ADD PUSH2 0x2AC JUMP JUMPDEST PUSH2 0x2EB PUSH2 0x2E6 CALLDATASIZE PUSH1 0x4 PUSH2 0x2B85 JUMP JUMPDEST PUSH2 0x721 JUMP JUMPDEST STOP JUMPDEST PUSH2 0x2F5 PUSH2 0x8DD JUMP JUMPDEST PUSH1 0x40 MLOAD PUSH2 0x2AC SWAP2 SWAP1 PUSH2 0x2BEC JUMP JUMPDEST PUSH2 0x2F5 PUSH2 0x310 CALLDATASIZE PUSH1 0x4 PUSH2 0x2BFE JUMP JUMPDEST PUSH2 0x969 JUMP JUMPDEST PUSH2 0x2EB PUSH2 0x323 CALLDATASIZE PUSH1 0x4 PUSH2 0x2C15 JUMP JUMPDEST PUSH2 0x974 JUMP JUMPDEST PUSH1 0x8 SLOAD PUSH2 0x2A2 JUMP JUMPDEST PUSH2 0x2EB PUSH2 0x33E CALLDATASIZE PUSH1 0x4 PUSH2 0x2CE4 JUMP JUMPDEST PUSH2 0x9FE JUMP JUMPDEST PUSH2 0x2A2 PUSH2 0x351 CALLDATASIZE PUSH1 0x4 PUSH2 0x2BFE JUMP JUMPDEST PUSH0 SWAP1 DUP2 MSTORE PUSH1 0x20 DUP2 SWAP1 MSTORE PUSH1 0x40 SWAP1 KECCAK256 PUSH1 0x1 ADD SLOAD SWAP1 JUMP JUMPDEST PUSH2 0x38B PUSH2 0x373 CALLDATASIZE PUSH1 0x4 PUSH2 0x2BFE JUMP JUMPDEST PUSH1 0xD PUSH1 0x20 MSTORE PUSH0 SWAP1 DUP2 MSTORE PUSH1 0x40 SWAP1 KECCAK256 DUP1 SLOAD PUSH1 0x1 SWAP1 SWAP2 ADD SLOAD DUP3 JUMP JUMPDEST PUSH1 0x40 DUP1 MLOAD SWAP3 DUP4 MSTORE PUSH1 0x20 DUP4 ADD SWAP2 SWAP1 SWAP2 MSTORE ADD PUSH2 0x2AC JUMP JUMPDEST PUSH2 0x2EB PUSH2 0x3AE CALLDATASIZE PUSH1 0x4 PUSH2 0x2D80 JUMP JUMPDEST PUSH2 0xA28 JUMP JUMPDEST PUSH2 0x2EB PUSH2 0x3C1 CALLDATASIZE PUSH1 0x4 PUSH2 0x2E2C JUMP JUMPDEST PUSH2 0xA8F JUMP JUMPDEST PUSH2 0x2EB PUSH2 0x3D4 CALLDATASIZE PUSH1 0x4 PUSH2 0x2E56 JUMP JUMPDEST PUSH2 0xAB9 JUMP JUMPDEST PUSH2 0x2EB PUSH2 0x3E7 CALLDATASIZE PUSH1 0x4 PUSH2 0x2E2C JUMP JUMPDEST PUSH2 0xBD2 JUMP JUMPDEST PUSH2 0x2EB PUSH2 0xC05 JUMP JUMPDEST PUSH2 0x407 PUSH2 0x402 CALLDATASIZE PUSH1 0x4 PUSH2 0x2EA9 JUMP JUMPDEST PUSH2 0xC1A JUMP JUMPDEST PUSH1 0x40 MLOAD PUSH2 0x2AC SWAP2 SWAP1 PUSH2 0x2F9A JUMP JUMPDEST PUSH2 0x2C8 PUSH2 0x422 CALLDATASIZE PUSH1 0x4 PUSH2 0x2BFE JUMP JUMPDEST PUSH0 SWAP1 DUP2 MSTORE PUSH1 0x7 PUSH1 0x20 MSTORE PUSH1 0x40 SWAP1 KECCAK256 SLOAD ISZERO ISZERO SWAP1 JUMP JUMPDEST PUSH2 0x448 PUSH2 0x443 CALLDATASIZE PUSH1 0x4 PUSH2 0x2BFE JUMP JUMPDEST PUSH2 0xCE4 JUMP JUMPDEST PUSH1 0x40 MLOAD PUSH2 0x2AC SWAP2 SWAP1 PUSH2 0x2FCA JUMP JUMPDEST PUSH1 0x1 SLOAD PUSH1 0xFF AND PUSH2 0x2C8 JUMP JUMPDEST PUSH2 0x468 PUSH2 0xDE0 JUMP JUMPDEST PUSH1 0x40 MLOAD PUSH2 0x2AC SWAP2 SWAP1 PUSH2 0x2FDC JUMP JUMPDEST PUSH2 0x2EB PUSH2 0x483 CALLDATASIZE PUSH1 0x4 PUSH2 0x303F JUMP JUMPDEST PUSH2 0xF4E JUMP JUMPDEST PUSH2 0x2EB PUSH2 0x496 CALLDATASIZE PUSH1 0x4 PUSH2 0x2B85 JUMP JUMPDEST PUSH2 0xFAD JUMP JUMPDEST PUSH2 0x2EB PUSH2 0x4A9 CALLDATASIZE PUSH1 0x4 PUSH2 0x30B1 JUMP JUMPDEST PUSH2 0x1168 JUMP JUMPDEST PUSH2 0x2EB PUSH2 0x118B JUMP JUMPDEST PUSH2 0x2C8 PUSH2 0x4C4 CALLDATASIZE PUSH1 0x4 PUSH2 0x2E2C JUMP JUMPDEST PUSH2 0x119D JUMP JUMPDEST PUSH2 0x2EB PUSH2 0x4D7 CALLDATASIZE PUSH1 0x4 PUSH2 0x3102 JUMP JUMPDEST PUSH2 0x11C5 JUMP JUMPDEST PUSH2 0x2A2 PUSH0 DUP2 JUMP JUMPDEST PUSH2 0x2EB PUSH2 0x4F1 CALLDATASIZE PUSH1 0x4 PUSH2 0x3102 JUMP JUMPDEST PUSH2 0x127F JUMP JUMPDEST PUSH2 0x2EB PUSH2 0x504 CALLDATASIZE PUSH1 0x4 PUSH2 0x2E2C JUMP JUMPDEST PUSH2 0x128A JUMP JUMPDEST PUSH2 0x511 PUSH2 0x1294 JUMP JUMPDEST PUSH1 0x40 MLOAD PUSH2 0x2AC SWAP2 SWAP1 PUSH2 0x3137 JUMP JUMPDEST PUSH2 0x2A2 PUSH2 0x52C CALLDATASIZE PUSH1 0x4 PUSH2 0x2BFE JUMP JUMPDEST PUSH2 0x1406 JUMP JUMPDEST PUSH2 0x2F5 PUSH2 0x53F CALLDATASIZE PUSH1 0x4 PUSH2 0x2BFE JUMP JUMPDEST PUSH2 0x1425 JUMP JUMPDEST PUSH2 0x566 PUSH2 0x552 CALLDATASIZE PUSH1 0x4 PUSH2 0x3251 JUMP JUMPDEST PUSH4 0xBC197C81 PUSH1 0xE0 SHL SWAP9 SWAP8 POP POP POP POP POP POP POP POP JUMP JUMPDEST PUSH1 0x40 MLOAD PUSH1 0x1 PUSH1 0x1 PUSH1 0xE0 SHL SUB NOT SWAP1 SWAP2 AND DUP2 MSTORE PUSH1 0x20 ADD PUSH2 0x2AC JUMP JUMPDEST PUSH2 0x2A2 PUSH2 0x58D CALLDATASIZE PUSH1 0x4 PUSH2 0x2BFE JUMP JUMPDEST PUSH0 SWAP1 DUP2 MSTORE PUSH1 0x7 PUSH1 0x20 MSTORE PUSH1 0x40 SWAP1 KECCAK256 SLOAD SWAP1 JUMP JUMPDEST PUSH2 0x2EB PUSH2 0x5AC CALLDATASIZE PUSH1 0x4 PUSH2 0x330D JUMP JUMPDEST PUSH2 0x14F1 JUMP JUMPDEST PUSH2 0x5B9 PUSH2 0x16E8 JUMP JUMPDEST PUSH1 0x40 MLOAD PUSH2 0x2AC SWAP2 SWAP1 PUSH2 0x336A JUMP JUMPDEST PUSH2 0x2A2 PUSH32 0xE926D122B799DCBE5C2ECCDF60AE0AEFBB1A4BC75A7848BB07BEFECF8C775F5C DUP2 JUMP JUMPDEST PUSH2 0x2A2 PUSH0 MLOAD PUSH1 0x20 PUSH2 0x3A49 PUSH0 CODECOPY PUSH0 MLOAD SWAP1 PUSH0 MSTORE DUP2 JUMP JUMPDEST PUSH2 0x2EB PUSH2 0x60F CALLDATASIZE PUSH1 0x4 PUSH2 0x2E2C JUMP JUMPDEST PUSH2 0x17C9 JUMP JUMPDEST PUSH2 0x2A2 PUSH2 0x622 CALLDATASIZE PUSH1 0x4 PUSH2 0x2BFE JUMP JUMPDEST PUSH2 0x17ED JUMP JUMPDEST PUSH2 0x63A PUSH2 0x635 CALLDATASIZE PUSH1 0x4 PUSH2 0x2BFE JUMP JUMPDEST PUSH2 0x17FC JUMP JUMPDEST PUSH1 0x40 MLOAD PUSH2 0x2AC SWAP2 SWAP1 PUSH2 0x33C1 JUMP JUMPDEST PUSH2 0x2EB PUSH2 0x655 CALLDATASIZE PUSH1 0x4 PUSH2 0x33D8 JUMP JUMPDEST PUSH2 0x189E JUMP JUMPDEST PUSH2 0x2C8 PUSH2 0x668 CALLDATASIZE PUSH1 0x4 PUSH2 0x3423 JUMP JUMPDEST PUSH2 0x1C3F JUMP JUMPDEST PUSH2 0x566 PUSH2 0x67B CALLDATASIZE PUSH1 0x4 PUSH2 0x344B JUMP JUMPDEST PUSH4 0xF23A6E61 PUSH1 0xE0 SHL SWAP7 SWAP6 POP POP POP POP POP POP JUMP JUMPDEST PUSH2 0x2EB PUSH2 0x69B CALLDATASIZE PUSH1 0x4 PUSH2 0x34BD JUMP JUMPDEST PUSH2 0x1C6C JUMP JUMPDEST PUSH2 0x2EB PUSH2 0x6AE CALLDATASIZE PUSH1 0x4 PUSH2 0x3510 JUMP JUMPDEST PUSH2 0x1CCB JUMP JUMPDEST PUSH2 0x6C6 PUSH2 0x6C1 CALLDATASIZE PUSH1 0x4 PUSH2 0x2BFE JUMP JUMPDEST PUSH2 0x1D01 JUMP JUMPDEST PUSH1 0x40 MLOAD PUSH2 0x2AC SWAP3 SWAP2 SWAP1 PUSH2 0x3540 JUMP JUMPDEST PUSH0 DUP2 DUP2 MSTORE PUSH1 0x2 PUSH1 0x20 SWAP1 DUP2 MSTORE PUSH1 0x40 DUP1 DUP4 KECCAK256 PUSH1 0x1 PUSH1 0x1 PUSH1 0xA0 SHL SUB DUP7 AND DUP5 MSTORE SWAP1 SWAP2 MSTORE SWAP1 KECCAK256 SLOAD JUMPDEST SWAP3 SWAP2 POP POP JUMP JUMPDEST PUSH0 PUSH1 0x1 PUSH1 0x1 PUSH1 0xE0 SHL SUB NOT DUP3 AND PUSH4 0x2711897 PUSH1 0xE5 SHL EQ DUP1 PUSH2 0x6F7 JUMPI POP PUSH2 0x6F7 DUP3 PUSH2 0x1DA3 JUMP JUMPDEST PUSH32 0xE926D122B799DCBE5C2ECCDF60AE0AEFBB1A4BC75A7848BB07BEFECF8C775F5C PUSH2 0x74B DUP2 PUSH2 0x1DE2 JUMP JUMPDEST PUSH0 JUMPDEST PUSH1 0xE SLOAD DUP2 LT ISZERO PUSH2 0x815 JUMPI PUSH0 PUSH1 0xE DUP3 DUP2 SLOAD DUP2 LT PUSH2 0x76B JUMPI PUSH2 0x76B PUSH2 0x3558 JUMP JUMPDEST SWAP1 PUSH0 MSTORE PUSH1 0x20 PUSH0 KECCAK256 ADD SLOAD SWAP1 POP DUP4 DUP1 MLOAD SWAP1 PUSH1 0x20 ADD KECCAK256 PUSH1 0xC PUSH0 DUP4 DUP2 MSTORE PUSH1 0x20 ADD SWAP1 DUP2 MSTORE PUSH1 0x20 ADD PUSH0 KECCAK256 PUSH1 0x1 ADD PUSH1 0x40 MLOAD PUSH2 0x79F SWAP2 SWAP1 PUSH2 0x360C JUMP JUMPDEST PUSH1 0x40 MLOAD DUP1 SWAP2 SUB SWAP1 KECCAK256 SUB PUSH2 0x80C JUMPI PUSH1 0x40 MLOAD PUSH3 0x461BCD PUSH1 0xE5 SHL DUP2 MSTORE PUSH1 0x20 PUSH1 0x4 DUP3 ADD MSTORE PUSH1 0x2A PUSH1 0x24 DUP3 ADD MSTORE PUSH32 0x53686172656431313535546F6B656E3A204475706C6963617465207375666669 PUSH1 0x44 DUP3 ADD MSTORE PUSH10 0x1E0819195D1958DD1959 PUSH1 0xB2 SHL PUSH1 0x64 DUP3 ADD MSTORE PUSH1 0x84 ADD JUMPDEST PUSH1 0x40 MLOAD DUP1 SWAP2 SUB SWAP1 REVERT JUMPDEST POP PUSH1 0x1 ADD PUSH2 0x74D JUMP JUMPDEST POP PUSH2 0x824 PUSH1 0xA DUP1 SLOAD PUSH1 0x1 ADD SWAP1 SSTORE JUMP JUMPDEST PUSH0 PUSH2 0x82E PUSH1 0xA SLOAD SWAP1 JUMP JUMPDEST PUSH1 0x40 DUP1 MLOAD DUP1 DUP3 ADD DUP3 MSTORE DUP3 DUP2 MSTORE PUSH1 0x20 DUP1 DUP3 ADD DUP8 DUP2 MSTORE PUSH0 DUP6 DUP2 MSTORE PUSH1 0xC SWAP1 SWAP3 MSTORE SWAP3 SWAP1 KECCAK256 DUP2 MLOAD DUP2 SSTORE SWAP2 MLOAD SWAP3 SWAP4 POP SWAP2 PUSH1 0x1 DUP3 ADD SWAP1 PUSH2 0x867 SWAP1 DUP3 PUSH2 0x365B JUMP JUMPDEST POP POP PUSH1 0xE DUP1 SLOAD PUSH1 0x1 DUP2 ADD DUP3 SSTORE PUSH0 SWAP2 SWAP1 SWAP2 MSTORE PUSH32 0xBB7B4A454DC3493923482F07822329ED19E8244EFF582CC204F8554C3620C3FD ADD DUP3 SWAP1 SSTORE POP PUSH1 0x40 MLOAD DUP2 SWAP1 PUSH32 0x62B7B5BA11BFC95430FAB0460FDF99B9C8FBC2B3A6A48CAF79C3EE1B591C0336 SWAP1 PUSH2 0x8D0 SWAP1 DUP7 SWAP1 PUSH2 0x2BEC JUMP JUMPDEST PUSH1 0x40 MLOAD DUP1 SWAP2 SUB SWAP1 LOG2 POP POP POP JUMP JUMPDEST PUSH1 0xB DUP1 SLOAD PUSH2 0x8EA SWAP1 PUSH2 0x356C JUMP JUMPDEST DUP1 PUSH1 0x1F ADD PUSH1 0x20 DUP1 SWAP2 DIV MUL PUSH1 0x20 ADD PUSH1 0x40 MLOAD SWAP1 DUP2 ADD PUSH1 0x40 MSTORE DUP1 SWAP3 SWAP2 SWAP1 DUP2 DUP2 MSTORE PUSH1 0x20 ADD DUP3 DUP1 SLOAD PUSH2 0x916 SWAP1 PUSH2 0x356C JUMP JUMPDEST DUP1 ISZERO PUSH2 0x961 JUMPI DUP1 PUSH1 0x1F LT PUSH2 0x938 JUMPI PUSH2 0x100 DUP1 DUP4 SLOAD DIV MUL DUP4 MSTORE SWAP2 PUSH1 0x20 ADD SWAP2 PUSH2 0x961 JUMP JUMPDEST DUP3 ADD SWAP2 SWAP1 PUSH0 MSTORE PUSH1 0x20 PUSH0 KECCAK256 SWAP1 JUMPDEST DUP2 SLOAD DUP2 MSTORE SWAP1 PUSH1 0x1 ADD SWAP1 PUSH1 0x20 ADD DUP1 DUP4 GT PUSH2 0x944 JUMPI DUP3 SWAP1 SUB PUSH1 0x1F AND DUP3 ADD SWAP2 JUMPDEST POP POP POP POP POP DUP2 JUMP JUMPDEST PUSH1 0x60 PUSH2 0x6F7 DUP3 PUSH2 0x1DEC JUMP JUMPDEST PUSH0 PUSH2 0x97E DUP2 PUSH2 0x1DE2 JUMP JUMPDEST PUSH0 DUP4 DUP2 MSTORE PUSH1 0x7 PUSH1 0x20 MSTORE PUSH1 0x40 DUP2 KECCAK256 SLOAD GT PUSH2 0x9EF JUMPI PUSH1 0x40 MLOAD PUSH3 0x461BCD PUSH1 0xE5 SHL DUP2 MSTORE PUSH1 0x20 PUSH1 0x4 DUP3 ADD MSTORE PUSH1 0x2D PUSH1 0x24 DUP3 ADD MSTORE PUSH32 0x53686172656431313535546F6B656E3A2055524920736574206F66206E6F6E65 PUSH1 0x44 DUP3 ADD MSTORE PUSH13 0x3C34B9BA32B73A103A37B5B2B7 PUSH1 0x99 SHL PUSH1 0x64 DUP3 ADD MSTORE PUSH1 0x84 ADD PUSH2 0x803 JUMP JUMPDEST PUSH2 0x9F9 DUP4 DUP4 PUSH2 0x1EC8 JUMP JUMPDEST POP POP POP JUMP JUMPDEST PUSH0 MLOAD PUSH1 0x20 PUSH2 0x3A49 PUSH0 CODECOPY PUSH0 MLOAD SWAP1 PUSH0 MSTORE PUSH2 0xA15 DUP2 PUSH2 0x1DE2 JUMP JUMPDEST PUSH2 0xA21 DUP6 DUP6 DUP6 DUP6 PUSH2 0x1F24 JUMP JUMPDEST POP POP POP POP POP JUMP JUMPDEST CALLER PUSH1 0x1 PUSH1 0x1 PUSH1 0xA0 SHL SUB DUP7 AND DUP2 EQ DUP1 ISZERO SWAP1 PUSH2 0xA49 JUMPI POP PUSH2 0xA47 DUP7 DUP3 PUSH2 0x1C3F JUMP JUMPDEST ISZERO JUMPDEST ISZERO PUSH2 0xA7A JUMPI PUSH1 0x40 MLOAD PUSH4 0x711BEC91 PUSH1 0xE1 SHL DUP2 MSTORE PUSH1 0x1 PUSH1 0x1 PUSH1 0xA0 SHL SUB DUP1 DUP4 AND PUSH1 0x4 DUP4 ADD MSTORE DUP8 AND PUSH1 0x24 DUP3 ADD MSTORE PUSH1 0x44 ADD PUSH2 0x803 JUMP JUMPDEST PUSH2 0xA87 DUP7 DUP7 DUP7 DUP7 DUP7 PUSH2 0x1F5A JUMP JUMPDEST POP POP POP POP POP POP JUMP JUMPDEST PUSH0 DUP3 DUP2 MSTORE PUSH1 0x20 DUP2 SWAP1 MSTORE PUSH1 0x40 SWAP1 KECCAK256 PUSH1 0x1 ADD SLOAD PUSH2 0xAA9 DUP2 PUSH2 0x1DE2 JUMP JUMPDEST PUSH2 0xAB3 DUP4 DUP4 PUSH2 0x1FB8 JUMP JUMPDEST POP POP POP POP JUMP JUMPDEST PUSH1 0x1 PUSH1 0x1 PUSH1 0xA0 SHL SUB DUP4 AND PUSH2 0xADF JUMPI PUSH1 0x40 MLOAD PUSH3 0x461BCD PUSH1 0xE5 SHL DUP2 MSTORE PUSH1 0x4 ADD PUSH2 0x803 SWAP1 PUSH2 0x3715 JUMP JUMPDEST PUSH0 DUP2 GT PUSH2 0xAFE JUMPI PUSH1 0x40 MLOAD PUSH3 0x461BCD PUSH1 0xE5 SHL DUP2 MSTORE PUSH1 0x4 ADD PUSH2 0x803 SWAP1 PUSH2 0x375F JUMP JUMPDEST PUSH0 DUP1 JUMPDEST PUSH1 0xF SLOAD DUP2 LT ISZERO PUSH2 0xB6E JUMPI DUP4 DUP1 MLOAD SWAP1 PUSH1 0x20 ADD KECCAK256 PUSH2 0xB37 PUSH1 0xF DUP4 DUP2 SLOAD DUP2 LT PUSH2 0xB29 JUMPI PUSH2 0xB29 PUSH2 0x3558 JUMP JUMPDEST SWAP1 PUSH0 MSTORE PUSH1 0x20 PUSH0 KECCAK256 ADD SLOAD PUSH2 0x969 JUMP JUMPDEST DUP1 MLOAD SWAP1 PUSH1 0x20 ADD KECCAK256 SUB PUSH2 0xB66 JUMPI PUSH1 0xF DUP2 DUP2 SLOAD DUP2 LT PUSH2 0xB56 JUMPI PUSH2 0xB56 PUSH2 0x3558 JUMP JUMPDEST SWAP1 PUSH0 MSTORE PUSH1 0x20 PUSH0 KECCAK256 ADD SLOAD SWAP2 POP PUSH2 0xB6E JUMP JUMPDEST PUSH1 0x1 ADD PUSH2 0xB01 JUMP JUMPDEST POP DUP1 PUSH0 SUB PUSH2 0xB8E JUMPI PUSH1 0x40 MLOAD PUSH3 0x461BCD PUSH1 0xE5 SHL DUP2 MSTORE PUSH1 0x4 ADD PUSH2 0x803 SWAP1 PUSH2 0x37BC JUMP JUMPDEST DUP2 PUSH2 0xB99 ADDRESS DUP4 PUSH2 0x6D4 JUMP JUMPDEST LT ISZERO PUSH2 0xBB7 JUMPI PUSH1 0x40 MLOAD PUSH3 0x461BCD PUSH1 0xE5 SHL DUP2 MSTORE PUSH1 0x4 ADD PUSH2 0x803 SWAP1 PUSH2 0x3812 JUMP JUMPDEST PUSH2 0xAB3 ADDRESS DUP6 DUP4 DUP6 PUSH1 0x40 MLOAD DUP1 PUSH1 0x20 ADD PUSH1 0x40 MSTORE DUP1 PUSH0 DUP2 MSTORE POP PUSH2 0x1C6C JUMP JUMPDEST PUSH1 0x1 PUSH1 0x1 PUSH1 0xA0 SHL SUB DUP2 AND CALLER EQ PUSH2 0xBFB JUMPI PUSH1 0x40 MLOAD PUSH4 0x334BD919 PUSH1 0xE1 SHL DUP2 MSTORE PUSH1 0x4 ADD PUSH1 0x40 MLOAD DUP1 SWAP2 SUB SWAP1 REVERT JUMPDEST PUSH2 0x9F9 DUP3 DUP3 PUSH2 0x2047 JUMP JUMPDEST PUSH0 PUSH2 0xC0F DUP2 PUSH2 0x1DE2 JUMP JUMPDEST PUSH2 0xC17 PUSH2 0x20B0 JUMP JUMPDEST POP JUMP JUMPDEST PUSH1 0x60 DUP2 MLOAD DUP4 MLOAD EQ PUSH2 0xC4B JUMPI DUP2 MLOAD DUP4 MLOAD PUSH1 0x40 MLOAD PUSH4 0x5B059991 PUSH1 0xE0 SHL DUP2 MSTORE PUSH1 0x4 DUP2 ADD SWAP3 SWAP1 SWAP3 MSTORE PUSH1 0x24 DUP3 ADD MSTORE PUSH1 0x44 ADD PUSH2 0x803 JUMP JUMPDEST PUSH0 DUP4 MLOAD PUSH1 0x1 PUSH1 0x1 PUSH1 0x40 SHL SUB DUP2 GT ISZERO PUSH2 0xC65 JUMPI PUSH2 0xC65 PUSH2 0x2AD0 JUMP JUMPDEST PUSH1 0x40 MLOAD SWAP1 DUP1 DUP3 MSTORE DUP1 PUSH1 0x20 MUL PUSH1 0x20 ADD DUP3 ADD PUSH1 0x40 MSTORE DUP1 ISZERO PUSH2 0xC8E JUMPI DUP2 PUSH1 0x20 ADD PUSH1 0x20 DUP3 MUL DUP1 CALLDATASIZE DUP4 CALLDATACOPY ADD SWAP1 POP JUMPDEST POP SWAP1 POP PUSH0 JUMPDEST DUP5 MLOAD DUP2 LT ISZERO PUSH2 0xCDC JUMPI PUSH1 0x20 DUP1 DUP3 MUL DUP7 ADD ADD MLOAD PUSH2 0xCB7 SWAP1 PUSH1 0x20 DUP1 DUP5 MUL DUP8 ADD ADD MLOAD PUSH2 0x6D4 JUMP JUMPDEST DUP3 DUP3 DUP2 MLOAD DUP2 LT PUSH2 0xCC9 JUMPI PUSH2 0xCC9 PUSH2 0x3558 JUMP JUMPDEST PUSH1 0x20 SWAP1 DUP2 MUL SWAP2 SWAP1 SWAP2 ADD ADD MSTORE PUSH1 0x1 ADD PUSH2 0xC93 JUMP JUMPDEST POP SWAP4 SWAP3 POP POP POP JUMP JUMPDEST PUSH1 0x40 DUP1 MLOAD DUP1 DUP3 ADD SWAP1 SWAP2 MSTORE PUSH0 DUP2 MSTORE PUSH1 0x60 PUSH1 0x20 DUP3 ADD MSTORE PUSH0 DUP3 DUP2 MSTORE PUSH1 0xC PUSH1 0x20 MSTORE PUSH1 0x40 DUP2 KECCAK256 SLOAD SWAP1 SUB PUSH2 0xD24 JUMPI PUSH1 0x40 MLOAD PUSH3 0x461BCD PUSH1 0xE5 SHL DUP2 MSTORE PUSH1 0x4 ADD PUSH2 0x803 SWAP1 PUSH2 0x385B JUMP JUMPDEST PUSH1 0xC PUSH0 DUP4 DUP2 MSTORE PUSH1 0x20 ADD SWAP1 DUP2 MSTORE PUSH1 0x20 ADD PUSH0 KECCAK256 PUSH1 0x40 MLOAD DUP1 PUSH1 0x40 ADD PUSH1 0x40 MSTORE SWAP1 DUP2 PUSH0 DUP3 ADD SLOAD DUP2 MSTORE PUSH1 0x20 ADD PUSH1 0x1 DUP3 ADD DUP1 SLOAD PUSH2 0xD59 SWAP1 PUSH2 0x356C JUMP JUMPDEST DUP1 PUSH1 0x1F ADD PUSH1 0x20 DUP1 SWAP2 DIV MUL PUSH1 0x20 ADD PUSH1 0x40 MLOAD SWAP1 DUP2 ADD PUSH1 0x40 MSTORE DUP1 SWAP3 SWAP2 SWAP1 DUP2 DUP2 MSTORE PUSH1 0x20 ADD DUP3 DUP1 SLOAD PUSH2 0xD85 SWAP1 PUSH2 0x356C JUMP JUMPDEST DUP1 ISZERO PUSH2 0xDD0 JUMPI DUP1 PUSH1 0x1F LT PUSH2 0xDA7 JUMPI PUSH2 0x100 DUP1 DUP4 SLOAD DIV MUL DUP4 MSTORE SWAP2 PUSH1 0x20 ADD SWAP2 PUSH2 0xDD0 JUMP JUMPDEST DUP3 ADD SWAP2 SWAP1 PUSH0 MSTORE PUSH1 0x20 PUSH0 KECCAK256 SWAP1 JUMPDEST DUP2 SLOAD DUP2 MSTORE SWAP1 PUSH1 0x1 ADD SWAP1 PUSH1 0x20 ADD DUP1 DUP4 GT PUSH2 0xDB3 JUMPI DUP3 SWAP1 SUB PUSH1 0x1F AND DUP3 ADD SWAP2 JUMPDEST POP POP POP POP POP DUP2 MSTORE POP POP SWAP1 POP SWAP2 SWAP1 POP JUMP JUMPDEST PUSH1 0xE SLOAD PUSH1 0x60 SWAP1 PUSH0 SWAP1 PUSH1 0x1 PUSH1 0x1 PUSH1 0x40 SHL SUB DUP2 GT ISZERO PUSH2 0xDFF JUMPI PUSH2 0xDFF PUSH2 0x2AD0 JUMP JUMPDEST PUSH1 0x40 MLOAD SWAP1 DUP1 DUP3 MSTORE DUP1 PUSH1 0x20 MUL PUSH1 0x20 ADD DUP3 ADD PUSH1 0x40 MSTORE DUP1 ISZERO PUSH2 0xE44 JUMPI DUP2 PUSH1 0x20 ADD JUMPDEST PUSH1 0x40 DUP1 MLOAD DUP1 DUP3 ADD SWAP1 SWAP2 MSTORE PUSH0 DUP2 MSTORE PUSH1 0x60 PUSH1 0x20 DUP3 ADD MSTORE DUP2 MSTORE PUSH1 0x20 ADD SWAP1 PUSH1 0x1 SWAP1 SUB SWAP1 DUP2 PUSH2 0xE1D JUMPI SWAP1 POP JUMPDEST POP SWAP1 POP PUSH0 JUMPDEST PUSH1 0xE SLOAD DUP2 LT ISZERO PUSH2 0xF48 JUMPI PUSH1 0xC PUSH0 PUSH1 0xE DUP4 DUP2 SLOAD DUP2 LT PUSH2 0xE69 JUMPI PUSH2 0xE69 PUSH2 0x3558 JUMP JUMPDEST SWAP1 PUSH0 MSTORE PUSH1 0x20 PUSH0 KECCAK256 ADD SLOAD DUP2 MSTORE PUSH1 0x20 ADD SWAP1 DUP2 MSTORE PUSH1 0x20 ADD PUSH0 KECCAK256 PUSH1 0x40 MLOAD DUP1 PUSH1 0x40 ADD PUSH1 0x40 MSTORE SWAP1 DUP2 PUSH0 DUP3 ADD SLOAD DUP2 MSTORE PUSH1 0x20 ADD PUSH1 0x1 DUP3 ADD DUP1 SLOAD PUSH2 0xEA3 SWAP1 PUSH2 0x356C JUMP JUMPDEST DUP1 PUSH1 0x1F ADD PUSH1 0x20 DUP1 SWAP2 DIV MUL PUSH1 0x20 ADD PUSH1 0x40 MLOAD SWAP1 DUP2 ADD PUSH1 0x40 MSTORE DUP1 SWAP3 SWAP2 SWAP1 DUP2 DUP2 MSTORE PUSH1 0x20 ADD DUP3 DUP1 SLOAD PUSH2 0xECF SWAP1 PUSH2 0x356C JUMP JUMPDEST DUP1 ISZERO PUSH2 0xF1A JUMPI DUP1 PUSH1 0x1F LT PUSH2 0xEF1 JUMPI PUSH2 0x100 DUP1 DUP4 SLOAD DIV MUL DUP4 MSTORE SWAP2 PUSH1 0x20 ADD SWAP2 PUSH2 0xF1A JUMP JUMPDEST DUP3 ADD SWAP2 SWAP1 PUSH0 MSTORE PUSH1 0x20 PUSH0 KECCAK256 SWAP1 JUMPDEST DUP2 SLOAD DUP2 MSTORE SWAP1 PUSH1 0x1 ADD SWAP1 PUSH1 0x20 ADD DUP1 DUP4 GT PUSH2 0xEFD JUMPI DUP3 SWAP1 SUB PUSH1 0x1F AND DUP3 ADD SWAP2 JUMPDEST POP POP POP POP POP DUP2 MSTORE POP POP DUP3 DUP3 DUP2 MLOAD DUP2 LT PUSH2 0xF35 JUMPI PUSH2 0xF35 PUSH2 0x3558 JUMP JUMPDEST PUSH1 0x20 SWAP1 DUP2 MUL SWAP2 SWAP1 SWAP2 ADD ADD MSTORE PUSH1 0x1 ADD PUSH2 0xE49 JUMP JUMPDEST POP SWAP2 SWAP1 POP JUMP JUMPDEST PUSH1 0x1 PUSH1 0x1 PUSH1 0xA0 SHL SUB DUP4 AND CALLER EQ DUP1 ISZERO SWAP1 PUSH2 0xF6E JUMPI POP PUSH2 0xF6C DUP4 CALLER PUSH2 0x1C3F JUMP JUMPDEST ISZERO JUMPDEST ISZERO PUSH2 0xFA2 JUMPI CALLER JUMPDEST PUSH1 0x40 MLOAD PUSH4 0x711BEC91 PUSH1 0xE1 SHL DUP2 MSTORE PUSH1 0x1 PUSH1 0x1 PUSH1 0xA0 SHL SUB SWAP2 DUP3 AND PUSH1 0x4 DUP3 ADD MSTORE SWAP1 DUP5 AND PUSH1 0x24 DUP3 ADD MSTORE PUSH1 0x44 ADD PUSH2 0x803 JUMP JUMPDEST PUSH2 0x9F9 DUP4 DUP4 DUP4 PUSH2 0x2102 JUMP JUMPDEST PUSH0 PUSH2 0xFB7 DUP2 PUSH2 0x1DE2 JUMP JUMPDEST PUSH0 JUMPDEST PUSH1 0xE SLOAD DUP2 LT ISZERO PUSH2 0x1101 JUMPI PUSH0 PUSH1 0xE DUP3 DUP2 SLOAD DUP2 LT PUSH2 0xFD7 JUMPI PUSH2 0xFD7 PUSH2 0x3558 JUMP JUMPDEST SWAP1 PUSH0 MSTORE PUSH1 0x20 PUSH0 KECCAK256 ADD SLOAD SWAP1 POP DUP4 DUP1 MLOAD SWAP1 PUSH1 0x20 ADD KECCAK256 PUSH1 0xC PUSH0 DUP4 DUP2 MSTORE PUSH1 0x20 ADD SWAP1 DUP2 MSTORE PUSH1 0x20 ADD PUSH0 KECCAK256 PUSH1 0x1 ADD PUSH1 0x40 MLOAD PUSH2 0x100B SWAP2 SWAP1 PUSH2 0x360C JUMP JUMPDEST PUSH1 0x40 MLOAD DUP1 SWAP2 SUB SWAP1 KECCAK256 SUB PUSH2 0x10F8 JUMPI PUSH0 DUP2 DUP2 MSTORE PUSH1 0xC PUSH1 0x20 MSTORE PUSH1 0x40 DUP2 KECCAK256 DUP2 DUP2 SSTORE SWAP1 PUSH2 0x1036 PUSH1 0x1 DUP4 ADD DUP3 PUSH2 0x29D0 JUMP JUMPDEST POP POP PUSH1 0xE SLOAD PUSH2 0x1047 SWAP1 PUSH1 0x1 SWAP1 PUSH2 0x38B9 JUMP JUMPDEST DUP3 LT ISZERO PUSH2 0x1096 JUMPI PUSH1 0xE DUP1 SLOAD PUSH2 0x105E SWAP1 PUSH1 0x1 SWAP1 PUSH2 0x38B9 JUMP JUMPDEST DUP2 SLOAD DUP2 LT PUSH2 0x106E JUMPI PUSH2 0x106E PUSH2 0x3558 JUMP JUMPDEST SWAP1 PUSH0 MSTORE PUSH1 0x20 PUSH0 KECCAK256 ADD SLOAD PUSH1 0xE DUP4 DUP2 SLOAD DUP2 LT PUSH2 0x108A JUMPI PUSH2 0x108A PUSH2 0x3558 JUMP JUMPDEST PUSH0 SWAP2 DUP3 MSTORE PUSH1 0x20 SWAP1 SWAP2 KECCAK256 ADD SSTORE JUMPDEST PUSH1 0xE DUP1 SLOAD DUP1 PUSH2 0x10A7 JUMPI PUSH2 0x10A7 PUSH2 0x38CC JUMP JUMPDEST PUSH1 0x1 SWAP1 SUB DUP2 DUP2 SWAP1 PUSH0 MSTORE PUSH1 0x20 PUSH0 KECCAK256 ADD PUSH0 SWAP1 SSTORE SWAP1 SSTORE DUP1 PUSH32 0xF2C458821D360029E0B4D57E1F001B05DB9D486EF001529D2E931753D7CF32F4 DUP6 PUSH1 0x40 MLOAD PUSH2 0x10EA SWAP2 SWAP1 PUSH2 0x2BEC JUMP JUMPDEST PUSH1 0x40 MLOAD DUP1 SWAP2 SUB SWAP1 LOG2 POP POP POP POP JUMP JUMPDEST POP PUSH1 0x1 ADD PUSH2 0xFB9 JUMP JUMPDEST POP PUSH1 0x40 MLOAD PUSH3 0x461BCD PUSH1 0xE5 SHL DUP2 MSTORE PUSH1 0x20 PUSH1 0x4 DUP3 ADD MSTORE PUSH1 0x31 PUSH1 0x24 DUP3 ADD MSTORE PUSH32 0x53686172656431313535546F6B656E3A20436F6C6C656374696F6E2077697468 PUSH1 0x44 DUP3 ADD MSTORE PUSH17 0x81CDD59999A5E081B9BDD08199BDD5B99 PUSH1 0x7A SHL PUSH1 0x64 DUP3 ADD MSTORE PUSH1 0x84 ADD PUSH2 0x803 JUMP JUMPDEST POP POP JUMP JUMPDEST PUSH0 MLOAD PUSH1 0x20 PUSH2 0x3A49 PUSH0 CODECOPY PUSH0 MLOAD SWAP1 PUSH0 MSTORE PUSH2 0x117F DUP2 PUSH2 0x1DE2 JUMP JUMPDEST PUSH2 0xA21 DUP6 DUP6 DUP6 DUP6 PUSH2 0x2145 JUMP JUMPDEST PUSH0 PUSH2 0x1195 DUP2 PUSH2 0x1DE2 JUMP JUMPDEST PUSH2 0xC17 PUSH2 0x21A0 JUMP JUMPDEST PUSH0 SWAP2 DUP3 MSTORE PUSH1 0x20 DUP3 DUP2 MSTORE PUSH1 0x40 DUP1 DUP5 KECCAK256 PUSH1 0x1 PUSH1 0x1 PUSH1 0xA0 SHL SUB SWAP4 SWAP1 SWAP4 AND DUP5 MSTORE SWAP2 SWAP1 MSTORE SWAP1 KECCAK256 SLOAD PUSH1 0xFF AND SWAP1 JUMP JUMPDEST PUSH0 PUSH2 0x11CF DUP2 PUSH2 0x1DE2 JUMP JUMPDEST PUSH1 0x1 PUSH1 0x1 PUSH1 0xA0 SHL SUB DUP4 AND PUSH2 0x1237 JUMPI PUSH1 0x40 MLOAD PUSH3 0x461BCD PUSH1 0xE5 SHL DUP2 MSTORE PUSH1 0x20 PUSH1 0x4 DUP3 ADD MSTORE PUSH1 0x29 PUSH1 0x24 DUP3 ADD MSTORE PUSH32 0x53686172656431313535546F6B656E3A20496E76616C6964206F70657261746F PUSH1 0x44 DUP3 ADD MSTORE PUSH9 0x722061646472657373 PUSH1 0xB8 SHL PUSH1 0x64 DUP3 ADD MSTORE PUSH1 0x84 ADD PUSH2 0x803 JUMP JUMPDEST PUSH2 0x1242 ADDRESS DUP5 DUP5 PUSH2 0x21DB JUMP JUMPDEST DUP3 PUSH1 0x1 PUSH1 0x1 PUSH1 0xA0 SHL SUB AND PUSH32 0x8D3369E8CE7E1085710A510CA605F9599E0AE164E4C5A0C65B8106D6681F8EFE DUP4 PUSH1 0x40 MLOAD PUSH2 0x8D0 SWAP2 ISZERO ISZERO DUP2 MSTORE PUSH1 0x20 ADD SWAP1 JUMP JUMPDEST PUSH2 0x1164 CALLER DUP4 DUP4 PUSH2 0x21DB JUMP JUMPDEST PUSH0 PUSH2 0xAA9 DUP2 PUSH2 0x1DE2 JUMP JUMPDEST PUSH1 0x60 PUSH0 DUP1 JUMPDEST PUSH1 0xF SLOAD DUP2 LT ISZERO PUSH2 0x12E5 JUMPI PUSH0 PUSH2 0x12C9 ADDRESS PUSH1 0xF DUP5 DUP2 SLOAD DUP2 LT PUSH2 0x12BB JUMPI PUSH2 0x12BB PUSH2 0x3558 JUMP JUMPDEST SWAP1 PUSH0 MSTORE PUSH1 0x20 PUSH0 KECCAK256 ADD SLOAD PUSH2 0x6D4 JUMP JUMPDEST GT ISZERO PUSH2 0x12DD JUMPI DUP2 PUSH2 0x12D9 DUP2 PUSH2 0x38E0 JUMP JUMPDEST SWAP3 POP POP JUMPDEST PUSH1 0x1 ADD PUSH2 0x1299 JUMP JUMPDEST POP PUSH0 DUP2 PUSH1 0x1 PUSH1 0x1 PUSH1 0x40 SHL SUB DUP2 GT ISZERO PUSH2 0x12FF JUMPI PUSH2 0x12FF PUSH2 0x2AD0 JUMP JUMPDEST PUSH1 0x40 MLOAD SWAP1 DUP1 DUP3 MSTORE DUP1 PUSH1 0x20 MUL PUSH1 0x20 ADD DUP3 ADD PUSH1 0x40 MSTORE DUP1 ISZERO PUSH2 0x1338 JUMPI DUP2 PUSH1 0x20 ADD JUMPDEST PUSH2 0x1325 PUSH2 0x2A07 JUMP JUMPDEST DUP2 MSTORE PUSH1 0x20 ADD SWAP1 PUSH1 0x1 SWAP1 SUB SWAP1 DUP2 PUSH2 0x131D JUMPI SWAP1 POP JUMPDEST POP SWAP1 POP PUSH0 DUP1 JUMPDEST PUSH1 0xF SLOAD DUP2 LT ISZERO PUSH2 0x13FD JUMPI PUSH0 PUSH1 0xF DUP3 DUP2 SLOAD DUP2 LT PUSH2 0x135C JUMPI PUSH2 0x135C PUSH2 0x3558 JUMP JUMPDEST SWAP1 PUSH0 MSTORE PUSH1 0x20 PUSH0 KECCAK256 ADD SLOAD SWAP1 POP PUSH0 PUSH2 0x1372 ADDRESS DUP4 PUSH2 0x6D4 JUMP JUMPDEST SWAP1 POP DUP1 ISZERO PUSH2 0x13F3 JUMPI PUSH1 0x40 MLOAD DUP1 PUSH1 0x80 ADD PUSH1 0x40 MSTORE DUP1 DUP4 DUP2 MSTORE PUSH1 0x20 ADD DUP3 DUP2 MSTORE PUSH1 0x20 ADD PUSH2 0x139A DUP5 PUSH2 0x969 JUMP JUMPDEST DUP2 MSTORE PUSH0 DUP5 DUP2 MSTORE PUSH1 0xD PUSH1 0x20 SWAP1 DUP2 MSTORE PUSH1 0x40 SWAP2 DUP3 SWAP1 KECCAK256 DUP3 MLOAD DUP1 DUP5 ADD SWAP1 SWAP4 MSTORE DUP1 SLOAD DUP4 MSTORE PUSH1 0x1 ADD SLOAD DUP3 DUP3 ADD MSTORE SWAP1 SWAP2 ADD MSTORE DUP6 MLOAD DUP7 SWAP1 DUP7 SWAP1 DUP2 LT PUSH2 0x13D9 JUMPI PUSH2 0x13D9 PUSH2 0x3558 JUMP JUMPDEST PUSH1 0x20 MUL PUSH1 0x20 ADD ADD DUP2 SWAP1 MSTORE POP DUP4 DUP1 PUSH2 0x13EF SWAP1 PUSH2 0x38E0 JUMP JUMPDEST SWAP5 POP POP JUMPDEST POP POP PUSH1 0x1 ADD PUSH2 0x133E JUMP JUMPDEST POP SWAP1 SWAP4 SWAP3 POP POP POP JUMP JUMPDEST PUSH1 0xE DUP2 DUP2 SLOAD DUP2 LT PUSH2 0x1415 JUMPI PUSH0 DUP1 REVERT JUMPDEST PUSH0 SWAP2 DUP3 MSTORE PUSH1 0x20 SWAP1 SWAP2 KECCAK256 ADD SLOAD SWAP1 POP DUP2 JUMP JUMPDEST PUSH0 DUP2 DUP2 MSTORE PUSH1 0xC PUSH1 0x20 MSTORE PUSH1 0x40 DUP2 KECCAK256 SLOAD PUSH1 0x60 SWAP2 SUB PUSH2 0x1453 JUMPI PUSH1 0x40 MLOAD PUSH3 0x461BCD PUSH1 0xE5 SHL DUP2 MSTORE PUSH1 0x4 ADD PUSH2 0x803 SWAP1 PUSH2 0x385B JUMP JUMPDEST PUSH0 DUP3 DUP2 MSTORE PUSH1 0xC PUSH1 0x20 MSTORE PUSH1 0x40 SWAP1 KECCAK256 PUSH1 0x1 ADD DUP1 SLOAD PUSH2 0x146E SWAP1 PUSH2 0x356C JUMP JUMPDEST DUP1 PUSH1 0x1F ADD PUSH1 0x20 DUP1 SWAP2 DIV MUL PUSH1 0x20 ADD PUSH1 0x40 MLOAD SWAP1 DUP2 ADD PUSH1 0x40 MSTORE DUP1 SWAP3 SWAP2 SWAP1 DUP2 DUP2 MSTORE PUSH1 0x20 ADD DUP3 DUP1 SLOAD PUSH2 0x149A SWAP1 PUSH2 0x356C JUMP JUMPDEST DUP1 ISZERO PUSH2 0x14E5 JUMPI DUP1 PUSH1 0x1F LT PUSH2 0x14BC JUMPI PUSH2 0x100 DUP1 DUP4 SLOAD DIV MUL DUP4 MSTORE SWAP2 PUSH1 0x20 ADD SWAP2 PUSH2 0x14E5 JUMP JUMPDEST DUP3 ADD SWAP2 SWAP1 PUSH0 MSTORE PUSH1 0x20 PUSH0 KECCAK256 SWAP1 JUMPDEST DUP2 SLOAD DUP2 MSTORE SWAP1 PUSH1 0x1 ADD SWAP1 PUSH1 0x20 ADD DUP1 DUP4 GT PUSH2 0x14C8 JUMPI DUP3 SWAP1 SUB PUSH1 0x1F AND DUP3 ADD SWAP2 JUMPDEST POP POP POP POP POP SWAP1 POP SWAP2 SWAP1 POP JUMP JUMPDEST PUSH0 MLOAD PUSH1 0x20 PUSH2 0x3A49 PUSH0 CODECOPY PUSH0 MLOAD SWAP1 PUSH0 MSTORE PUSH2 0x1508 DUP2 PUSH2 0x1DE2 JUMP JUMPDEST PUSH0 DUP1 JUMPDEST PUSH1 0xE SLOAD DUP2 LT ISZERO PUSH2 0x15A4 JUMPI DUP4 DUP1 MLOAD SWAP1 PUSH1 0x20 ADD KECCAK256 PUSH1 0xC PUSH0 PUSH1 0xE DUP5 DUP2 SLOAD DUP2 LT PUSH2 0x1533 JUMPI PUSH2 0x1533 PUSH2 0x3558 JUMP JUMPDEST SWAP1 PUSH0 MSTORE PUSH1 0x20 PUSH0 KECCAK256 ADD SLOAD DUP2 MSTORE PUSH1 0x20 ADD SWAP1 DUP2 MSTORE PUSH1 0x20 ADD PUSH0 KECCAK256 PUSH1 0x1 ADD PUSH1 0x40 MLOAD PUSH2 0x1559 SWAP2 SWAP1 PUSH2 0x360C JUMP JUMPDEST PUSH1 0x40 MLOAD DUP1 SWAP2 SUB SWAP1 KECCAK256 SUB PUSH2 0x159C JUMPI PUSH1 0xC PUSH0 PUSH1 0xE DUP4 DUP2 SLOAD DUP2 LT PUSH2 0x157C JUMPI PUSH2 0x157C PUSH2 0x3558 JUMP JUMPDEST SWAP1 PUSH0 MSTORE PUSH1 0x20 PUSH0 KECCAK256 ADD SLOAD DUP2 MSTORE PUSH1 0x20 ADD SWAP1 DUP2 MSTORE PUSH1 0x20 ADD PUSH0 KECCAK256 PUSH0 ADD SLOAD SWAP2 POP PUSH2 0x15A4 JUMP JUMPDEST PUSH1 0x1 ADD PUSH2 0x150B JUMP JUMPDEST POP DUP1 PUSH0 SUB PUSH2 0x1613 JUMPI PUSH1 0x40 MLOAD PUSH3 0x461BCD PUSH1 0xE5 SHL DUP2 MSTORE PUSH1 0x20 PUSH1 0x4 DUP3 ADD MSTORE PUSH1 0x36 PUSH1 0x24 DUP3 ADD MSTORE PUSH32 0x53686172656431313535546F6B656E3A20436F6C6C656374696F6E2077697468 PUSH1 0x44 DUP3 ADD MSTORE PUSH22 0x81CDD59999A5E08191BD95CC81B9BDD08195E1A5CDD PUSH1 0x52 SHL PUSH1 0x64 DUP3 ADD MSTORE PUSH1 0x84 ADD PUSH2 0x803 JUMP JUMPDEST PUSH2 0x1621 PUSH1 0x9 DUP1 SLOAD PUSH1 0x1 ADD SWAP1 SSTORE JUMP JUMPDEST PUSH0 PUSH2 0x162B PUSH1 0x9 SLOAD SWAP1 JUMP JUMPDEST SWAP1 POP PUSH2 0x1647 ADDRESS DUP3 DUP9 PUSH1 0x40 MLOAD DUP1 PUSH1 0x20 ADD PUSH1 0x40 MSTORE DUP1 PUSH0 DUP2 MSTORE POP PUSH2 0x2145 JUMP JUMPDEST PUSH2 0x1651 DUP2 DUP9 PUSH2 0x1EC8 JUMP JUMPDEST PUSH0 DUP2 DUP2 MSTORE PUSH1 0xD PUSH1 0x20 SWAP1 DUP2 MSTORE PUSH1 0x40 DUP1 DUP4 KECCAK256 DUP9 DUP2 SSTORE PUSH1 0x1 DUP1 DUP3 ADD DUP8 SWAP1 SSTORE PUSH1 0xF DUP1 SLOAD SWAP2 DUP3 ADD DUP2 SSTORE SWAP1 SWAP5 MSTORE PUSH32 0x8D1108E10BCB7C27DDDFC02ED9D693A074039D026CF4EA4240B40F7D581AC802 SWAP1 SWAP4 ADD DUP5 SWAP1 SSTORE DUP1 MLOAD DUP5 DUP2 MSTORE SWAP2 DUP3 ADD DUP9 SWAP1 MSTORE DUP2 ADD DUP9 SWAP1 MSTORE ADDRESS SWAP1 PUSH32 0xAFDE70C98492A2CA81A3E5545BED44EFEB0747A64B5E63A918DF2E9D8E83EF35 SWAP1 PUSH1 0x60 ADD PUSH1 0x40 MLOAD DUP1 SWAP2 SUB SWAP1 LOG2 POP POP POP POP POP POP POP POP JUMP JUMPDEST PUSH1 0xF SLOAD PUSH1 0x60 SWAP1 PUSH0 SWAP1 PUSH1 0x1 PUSH1 0x1 PUSH1 0x40 SHL SUB DUP2 GT ISZERO PUSH2 0x1707 JUMPI PUSH2 0x1707 PUSH2 0x2AD0 JUMP JUMPDEST PUSH1 0x40 MLOAD SWAP1 DUP1 DUP3 MSTORE DUP1 PUSH1 0x20 MUL PUSH1 0x20 ADD DUP3 ADD PUSH1 0x40 MSTORE DUP1 ISZERO PUSH2 0x174B JUMPI DUP2 PUSH1 0x20 ADD JUMPDEST PUSH1 0x40 DUP1 MLOAD DUP1 DUP3 ADD SWAP1 SWAP2 MSTORE PUSH0 DUP1 DUP3 MSTORE PUSH1 0x20 DUP3 ADD MSTORE DUP2 MSTORE PUSH1 0x20 ADD SWAP1 PUSH1 0x1 SWAP1 SUB SWAP1 DUP2 PUSH2 0x1725 JUMPI SWAP1 POP JUMPDEST POP SWAP1 POP PUSH0 JUMPDEST PUSH1 0xF SLOAD DUP2 LT ISZERO PUSH2 0xF48 JUMPI PUSH1 0xD PUSH0 PUSH1 0xF DUP4 DUP2 SLOAD DUP2 LT PUSH2 0x1770 JUMPI PUSH2 0x1770 PUSH2 0x3558 JUMP JUMPDEST SWAP1 PUSH0 MSTORE PUSH1 0x20 PUSH0 KECCAK256 ADD SLOAD DUP2 MSTORE PUSH1 0x20 ADD SWAP1 DUP2 MSTORE PUSH1 0x20 ADD PUSH0 KECCAK256 PUSH1 0x40 MLOAD DUP1 PUSH1 0x40 ADD PUSH1 0x40 MSTORE SWAP1 DUP2 PUSH0 DUP3 ADD SLOAD DUP2 MSTORE PUSH1 0x20 ADD PUSH1 0x1 DUP3 ADD SLOAD DUP2 MSTORE POP POP DUP3 DUP3 DUP2 MLOAD DUP2 LT PUSH2 0x17B6 JUMPI PUSH2 0x17B6 PUSH2 0x3558 JUMP JUMPDEST PUSH1 0x20 SWAP1 DUP2 MUL SWAP2 SWAP1 SWAP2 ADD ADD MSTORE PUSH1 0x1 ADD PUSH2 0x1750 JUMP JUMPDEST PUSH0 DUP3 DUP2 MSTORE PUSH1 0x20 DUP2 SWAP1 MSTORE PUSH1 0x40 SWAP1 KECCAK256 PUSH1 0x1 ADD SLOAD PUSH2 0x17E3 DUP2 PUSH2 0x1DE2 JUMP JUMPDEST PUSH2 0xAB3 DUP4 DUP4 PUSH2 0x2047 JUMP JUMPDEST PUSH1 0xF DUP2 DUP2 SLOAD DUP2 LT PUSH2 0x1415 JUMPI PUSH0 DUP1 REVERT JUMPDEST PUSH1 0x40 DUP1 MLOAD DUP1 DUP3 ADD SWAP1 SWAP2 MSTORE PUSH0 DUP1 DUP3 MSTORE PUSH1 0x20 DUP3 ADD MSTORE PUSH0 DUP3 DUP2 MSTORE PUSH1 0x7 PUSH1 0x20 MSTORE PUSH1 0x40 DUP2 KECCAK256 SLOAD GT PUSH2 0x1875 JUMPI PUSH1 0x40 MLOAD PUSH3 0x461BCD PUSH1 0xE5 SHL DUP2 MSTORE PUSH1 0x20 PUSH1 0x4 DUP3 ADD MSTORE PUSH1 0x22 PUSH1 0x24 DUP3 ADD MSTORE PUSH32 0x53686172656431313535546F6B656E3A204E6F6E6578697374656E7420746F6B PUSH1 0x44 DUP3 ADD MSTORE PUSH2 0x32B7 PUSH1 0xF1 SHL PUSH1 0x64 DUP3 ADD MSTORE PUSH1 0x84 ADD PUSH2 0x803 JUMP JUMPDEST POP PUSH0 SWAP1 DUP2 MSTORE PUSH1 0xD PUSH1 0x20 SWAP1 DUP2 MSTORE PUSH1 0x40 SWAP2 DUP3 SWAP1 KECCAK256 DUP3 MLOAD DUP1 DUP5 ADD SWAP1 SWAP4 MSTORE DUP1 SLOAD DUP4 MSTORE PUSH1 0x1 ADD SLOAD SWAP1 DUP3 ADD MSTORE SWAP1 JUMP JUMPDEST PUSH1 0x1 PUSH1 0x1 PUSH1 0xA0 SHL SUB DUP4 AND PUSH2 0x18C4 JUMPI PUSH1 0x40 MLOAD PUSH3 0x461BCD PUSH1 0xE5 SHL DUP2 MSTORE PUSH1 0x4 ADD PUSH2 0x803 SWAP1 PUSH2 0x3715 JUMP JUMPDEST PUSH0 DUP3 GT PUSH2 0x18E3 JUMPI PUSH1 0x40 MLOAD PUSH3 0x461BCD PUSH1 0xE5 SHL DUP2 MSTORE PUSH1 0x4 ADD PUSH2 0x803 SWAP1 PUSH2 0x375F JUMP JUMPDEST PUSH1 0x40 MLOAD PUSH4 0x70A08231 PUSH1 0xE0 SHL DUP2 MSTORE CALLER PUSH1 0x4 DUP3 ADD MSTORE DUP5 SWAP1 DUP4 SWAP1 PUSH1 0x1 PUSH1 0x1 PUSH1 0xA0 SHL SUB DUP4 AND SWAP1 PUSH4 0x70A08231 SWAP1 PUSH1 0x24 ADD PUSH1 0x20 PUSH1 0x40 MLOAD DUP1 DUP4 SUB DUP2 DUP7 GAS STATICCALL ISZERO DUP1 ISZERO PUSH2 0x1929 JUMPI RETURNDATASIZE PUSH0 PUSH0 RETURNDATACOPY RETURNDATASIZE PUSH0 REVERT JUMPDEST POP POP POP POP PUSH1 0x40 MLOAD RETURNDATASIZE PUSH1 0x1F NOT PUSH1 0x1F DUP3 ADD AND DUP3 ADD DUP1 PUSH1 0x40 MSTORE POP DUP2 ADD SWAP1 PUSH2 0x194D SWAP2 SWAP1 PUSH2 0x38F8 JUMP JUMPDEST LT ISZERO PUSH2 0x19AF JUMPI PUSH1 0x40 MLOAD PUSH3 0x461BCD PUSH1 0xE5 SHL DUP2 MSTORE PUSH1 0x20 PUSH1 0x4 DUP3 ADD MSTORE PUSH1 0x2B PUSH1 0x24 DUP3 ADD MSTORE PUSH32 0x53686172656431313535546F6B656E3A20496E73756666696369656E74204552 PUSH1 0x44 DUP3 ADD MSTORE PUSH11 0x4332302062616C616E6365 PUSH1 0xA8 SHL PUSH1 0x64 DUP3 ADD MSTORE PUSH1 0x84 ADD PUSH2 0x803 JUMP JUMPDEST PUSH1 0x40 MLOAD PUSH4 0x6EB1769F PUSH1 0xE1 SHL DUP2 MSTORE CALLER PUSH1 0x4 DUP3 ADD MSTORE ADDRESS PUSH1 0x24 DUP3 ADD MSTORE DUP4 SWAP1 PUSH1 0x1 PUSH1 0x1 PUSH1 0xA0 SHL SUB DUP4 AND SWAP1 PUSH4 0xDD62ED3E SWAP1 PUSH1 0x44 ADD PUSH1 0x20 PUSH1 0x40 MLOAD DUP1 DUP4 SUB DUP2 DUP7 GAS STATICCALL ISZERO DUP1 ISZERO PUSH2 0x19F9 JUMPI RETURNDATASIZE PUSH0 PUSH0 RETURNDATACOPY RETURNDATASIZE PUSH0 REVERT JUMPDEST POP POP POP POP PUSH1 0x40 MLOAD RETURNDATASIZE PUSH1 0x1F NOT PUSH1 0x1F DUP3 ADD AND DUP3 ADD DUP1 PUSH1 0x40 MSTORE POP DUP2 ADD SWAP1 PUSH2 0x1A1D SWAP2 SWAP1 PUSH2 0x38F8 JUMP JUMPDEST LT ISZERO PUSH2 0x1A81 JUMPI PUSH1 0x40 MLOAD PUSH3 0x461BCD PUSH1 0xE5 SHL DUP2 MSTORE PUSH1 0x20 PUSH1 0x4 DUP3 ADD MSTORE PUSH1 0x2D PUSH1 0x24 DUP3 ADD MSTORE PUSH32 0x53686172656431313535546F6B656E3A20496E73756666696369656E74204552 PUSH1 0x44 DUP3 ADD MSTORE PUSH13 0x43323020616C6C6F77616E6365 PUSH1 0x98 SHL PUSH1 0x64 DUP3 ADD MSTORE PUSH1 0x84 ADD PUSH2 0x803 JUMP JUMPDEST PUSH1 0x40 MLOAD PUSH4 0x23B872DD PUSH1 0xE0 SHL DUP2 MSTORE CALLER PUSH1 0x4 DUP3 ADD MSTORE PUSH1 0x1 PUSH1 0x1 PUSH1 0xA0 SHL SUB DUP6 DUP2 AND PUSH1 0x24 DUP4 ADD MSTORE PUSH1 0x44 DUP3 ADD DUP6 SWAP1 MSTORE DUP3 AND SWAP1 PUSH4 0x23B872DD SWAP1 PUSH1 0x64 ADD PUSH1 0x20 PUSH1 0x40 MLOAD DUP1 DUP4 SUB DUP2 PUSH0 DUP8 GAS CALL ISZERO DUP1 ISZERO PUSH2 0x1AD3 JUMPI RETURNDATASIZE PUSH0 PUSH0 RETURNDATACOPY RETURNDATASIZE PUSH0 REVERT JUMPDEST POP POP POP POP PUSH1 0x40 MLOAD RETURNDATASIZE PUSH1 0x1F NOT PUSH1 0x1F DUP3 ADD AND DUP3 ADD DUP1 PUSH1 0x40 MSTORE POP DUP2 ADD SWAP1 PUSH2 0x1AF7 SWAP2 SWAP1 PUSH2 0x390F JUMP JUMPDEST POP PUSH0 DUP1 JUMPDEST PUSH1 0xF SLOAD DUP2 LT ISZERO PUSH2 0x1B5A JUMPI DUP4 DUP1 MLOAD SWAP1 PUSH1 0x20 ADD KECCAK256 PUSH2 0x1B23 PUSH1 0xF DUP4 DUP2 SLOAD DUP2 LT PUSH2 0xB29 JUMPI PUSH2 0xB29 PUSH2 0x3558 JUMP JUMPDEST DUP1 MLOAD SWAP1 PUSH1 0x20 ADD KECCAK256 SUB PUSH2 0x1B52 JUMPI PUSH1 0xF DUP2 DUP2 SLOAD DUP2 LT PUSH2 0x1B42 JUMPI PUSH2 0x1B42 PUSH2 0x3558 JUMP JUMPDEST SWAP1 PUSH0 MSTORE PUSH1 0x20 PUSH0 KECCAK256 ADD SLOAD SWAP2 POP PUSH2 0x1B5A JUMP JUMPDEST PUSH1 0x1 ADD PUSH2 0x1AFB JUMP JUMPDEST POP DUP1 PUSH0 SUB PUSH2 0x1B7A JUMPI PUSH1 0x40 MLOAD PUSH3 0x461BCD PUSH1 0xE5 SHL DUP2 MSTORE PUSH1 0x4 ADD PUSH2 0x803 SWAP1 PUSH2 0x37BC JUMP JUMPDEST PUSH1 0x1 PUSH2 0x1B86 ADDRESS DUP4 PUSH2 0x6D4 JUMP JUMPDEST LT ISZERO PUSH2 0x1BA4 JUMPI PUSH1 0x40 MLOAD PUSH3 0x461BCD PUSH1 0xE5 SHL DUP2 MSTORE PUSH1 0x4 ADD PUSH2 0x803 SWAP1 PUSH2 0x3812 JUMP JUMPDEST PUSH2 0x1BC0 ADDRESS CALLER DUP4 PUSH1 0x1 PUSH1 0x40 MLOAD DUP1 PUSH1 0x20 ADD PUSH1 0x40 MSTORE DUP1 PUSH0 DUP2 MSTORE POP PUSH2 0x1C6C JUMP JUMPDEST PUSH1 0x40 MLOAD PUSH4 0x23B872DD PUSH1 0xE0 SHL DUP2 MSTORE CALLER PUSH1 0x4 DUP3 ADD MSTORE PUSH1 0x1 PUSH1 0x1 PUSH1 0xA0 SHL SUB DUP7 DUP2 AND PUSH1 0x24 DUP4 ADD MSTORE PUSH1 0x44 DUP3 ADD DUP7 SWAP1 MSTORE DUP4 AND SWAP1 PUSH4 0x23B872DD SWAP1 PUSH1 0x64 ADD PUSH1 0x20 PUSH1 0x40 MLOAD DUP1 DUP4 SUB DUP2 PUSH0 DUP8 GAS CALL ISZERO DUP1 ISZERO PUSH2 0x1C12 JUMPI RETURNDATASIZE PUSH0 PUSH0 RETURNDATACOPY RETURNDATASIZE PUSH0 REVERT JUMPDEST POP POP POP POP PUSH1 0x40 MLOAD RETURNDATASIZE PUSH1 0x1F NOT PUSH1 0x1F DUP3 ADD AND DUP3 ADD DUP1 PUSH1 0x40 MSTORE POP DUP2 ADD SWAP1 PUSH2 0x1C36 SWAP2 SWAP1 PUSH2 0x390F JUMP JUMPDEST POP POP POP POP POP POP POP JUMP JUMPDEST PUSH1 0x1 PUSH1 0x1 PUSH1 0xA0 SHL SUB SWAP2 DUP3 AND PUSH0 SWAP1 DUP2 MSTORE PUSH1 0x3 PUSH1 0x20 SWAP1 DUP2 MSTORE PUSH1 0x40 DUP1 DUP4 KECCAK256 SWAP4 SWAP1 SWAP5 AND DUP3 MSTORE SWAP2 SWAP1 SWAP2 MSTORE KECCAK256 SLOAD PUSH1 0xFF AND SWAP1 JUMP JUMPDEST CALLER PUSH1 0x1 PUSH1 0x1 PUSH1 0xA0 SHL SUB DUP7 AND DUP2 EQ DUP1 ISZERO SWAP1 PUSH2 0x1C8D JUMPI POP PUSH2 0x1C8B DUP7 DUP3 PUSH2 0x1C3F JUMP JUMPDEST ISZERO JUMPDEST ISZERO PUSH2 0x1CBE JUMPI PUSH1 0x40 MLOAD PUSH4 0x711BEC91 PUSH1 0xE1 SHL DUP2 MSTORE PUSH1 0x1 PUSH1 0x1 PUSH1 0xA0 SHL SUB DUP1 DUP4 AND PUSH1 0x4 DUP4 ADD MSTORE DUP8 AND PUSH1 0x24 DUP3 ADD MSTORE PUSH1 0x44 ADD PUSH2 0x803 JUMP JUMPDEST PUSH2 0xA87 DUP7 DUP7 DUP7 DUP7 DUP7 PUSH2 0x226F JUMP JUMPDEST PUSH1 0x1 PUSH1 0x1 PUSH1 0xA0 SHL SUB DUP4 AND CALLER EQ DUP1 ISZERO SWAP1 PUSH2 0x1CEB JUMPI POP PUSH2 0x1CE9 DUP4 CALLER PUSH2 0x1C3F JUMP JUMPDEST ISZERO JUMPDEST ISZERO PUSH2 0x1CF6 JUMPI CALLER PUSH2 0xF75 JUMP JUMPDEST PUSH2 0x9F9 DUP4 DUP4 DUP4 PUSH2 0x22F2 JUMP JUMPDEST PUSH1 0xC PUSH1 0x20 MSTORE PUSH0 SWAP1 DUP2 MSTORE PUSH1 0x40 SWAP1 KECCAK256 DUP1 SLOAD PUSH1 0x1 DUP3 ADD DUP1 SLOAD SWAP2 SWAP3 SWAP2 PUSH2 0x1D22 SWAP1 PUSH2 0x356C JUMP JUMPDEST DUP1 PUSH1 0x1F ADD PUSH1 0x20 DUP1 SWAP2 DIV MUL PUSH1 0x20 ADD PUSH1 0x40 MLOAD SWAP1 DUP2 ADD PUSH1 0x40 MSTORE DUP1 SWAP3 SWAP2 SWAP1 DUP2 DUP2 MSTORE PUSH1 0x20 ADD DUP3 DUP1 SLOAD PUSH2 0x1D4E SWAP1 PUSH2 0x356C JUMP JUMPDEST DUP1 ISZERO PUSH2 0x1D99 JUMPI DUP1 PUSH1 0x1F LT PUSH2 0x1D70 JUMPI PUSH2 0x100 DUP1 DUP4 SLOAD DIV MUL DUP4 MSTORE SWAP2 PUSH1 0x20 ADD SWAP2 PUSH2 0x1D99 JUMP JUMPDEST DUP3 ADD SWAP2 SWAP1 PUSH0 MSTORE PUSH1 0x20 PUSH0 KECCAK256 SWAP1 JUMPDEST DUP2 SLOAD DUP2 MSTORE SWAP1 PUSH1 0x1 ADD SWAP1 PUSH1 0x20 ADD DUP1 DUP4 GT PUSH2 0x1D7C JUMPI DUP3 SWAP1 SUB PUSH1 0x1F AND DUP3 ADD SWAP2 JUMPDEST POP POP POP POP POP SWAP1 POP DUP3 JUMP JUMPDEST PUSH0 PUSH1 0x1 PUSH1 0x1 PUSH1 0xE0 SHL SUB NOT DUP3 AND PUSH4 0x6CDB3D13 PUSH1 0xE1 SHL EQ DUP1 PUSH2 0x1DD3 JUMPI POP PUSH1 0x1 PUSH1 0x1 PUSH1 0xE0 SHL SUB NOT DUP3 AND PUSH4 0x3A24D07 PUSH1 0xE2 SHL EQ JUMPDEST DUP1 PUSH2 0x6F7 JUMPI POP PUSH2 0x6F7 DUP3 PUSH2 0x2358 JUMP JUMPDEST PUSH2 0xC17 DUP2 CALLER PUSH2 0x238C JUMP JUMPDEST PUSH0 DUP2 DUP2 MSTORE PUSH1 0x6 PUSH1 0x20 MSTORE PUSH1 0x40 DUP2 KECCAK256 DUP1 SLOAD PUSH1 0x60 SWAP3 SWAP2 SWAP1 PUSH2 0x1E09 SWAP1 PUSH2 0x356C JUMP JUMPDEST DUP1 PUSH1 0x1F ADD PUSH1 0x20 DUP1 SWAP2 DIV MUL PUSH1 0x20 ADD PUSH1 0x40 MLOAD SWAP1 DUP2 ADD PUSH1 0x40 MSTORE DUP1 SWAP3 SWAP2 SWAP1 DUP2 DUP2 MSTORE PUSH1 0x20 ADD DUP3 DUP1 SLOAD PUSH2 0x1E35 SWAP1 PUSH2 0x356C JUMP JUMPDEST DUP1 ISZERO PUSH2 0x1E80 JUMPI DUP1 PUSH1 0x1F LT PUSH2 0x1E57 JUMPI PUSH2 0x100 DUP1 DUP4 SLOAD DIV MUL DUP4 MSTORE SWAP2 PUSH1 0x20 ADD SWAP2 PUSH2 0x1E80 JUMP JUMPDEST DUP3 ADD SWAP2 SWAP1 PUSH0 MSTORE PUSH1 0x20 PUSH0 KECCAK256 SWAP1 JUMPDEST DUP2 SLOAD DUP2 MSTORE SWAP1 PUSH1 0x1 ADD SWAP1 PUSH1 0x20 ADD DUP1 DUP4 GT PUSH2 0x1E63 JUMPI DUP3 SWAP1 SUB PUSH1 0x1F AND DUP3 ADD SWAP2 JUMPDEST POP POP POP POP POP SWAP1 POP PUSH0 DUP2 MLOAD GT PUSH2 0x1E9D JUMPI PUSH2 0x1E98 DUP4 PUSH2 0x23C5 JUMP JUMPDEST PUSH2 0x1EC1 JUMP JUMPDEST PUSH1 0x5 DUP2 PUSH1 0x40 MLOAD PUSH1 0x20 ADD PUSH2 0x1EB1 SWAP3 SWAP2 SWAP1 PUSH2 0x392A JUMP JUMPDEST PUSH1 0x40 MLOAD PUSH1 0x20 DUP2 DUP4 SUB SUB DUP2 MSTORE SWAP1 PUSH1 0x40 MSTORE JUMPDEST SWAP4 SWAP3 POP POP POP JUMP JUMPDEST PUSH0 DUP3 DUP2 MSTORE PUSH1 0x6 PUSH1 0x20 MSTORE PUSH1 0x40 SWAP1 KECCAK256 PUSH2 0x1EDF DUP3 DUP3 PUSH2 0x365B JUMP JUMPDEST POP DUP2 PUSH32 0x6BB7FF708619BA0610CBA295A58592E0451DEE2622938C8755667688DAF3529B PUSH2 0x1F0B DUP5 PUSH2 0x969 JUMP JUMPDEST PUSH1 0x40 MLOAD PUSH2 0x1F18 SWAP2 SWAP1 PUSH2 0x2BEC JUMP JUMPDEST PUSH1 0x40 MLOAD DUP1 SWAP2 SUB SWAP1 LOG2 POP POP JUMP JUMPDEST PUSH1 0x1 PUSH1 0x1 PUSH1 0xA0 SHL SUB DUP5 AND PUSH2 0x1F4D JUMPI PUSH1 0x40 MLOAD PUSH4 0x2BFA23E7 PUSH1 0xE1 SHL DUP2 MSTORE PUSH0 PUSH1 0x4 DUP3 ADD MSTORE PUSH1 0x24 ADD PUSH2 0x803 JUMP JUMPDEST PUSH2 0xAB3 PUSH0 DUP6 DUP6 DUP6 DUP6 PUSH2 0x23D4 JUMP JUMPDEST PUSH1 0x1 PUSH1 0x1 PUSH1 0xA0 SHL SUB DUP5 AND PUSH2 0x1F83 JUMPI PUSH1 0x40 MLOAD PUSH4 0x2BFA23E7 PUSH1 0xE1 SHL DUP2 MSTORE PUSH0 PUSH1 0x4 DUP3 ADD MSTORE PUSH1 0x24 ADD PUSH2 0x803 JUMP JUMPDEST PUSH1 0x1 PUSH1 0x1 PUSH1 0xA0 SHL SUB DUP6 AND PUSH2 0x1FAB JUMPI PUSH1 0x40 MLOAD PUSH3 0x6A0D45 PUSH1 0xE2 SHL DUP2 MSTORE PUSH0 PUSH1 0x4 DUP3 ADD MSTORE PUSH1 0x24 ADD PUSH2 0x803 JUMP JUMPDEST PUSH2 0xA21 DUP6 DUP6 DUP6 DUP6 DUP6 PUSH2 0x23D4 JUMP JUMPDEST PUSH0 PUSH2 0x1FC3 DUP4 DUP4 PUSH2 0x119D JUMP JUMPDEST PUSH2 0x2040 JUMPI PUSH0 DUP4 DUP2 MSTORE PUSH1 0x20 DUP2 DUP2 MSTORE PUSH1 0x40 DUP1 DUP4 KECCAK256 PUSH1 0x1 PUSH1 0x1 PUSH1 0xA0 SHL SUB DUP7 AND DUP5 MSTORE SWAP1 SWAP2 MSTORE SWAP1 KECCAK256 DUP1 SLOAD PUSH1 0xFF NOT AND PUSH1 0x1 OR SWAP1 SSTORE PUSH2 0x1FF8 CALLER SWAP1 JUMP JUMPDEST PUSH1 0x1 PUSH1 0x1 PUSH1 0xA0 SHL SUB AND DUP3 PUSH1 0x1 PUSH1 0x1 PUSH1 0xA0 SHL SUB AND DUP5 PUSH32 0x2F8788117E7EFF1D82E926EC794901D17C78024A50270940304540A733656F0D PUSH1 0x40 MLOAD PUSH1 0x40 MLOAD DUP1 SWAP2 SUB SWAP1 LOG4 POP PUSH1 0x1 PUSH2 0x6F7 JUMP JUMPDEST POP PUSH0 PUSH2 0x6F7 JUMP JUMPDEST PUSH0 PUSH2 0x2052 DUP4 DUP4 PUSH2 0x119D JUMP JUMPDEST ISZERO PUSH2 0x2040 JUMPI PUSH0 DUP4 DUP2 MSTORE PUSH1 0x20 DUP2 DUP2 MSTORE PUSH1 0x40 DUP1 DUP4 KECCAK256 PUSH1 0x1 PUSH1 0x1 PUSH1 0xA0 SHL SUB DUP7 AND DUP1 DUP6 MSTORE SWAP3 MSTORE DUP1 DUP4 KECCAK256 DUP1 SLOAD PUSH1 0xFF NOT AND SWAP1 SSTORE MLOAD CALLER SWAP3 DUP7 SWAP2 PUSH32 0xF6391F5C32D9C69D2A47EA670B442974B53935D1EDC7FD64EB21E047A839171B SWAP2 SWAP1 LOG4 POP PUSH1 0x1 PUSH2 0x6F7 JUMP JUMPDEST PUSH2 0x20B8 PUSH2 0x2427 JUMP JUMPDEST PUSH1 0x1 DUP1 SLOAD PUSH1 0xFF NOT AND SWAP1 SSTORE PUSH32 0x5DB9EE0A495BF2E6FF9C91A7834C1BA4FDD244A5E8AA4E537BD38AEAE4B073AA CALLER JUMPDEST PUSH1 0x40 MLOAD PUSH1 0x1 PUSH1 0x1 PUSH1 0xA0 SHL SUB SWAP1 SWAP2 AND DUP2 MSTORE PUSH1 0x20 ADD PUSH1 0x40 MLOAD DUP1 SWAP2 SUB SWAP1 LOG1 JUMP JUMPDEST PUSH1 0x1 PUSH1 0x1 PUSH1 0xA0 SHL SUB DUP4 AND PUSH2 0x212A JUMPI PUSH1 0x40 MLOAD PUSH3 0x6A0D45 PUSH1 0xE2 SHL DUP2 MSTORE PUSH0 PUSH1 0x4 DUP3 ADD MSTORE PUSH1 0x24 ADD PUSH2 0x803 JUMP JUMPDEST PUSH2 0x9F9 DUP4 PUSH0 DUP5 DUP5 PUSH1 0x40 MLOAD DUP1 PUSH1 0x20 ADD PUSH1 0x40 MSTORE DUP1 PUSH0 DUP2 MSTORE POP PUSH2 0x23D4 JUMP JUMPDEST PUSH1 0x1 PUSH1 0x1 PUSH1 0xA0 SHL SUB DUP5 AND PUSH2 0x216E JUMPI PUSH1 0x40 MLOAD PUSH4 0x2BFA23E7 PUSH1 0xE1 SHL DUP2 MSTORE PUSH0 PUSH1 0x4 DUP3 ADD MSTORE PUSH1 0x24 ADD PUSH2 0x803 JUMP JUMPDEST PUSH1 0x40 DUP1 MLOAD PUSH1 0x1 DUP1 DUP3 MSTORE PUSH1 0x20 DUP3 ADD DUP7 SWAP1 MSTORE DUP2 DUP4 ADD SWAP1 DUP2 MSTORE PUSH1 0x60 DUP3 ADD DUP6 SWAP1 MSTORE PUSH1 0x80 DUP3 ADD SWAP1 SWAP3 MSTORE SWAP1 PUSH2 0xA87 PUSH0 DUP8 DUP5 DUP5 DUP8 PUSH2 0x23D4 JUMP JUMPDEST PUSH2 0x21A8 PUSH2 0x2472 JUMP JUMPDEST PUSH1 0x1 DUP1 SLOAD PUSH1 0xFF NOT AND DUP2 OR SWAP1 SSTORE PUSH32 0x62E78CEA01BEE320CD4E420270B5EA74000D11B0C9F74754EBDBFC544B05A258 CALLER PUSH2 0x20E5 JUMP JUMPDEST PUSH1 0x1 PUSH1 0x1 PUSH1 0xA0 SHL SUB DUP3 AND PUSH2 0x2203 JUMPI PUSH1 0x40 MLOAD PUSH3 0xCED3E1 PUSH1 0xE8 SHL DUP2 MSTORE PUSH0 PUSH1 0x4 DUP3 ADD MSTORE PUSH1 0x24 ADD PUSH2 0x803 JUMP JUMPDEST PUSH1 0x1 PUSH1 0x1 PUSH1 0xA0 SHL SUB DUP4 DUP2 AND PUSH0 DUP2 DUP2 MSTORE PUSH1 0x3 PUSH1 0x20 SWAP1 DUP2 MSTORE PUSH1 0x40 DUP1 DUP4 KECCAK256 SWAP5 DUP8 AND DUP1 DUP5 MSTORE SWAP5 DUP3 MSTORE SWAP2 DUP3 SWAP1 KECCAK256 DUP1 SLOAD PUSH1 0xFF NOT AND DUP7 ISZERO ISZERO SWAP1 DUP2 OR SWAP1 SWAP2 SSTORE SWAP2 MLOAD SWAP2 DUP3 MSTORE PUSH32 0x17307EAB39AB6107E8899845AD3D59BD9653F200F220920489CA2B5937696C31 SWAP2 ADD PUSH1 0x40 MLOAD DUP1 SWAP2 SUB SWAP1 LOG3 POP POP POP JUMP JUMPDEST PUSH1 0x1 PUSH1 0x1 PUSH1 0xA0 SHL SUB DUP5 AND PUSH2 0x2298 JUMPI PUSH1 0x40 MLOAD PUSH4 0x2BFA23E7 PUSH1 0xE1 SHL DUP2 MSTORE PUSH0 PUSH1 0x4 DUP3 ADD MSTORE PUSH1 0x24 ADD PUSH2 0x803 JUMP JUMPDEST PUSH1 0x1 PUSH1 0x1 PUSH1 0xA0 SHL SUB DUP6 AND PUSH2 0x22C0 JUMPI PUSH1 0x40 MLOAD PUSH3 0x6A0D45 PUSH1 0xE2 SHL DUP2 MSTORE PUSH0 PUSH1 0x4 DUP3 ADD MSTORE PUSH1 0x24 ADD PUSH2 0x803 JUMP JUMPDEST PUSH1 0x40 DUP1 MLOAD PUSH1 0x1 DUP1 DUP3 MSTORE PUSH1 0x20 DUP3 ADD DUP7 SWAP1 MSTORE DUP2 DUP4 ADD SWAP1 DUP2 MSTORE PUSH1 0x60 DUP3 ADD DUP6 SWAP1 MSTORE PUSH1 0x80 DUP3 ADD SWAP1 SWAP3 MSTORE SWAP1 PUSH2 0x1C36 DUP8 DUP8 DUP5 DUP5 DUP8 PUSH2 0x23D4 JUMP JUMPDEST PUSH1 0x1 PUSH1 0x1 PUSH1 0xA0 SHL SUB DUP4 AND PUSH2 0x231A JUMPI PUSH1 0x40 MLOAD PUSH3 0x6A0D45 PUSH1 0xE2 SHL DUP2 MSTORE PUSH0 PUSH1 0x4 DUP3 ADD MSTORE PUSH1 0x24 ADD PUSH2 0x803 JUMP JUMPDEST PUSH1 0x40 DUP1 MLOAD PUSH1 0x1 DUP1 DUP3 MSTORE PUSH1 0x20 DUP3 ADD DUP6 SWAP1 MSTORE DUP2 DUP4 ADD SWAP1 DUP2 MSTORE PUSH1 0x60 DUP3 ADD DUP5 SWAP1 MSTORE PUSH1 0xA0 DUP3 ADD SWAP1 SWAP3 MSTORE PUSH0 PUSH1 0x80 DUP3 ADD DUP2 DUP2 MSTORE SWAP2 SWAP3 SWAP2 PUSH2 0xA21 SWAP2 DUP8 SWAP2 DUP6 SWAP1 DUP6 SWAP1 PUSH2 0x23D4 JUMP JUMPDEST PUSH0 PUSH1 0x1 PUSH1 0x1 PUSH1 0xE0 SHL SUB NOT DUP3 AND PUSH4 0x7965DB0B PUSH1 0xE0 SHL EQ DUP1 PUSH2 0x6F7 JUMPI POP PUSH4 0x1FFC9A7 PUSH1 0xE0 SHL PUSH1 0x1 PUSH1 0x1 PUSH1 0xE0 SHL SUB NOT DUP4 AND EQ PUSH2 0x6F7 JUMP JUMPDEST PUSH2 0x2396 DUP3 DUP3 PUSH2 0x119D JUMP JUMPDEST PUSH2 0x1164 JUMPI PUSH1 0x40 MLOAD PUSH4 0xE2517D3F PUSH1 0xE0 SHL DUP2 MSTORE PUSH1 0x1 PUSH1 0x1 PUSH1 0xA0 SHL SUB DUP3 AND PUSH1 0x4 DUP3 ADD MSTORE PUSH1 0x24 DUP2 ADD DUP4 SWAP1 MSTORE PUSH1 0x44 ADD PUSH2 0x803 JUMP JUMPDEST PUSH1 0x60 PUSH1 0x4 DUP1 SLOAD PUSH2 0x146E SWAP1 PUSH2 0x356C JUMP JUMPDEST PUSH2 0x23E0 DUP6 DUP6 DUP6 DUP6 PUSH2 0x24B8 JUMP JUMPDEST PUSH1 0x1 PUSH1 0x1 PUSH1 0xA0 SHL SUB DUP5 AND ISZERO PUSH2 0xA21 JUMPI DUP3 MLOAD CALLER SWAP1 PUSH1 0x1 SUB PUSH2 0x2419 JUMPI PUSH1 0x20 DUP5 DUP2 ADD MLOAD SWAP1 DUP5 ADD MLOAD PUSH2 0x2412 DUP4 DUP10 DUP10 DUP6 DUP6 DUP10 PUSH2 0x24CC JUMP JUMPDEST POP POP PUSH2 0xA87 JUMP JUMPDEST PUSH2 0xA87 DUP2 DUP8 DUP8 DUP8 DUP8 DUP8 PUSH2 0x25ED JUMP JUMPDEST PUSH1 0x1 SLOAD PUSH1 0xFF AND PUSH2 0x2470 JUMPI PUSH1 0x40 MLOAD PUSH3 0x461BCD PUSH1 0xE5 SHL DUP2 MSTORE PUSH1 0x20 PUSH1 0x4 DUP3 ADD MSTORE PUSH1 0x14 PUSH1 0x24 DUP3 ADD MSTORE PUSH20 0x14185D5CD8589B194E881B9BDD081C185D5CD959 PUSH1 0x62 SHL PUSH1 0x44 DUP3 ADD MSTORE PUSH1 0x64 ADD PUSH2 0x803 JUMP JUMPDEST JUMP JUMPDEST PUSH1 0x1 SLOAD PUSH1 0xFF AND ISZERO PUSH2 0x2470 JUMPI PUSH1 0x40 MLOAD PUSH3 0x461BCD PUSH1 0xE5 SHL DUP2 MSTORE PUSH1 0x20 PUSH1 0x4 DUP3 ADD MSTORE PUSH1 0x10 PUSH1 0x24 DUP3 ADD MSTORE PUSH16 0x14185D5CD8589B194E881C185D5CD959 PUSH1 0x82 SHL PUSH1 0x44 DUP3 ADD MSTORE PUSH1 0x64 ADD PUSH2 0x803 JUMP JUMPDEST PUSH2 0x24C0 PUSH2 0x2472 JUMP JUMPDEST PUSH2 0xAB3 DUP5 DUP5 DUP5 DUP5 PUSH2 0x26D4 JUMP JUMPDEST PUSH1 0x1 PUSH1 0x1 PUSH1 0xA0 SHL SUB DUP5 AND EXTCODESIZE ISZERO PUSH2 0xA87 JUMPI PUSH1 0x40 MLOAD PUSH4 0xF23A6E61 PUSH1 0xE0 SHL DUP2 MSTORE PUSH1 0x1 PUSH1 0x1 PUSH1 0xA0 SHL SUB DUP6 AND SWAP1 PUSH4 0xF23A6E61 SWAP1 PUSH2 0x2510 SWAP1 DUP10 SWAP1 DUP10 SWAP1 DUP9 SWAP1 DUP9 SWAP1 DUP9 SWAP1 PUSH1 0x4 ADD PUSH2 0x394C JUMP JUMPDEST PUSH1 0x20 PUSH1 0x40 MLOAD DUP1 DUP4 SUB DUP2 PUSH0 DUP8 GAS CALL SWAP3 POP POP POP DUP1 ISZERO PUSH2 0x254A JUMPI POP PUSH1 0x40 DUP1 MLOAD PUSH1 0x1F RETURNDATASIZE SWAP1 DUP2 ADD PUSH1 0x1F NOT AND DUP3 ADD SWAP1 SWAP3 MSTORE PUSH2 0x2547 SWAP2 DUP2 ADD SWAP1 PUSH2 0x3990 JUMP JUMPDEST PUSH1 0x1 JUMPDEST PUSH2 0x25B1 JUMPI RETURNDATASIZE DUP1 DUP1 ISZERO PUSH2 0x2577 JUMPI PUSH1 0x40 MLOAD SWAP2 POP PUSH1 0x1F NOT PUSH1 0x3F RETURNDATASIZE ADD AND DUP3 ADD PUSH1 0x40 MSTORE RETURNDATASIZE DUP3 MSTORE RETURNDATASIZE PUSH0 PUSH1 0x20 DUP5 ADD RETURNDATACOPY PUSH2 0x257C JUMP JUMPDEST PUSH1 0x60 SWAP2 POP JUMPDEST POP DUP1 MLOAD PUSH0 SUB PUSH2 0x25A9 JUMPI PUSH1 0x40 MLOAD PUSH4 0x2BFA23E7 PUSH1 0xE1 SHL DUP2 MSTORE PUSH1 0x1 PUSH1 0x1 PUSH1 0xA0 SHL SUB DUP7 AND PUSH1 0x4 DUP3 ADD MSTORE PUSH1 0x24 ADD PUSH2 0x803 JUMP JUMPDEST DUP1 MLOAD PUSH1 0x20 DUP3 ADD REVERT JUMPDEST PUSH1 0x1 PUSH1 0x1 PUSH1 0xE0 SHL SUB NOT DUP2 AND PUSH4 0xF23A6E61 PUSH1 0xE0 SHL EQ PUSH2 0x1C36 JUMPI PUSH1 0x40 MLOAD PUSH4 0x2BFA23E7 PUSH1 0xE1 SHL DUP2 MSTORE PUSH1 0x1 PUSH1 0x1 PUSH1 0xA0 SHL SUB DUP7 AND PUSH1 0x4 DUP3 ADD MSTORE PUSH1 0x24 ADD PUSH2 0x803 JUMP JUMPDEST PUSH1 0x1 PUSH1 0x1 PUSH1 0xA0 SHL SUB DUP5 AND EXTCODESIZE ISZERO PUSH2 0xA87 JUMPI PUSH1 0x40 MLOAD PUSH4 0xBC197C81 PUSH1 0xE0 SHL DUP2 MSTORE PUSH1 0x1 PUSH1 0x1 PUSH1 0xA0 SHL SUB DUP6 AND SWAP1 PUSH4 0xBC197C81 SWAP1 PUSH2 0x2631 SWAP1 DUP10 SWAP1 DUP10 SWAP1 DUP9 SWAP1 DUP9 SWAP1 DUP9 SWAP1 PUSH1 0x4 ADD PUSH2 0x39AB JUMP JUMPDEST PUSH1 0x20 PUSH1 0x40 MLOAD DUP1 DUP4 SUB DUP2 PUSH0 DUP8 GAS CALL SWAP3 POP POP POP DUP1 ISZERO PUSH2 0x266B JUMPI POP PUSH1 0x40 DUP1 MLOAD PUSH1 0x1F RETURNDATASIZE SWAP1 DUP2 ADD PUSH1 0x1F NOT AND DUP3 ADD SWAP1 SWAP3 MSTORE PUSH2 0x2668 SWAP2 DUP2 ADD SWAP1 PUSH2 0x3990 JUMP JUMPDEST PUSH1 0x1 JUMPDEST PUSH2 0x2698 JUMPI RETURNDATASIZE DUP1 DUP1 ISZERO PUSH2 0x2577 JUMPI PUSH1 0x40 MLOAD SWAP2 POP PUSH1 0x1F NOT PUSH1 0x3F RETURNDATASIZE ADD AND DUP3 ADD PUSH1 0x40 MSTORE RETURNDATASIZE DUP3 MSTORE RETURNDATASIZE PUSH0 PUSH1 0x20 DUP5 ADD RETURNDATACOPY PUSH2 0x257C JUMP JUMPDEST PUSH1 0x1 PUSH1 0x1 PUSH1 0xE0 SHL SUB NOT DUP2 AND PUSH4 0xBC197C81 PUSH1 0xE0 SHL EQ PUSH2 0x1C36 JUMPI PUSH1 0x40 MLOAD PUSH4 0x2BFA23E7 PUSH1 0xE1 SHL DUP2 MSTORE PUSH1 0x1 PUSH1 0x1 PUSH1 0xA0 SHL SUB DUP7 AND PUSH1 0x4 DUP3 ADD MSTORE PUSH1 0x24 ADD PUSH2 0x803 JUMP JUMPDEST PUSH2 0x26E0 DUP5 DUP5 DUP5 DUP5 PUSH2 0x27BB JUMP JUMPDEST PUSH1 0x1 PUSH1 0x1 PUSH1 0xA0 SHL SUB DUP5 AND PUSH2 0x275D JUMPI PUSH0 DUP1 JUMPDEST DUP4 MLOAD DUP2 LT ISZERO PUSH2 0x2744 JUMPI PUSH1 0x20 DUP2 DUP2 MUL DUP5 DUP2 ADD DUP3 ADD MLOAD SWAP1 DUP7 ADD DUP3 ADD MLOAD PUSH0 SWAP1 DUP2 MSTORE PUSH1 0x7 SWAP1 SWAP3 MSTORE PUSH1 0x40 DUP3 KECCAK256 DUP1 SLOAD SWAP2 SWAP3 DUP4 SWAP3 PUSH2 0x2729 SWAP1 DUP5 SWAP1 PUSH2 0x3A08 JUMP JUMPDEST SWAP1 SWAP2 SSTORE POP PUSH2 0x2739 SWAP1 POP DUP2 DUP5 PUSH2 0x3A08 JUMP JUMPDEST SWAP3 POP POP PUSH1 0x1 ADD PUSH2 0x26F1 JUMP JUMPDEST POP DUP1 PUSH1 0x8 PUSH0 DUP3 DUP3 SLOAD PUSH2 0x2756 SWAP2 SWAP1 PUSH2 0x3A08 JUMP JUMPDEST SWAP1 SWAP2 SSTORE POP POP POP JUMPDEST PUSH1 0x1 PUSH1 0x1 PUSH1 0xA0 SHL SUB DUP4 AND PUSH2 0xAB3 JUMPI PUSH0 DUP1 JUMPDEST DUP4 MLOAD DUP2 LT ISZERO PUSH2 0x27AA JUMPI PUSH1 0x20 DUP2 DUP2 MUL DUP5 DUP2 ADD DUP3 ADD MLOAD SWAP1 DUP7 ADD DUP3 ADD MLOAD PUSH0 SWAP1 DUP2 MSTORE PUSH1 0x7 SWAP1 SWAP3 MSTORE PUSH1 0x40 SWAP1 SWAP2 KECCAK256 DUP1 SLOAD DUP3 SWAP1 SUB SWAP1 SSTORE SWAP2 SWAP1 SWAP2 ADD SWAP1 PUSH1 0x1 ADD PUSH2 0x276E JUMP JUMPDEST POP PUSH1 0x8 DUP1 SLOAD SWAP2 SWAP1 SWAP2 SUB SWAP1 SSTORE POP POP POP POP JUMP JUMPDEST DUP1 MLOAD DUP3 MLOAD EQ PUSH2 0x27EA JUMPI DUP2 MLOAD DUP2 MLOAD PUSH1 0x40 MLOAD PUSH4 0x5B059991 PUSH1 0xE0 SHL DUP2 MSTORE PUSH1 0x4 DUP2 ADD SWAP3 SWAP1 SWAP3 MSTORE PUSH1 0x24 DUP3 ADD MSTORE PUSH1 0x44 ADD PUSH2 0x803 JUMP JUMPDEST CALLER PUSH0 JUMPDEST DUP4 MLOAD DUP2 LT ISZERO PUSH2 0x28F2 JUMPI PUSH1 0x20 DUP2 DUP2 MUL DUP6 DUP2 ADD DUP3 ADD MLOAD SWAP1 DUP6 ADD SWAP1 SWAP2 ADD MLOAD PUSH1 0x1 PUSH1 0x1 PUSH1 0xA0 SHL SUB DUP9 AND ISZERO PUSH2 0x28A2 JUMPI PUSH0 DUP3 DUP2 MSTORE PUSH1 0x2 PUSH1 0x20 SWAP1 DUP2 MSTORE PUSH1 0x40 DUP1 DUP4 KECCAK256 PUSH1 0x1 PUSH1 0x1 PUSH1 0xA0 SHL SUB DUP13 AND DUP5 MSTORE SWAP1 SWAP2 MSTORE SWAP1 KECCAK256 SLOAD DUP2 DUP2 LT ISZERO PUSH2 0x287A JUMPI PUSH1 0x40 MLOAD PUSH4 0x3DEE4C5 PUSH1 0xE0 SHL DUP2 MSTORE PUSH1 0x1 PUSH1 0x1 PUSH1 0xA0 SHL SUB DUP11 AND PUSH1 0x4 DUP3 ADD MSTORE PUSH1 0x24 DUP2 ADD DUP3 SWAP1 MSTORE PUSH1 0x44 DUP2 ADD DUP4 SWAP1 MSTORE PUSH1 0x64 DUP2 ADD DUP5 SWAP1 MSTORE PUSH1 0x84 ADD PUSH2 0x803 JUMP JUMPDEST PUSH0 DUP4 DUP2 MSTORE PUSH1 0x2 PUSH1 0x20 SWAP1 DUP2 MSTORE PUSH1 0x40 DUP1 DUP4 KECCAK256 PUSH1 0x1 PUSH1 0x1 PUSH1 0xA0 SHL SUB DUP14 AND DUP5 MSTORE SWAP1 SWAP2 MSTORE SWAP1 KECCAK256 SWAP1 DUP3 SWAP1 SUB SWAP1 SSTORE JUMPDEST PUSH1 0x1 PUSH1 0x1 PUSH1 0xA0 SHL SUB DUP8 AND ISZERO PUSH2 0x28E8 JUMPI PUSH0 DUP3 DUP2 MSTORE PUSH1 0x2 PUSH1 0x20 SWAP1 DUP2 MSTORE PUSH1 0x40 DUP1 DUP4 KECCAK256 PUSH1 0x1 PUSH1 0x1 PUSH1 0xA0 SHL SUB DUP12 AND DUP5 MSTORE SWAP1 SWAP2 MSTORE DUP2 KECCAK256 DUP1 SLOAD DUP4 SWAP3 SWAP1 PUSH2 0x28E2 SWAP1 DUP5 SWAP1 PUSH2 0x3A08 JUMP JUMPDEST SWAP1 SWAP2 SSTORE POP POP JUMPDEST POP POP PUSH1 0x1 ADD PUSH2 0x27ED JUMP JUMPDEST POP DUP3 MLOAD PUSH1 0x1 SUB PUSH2 0x2972 JUMPI PUSH1 0x20 DUP4 ADD MLOAD PUSH0 SWAP1 PUSH1 0x20 DUP5 ADD MLOAD SWAP1 SWAP2 POP DUP6 PUSH1 0x1 PUSH1 0x1 PUSH1 0xA0 SHL SUB AND DUP8 PUSH1 0x1 PUSH1 0x1 PUSH1 0xA0 SHL SUB AND DUP5 PUSH1 0x1 PUSH1 0x1 PUSH1 0xA0 SHL SUB AND PUSH32 0xC3D58168C5AE7397731D063D5BBF3D657854427343F4C083240F7AACAA2D0F62 DUP6 DUP6 PUSH1 0x40 MLOAD PUSH2 0x2963 SWAP3 SWAP2 SWAP1 SWAP2 DUP3 MSTORE PUSH1 0x20 DUP3 ADD MSTORE PUSH1 0x40 ADD SWAP1 JUMP JUMPDEST PUSH1 0x40 MLOAD DUP1 SWAP2 SUB SWAP1 LOG4 POP POP PUSH2 0xA21 JUMP JUMPDEST DUP4 PUSH1 0x1 PUSH1 0x1 PUSH1 0xA0 SHL SUB AND DUP6 PUSH1 0x1 PUSH1 0x1 PUSH1 0xA0 SHL SUB AND DUP3 PUSH1 0x1 PUSH1 0x1 PUSH1 0xA0 SHL SUB AND PUSH32 0x4A39DC06D4C0DBC64B70AF90FD698A233A518AA5D07E595D983B8C0526C8F7FB DUP7 DUP7 PUSH1 0x40 MLOAD PUSH2 0x29C1 SWAP3 SWAP2 SWAP1 PUSH2 0x3A1B JUMP JUMPDEST PUSH1 0x40 MLOAD DUP1 SWAP2 SUB SWAP1 LOG4 POP POP POP POP POP JUMP JUMPDEST POP DUP1 SLOAD PUSH2 0x29DC SWAP1 PUSH2 0x356C JUMP JUMPDEST PUSH0 DUP3 SSTORE DUP1 PUSH1 0x1F LT PUSH2 0x29EB JUMPI POP POP JUMP JUMPDEST PUSH1 0x1F ADD PUSH1 0x20 SWAP1 DIV SWAP1 PUSH0 MSTORE PUSH1 0x20 PUSH0 KECCAK256 SWAP1 DUP2 ADD SWAP1 PUSH2 0xC17 SWAP2 SWAP1 PUSH2 0x2A45 JUMP JUMPDEST PUSH1 0x40 MLOAD DUP1 PUSH1 0x80 ADD PUSH1 0x40 MSTORE DUP1 PUSH0 DUP2 MSTORE PUSH1 0x20 ADD PUSH0 DUP2 MSTORE PUSH1 0x20 ADD PUSH1 0x60 DUP2 MSTORE PUSH1 0x20 ADD PUSH2 0x2A40 PUSH1 0x40 MLOAD DUP1 PUSH1 0x40 ADD PUSH1 0x40 MSTORE DUP1 PUSH0 DUP2 MSTORE PUSH1 0x20 ADD PUSH0 DUP2 MSTORE POP SWAP1 JUMP JUMPDEST SWAP1 MSTORE SWAP1 JUMP JUMPDEST JUMPDEST DUP1 DUP3 GT ISZERO PUSH2 0x2A59 JUMPI PUSH0 DUP2 SSTORE PUSH1 0x1 ADD PUSH2 0x2A46 JUMP JUMPDEST POP SWAP1 JUMP JUMPDEST DUP1 CALLDATALOAD PUSH1 0x1 PUSH1 0x1 PUSH1 0xA0 SHL SUB DUP2 AND DUP2 EQ PUSH2 0x2A73 JUMPI PUSH0 PUSH0 REVERT JUMPDEST SWAP2 SWAP1 POP JUMP JUMPDEST PUSH0 PUSH0 PUSH1 0x40 DUP4 DUP6 SUB SLT ISZERO PUSH2 0x2A89 JUMPI PUSH0 PUSH0 REVERT JUMPDEST PUSH2 0x2A92 DUP4 PUSH2 0x2A5D JUMP JUMPDEST SWAP5 PUSH1 0x20 SWAP4 SWAP1 SWAP4 ADD CALLDATALOAD SWAP4 POP POP POP JUMP JUMPDEST PUSH1 0x1 PUSH1 0x1 PUSH1 0xE0 SHL SUB NOT DUP2 AND DUP2 EQ PUSH2 0xC17 JUMPI PUSH0 PUSH0 REVERT JUMPDEST PUSH0 PUSH1 0x20 DUP3 DUP5 SUB SLT ISZERO PUSH2 0x2AC5 JUMPI PUSH0 PUSH0 REVERT JUMPDEST DUP2 CALLDATALOAD PUSH2 0x1EC1 DUP2 PUSH2 0x2AA0 JUMP JUMPDEST PUSH4 0x4E487B71 PUSH1 0xE0 SHL PUSH0 MSTORE PUSH1 0x41 PUSH1 0x4 MSTORE PUSH1 0x24 PUSH0 REVERT JUMPDEST PUSH1 0x40 MLOAD PUSH1 0x1F DUP3 ADD PUSH1 0x1F NOT AND DUP2 ADD PUSH1 0x1 PUSH1 0x1 PUSH1 0x40 SHL SUB DUP2 GT DUP3 DUP3 LT OR ISZERO PUSH2 0x2B0C JUMPI PUSH2 0x2B0C PUSH2 0x2AD0 JUMP JUMPDEST PUSH1 0x40 MSTORE SWAP2 SWAP1 POP JUMP JUMPDEST PUSH0 DUP3 PUSH1 0x1F DUP4 ADD SLT PUSH2 0x2B23 JUMPI PUSH0 PUSH0 REVERT JUMPDEST DUP2 CALLDATALOAD PUSH1 0x20 DUP4 ADD PUSH0 PUSH0 PUSH1 0x1 PUSH1 0x1 PUSH1 0x40 SHL SUB DUP5 GT ISZERO PUSH2 0x2B42 JUMPI PUSH2 0x2B42 PUSH2 0x2AD0 JUMP JUMPDEST POP PUSH1 0x1F DUP4 ADD PUSH1 0x1F NOT AND PUSH1 0x20 ADD PUSH2 0x2B57 DUP2 PUSH2 0x2AE4 JUMP JUMPDEST SWAP2 POP POP DUP3 DUP2 MSTORE DUP6 DUP4 DUP4 ADD GT ISZERO PUSH2 0x2B6B JUMPI PUSH0 PUSH0 REVERT JUMPDEST DUP3 DUP3 PUSH1 0x20 DUP4 ADD CALLDATACOPY PUSH0 SWAP3 DUP2 ADD PUSH1 0x20 ADD SWAP3 SWAP1 SWAP3 MSTORE POP SWAP4 SWAP3 POP POP POP JUMP JUMPDEST PUSH0 PUSH1 0x20 DUP3 DUP5 SUB SLT ISZERO PUSH2 0x2B95 JUMPI PUSH0 PUSH0 REVERT JUMPDEST DUP2 CALLDATALOAD PUSH1 0x1 PUSH1 0x1 PUSH1 0x40 SHL SUB DUP2 GT ISZERO PUSH2 0x2BAA JUMPI PUSH0 PUSH0 REVERT JUMPDEST PUSH2 0x2BB6 DUP5 DUP3 DUP6 ADD PUSH2 0x2B14 JUMP JUMPDEST SWAP5 SWAP4 POP POP POP POP JUMP JUMPDEST PUSH0 DUP2 MLOAD DUP1 DUP5 MSTORE DUP1 PUSH1 0x20 DUP5 ADD PUSH1 0x20 DUP7 ADD MCOPY PUSH0 PUSH1 0x20 DUP3 DUP7 ADD ADD MSTORE PUSH1 0x20 PUSH1 0x1F NOT PUSH1 0x1F DUP4 ADD AND DUP6 ADD ADD SWAP2 POP POP SWAP3 SWAP2 POP POP JUMP JUMPDEST PUSH1 0x20 DUP2 MSTORE PUSH0 PUSH2 0x1EC1 PUSH1 0x20 DUP4 ADD DUP5 PUSH2 0x2BBE JUMP JUMPDEST PUSH0 PUSH1 0x20 DUP3 DUP5 SUB SLT ISZERO PUSH2 0x2C0E JUMPI PUSH0 PUSH0 REVERT JUMPDEST POP CALLDATALOAD SWAP2 SWAP1 POP JUMP JUMPDEST PUSH0 PUSH0 PUSH1 0x40 DUP4 DUP6 SUB SLT ISZERO PUSH2 0x2C26 JUMPI PUSH0 PUSH0 REVERT JUMPDEST DUP3 CALLDATALOAD SWAP2 POP PUSH1 0x20 DUP4 ADD CALLDATALOAD PUSH1 0x1 PUSH1 0x1 PUSH1 0x40 SHL SUB DUP2 GT ISZERO PUSH2 0x2C42 JUMPI PUSH0 PUSH0 REVERT JUMPDEST PUSH2 0x2C4E DUP6 DUP3 DUP7 ADD PUSH2 0x2B14 JUMP JUMPDEST SWAP2 POP POP SWAP3 POP SWAP3 SWAP1 POP JUMP JUMPDEST PUSH0 PUSH1 0x1 PUSH1 0x1 PUSH1 0x40 SHL SUB DUP3 GT ISZERO PUSH2 0x2C70 JUMPI PUSH2 0x2C70 PUSH2 0x2AD0 JUMP JUMPDEST POP PUSH1 0x5 SHL PUSH1 0x20 ADD SWAP1 JUMP JUMPDEST PUSH0 DUP3 PUSH1 0x1F DUP4 ADD SLT PUSH2 0x2C89 JUMPI PUSH0 PUSH0 REVERT JUMPDEST DUP2 CALLDATALOAD PUSH2 0x2C9C PUSH2 0x2C97 DUP3 PUSH2 0x2C58 JUMP JUMPDEST PUSH2 0x2AE4 JUMP JUMPDEST DUP1 DUP3 DUP3 MSTORE PUSH1 0x20 DUP3 ADD SWAP2 POP PUSH1 0x20 DUP4 PUSH1 0x5 SHL DUP7 ADD ADD SWAP3 POP DUP6 DUP4 GT ISZERO PUSH2 0x2CBD JUMPI PUSH0 PUSH0 REVERT JUMPDEST PUSH1 0x20 DUP6 ADD JUMPDEST DUP4 DUP2 LT ISZERO PUSH2 0x2CDA JUMPI DUP1 CALLDATALOAD DUP4 MSTORE PUSH1 0x20 SWAP3 DUP4 ADD SWAP3 ADD PUSH2 0x2CC2 JUMP JUMPDEST POP SWAP6 SWAP5 POP POP POP POP POP JUMP JUMPDEST PUSH0 PUSH0 PUSH0 PUSH0 PUSH1 0x80 DUP6 DUP8 SUB SLT ISZERO PUSH2 0x2CF7 JUMPI PUSH0 PUSH0 REVERT JUMPDEST PUSH2 0x2D00 DUP6 PUSH2 0x2A5D JUMP JUMPDEST SWAP4 POP PUSH1 0x20 DUP6 ADD CALLDATALOAD PUSH1 0x1 PUSH1 0x1 PUSH1 0x40 SHL SUB DUP2 GT ISZERO PUSH2 0x2D1A JUMPI PUSH0 PUSH0 REVERT JUMPDEST PUSH2 0x2D26 DUP8 DUP3 DUP9 ADD PUSH2 0x2C7A JUMP JUMPDEST SWAP4 POP POP PUSH1 0x40 DUP6 ADD CALLDATALOAD PUSH1 0x1 PUSH1 0x1 PUSH1 0x40 SHL SUB DUP2 GT ISZERO PUSH2 0x2D41 JUMPI PUSH0 PUSH0 REVERT JUMPDEST PUSH2 0x2D4D DUP8 DUP3 DUP9 ADD PUSH2 0x2C7A JUMP JUMPDEST SWAP3 POP POP PUSH1 0x60 DUP6 ADD CALLDATALOAD PUSH1 0x1 PUSH1 0x1 PUSH1 0x40 SHL SUB DUP2 GT ISZERO PUSH2 0x2D68 JUMPI PUSH0 PUSH0 REVERT JUMPDEST PUSH2 0x2D74 DUP8 DUP3 DUP9 ADD PUSH2 0x2B14 JUMP JUMPDEST SWAP2 POP POP SWAP3 SWAP6 SWAP2 SWAP5 POP SWAP3 POP JUMP JUMPDEST PUSH0 PUSH0 PUSH0 PUSH0 PUSH0 PUSH1 0xA0 DUP7 DUP9 SUB SLT ISZERO PUSH2 0x2D94 JUMPI PUSH0 PUSH0 REVERT JUMPDEST PUSH2 0x2D9D DUP7 PUSH2 0x2A5D JUMP JUMPDEST SWAP5 POP PUSH2 0x2DAB PUSH1 0x20 DUP8 ADD PUSH2 0x2A5D JUMP JUMPDEST SWAP4 POP PUSH1 0x40 DUP7 ADD CALLDATALOAD PUSH1 0x1 PUSH1 0x1 PUSH1 0x40 SHL SUB DUP2 GT ISZERO PUSH2 0x2DC5 JUMPI PUSH0 PUSH0 REVERT JUMPDEST PUSH2 0x2DD1 DUP9 DUP3 DUP10 ADD PUSH2 0x2C7A JUMP JUMPDEST SWAP4 POP POP PUSH1 0x60 DUP7 ADD CALLDATALOAD PUSH1 0x1 PUSH1 0x1 PUSH1 0x40 SHL SUB DUP2 GT ISZERO PUSH2 0x2DEC JUMPI PUSH0 PUSH0 REVERT JUMPDEST PUSH2 0x2DF8 DUP9 DUP3 DUP10 ADD PUSH2 0x2C7A JUMP JUMPDEST SWAP3 POP POP PUSH1 0x80 DUP7 ADD CALLDATALOAD PUSH1 0x1 PUSH1 0x1 PUSH1 0x40 SHL SUB DUP2 GT ISZERO PUSH2 0x2E13 JUMPI PUSH0 PUSH0 REVERT JUMPDEST PUSH2 0x2E1F DUP9 DUP3 DUP10 ADD PUSH2 0x2B14 JUMP JUMPDEST SWAP2 POP POP SWAP3 SWAP6 POP SWAP3 SWAP6 SWAP1 SWAP4 POP JUMP JUMPDEST PUSH0 PUSH0 PUSH1 0x40 DUP4 DUP6 SUB SLT ISZERO PUSH2 0x2E3D JUMPI PUSH0 PUSH0 REVERT JUMPDEST DUP3 CALLDATALOAD SWAP2 POP PUSH2 0x2E4D PUSH1 0x20 DUP5 ADD PUSH2 0x2A5D JUMP JUMPDEST SWAP1 POP SWAP3 POP SWAP3 SWAP1 POP JUMP JUMPDEST PUSH0 PUSH0 PUSH0 PUSH1 0x60 DUP5 DUP7 SUB SLT ISZERO PUSH2 0x2E68 JUMPI PUSH0 PUSH0 REVERT JUMPDEST PUSH2 0x2E71 DUP5 PUSH2 0x2A5D JUMP JUMPDEST SWAP3 POP PUSH1 0x20 DUP5 ADD CALLDATALOAD PUSH1 0x1 PUSH1 0x1 PUSH1 0x40 SHL SUB DUP2 GT ISZERO PUSH2 0x2E8B JUMPI PUSH0 PUSH0 REVERT JUMPDEST PUSH2 0x2E97 DUP7 DUP3 DUP8 ADD PUSH2 0x2B14 JUMP JUMPDEST SWAP4 SWAP7 SWAP4 SWAP6 POP POP POP POP PUSH1 0x40 SWAP2 SWAP1 SWAP2 ADD CALLDATALOAD SWAP1 JUMP JUMPDEST PUSH0 PUSH0 PUSH1 0x40 DUP4 DUP6 SUB SLT ISZERO PUSH2 0x2EBA JUMPI PUSH0 PUSH0 REVERT JUMPDEST DUP3 CALLDATALOAD PUSH1 0x1 PUSH1 0x1 PUSH1 0x40 SHL SUB DUP2 GT ISZERO PUSH2 0x2ECF JUMPI PUSH0 PUSH0 REVERT JUMPDEST DUP4 ADD PUSH1 0x1F DUP2 ADD DUP6 SGT PUSH2 0x2EDF JUMPI PUSH0 PUSH0 REVERT JUMPDEST DUP1 CALLDATALOAD PUSH2 0x2EED PUSH2 0x2C97 DUP3 PUSH2 0x2C58 JUMP JUMPDEST DUP1 DUP3 DUP3 MSTORE PUSH1 0x20 DUP3 ADD SWAP2 POP PUSH1 0x20 DUP4 PUSH1 0x5 SHL DUP6 ADD ADD SWAP3 POP DUP8 DUP4 GT ISZERO PUSH2 0x2F0E JUMPI PUSH0 PUSH0 REVERT JUMPDEST PUSH1 0x20 DUP5 ADD SWAP4 POP JUMPDEST DUP3 DUP5 LT ISZERO PUSH2 0x2F37 JUMPI PUSH2 0x2F26 DUP5 PUSH2 0x2A5D JUMP JUMPDEST DUP3 MSTORE PUSH1 0x20 SWAP4 DUP5 ADD SWAP4 SWAP1 SWAP2 ADD SWAP1 PUSH2 0x2F15 JUMP JUMPDEST SWAP5 POP POP POP POP PUSH1 0x20 DUP4 ADD CALLDATALOAD PUSH1 0x1 PUSH1 0x1 PUSH1 0x40 SHL SUB DUP2 GT ISZERO PUSH2 0x2F54 JUMPI PUSH0 PUSH0 REVERT JUMPDEST PUSH2 0x2C4E DUP6 DUP3 DUP7 ADD PUSH2 0x2C7A JUMP JUMPDEST PUSH0 DUP2 MLOAD DUP1 DUP5 MSTORE PUSH1 0x20 DUP5 ADD SWAP4 POP PUSH1 0x20 DUP4 ADD PUSH0 JUMPDEST DUP3 DUP2 LT ISZERO PUSH2 0x2F90 JUMPI DUP2 MLOAD DUP7 MSTORE PUSH1 0x20 SWAP6 DUP7 ADD SWAP6 SWAP1 SWAP2 ADD SWAP1 PUSH1 0x1 ADD PUSH2 0x2F72 JUMP JUMPDEST POP SWAP4 SWAP5 SWAP4 POP POP POP POP JUMP JUMPDEST PUSH1 0x20 DUP2 MSTORE PUSH0 PUSH2 0x1EC1 PUSH1 0x20 DUP4 ADD DUP5 PUSH2 0x2F60 JUMP JUMPDEST DUP1 MLOAD DUP3 MSTORE PUSH0 PUSH1 0x20 DUP3 ADD MLOAD PUSH1 0x40 PUSH1 0x20 DUP6 ADD MSTORE PUSH2 0x2BB6 PUSH1 0x40 DUP6 ADD DUP3 PUSH2 0x2BBE JUMP JUMPDEST PUSH1 0x20 DUP2 MSTORE PUSH0 PUSH2 0x1EC1 PUSH1 0x20 DUP4 ADD DUP5 PUSH2 0x2FAC JUMP JUMPDEST PUSH0 PUSH1 0x20 DUP3 ADD PUSH1 0x20 DUP4 MSTORE DUP1 DUP5 MLOAD DUP1 DUP4 MSTORE PUSH1 0x40 DUP6 ADD SWAP2 POP PUSH1 0x40 DUP2 PUSH1 0x5 SHL DUP7 ADD ADD SWAP3 POP PUSH1 0x20 DUP7 ADD PUSH0 JUMPDEST DUP3 DUP2 LT ISZERO PUSH2 0x3033 JUMPI PUSH1 0x3F NOT DUP8 DUP7 SUB ADD DUP5 MSTORE PUSH2 0x301E DUP6 DUP4 MLOAD PUSH2 0x2FAC JUMP JUMPDEST SWAP5 POP PUSH1 0x20 SWAP4 DUP5 ADD SWAP4 SWAP2 SWAP1 SWAP2 ADD SWAP1 PUSH1 0x1 ADD PUSH2 0x3002 JUMP JUMPDEST POP SWAP3 SWAP7 SWAP6 POP POP POP POP POP POP JUMP JUMPDEST PUSH0 PUSH0 PUSH0 PUSH1 0x60 DUP5 DUP7 SUB SLT ISZERO PUSH2 0x3051 JUMPI PUSH0 PUSH0 REVERT JUMPDEST PUSH2 0x305A DUP5 PUSH2 0x2A5D JUMP JUMPDEST SWAP3 POP PUSH1 0x20 DUP5 ADD CALLDATALOAD PUSH1 0x1 PUSH1 0x1 PUSH1 0x40 SHL SUB DUP2 GT ISZERO PUSH2 0x3074 JUMPI PUSH0 PUSH0 REVERT JUMPDEST PUSH2 0x3080 DUP7 DUP3 DUP8 ADD PUSH2 0x2C7A JUMP JUMPDEST SWAP3 POP POP PUSH1 0x40 DUP5 ADD CALLDATALOAD PUSH1 0x1 PUSH1 0x1 PUSH1 0x40 SHL SUB DUP2 GT ISZERO PUSH2 0x309B JUMPI PUSH0 PUSH0 REVERT JUMPDEST PUSH2 0x30A7 DUP7 DUP3 DUP8 ADD PUSH2 0x2C7A JUMP JUMPDEST SWAP2 POP POP SWAP3 POP SWAP3 POP SWAP3 JUMP JUMPDEST PUSH0 PUSH0 PUSH0 PUSH0 PUSH1 0x80 DUP6 DUP8 SUB SLT ISZERO PUSH2 0x30C4 JUMPI PUSH0 PUSH0 REVERT JUMPDEST PUSH2 0x30CD DUP6 PUSH2 0x2A5D JUMP JUMPDEST SWAP4 POP PUSH1 0x20 DUP6 ADD CALLDATALOAD SWAP3 POP PUSH1 0x40 DUP6 ADD CALLDATALOAD SWAP2 POP PUSH1 0x60 DUP6 ADD CALLDATALOAD PUSH1 0x1 PUSH1 0x1 PUSH1 0x40 SHL SUB DUP2 GT ISZERO PUSH2 0x2D68 JUMPI PUSH0 PUSH0 REVERT JUMPDEST DUP1 ISZERO ISZERO DUP2 EQ PUSH2 0xC17 JUMPI PUSH0 PUSH0 REVERT JUMPDEST PUSH0 PUSH0 PUSH1 0x40 DUP4 DUP6 SUB SLT ISZERO PUSH2 0x3113 JUMPI PUSH0 PUSH0 REVERT JUMPDEST PUSH2 0x311C DUP4 PUSH2 0x2A5D JUMP JUMPDEST SWAP2 POP PUSH1 0x20 DUP4 ADD CALLDATALOAD PUSH2 0x312C DUP2 PUSH2 0x30F5 JUMP JUMPDEST DUP1 SWAP2 POP POP SWAP3 POP SWAP3 SWAP1 POP JUMP JUMPDEST PUSH0 PUSH1 0x20 DUP3 ADD PUSH1 0x20 DUP4 MSTORE DUP1 DUP5 MLOAD DUP1 DUP4 MSTORE PUSH1 0x40 DUP6 ADD SWAP2 POP PUSH1 0x40 DUP2 PUSH1 0x5 SHL DUP7 ADD ADD SWAP3 POP PUSH1 0x20 DUP7 ADD PUSH0 JUMPDEST DUP3 DUP2 LT ISZERO PUSH2 0x3033 JUMPI PUSH1 0x3F NOT DUP8 DUP7 SUB ADD DUP5 MSTORE DUP2 MLOAD DUP1 MLOAD DUP7 MSTORE PUSH1 0x20 DUP2 ADD MLOAD PUSH1 0x20 DUP8 ADD MSTORE PUSH1 0x40 DUP2 ADD MLOAD PUSH1 0xA0 PUSH1 0x40 DUP9 ADD MSTORE PUSH2 0x3197 PUSH1 0xA0 DUP9 ADD DUP3 PUSH2 0x2BBE JUMP JUMPDEST SWAP1 POP PUSH1 0x60 DUP3 ADD MLOAD SWAP2 POP PUSH2 0x31B7 PUSH1 0x60 DUP9 ADD DUP4 DUP1 MLOAD DUP3 MSTORE PUSH1 0x20 SWAP1 DUP2 ADD MLOAD SWAP2 ADD MSTORE JUMP JUMPDEST SWAP6 POP POP PUSH1 0x20 SWAP4 DUP5 ADD SWAP4 SWAP2 SWAP1 SWAP2 ADD SWAP1 PUSH1 0x1 ADD PUSH2 0x315D JUMP JUMPDEST PUSH0 PUSH0 DUP4 PUSH1 0x1F DUP5 ADD SLT PUSH2 0x31DD JUMPI PUSH0 PUSH0 REVERT JUMPDEST POP DUP2 CALLDATALOAD PUSH1 0x1 PUSH1 0x1 PUSH1 0x40 SHL SUB DUP2 GT ISZERO PUSH2 0x31F3 JUMPI PUSH0 PUSH0 REVERT JUMPDEST PUSH1 0x20 DUP4 ADD SWAP2 POP DUP4 PUSH1 0x20 DUP3 PUSH1 0x5 SHL DUP6 ADD ADD GT ISZERO PUSH2 0x320D JUMPI PUSH0 PUSH0 REVERT JUMPDEST SWAP3 POP SWAP3 SWAP1 POP JUMP JUMPDEST PUSH0 PUSH0 DUP4 PUSH1 0x1F DUP5 ADD SLT PUSH2 0x3224 JUMPI PUSH0 PUSH0 REVERT JUMPDEST POP DUP2 CALLDATALOAD PUSH1 0x1 PUSH1 0x1 PUSH1 0x40 SHL SUB DUP2 GT ISZERO PUSH2 0x323A JUMPI PUSH0 PUSH0 REVERT JUMPDEST PUSH1 0x20 DUP4 ADD SWAP2 POP DUP4 PUSH1 0x20 DUP3 DUP6 ADD ADD GT ISZERO PUSH2 0x320D JUMPI PUSH0 PUSH0 REVERT JUMPDEST PUSH0 PUSH0 PUSH0 PUSH0 PUSH0 PUSH0 PUSH0 PUSH0 PUSH1 0xA0 DUP10 DUP12 SUB SLT ISZERO PUSH2 0x3268 JUMPI PUSH0 PUSH0 REVERT JUMPDEST PUSH2 0x3271 DUP10 PUSH2 0x2A5D JUMP JUMPDEST SWAP8 POP PUSH2 0x327F PUSH1 0x20 DUP11 ADD PUSH2 0x2A5D JUMP JUMPDEST SWAP7 POP PUSH1 0x40 DUP10 ADD CALLDATALOAD PUSH1 0x1 PUSH1 0x1 PUSH1 0x40 SHL SUB DUP2 GT ISZERO PUSH2 0x3299 JUMPI PUSH0 PUSH0 REVERT JUMPDEST PUSH2 0x32A5 DUP12 DUP3 DUP13 ADD PUSH2 0x31CD JUMP JUMPDEST SWAP1 SWAP8 POP SWAP6 POP POP PUSH1 0x60 DUP10 ADD CALLDATALOAD PUSH1 0x1 PUSH1 0x1 PUSH1 0x40 SHL SUB DUP2 GT ISZERO PUSH2 0x32C3 JUMPI PUSH0 PUSH0 REVERT JUMPDEST PUSH2 0x32CF DUP12 DUP3 DUP13 ADD PUSH2 0x31CD JUMP JUMPDEST SWAP1 SWAP6 POP SWAP4 POP POP PUSH1 0x80 DUP10 ADD CALLDATALOAD PUSH1 0x1 PUSH1 0x1 PUSH1 0x40 SHL SUB DUP2 GT ISZERO PUSH2 0x32ED JUMPI PUSH0 PUSH0 REVERT JUMPDEST PUSH2 0x32F9 DUP12 DUP3 DUP13 ADD PUSH2 0x3214 JUMP JUMPDEST SWAP10 SWAP13 SWAP9 SWAP12 POP SWAP7 SWAP10 POP SWAP5 SWAP8 SWAP4 SWAP7 SWAP3 SWAP6 SWAP5 POP POP POP JUMP JUMPDEST PUSH0 PUSH0 PUSH0 PUSH0 PUSH1 0x80 DUP6 DUP8 SUB SLT ISZERO PUSH2 0x3320 JUMPI PUSH0 PUSH0 REVERT JUMPDEST DUP5 CALLDATALOAD PUSH1 0x1 PUSH1 0x1 PUSH1 0x40 SHL SUB DUP2 GT ISZERO PUSH2 0x3335 JUMPI PUSH0 PUSH0 REVERT JUMPDEST PUSH2 0x3341 DUP8 DUP3 DUP9 ADD PUSH2 0x2B14 JUMP JUMPDEST SWAP5 POP POP PUSH1 0x20 DUP6 ADD CALLDATALOAD SWAP3 POP PUSH1 0x40 DUP6 ADD CALLDATALOAD SWAP2 POP PUSH1 0x60 DUP6 ADD CALLDATALOAD PUSH1 0x1 PUSH1 0x1 PUSH1 0x40 SHL SUB DUP2 GT ISZERO PUSH2 0x2D68 JUMPI PUSH0 PUSH0 REVERT JUMPDEST PUSH1 0x20 DUP1 DUP3 MSTORE DUP3 MLOAD DUP3 DUP3 ADD DUP2 SWAP1 MSTORE PUSH0 SWAP2 DUP5 ADD SWAP1 PUSH1 0x40 DUP5 ADD SWAP1 DUP4 JUMPDEST DUP2 DUP2 LT ISZERO PUSH2 0x33B6 JUMPI PUSH2 0x33A0 DUP4 DUP6 MLOAD DUP1 MLOAD DUP3 MSTORE PUSH1 0x20 SWAP1 DUP2 ADD MLOAD SWAP2 ADD MSTORE JUMP JUMPDEST PUSH1 0x20 SWAP4 SWAP1 SWAP4 ADD SWAP3 PUSH1 0x40 SWAP3 SWAP1 SWAP3 ADD SWAP2 PUSH1 0x1 ADD PUSH2 0x3383 JUMP JUMPDEST POP SWAP1 SWAP6 SWAP5 POP POP POP POP POP JUMP JUMPDEST DUP2 MLOAD DUP2 MSTORE PUSH1 0x20 DUP1 DUP4 ADD MLOAD SWAP1 DUP3 ADD MSTORE PUSH1 0x40 DUP2 ADD PUSH2 0x6F7 JUMP JUMPDEST PUSH0 PUSH0 PUSH0 PUSH0 PUSH1 0x80 DUP6 DUP8 SUB SLT ISZERO PUSH2 0x33EB JUMPI PUSH0 PUSH0 REVERT JUMPDEST PUSH2 0x33F4 DUP6 PUSH2 0x2A5D JUMP JUMPDEST SWAP4 POP PUSH2 0x3402 PUSH1 0x20 DUP7 ADD PUSH2 0x2A5D JUMP JUMPDEST SWAP3 POP PUSH1 0x40 DUP6 ADD CALLDATALOAD SWAP2 POP PUSH1 0x60 DUP6 ADD CALLDATALOAD PUSH1 0x1 PUSH1 0x1 PUSH1 0x40 SHL SUB DUP2 GT ISZERO PUSH2 0x2D68 JUMPI PUSH0 PUSH0 REVERT JUMPDEST PUSH0 PUSH0 PUSH1 0x40 DUP4 DUP6 SUB SLT ISZERO PUSH2 0x3434 JUMPI PUSH0 PUSH0 REVERT JUMPDEST PUSH2 0x343D DUP4 PUSH2 0x2A5D JUMP JUMPDEST SWAP2 POP PUSH2 0x2E4D PUSH1 0x20 DUP5 ADD PUSH2 0x2A5D JUMP JUMPDEST PUSH0 PUSH0 PUSH0 PUSH0 PUSH0 PUSH0 PUSH1 0xA0 DUP8 DUP10 SUB SLT ISZERO PUSH2 0x3460 JUMPI PUSH0 PUSH0 REVERT JUMPDEST PUSH2 0x3469 DUP8 PUSH2 0x2A5D JUMP JUMPDEST SWAP6 POP PUSH2 0x3477 PUSH1 0x20 DUP9 ADD PUSH2 0x2A5D JUMP JUMPDEST SWAP5 POP PUSH1 0x40 DUP8 ADD CALLDATALOAD SWAP4 POP PUSH1 0x60 DUP8 ADD CALLDATALOAD SWAP3 POP PUSH1 0x80 DUP8 ADD CALLDATALOAD PUSH1 0x1 PUSH1 0x1 PUSH1 0x40 SHL SUB DUP2 GT ISZERO PUSH2 0x349F JUMPI PUSH0 PUSH0 REVERT JUMPDEST PUSH2 0x34AB DUP10 DUP3 DUP11 ADD PUSH2 0x3214 JUMP JUMPDEST SWAP8 SWAP11 SWAP7 SWAP10 POP SWAP5 SWAP8 POP SWAP3 SWAP6 SWAP4 SWAP5 SWAP3 POP POP POP JUMP JUMPDEST PUSH0 PUSH0 PUSH0 PUSH0 PUSH0 PUSH1 0xA0 DUP7 DUP9 SUB SLT ISZERO PUSH2 0x34D1 JUMPI PUSH0 PUSH0 REVERT JUMPDEST PUSH2 0x34DA DUP7 PUSH2 0x2A5D JUMP JUMPDEST SWAP5 POP PUSH2 0x34E8 PUSH1 0x20 DUP8 ADD PUSH2 0x2A5D JUMP JUMPDEST SWAP4 POP PUSH1 0x40 DUP7 ADD CALLDATALOAD SWAP3 POP PUSH1 0x60 DUP7 ADD CALLDATALOAD SWAP2 POP PUSH1 0x80 DUP7 ADD CALLDATALOAD PUSH1 0x1 PUSH1 0x1 PUSH1 0x40 SHL SUB DUP2 GT ISZERO PUSH2 0x2E13 JUMPI PUSH0 PUSH0 REVERT JUMPDEST PUSH0 PUSH0 PUSH0 PUSH1 0x60 DUP5 DUP7 SUB SLT ISZERO PUSH2 0x3522 JUMPI PUSH0 PUSH0 REVERT JUMPDEST PUSH2 0x352B DUP5 PUSH2 0x2A5D JUMP JUMPDEST SWAP6 PUSH1 0x20 DUP6 ADD CALLDATALOAD SWAP6 POP PUSH1 0x40 SWAP1 SWAP5 ADD CALLDATALOAD SWAP4 SWAP3 POP POP POP JUMP JUMPDEST DUP3 DUP2 MSTORE PUSH1 0x40 PUSH1 0x20 DUP3 ADD MSTORE PUSH0 PUSH2 0x2BB6 PUSH1 0x40 DUP4 ADD DUP5 PUSH2 0x2BBE JUMP JUMPDEST PUSH4 0x4E487B71 PUSH1 0xE0 SHL PUSH0 MSTORE PUSH1 0x32 PUSH1 0x4 MSTORE PUSH1 0x24 PUSH0 REVERT JUMPDEST PUSH1 0x1 DUP2 DUP2 SHR SWAP1 DUP3 AND DUP1 PUSH2 0x3580 JUMPI PUSH1 0x7F DUP3 AND SWAP2 POP JUMPDEST PUSH1 0x20 DUP3 LT DUP2 SUB PUSH2 0xF48 JUMPI PUSH4 0x4E487B71 PUSH1 0xE0 SHL PUSH0 MSTORE PUSH1 0x22 PUSH1 0x4 MSTORE PUSH1 0x24 PUSH0 REVERT JUMPDEST PUSH0 DUP2 SLOAD PUSH2 0x35AA DUP2 PUSH2 0x356C JUMP JUMPDEST PUSH1 0x1 DUP3 AND DUP1 ISZERO PUSH2 0x35C1 JUMPI PUSH1 0x1 DUP2 EQ PUSH2 0x35D6 JUMPI PUSH2 0x3603 JUMP JUMPDEST PUSH1 0xFF NOT DUP4 AND DUP7 MSTORE DUP2 ISZERO ISZERO DUP3 MUL DUP7 ADD SWAP4 POP PUSH2 0x3603 JUMP JUMPDEST DUP5 PUSH0 MSTORE PUSH1 0x20 PUSH0 KECCAK256 PUSH0 JUMPDEST DUP4 DUP2 LT ISZERO PUSH2 0x35FB JUMPI DUP2 SLOAD DUP9 DUP3 ADD MSTORE PUSH1 0x1 SWAP1 SWAP2 ADD SWAP1 PUSH1 0x20 ADD PUSH2 0x35DF JUMP JUMPDEST POP POP DUP2 DUP7 ADD SWAP4 POP JUMPDEST POP POP POP SWAP3 SWAP2 POP POP JUMP JUMPDEST PUSH0 PUSH2 0x1EC1 DUP3 DUP5 PUSH2 0x359E JUMP JUMPDEST PUSH1 0x1F DUP3 GT ISZERO PUSH2 0x9F9 JUMPI DUP1 PUSH0 MSTORE PUSH1 0x20 PUSH0 KECCAK256 PUSH1 0x1F DUP5 ADD PUSH1 0x5 SHR DUP2 ADD PUSH1 0x20 DUP6 LT ISZERO PUSH2 0x363C JUMPI POP DUP1 JUMPDEST PUSH1 0x1F DUP5 ADD PUSH1 0x5 SHR DUP3 ADD SWAP2 POP JUMPDEST DUP2 DUP2 LT ISZERO PUSH2 0xA21 JUMPI PUSH0 DUP2 SSTORE PUSH1 0x1 ADD PUSH2 0x3648 JUMP JUMPDEST DUP2 MLOAD PUSH1 0x1 PUSH1 0x1 PUSH1 0x40 SHL SUB DUP2 GT ISZERO PUSH2 0x3674 JUMPI PUSH2 0x3674 PUSH2 0x2AD0 JUMP JUMPDEST PUSH2 0x3688 DUP2 PUSH2 0x3682 DUP5 SLOAD PUSH2 0x356C JUMP JUMPDEST DUP5 PUSH2 0x3617 JUMP JUMPDEST PUSH1 0x20 PUSH1 0x1F DUP3 GT PUSH1 0x1 DUP2 EQ PUSH2 0x36BA JUMPI PUSH0 DUP4 ISZERO PUSH2 0x36A3 JUMPI POP DUP5 DUP3 ADD MLOAD JUMPDEST PUSH0 NOT PUSH1 0x3 DUP6 SWAP1 SHL SHR NOT AND PUSH1 0x1 DUP5 SWAP1 SHL OR DUP5 SSTORE PUSH2 0xA21 JUMP JUMPDEST PUSH0 DUP5 DUP2 MSTORE PUSH1 0x20 DUP2 KECCAK256 PUSH1 0x1F NOT DUP6 AND SWAP2 JUMPDEST DUP3 DUP2 LT ISZERO PUSH2 0x36E9 JUMPI DUP8 DUP6 ADD MLOAD DUP3 SSTORE PUSH1 0x20 SWAP5 DUP6 ADD SWAP5 PUSH1 0x1 SWAP1 SWAP3 ADD SWAP2 ADD PUSH2 0x36C9 JUMP JUMPDEST POP DUP5 DUP3 LT ISZERO PUSH2 0x3706 JUMPI DUP7 DUP5 ADD MLOAD PUSH0 NOT PUSH1 0x3 DUP8 SWAP1 SHL PUSH1 0xF8 AND SHR NOT AND DUP2 SSTORE JUMPDEST POP POP POP POP PUSH1 0x1 SWAP1 DUP2 SHL ADD SWAP1 SSTORE POP JUMP JUMPDEST PUSH1 0x20 DUP1 DUP3 MSTORE PUSH1 0x2A SWAP1 DUP3 ADD MSTORE PUSH32 0x53686172656431313535546F6B656E3A20496E76616C69642072656369706965 PUSH1 0x40 DUP3 ADD MSTORE PUSH10 0x6E742061646472657373 PUSH1 0xB0 SHL PUSH1 0x60 DUP3 ADD MSTORE PUSH1 0x80 ADD SWAP1 JUMP JUMPDEST PUSH1 0x20 DUP1 DUP3 MSTORE PUSH1 0x37 SWAP1 DUP3 ADD MSTORE PUSH32 0x53686172656431313535546F6B656E3A205472616E7366657220616D6F756E74 PUSH1 0x40 DUP3 ADD MSTORE PUSH32 0x206D7573742062652067726561746572207468616E2030000000000000000000 PUSH1 0x60 DUP3 ADD MSTORE PUSH1 0x80 ADD SWAP1 JUMP JUMPDEST PUSH1 0x20 DUP1 DUP3 MSTORE PUSH1 0x36 SWAP1 DUP3 ADD MSTORE PUSH32 0x53686172656431313535546F6B656E3A204E4654207769746820737065636966 PUSH1 0x40 DUP3 ADD MSTORE PUSH22 0x1A59590815549248191BD95CC81B9BDD08195E1A5CDD PUSH1 0x52 SHL PUSH1 0x60 DUP3 ADD MSTORE PUSH1 0x80 ADD SWAP1 JUMP JUMPDEST PUSH1 0x20 DUP1 DUP3 MSTORE PUSH1 0x29 SWAP1 DUP3 ADD MSTORE PUSH32 0x53686172656431313535546F6B656E3A20496E73756666696369656E74204E46 PUSH1 0x40 DUP3 ADD MSTORE PUSH9 0x542062616C616E6365 PUSH1 0xB8 SHL PUSH1 0x60 DUP3 ADD MSTORE PUSH1 0x80 ADD SWAP1 JUMP JUMPDEST PUSH1 0x20 DUP1 DUP3 MSTORE PUSH1 0x2A SWAP1 DUP3 ADD MSTORE PUSH32 0x53686172656431313535546F6B656E3A20436F6C6C656374696F6E20646F6573 PUSH1 0x40 DUP3 ADD MSTORE PUSH10 0x81B9BDD08195E1A5CDD PUSH1 0xB2 SHL PUSH1 0x60 DUP3 ADD MSTORE PUSH1 0x80 ADD SWAP1 JUMP JUMPDEST PUSH4 0x4E487B71 PUSH1 0xE0 SHL PUSH0 MSTORE PUSH1 0x11 PUSH1 0x4 MSTORE PUSH1 0x24 PUSH0 REVERT JUMPDEST DUP2 DUP2 SUB DUP2 DUP2 GT ISZERO PUSH2 0x6F7 JUMPI PUSH2 0x6F7 PUSH2 0x38A5 JUMP JUMPDEST PUSH4 0x4E487B71 PUSH1 0xE0 SHL PUSH0 MSTORE PUSH1 0x31 PUSH1 0x4 MSTORE PUSH1 0x24 PUSH0 REVERT JUMPDEST PUSH0 PUSH1 0x1 DUP3 ADD PUSH2 0x38F1 JUMPI PUSH2 0x38F1 PUSH2 0x38A5 JUMP JUMPDEST POP PUSH1 0x1 ADD SWAP1 JUMP JUMPDEST PUSH0 PUSH1 0x20 DUP3 DUP5 SUB SLT ISZERO PUSH2 0x3908 JUMPI PUSH0 PUSH0 REVERT JUMPDEST POP MLOAD SWAP2 SWAP1 POP JUMP JUMPDEST PUSH0 PUSH1 0x20 DUP3 DUP5 SUB SLT ISZERO PUSH2 0x391F JUMPI PUSH0 PUSH0 REVERT JUMPDEST DUP2 MLOAD PUSH2 0x1EC1 DUP2 PUSH2 0x30F5 JUMP JUMPDEST PUSH0 PUSH2 0x3935 DUP3 DUP6 PUSH2 0x359E JUMP JUMPDEST DUP4 MLOAD DUP1 PUSH1 0x20 DUP7 ADD DUP4 MCOPY PUSH0 SWAP2 ADD SWAP1 DUP2 MSTORE SWAP5 SWAP4 POP POP POP POP JUMP JUMPDEST PUSH1 0x1 PUSH1 0x1 PUSH1 0xA0 SHL SUB DUP7 DUP2 AND DUP3 MSTORE DUP6 AND PUSH1 0x20 DUP3 ADD MSTORE PUSH1 0x40 DUP2 ADD DUP5 SWAP1 MSTORE PUSH1 0x60 DUP2 ADD DUP4 SWAP1 MSTORE PUSH1 0xA0 PUSH1 0x80 DUP3 ADD DUP2 SWAP1 MSTORE PUSH0 SWAP1 PUSH2 0x3985 SWAP1 DUP4 ADD DUP5 PUSH2 0x2BBE JUMP JUMPDEST SWAP8 SWAP7 POP POP POP POP POP POP POP JUMP JUMPDEST PUSH0 PUSH1 0x20 DUP3 DUP5 SUB SLT ISZERO PUSH2 0x39A0 JUMPI PUSH0 PUSH0 REVERT JUMPDEST DUP2 MLOAD PUSH2 0x1EC1 DUP2 PUSH2 0x2AA0 JUMP JUMPDEST PUSH1 0x1 PUSH1 0x1 PUSH1 0xA0 SHL SUB DUP7 DUP2 AND DUP3 MSTORE DUP6 AND PUSH1 0x20 DUP3 ADD MSTORE PUSH1 0xA0 PUSH1 0x40 DUP3 ADD DUP2 SWAP1 MSTORE PUSH0 SWAP1 PUSH2 0x39D6 SWAP1 DUP4 ADD DUP7 PUSH2 0x2F60 JUMP JUMPDEST DUP3 DUP2 SUB PUSH1 0x60 DUP5 ADD MSTORE PUSH2 0x39E8 DUP2 DUP7 PUSH2 0x2F60 JUMP JUMPDEST SWAP1 POP DUP3 DUP2 SUB PUSH1 0x80 DUP5 ADD MSTORE PUSH2 0x39FC DUP2 DUP6 PUSH2 0x2BBE JUMP JUMPDEST SWAP9 SWAP8 POP POP POP POP POP POP POP POP JUMP JUMPDEST DUP1 DUP3 ADD DUP1 DUP3 GT ISZERO PUSH2 0x6F7 JUMPI PUSH2 0x6F7 PUSH2 0x38A5 JUMP JUMPDEST PUSH1 0x40 DUP2 MSTORE PUSH0 PUSH2 0x3A2D PUSH1 0x40 DUP4 ADD DUP6 PUSH2 0x2F60 JUMP JUMPDEST DUP3 DUP2 SUB PUSH1 0x20 DUP5 ADD MSTORE PUSH2 0x3A3F DUP2 DUP6 PUSH2 0x2F60 JUMP JUMPDEST SWAP6 SWAP5 POP POP POP POP POP JUMP INVALID SWAP16 0x2D CREATE INVALID 0xD2 0xC7 PUSH23 0x48DE5860A4CC508CD0818C85B8B8A1AB4CEEEF8D981C89 JUMP 0xA6 LOG2 PUSH5 0x6970667358 0x22 SLT KECCAK256 PUSH23 0x8FDEE0EBFEDA8EBDB58018E320D6033180EE76E42A89C5 DUP15 JUMP DUP3 0xE2 RETURN 0xE CREATE2 0xB9 PUSH5 0x736F6C6343 STOP ADDMOD 0x1E STOP CALLER "
		},
		"gasEstimates": {
			"creation": {
				"codeDepositCost": "3001200",
				"executionCost": "infinite",
				"totalCost": "infinite"
			},
			"external": {
				"COLLECTION_CREATOR_ROLE()": "250",
				"DEFAULT_ADMIN_ROLE()": "294",
				"MINTER_ROLE()": "infinite",
				"approveOperatorForContractNFTs(address,bool)": "infinite",
				"balanceOf(address,uint256)": "2682",
				"balanceOfBatch(address[],uint256[])": "infinite",
				"burn(address,uint256,uint256)": "infinite",
				"burnBatch(address,uint256[],uint256[])": "infinite",
				"collectionDatas(uint256)": "4708",
				"collectionIds(uint256)": "4628",
				"collections(uint256)": "infinite",
				"createCollection(string)": "infinite",
				"deleteCollectionBySuffix(string)": "infinite",
				"exists(uint256)": "2603",
				"getAllCollectionDatas()": "infinite",
				"getAllCollections()": "infinite",
				"getCollection(uint256)": "infinite",
				"getCollectionData(uint256)": "7090",
				"getCollectionSuffix(uint256)": "infinite",
				"getContractNFTs()": "infinite",
				"getRoleAdmin(bytes32)": "2545",
				"grantRole(bytes32,address)": "infinite",
				"grantRoleTo(bytes32,address)": "infinite",
				"hasRole(bytes32,address)": "2726",
				"isApprovedForAll(address,address)": "infinite",
				"mint(address,uint256,uint256,bytes)": "infinite",
				"mintBatch(address,uint256[],uint256[],bytes)": "infinite",
				"name()": "infinite",
				"onERC1155BatchReceived(address,address,uint256[],uint256[],bytes)": "infinite",
				"onERC1155Received(address,address,uint256,uint256,bytes)": "infinite",
				"pause()": "infinite",
				"paused()": "2370",
				"renounceRole(bytes32,address)": "29107",
				"revokeRole(bytes32,address)": "infinite",
				"safeBatchTransferFrom(address,address,uint256[],uint256[],bytes)": "infinite",
				"safeCast(string,uint256,bytes32,string)": "infinite",
				"safeTransferFrom(address,address,uint256,uint256,bytes)": "infinite",
				"setApprovalForAll(address,bool)": "26818",
				"setTokenURI(uint256,string)": "infinite",
				"supportsInterface(bytes4)": "infinite",
				"tokenIds(uint256)": "4694",
				"totalSupply()": "2348",
				"totalSupply(uint256)": "2557",
				"transferERC20(address,address,uint256,string)": "infinite",
				"transferNFTByURI(address,string,uint256)": "infinite",
				"unpause()": "infinite",
				"uri(uint256)": "infinite"
			},
			"internal": {
				"_update(address,address,uint256[] memory,uint256[] memory)": "infinite"
			}
		},
		"methodIdentifiers": {
			"COLLECTION_CREATOR_ROLE()": "caff99ce",
			"DEFAULT_ADMIN_ROLE()": "a217fddf",
			"MINTER_ROLE()": "d5391393",
			"approveOperatorForContractNFTs(address,bool)": "9dd6a449",
			"balanceOf(address,uint256)": "00fdd58e",
			"balanceOfBatch(address[],uint256[])": "4e1273f4",
			"burn(address,uint256,uint256)": "f5298aca",
			"burnBatch(address,uint256[],uint256[])": "6b20c454",
			"collectionDatas(uint256)": "258672aa",
			"collectionIds(uint256)": "a9b566a3",
			"collections(uint256)": "fdbda0ec",
			"createCollection(string)": "059dfe13",
			"deleteCollectionBySuffix(string)": "70164f0e",
			"exists(uint256)": "4f558e79",
			"getAllCollectionDatas()": "c71d0ea3",
			"getAllCollections()": "6804a958",
			"getCollection(uint256)": "5a1f3c28",
			"getCollectionData(uint256)": "df6f5b20",
			"getCollectionSuffix(uint256)": "b21fa654",
			"getContractNFTs()": "a7098728",
			"getRoleAdmin(bytes32)": "248a9ca3",
			"grantRole(bytes32,address)": "2f2ff15d",
			"grantRoleTo(bytes32,address)": "a5e2361d",
			"hasRole(bytes32,address)": "91d14854",
			"isApprovedForAll(address,address)": "e985e9c5",
			"mint(address,uint256,uint256,bytes)": "731133e9",
			"mintBatch(address,uint256[],uint256[],bytes)": "1f7fdffa",
			"name()": "06fdde03",
			"onERC1155BatchReceived(address,address,uint256[],uint256[],bytes)": "bc197c81",
			"onERC1155Received(address,address,uint256,uint256,bytes)": "f23a6e61",
			"pause()": "8456cb59",
			"paused()": "5c975abb",
			"renounceRole(bytes32,address)": "36568abe",
			"revokeRole(bytes32,address)": "d547741f",
			"safeBatchTransferFrom(address,address,uint256[],uint256[],bytes)": "2eb2c2d6",
			"safeCast(string,uint256,bytes32,string)": "be7cf750",
			"safeTransferFrom(address,address,uint256,uint256,bytes)": "f242432a",
			"setApprovalForAll(address,bool)": "a22cb465",
			"setTokenURI(uint256,string)": "162094c4",
			"supportsInterface(bytes4)": "01ffc9a7",
			"tokenIds(uint256)": "d58778d6",
			"totalSupply()": "18160ddd",
			"totalSupply(uint256)": "bd85b039",
			"transferERC20(address,address,uint256,string)": "e22c4515",
			"transferNFTByURI(address,string,uint256)": "3038bfdf",
			"unpause()": "3f4ba83a",
			"uri(uint256)": "0e89341c"
		}
	},
	"abi": [
		{
			"inputs": [],
			"stateMutability": "nonpayable",
			"type": "constructor"
		},
		{
			"inputs": [],
			"name": "AccessControlBadConfirmation",
			"type": "error"
		},
		{
			"inputs": [
				{
					"internalType": "address",
					"name": "account",
					"type": "address"
				},
				{
					"internalType": "bytes32",
					"name": "neededRole",
					"type": "bytes32"
				}
			],
			"name": "AccessControlUnauthorizedAccount",
			"type": "error"
		},
		{
			"inputs": [
				{
					"internalType": "address",
					"name": "sender",
					"type": "address"
				},
				{
					"internalType": "uint256",
					"name": "balance",
					"type": "uint256"
				},
				{
					"internalType": "uint256",
					"name": "needed",
					"type": "uint256"
				},
				{
					"internalType": "uint256",
					"name": "tokenId",
					"type": "uint256"
				}
			],
			"name": "ERC1155InsufficientBalance",
			"type": "error"
		},
		{
			"inputs": [
				{
					"internalType": "address",
					"name": "approver",
					"type": "address"
				}
			],
			"name": "ERC1155InvalidApprover",
			"type": "error"
		},
		{
			"inputs": [
				{
					"internalType": "uint256",
					"name": "idsLength",
					"type": "uint256"
				},
				{
					"internalType": "uint256",
					"name": "valuesLength",
					"type": "uint256"
				}
			],
			"name": "ERC1155InvalidArrayLength",
			"type": "error"
		},
		{
			"inputs": [
				{
					"internalType": "address",
					"name": "operator",
					"type": "address"
				}
			],
			"name": "ERC1155InvalidOperator",
			"type": "error"
		},
		{
			"inputs": [
				{
					"internalType": "address",
					"name": "receiver",
					"type": "address"
				}
			],
			"name": "ERC1155InvalidReceiver",
			"type": "error"
		},
		{
			"inputs": [
				{
					"internalType": "address",
					"name": "sender",
					"type": "address"
				}
			],
			"name": "ERC1155InvalidSender",
			"type": "error"
		},
		{
			"inputs": [
				{
					"internalType": "address",
					"name": "operator",
					"type": "address"
				},
				{
					"internalType": "address",
					"name": "owner",
					"type": "address"
				}
			],
			"name": "ERC1155MissingApprovalForAll",
			"type": "error"
		},
		{
			"anonymous": false,
			"inputs": [
				{
					"indexed": true,
					"internalType": "address",
					"name": "account",
					"type": "address"
				},
				{
					"indexed": true,
					"internalType": "address",
					"name": "operator",
					"type": "address"
				},
				{
					"indexed": false,
					"internalType": "bool",
					"name": "approved",
					"type": "bool"
				}
			],
			"name": "ApprovalForAll",
			"type": "event"
		},
		{
			"anonymous": false,
			"inputs": [
				{
					"indexed": true,
					"internalType": "uint256",
					"name": "collectionId",
					"type": "uint256"
				},
				{
					"indexed": false,
					"internalType": "string",
					"name": "suffix",
					"type": "string"
				}
			],
			"name": "CollectionCreated",
			"type": "event"
		},
		{
			"anonymous": false,
			"inputs": [
				{
					"indexed": true,
					"internalType": "uint256",
					"name": "collectionId",
					"type": "uint256"
				},
				{
					"indexed": false,
					"internalType": "string",
					"name": "suffix",
					"type": "string"
				}
			],
			"name": "CollectionDeleted",
			"type": "event"
		},
		{
			"anonymous": false,
			"inputs": [
				{
					"indexed": true,
					"internalType": "address",
					"name": "account",
					"type": "address"
				},
				{
					"indexed": false,
					"internalType": "uint256",
					"name": "tokenId",
					"type": "uint256"
				},
				{
					"indexed": false,
					"internalType": "bytes32",
					"name": "collectionURI",
					"type": "bytes32"
				},
				{
					"indexed": false,
					"internalType": "uint256",
					"name": "amount",
					"type": "uint256"
				}
			],
			"name": "CollectionURIMinted",
			"type": "event"
		},
		{
			"anonymous": false,
			"inputs": [
				{
					"indexed": true,
					"internalType": "address",
					"name": "operator",
					"type": "address"
				},
				{
					"indexed": false,
					"internalType": "bool",
					"name": "approved",
					"type": "bool"
				}
			],
			"name": "OperatorApprovedForContractNFTs",
			"type": "event"
		},
		{
			"anonymous": false,
			"inputs": [
				{
					"indexed": false,
					"internalType": "address",
					"name": "account",
					"type": "address"
				}
			],
			"name": "Paused",
			"type": "event"
		},
		{
			"anonymous": false,
			"inputs": [
				{
					"indexed": true,
					"internalType": "bytes32",
					"name": "role",
					"type": "bytes32"
				},
				{
					"indexed": true,
					"internalType": "bytes32",
					"name": "previousAdminRole",
					"type": "bytes32"
				},
				{
					"indexed": true,
					"internalType": "bytes32",
					"name": "newAdminRole",
					"type": "bytes32"
				}
			],
			"name": "RoleAdminChanged",
			"type": "event"
		},
		{
			"anonymous": false,
			"inputs": [
				{
					"indexed": true,
					"internalType": "bytes32",
					"name": "role",
					"type": "bytes32"
				},
				{
					"indexed": true,
					"internalType": "address",
					"name": "account",
					"type": "address"
				},
				{
					"indexed": true,
					"internalType": "address",
					"name": "sender",
					"type": "address"
				}
			],
			"name": "RoleGranted",
			"type": "event"
		},
		{
			"anonymous": false,
			"inputs": [
				{
					"indexed": true,
					"internalType": "bytes32",
					"name": "role",
					"type": "bytes32"
				},
				{
					"indexed": true,
					"internalType": "address",
					"name": "account",
					"type": "address"
				},
				{
					"indexed": true,
					"internalType": "address",
					"name": "sender",
					"type": "address"
				}
			],
			"name": "RoleRevoked",
			"type": "event"
		},
		{
			"anonymous": false,
			"inputs": [
				{
					"indexed": true,
					"internalType": "address",
					"name": "operator",
					"type": "address"
				},
				{
					"indexed": true,
					"internalType": "address",
					"name": "from",
					"type": "address"
				},
				{
					"indexed": true,
					"internalType": "address",
					"name": "to",
					"type": "address"
				},
				{
					"indexed": false,
					"internalType": "uint256[]",
					"name": "ids",
					"type": "uint256[]"
				},
				{
					"indexed": false,
					"internalType": "uint256[]",
					"name": "values",
					"type": "uint256[]"
				}
			],
			"name": "TransferBatch",
			"type": "event"
		},
		{
			"anonymous": false,
			"inputs": [
				{
					"indexed": true,
					"internalType": "address",
					"name": "operator",
					"type": "address"
				},
				{
					"indexed": true,
					"internalType": "address",
					"name": "from",
					"type": "address"
				},
				{
					"indexed": true,
					"internalType": "address",
					"name": "to",
					"type": "address"
				},
				{
					"indexed": false,
					"internalType": "uint256",
					"name": "id",
					"type": "uint256"
				},
				{
					"indexed": false,
					"internalType": "uint256",
					"name": "value",
					"type": "uint256"
				}
			],
			"name": "TransferSingle",
			"type": "event"
		},
		{
			"anonymous": false,
			"inputs": [
				{
					"indexed": false,
					"internalType": "string",
					"name": "value",
					"type": "string"
				},
				{
					"indexed": true,
					"internalType": "uint256",
					"name": "id",
					"type": "uint256"
				}
			],
			"name": "URI",
			"type": "event"
		},
		{
			"anonymous": false,
			"inputs": [
				{
					"indexed": false,
					"internalType": "address",
					"name": "account",
					"type": "address"
				}
			],
			"name": "Unpaused",
			"type": "event"
		},
		{
			"inputs": [],
			"name": "COLLECTION_CREATOR_ROLE",
			"outputs": [
				{
					"internalType": "bytes32",
					"name": "",
					"type": "bytes32"
				}
			],
			"stateMutability": "view",
			"type": "function"
		},
		{
			"inputs": [],
			"name": "DEFAULT_ADMIN_ROLE",
			"outputs": [
				{
					"internalType": "bytes32",
					"name": "",
					"type": "bytes32"
				}
			],
			"stateMutability": "view",
			"type": "function"
		},
		{
			"inputs": [],
			"name": "MINTER_ROLE",
			"outputs": [
				{
					"internalType": "bytes32",
					"name": "",
					"type": "bytes32"
				}
			],
			"stateMutability": "view",
			"type": "function"
		},
		{
			"inputs": [
				{
					"internalType": "address",
					"name": "operator",
					"type": "address"
				},
				{
					"internalType": "bool",
					"name": "approved",
					"type": "bool"
				}
			],
			"name": "approveOperatorForContractNFTs",
			"outputs": [],
			"stateMutability": "nonpayable",
			"type": "function"
		},
		{
			"inputs": [
				{
					"internalType": "address",
					"name": "account",
					"type": "address"
				},
				{
					"internalType": "uint256",
					"name": "id",
					"type": "uint256"
				}
			],
			"name": "balanceOf",
			"outputs": [
				{
					"internalType": "uint256",
					"name": "",
					"type": "uint256"
				}
			],
			"stateMutability": "view",
			"type": "function"
		},
		{
			"inputs": [
				{
					"internalType": "address[]",
					"name": "accounts",
					"type": "address[]"
				},
				{
					"internalType": "uint256[]",
					"name": "ids",
					"type": "uint256[]"
				}
			],
			"name": "balanceOfBatch",
			"outputs": [
				{
					"internalType": "uint256[]",
					"name": "",
					"type": "uint256[]"
				}
			],
			"stateMutability": "view",
			"type": "function"
		},
		{
			"inputs": [
				{
					"internalType": "address",
					"name": "account",
					"type": "address"
				},
				{
					"internalType": "uint256",
					"name": "id",
					"type": "uint256"
				},
				{
					"internalType": "uint256",
					"name": "value",
					"type": "uint256"
				}
			],
			"name": "burn",
			"outputs": [],
			"stateMutability": "nonpayable",
			"type": "function"
		},
		{
			"inputs": [
				{
					"internalType": "address",
					"name": "account",
					"type": "address"
				},
				{
					"internalType": "uint256[]",
					"name": "ids",
					"type": "uint256[]"
				},
				{
					"internalType": "uint256[]",
					"name": "values",
					"type": "uint256[]"
				}
			],
			"name": "burnBatch",
			"outputs": [],
			"stateMutability": "nonpayable",
			"type": "function"
		},
		{
			"inputs": [
				{
					"internalType": "uint256",
					"name": "",
					"type": "uint256"
				}
			],
			"name": "collectionDatas",
			"outputs": [
				{
					"internalType": "bytes32",
					"name": "cid",
					"type": "bytes32"
				},
				{
					"internalType": "uint256",
					"name": "collectionId",
					"type": "uint256"
				}
			],
			"stateMutability": "view",
			"type": "function"
		},
		{
			"inputs": [
				{
					"internalType": "uint256",
					"name": "",
					"type": "uint256"
				}
			],
			"name": "collectionIds",
			"outputs": [
				{
					"internalType": "uint256",
					"name": "",
					"type": "uint256"
				}
			],
			"stateMutability": "view",
			"type": "function"
		},
		{
			"inputs": [
				{
					"internalType": "uint256",
					"name": "",
					"type": "uint256"
				}
			],
			"name": "collections",
			"outputs": [
				{
					"internalType": "uint256",
					"name": "id",
					"type": "uint256"
				},
				{
					"internalType": "string",
					"name": "suffix",
					"type": "string"
				}
			],
			"stateMutability": "view",
			"type": "function"
		},
		{
			"inputs": [
				{
					"internalType": "string",
					"name": "suffix",
					"type": "string"
				}
			],
			"name": "createCollection",
			"outputs": [],
			"stateMutability": "nonpayable",
			"type": "function"
		},
		{
			"inputs": [
				{
					"internalType": "string",
					"name": "suffix",
					"type": "string"
				}
			],
			"name": "deleteCollectionBySuffix",
			"outputs": [],
			"stateMutability": "nonpayable",
			"type": "function"
		},
		{
			"inputs": [
				{
					"internalType": "uint256",
					"name": "id",
					"type": "uint256"
				}
			],
			"name": "exists",
			"outputs": [
				{
					"internalType": "bool",
					"name": "",
					"type": "bool"
				}
			],
			"stateMutability": "view",
			"type": "function"
		},
		{
			"inputs": [],
			"name": "getAllCollectionDatas",
			"outputs": [
				{
					"components": [
						{
							"internalType": "bytes32",
							"name": "cid",
							"type": "bytes32"
						},
						{
							"internalType": "uint256",
							"name": "collectionId",
							"type": "uint256"
						}
					],
					"internalType": "struct Shared1155TokenSSSS.CollectionData[]",
					"name": "",
					"type": "tuple[]"
				}
			],
			"stateMutability": "view",
			"type": "function"
		},
		{
			"inputs": [],
			"name": "getAllCollections",
			"outputs": [
				{
					"components": [
						{
							"internalType": "uint256",
							"name": "id",
							"type": "uint256"
						},
						{
							"internalType": "string",
							"name": "suffix",
							"type": "string"
						}
					],
					"internalType": "struct Shared1155TokenSSSS.Collection[]",
					"name": "",
					"type": "tuple[]"
				}
			],
			"stateMutability": "view",
			"type": "function"
		},
		{
			"inputs": [
				{
					"internalType": "uint256",
					"name": "collectionId",
					"type": "uint256"
				}
			],
			"name": "getCollection",
			"outputs": [
				{
					"components": [
						{
							"internalType": "uint256",
							"name": "id",
							"type": "uint256"
						},
						{
							"internalType": "string",
							"name": "suffix",
							"type": "string"
						}
					],
					"internalType": "struct Shared1155TokenSSSS.Collection",
					"name": "",
					"type": "tuple"
				}
			],
			"stateMutability": "view",
			"type": "function"
		},
		{
			"inputs": [
				{
					"internalType": "uint256",
					"name": "tokenId",
					"type": "uint256"
				}
			],
			"name": "getCollectionData",
			"outputs": [
				{
					"components": [
						{
							"internalType": "bytes32",
							"name": "cid",
							"type": "bytes32"
						},
						{
							"internalType": "uint256",
							"name": "collectionId",
							"type": "uint256"
						}
					],
					"internalType": "struct Shared1155TokenSSSS.CollectionData",
					"name": "",
					"type": "tuple"
				}
			],
			"stateMutability": "view",
			"type": "function"
		},
		{
			"inputs": [
				{
					"internalType": "uint256",
					"name": "collectionId",
					"type": "uint256"
				}
			],
			"name": "getCollectionSuffix",
			"outputs": [
				{
					"internalType": "string",
					"name": "",
					"type": "string"
				}
			],
			"stateMutability": "view",
			"type": "function"
		},
		{
			"inputs": [],
			"name": "getContractNFTs",
			"outputs": [
				{
					"components": [
						{
							"internalType": "uint256",
							"name": "tokenId",
							"type": "uint256"
						},
						{
							"internalType": "uint256",
							"name": "amount",
							"type": "uint256"
						},
						{
							"internalType": "string",
							"name": "uri",
							"type": "string"
						},
						{
							"components": [
								{
									"internalType": "bytes32",
									"name": "cid",
									"type": "bytes32"
								},
								{
									"internalType": "uint256",
									"name": "collectionId",
									"type": "uint256"
								}
							],
							"internalType": "struct Shared1155TokenSSSS.CollectionData",
							"name": "collectionData",
							"type": "tuple"
						}
					],
					"internalType": "struct Shared1155TokenSSSS.NFTDetails[]",
					"name": "",
					"type": "tuple[]"
				}
			],
			"stateMutability": "view",
			"type": "function"
		},
		{
			"inputs": [
				{
					"internalType": "bytes32",
					"name": "role",
					"type": "bytes32"
				}
			],
			"name": "getRoleAdmin",
			"outputs": [
				{
					"internalType": "bytes32",
					"name": "",
					"type": "bytes32"
				}
			],
			"stateMutability": "view",
			"type": "function"
		},
		{
			"inputs": [
				{
					"internalType": "bytes32",
					"name": "role",
					"type": "bytes32"
				},
				{
					"internalType": "address",
					"name": "account",
					"type": "address"
				}
			],
			"name": "grantRole",
			"outputs": [],
			"stateMutability": "nonpayable",
			"type": "function"
		},
		{
			"inputs": [
				{
					"internalType": "bytes32",
					"name": "role",
					"type": "bytes32"
				},
				{
					"internalType": "address",
					"name": "account",
					"type": "address"
				}
			],
			"name": "grantRoleTo",
			"outputs": [],
			"stateMutability": "nonpayable",
			"type": "function"
		},
		{
			"inputs": [
				{
					"internalType": "bytes32",
					"name": "role",
					"type": "bytes32"
				},
				{
					"internalType": "address",
					"name": "account",
					"type": "address"
				}
			],
			"name": "hasRole",
			"outputs": [
				{
					"internalType": "bool",
					"name": "",
					"type": "bool"
				}
			],
			"stateMutability": "view",
			"type": "function"
		},
		{
			"inputs": [
				{
					"internalType": "address",
					"name": "account",
					"type": "address"
				},
				{
					"internalType": "address",
					"name": "operator",
					"type": "address"
				}
			],
			"name": "isApprovedForAll",
			"outputs": [
				{
					"internalType": "bool",
					"name": "",
					"type": "bool"
				}
			],
			"stateMutability": "view",
			"type": "function"
		},
		{
			"inputs": [
				{
					"internalType": "address",
					"name": "account",
					"type": "address"
				},
				{
					"internalType": "uint256",
					"name": "id",
					"type": "uint256"
				},
				{
					"internalType": "uint256",
					"name": "amount",
					"type": "uint256"
				},
				{
					"internalType": "bytes",
					"name": "data",
					"type": "bytes"
				}
			],
			"name": "mint",
			"outputs": [],
			"stateMutability": "nonpayable",
			"type": "function"
		},
		{
			"inputs": [
				{
					"internalType": "address",
					"name": "to",
					"type": "address"
				},
				{
					"internalType": "uint256[]",
					"name": "ids",
					"type": "uint256[]"
				},
				{
					"internalType": "uint256[]",
					"name": "amounts",
					"type": "uint256[]"
				},
				{
					"internalType": "bytes",
					"name": "data",
					"type": "bytes"
				}
			],
			"name": "mintBatch",
			"outputs": [],
			"stateMutability": "nonpayable",
			"type": "function"
		},
		{
			"inputs": [],
			"name": "name",
			"outputs": [
				{
					"internalType": "string",
					"name": "",
					"type": "string"
				}
			],
			"stateMutability": "view",
			"type": "function"
		},
		{
			"inputs": [
				{
					"internalType": "address",
					"name": "operator",
					"type": "address"
				},
				{
					"internalType": "address",
					"name": "from",
					"type": "address"
				},
				{
					"internalType": "uint256[]",
					"name": "ids",
					"type": "uint256[]"
				},
				{
					"internalType": "uint256[]",
					"name": "values",
					"type": "uint256[]"
				},
				{
					"internalType": "bytes",
					"name": "data",
					"type": "bytes"
				}
			],
			"name": "onERC1155BatchReceived",
			"outputs": [
				{
					"internalType": "bytes4",
					"name": "",
					"type": "bytes4"
				}
			],
			"stateMutability": "nonpayable",
			"type": "function"
		},
		{
			"inputs": [
				{
					"internalType": "address",
					"name": "operator",
					"type": "address"
				},
				{
					"internalType": "address",
					"name": "from",
					"type": "address"
				},
				{
					"internalType": "uint256",
					"name": "id",
					"type": "uint256"
				},
				{
					"internalType": "uint256",
					"name": "value",
					"type": "uint256"
				},
				{
					"internalType": "bytes",
					"name": "data",
					"type": "bytes"
				}
			],
			"name": "onERC1155Received",
			"outputs": [
				{
					"internalType": "bytes4",
					"name": "",
					"type": "bytes4"
				}
			],
			"stateMutability": "nonpayable",
			"type": "function"
		},
		{
			"inputs": [],
			"name": "pause",
			"outputs": [],
			"stateMutability": "nonpayable",
			"type": "function"
		},
		{
			"inputs": [],
			"name": "paused",
			"outputs": [
				{
					"internalType": "bool",
					"name": "",
					"type": "bool"
				}
			],
			"stateMutability": "view",
			"type": "function"
		},
		{
			"inputs": [
				{
					"internalType": "bytes32",
					"name": "role",
					"type": "bytes32"
				},
				{
					"internalType": "address",
					"name": "callerConfirmation",
					"type": "address"
				}
			],
			"name": "renounceRole",
			"outputs": [],
			"stateMutability": "nonpayable",
			"type": "function"
		},
		{
			"inputs": [
				{
					"internalType": "bytes32",
					"name": "role",
					"type": "bytes32"
				},
				{
					"internalType": "address",
					"name": "account",
					"type": "address"
				}
			],
			"name": "revokeRole",
			"outputs": [],
			"stateMutability": "nonpayable",
			"type": "function"
		},
		{
			"inputs": [
				{
					"internalType": "address",
					"name": "from",
					"type": "address"
				},
				{
					"internalType": "address",
					"name": "to",
					"type": "address"
				},
				{
					"internalType": "uint256[]",
					"name": "ids",
					"type": "uint256[]"
				},
				{
					"internalType": "uint256[]",
					"name": "values",
					"type": "uint256[]"
				},
				{
					"internalType": "bytes",
					"name": "data",
					"type": "bytes"
				}
			],
			"name": "safeBatchTransferFrom",
			"outputs": [],
			"stateMutability": "nonpayable",
			"type": "function"
		},
		{
			"inputs": [
				{
					"internalType": "string",
					"name": "tokenURI",
					"type": "string"
				},
				{
					"internalType": "uint256",
					"name": "amount",
					"type": "uint256"
				},
				{
					"internalType": "bytes32",
					"name": "cid",
					"type": "bytes32"
				},
				{
					"internalType": "string",
					"name": "suffix",
					"type": "string"
				}
			],
			"name": "safeCast",
			"outputs": [],
			"stateMutability": "nonpayable",
			"type": "function"
		},
		{
			"inputs": [
				{
					"internalType": "address",
					"name": "from",
					"type": "address"
				},
				{
					"internalType": "address",
					"name": "to",
					"type": "address"
				},
				{
					"internalType": "uint256",
					"name": "id",
					"type": "uint256"
				},
				{
					"internalType": "uint256",
					"name": "value",
					"type": "uint256"
				},
				{
					"internalType": "bytes",
					"name": "data",
					"type": "bytes"
				}
			],
			"name": "safeTransferFrom",
			"outputs": [],
			"stateMutability": "nonpayable",
			"type": "function"
		},
		{
			"inputs": [
				{
					"internalType": "address",
					"name": "operator",
					"type": "address"
				},
				{
					"internalType": "bool",
					"name": "approved",
					"type": "bool"
				}
			],
			"name": "setApprovalForAll",
			"outputs": [],
			"stateMutability": "nonpayable",
			"type": "function"
		},
		{
			"inputs": [
				{
					"internalType": "uint256",
					"name": "tokenId",
					"type": "uint256"
				},
				{
					"internalType": "string",
					"name": "newURI",
					"type": "string"
				}
			],
			"name": "setTokenURI",
			"outputs": [],
			"stateMutability": "nonpayable",
			"type": "function"
		},
		{
			"inputs": [
				{
					"internalType": "bytes4",
					"name": "interfaceId",
					"type": "bytes4"
				}
			],
			"name": "supportsInterface",
			"outputs": [
				{
					"internalType": "bool",
					"name": "",
					"type": "bool"
				}
			],
			"stateMutability": "view",
			"type": "function"
		},
		{
			"inputs": [
				{
					"internalType": "uint256",
					"name": "",
					"type": "uint256"
				}
			],
			"name": "tokenIds",
			"outputs": [
				{
					"internalType": "uint256",
					"name": "",
					"type": "uint256"
				}
			],
			"stateMutability": "view",
			"type": "function"
		},
		{
			"inputs": [],
			"name": "totalSupply",
			"outputs": [
				{
					"internalType": "uint256",
					"name": "",
					"type": "uint256"
				}
			],
			"stateMutability": "view",
			"type": "function"
		},
		{
			"inputs": [
				{
					"internalType": "uint256",
					"name": "id",
					"type": "uint256"
				}
			],
			"name": "totalSupply",
			"outputs": [
				{
					"internalType": "uint256",
					"name": "",
					"type": "uint256"
				}
			],
			"stateMutability": "view",
			"type": "function"
		},
		{
			"inputs": [
				{
					"internalType": "address",
					"name": "tokenAddress",
					"type": "address"
				},
				{
					"internalType": "address",
					"name": "to",
					"type": "address"
				},
				{
					"internalType": "uint256",
					"name": "amount",
					"type": "uint256"
				},
				{
					"internalType": "string",
					"name": "targetURI",
					"type": "string"
				}
			],
			"name": "transferERC20",
			"outputs": [],
			"stateMutability": "nonpayable",
			"type": "function"
		},
		{
			"inputs": [
				{
					"internalType": "address",
					"name": "to",
					"type": "address"
				},
				{
					"internalType": "string",
					"name": "targetURI",
					"type": "string"
				},
				{
					"internalType": "uint256",
					"name": "amount",
					"type": "uint256"
				}
			],
			"name": "transferNFTByURI",
			"outputs": [],
			"stateMutability": "nonpayable",
			"type": "function"
		},
		{
			"inputs": [],
			"name": "unpause",
			"outputs": [],
			"stateMutability": "nonpayable",
			"type": "function"
		},
		{
			"inputs": [
				{
					"internalType": "uint256",
					"name": "tokenId",
					"type": "uint256"
				}
			],
			"name": "uri",
			"outputs": [
				{
					"internalType": "string",
					"name": "",
					"type": "string"
				}
			],
			"stateMutability": "view",
			"type": "function"
		}
	]
}