{
	"data": {
		"bytecode": {
			"linkReferences": {},
			"object": "60a06040525f608090815260059061001790826102e3565b50348015610023575f5ffd5b5060408051602081019091525f81526001805460ff19169055610045816100fa565b506100505f3361010a565b5061007b7f9f2df0fed2c77648de5860a4cc508cd0818c85b8b8a1ab4ceeef8d981c8956a63361010a565b506100a67fe926d122b799dcbe5c2eccdf60ae0aefbb1a4bc75a7848bb07befecf8c775f5c3361010a565b5060408051808201909152601381527f436172626f6e20437265646974204173736574000000000000000000000000006020820152600b906100e890826102e3565b506100f5308060016101b3565b61039d565b600461010682826102e3565b5050565b5f828152602081815260408083206001600160a01b038516845290915281205460ff166101aa575f838152602081815260408083206001600160a01b03861684529091529020805460ff191660011790556101623390565b6001600160a01b0316826001600160a01b0316847f2f8788117e7eff1d82e926ec794901d17c78024a50270940304540a733656f0d60405160405180910390a45060016101ad565b505f5b92915050565b6001600160a01b0382166101df5760405162ced3e160e81b81525f600482015260240160405180910390fd5b6001600160a01b038381165f81815260036020908152604080832094871680845294825291829020805460ff191686151590811790915591519182527f17307eab39ab6107e8899845ad3d59bd9653f200f220920489ca2b5937696c31910160405180910390a3505050565b634e487b7160e01b5f52604160045260245ffd5b600181811c9082168061027357607f821691505b60208210810361029157634e487b7160e01b5f52602260045260245ffd5b50919050565b601f8211156102de57805f5260205f20601f840160051c810160208510156102bc5750805b601f840160051c820191505b818110156102db575f81556001016102c8565b50505b505050565b81516001600160401b038111156102fc576102fc61024b565b6103108161030a845461025f565b84610297565b6020601f821160018114610342575f831561032b5750848201515b5f19600385901b1c1916600184901b1784556102db565b5f84815260208120601f198516915b828110156103715787850151825560209485019460019092019101610351565b508482101561038e57868401515f19600387901b60f8161c191681555b50505050600190811b01905550565b613ff5806103aa5f395ff3fe608060405234801561000f575f5ffd5b50600436106102fe575f3560e01c806391d1485411610195578063caff99ce116100e4578063e22c45151161009e578063f242432a11610079578063f242432a14610743578063f5298aca14610756578063fb218f5f14610769578063fdbda0ec1461077c575f5ffd5b8063e22c4515146106fd578063e985e9c514610710578063f23a6e6114610723575f5ffd5b8063caff99ce14610667578063d53913931461068e578063d547741f146106a2578063d58778d6146106b5578063dd5b3a65146106c8578063df6f5b20146106dd575f5ffd5b8063a70987281161014f578063bc197c811161012a578063bc197c81146105e5578063bd85b03914610620578063be7cf7501461063f578063c71d0ea314610652575f5ffd5b8063a7098728146105aa578063a9b566a3146105bf578063b21fa654146105d2575f5ffd5b806391d14854146105445780639cdf0f46146105575780639dd6a4491461056a578063a217fddf1461057d578063a22cb46514610584578063a5e2361d14610597575f5ffd5b80633038bfdf116102515780635c975abb1161020b57806370164f0e116101e657806370164f0e1461050e578063731133e91461052157806377e1b4ca146105345780638456cb591461053c575f5ffd5b80635c975abb146104db5780636804a958146104e65780636b20c454146104fb575f5ffd5b80633038bfdf1461044c57806336568abe1461045f5780633f4ba83a146104725780634e1273f41461047a5780634f558e791461049a5780635a1f3c28146104bb575f5ffd5b806318160ddd116102bc578063258672aa11610297578063258672aa146103d85780632eb2c2d6146104135780632f2ff15d146104265780633037717414610439575f5ffd5b806318160ddd1461039b5780631f7fdffa146103a3578063248a9ca3146103b6575f5ffd5b8062fdd58e1461030257806301ffc9a714610328578063059dfe131461034b57806306fdde03146103605780630e89341c14610375578063162094c414610388575b5f5ffd5b610315610310366004612e64565b61079d565b6040519081526020015b60405180910390f35b61033b610336366004612ea1565b6107c6565b604051901515815260200161031f565b61035e610359366004612f71565b6107ea565b005b6103686109a6565b60405161031f9190612fd8565b610368610383366004612fea565b610a32565b61035e610396366004613001565b610a3d565b600854610315565b61035e6103b13660046130d0565b610ac7565b6103156103c4366004612fea565b5f9081526020819052604090206001015490565b6103fe6103e6366004612fea565b600d6020525f90815260409020805460019091015482565b6040805192835260208301919091520161031f565b61035e61042136600461316c565b610af1565b61035e610434366004613218565b610b58565b610368610447366004612fea565b610b82565b61035e61045a366004613242565b610ba9565b61035e61046d366004613218565b610ccc565b61035e610cff565b61048d610488366004613295565b610d14565b60405161031f9190613386565b61033b6104a8366004612fea565b5f90815260076020526040902054151590565b6104ce6104c9366004612fea565b610dde565b60405161031f91906133b6565b60015460ff1661033b565b6104ee610eda565b60405161031f91906133c8565b61035e61050936600461342b565b611048565b61035e61051c366004612f71565b6110a7565b61035e61052f36600461349d565b611262565b61033b611285565b61035e611295565b61033b610552366004613218565b6112a7565b61035e610565366004612f71565b6112cf565b61035e6105783660046134ee565b611448565b6103155f81565b61035e6105923660046134ee565b611504565b61035e6105a5366004613218565b61150f565b6105b2611519565b60405161031f9190613523565b6103156105cd366004612fea565b61168b565b6103686105e0366004612fea565b6116aa565b6106076105f336600461363d565b63bc197c8160e01b98975050505050505050565b6040516001600160e01b0319909116815260200161031f565b61031561062e366004612fea565b5f9081526007602052604090205490565b61035e61064d3660046136f9565b611776565b61065a61196d565b60405161031f9190613756565b6103157fe926d122b799dcbe5c2eccdf60ae0aefbb1a4bc75a7848bb07befecf8c775f5c81565b6103155f516020613fa05f395f51905f5281565b61035e6106b0366004613218565b611a4e565b6103156106c3366004612fea565b611a72565b6106d0611a81565b60405161031f91906137ad565b6106f06106eb366004612fea565b611b55565b60405161031f9190613804565b61035e61070b36600461381b565b611bf7565b61033b61071e366004613866565b611f98565b61060761073136600461388e565b63f23a6e6160e01b9695505050505050565b61035e610751366004613900565b611fc5565b61035e610764366004613953565b612024565b61035e610777366004612f71565b61205a565b61078f61078a366004612fea565b6120f9565b60405161031f929190613983565b5f8181526002602090815260408083206001600160a01b03861684529091529020545b92915050565b5f6001600160e01b03198216630271189760e51b14806107c057506107c08261219b565b7fe926d122b799dcbe5c2eccdf60ae0aefbb1a4bc75a7848bb07befecf8c775f5c610814816121da565b5f5b600e548110156108de575f600e82815481106108345761083461399b565b905f5260205f20015490508380519060200120600c5f8381526020019081526020015f206001016040516108689190613a4f565b6040518091039020036108d55760405162461bcd60e51b815260206004820152602a60248201527f53686172656431313535546f6b656e3a204475706c69636174652073756666696044820152691e0819195d1958dd195960b21b60648201526084015b60405180910390fd5b50600101610816565b506108ed600a80546001019055565b5f6108f7600a5490565b60408051808201825282815260208082018781525f858152600c9092529290208151815591519293509160018201906109309082613a9e565b5050600e80546001810182555f919091527fbb7b4a454dc3493923482f07822329ed19e8244eff582cc204f8554c3620c3fd018290555060405181907f62b7b5ba11bfc95430fab0460fdf99b9c8fbc2b3a6a48caf79c3ee1b591c033690610999908690612fd8565b60405180910390a2505050565b600b80546109b3906139af565b80601f01602080910402602001604051908101604052809291908181526020018280546109df906139af565b8015610a2a5780601f10610a0157610100808354040283529160200191610a2a565b820191905f5260205f20905b815481529060010190602001808311610a0d57829003601f168201915b505050505081565b60606107c0826121e4565b5f610a47816121da565b5f8381526007602052604081205411610ab85760405162461bcd60e51b815260206004820152602d60248201527f53686172656431313535546f6b656e3a2055524920736574206f66206e6f6e6560448201526c3c34b9ba32b73a103a37b5b2b760991b60648201526084016108cc565b610ac283836122c0565b505050565b5f516020613fa05f395f51905f52610ade816121da565b610aea85858585612310565b5050505050565b336001600160a01b0386168114801590610b125750610b108682611f98565b155b15610b435760405163711bec9160e11b81526001600160a01b038083166004830152871660248201526044016108cc565b610b508686868686612346565b505050505050565b5f82815260208190526040902060010154610b72816121da565b610b7c83836123a4565b50505050565b60108181548110610b91575f80fd5b905f5260205f20015f9150905080546109b3906139af565b5f610bb3816121da565b6001600160a01b038416610bd95760405162461bcd60e51b81526004016108cc90613b5b565b5f8211610bf85760405162461bcd60e51b81526004016108cc90613ba5565b5f805b600f54811015610c68578480519060200120610c31600f8381548110610c2357610c2361399b565b905f5260205f200154610a32565b8051906020012003610c6057600f8181548110610c5057610c5061399b565b905f5260205f2001549150610c68565b600101610bfb565b50805f03610c885760405162461bcd60e51b81526004016108cc90613c02565b82610c93308361079d565b1015610cb15760405162461bcd60e51b81526004016108cc90613c58565b610aea3086838660405180602001604052805f815250611fc5565b6001600160a01b0381163314610cf55760405163334bd91960e11b815260040160405180910390fd5b610ac28282612433565b5f610d09816121da565b610d1161249c565b50565b60608151835114610d455781518351604051635b05999160e01b8152600481019290925260248201526044016108cc565b5f83516001600160401b03811115610d5f57610d5f612ebc565b604051908082528060200260200182016040528015610d88578160200160208202803683370190505b5090505f5b8451811015610dd657602080820286010151610db19060208084028701015161079d565b828281518110610dc357610dc361399b565b6020908102919091010152600101610d8d565b509392505050565b604080518082019091525f8152606060208201525f828152600c60205260408120549003610e1e5760405162461bcd60e51b81526004016108cc90613ca1565b600c5f8381526020019081526020015f206040518060400160405290815f8201548152602001600182018054610e53906139af565b80601f0160208091040260200160405190810160405280929190818152602001828054610e7f906139af565b8015610eca5780601f10610ea157610100808354040283529160200191610eca565b820191905f5260205f20905b815481529060010190602001808311610ead57829003601f168201915b5050505050815250509050919050565b600e546060905f906001600160401b03811115610ef957610ef9612ebc565b604051908082528060200260200182016040528015610f3e57816020015b604080518082019091525f815260606020820152815260200190600190039081610f175790505b5090505f5b600e5481101561104257600c5f600e8381548110610f6357610f6361399b565b905f5260205f20015481526020019081526020015f206040518060400160405290815f8201548152602001600182018054610f9d906139af565b80601f0160208091040260200160405190810160405280929190818152602001828054610fc9906139af565b80156110145780601f10610feb57610100808354040283529160200191611014565b820191905f5260205f20905b815481529060010190602001808311610ff757829003601f168201915b50505050508152505082828151811061102f5761102f61399b565b6020908102919091010152600101610f43565b50919050565b6001600160a01b038316331480159061106857506110668333611f98565b155b1561109c57335b60405163711bec9160e11b81526001600160a01b03918216600482015290841660248201526044016108cc565b610ac28383836124ee565b5f6110b1816121da565b5f5b600e548110156111fb575f600e82815481106110d1576110d161399b565b905f5260205f20015490508380519060200120600c5f8381526020019081526020015f206001016040516111059190613a4f565b6040518091039020036111f2575f818152600c60205260408120818155906111306001830182612dbc565b5050600e5461114190600190613cff565b82101561119057600e805461115890600190613cff565b815481106111685761116861399b565b905f5260205f200154600e83815481106111845761118461399b565b5f918252602090912001555b600e8054806111a1576111a1613d12565b600190038181905f5260205f20015f90559055807ff2c458821d360029e0b4d57e1f001b05db9d486ef001529d2e931753d7cf32f4856040516111e49190612fd8565b60405180910390a250505050565b506001016110b3565b5060405162461bcd60e51b815260206004820152603160248201527f53686172656431313535546f6b656e3a20436f6c6c656374696f6e2077697468604482015270081cdd59999a5e081b9bdd08199bdd5b99607a1b60648201526084016108cc565b5050565b5f516020613fa05f395f51905f52611279816121da565b610aea85858585612531565b5f6112903033611f98565b905090565b5f61129f816121da565b610d1161258c565b5f918252602082815260408084206001600160a01b0393909316845291905290205460ff1690565b5f6112d9816121da565b5f8251116112f95760405162461bcd60e51b81526004016108cc90613d26565b5f5b6010548110156113ff578280519060200120601082815481106113205761132061399b565b905f5260205f20016040516113359190613a4f565b6040518091039020036113f7576010805461135290600190613cff565b815481106113625761136261399b565b905f5260205f20016010828154811061137d5761137d61399b565b905f5260205f200190816113919190613d6b565b5060108054806113a3576113a3613d12565b600190038181905f5260205f20015f6113bc9190612dbc565b9055336001600160a01b03167f0e29642266027cb54ae2f8dfff02a7147b64461546559736868a4a962ac7e4ca846040516109999190612fd8565b6001016112fb565b5060405162461bcd60e51b815260206004820152601f60248201527f53686172656431313535546f6b656e3a2044617461206e6f7420666f756e640060448201526064016108cc565b6001600160a01b0382166114b05760405162461bcd60e51b815260206004820152602960248201527f53686172656431313535546f6b656e3a20496e76616c6964206f70657261746f60448201526872206164647265737360b81b60648201526084016108cc565b6114bb3083836125c7565b816001600160a01b03167f8d3369e8ce7e1085710a510ca605f9599e0ae164e4c5a0c65b8106d6681f8efe826040516114f8911515815260200190565b60405180910390a25050565b61125e3383836125c7565b5f610b72816121da565b60605f805b600f5481101561156a575f61154e30600f84815481106115405761154061399b565b905f5260205f20015461079d565b1115611562578161155e81613e37565b9250505b60010161151e565b505f816001600160401b0381111561158457611584612ebc565b6040519080825280602002602001820160405280156115bd57816020015b6115aa612df3565b8152602001906001900390816115a25790505b5090505f805b600f54811015611682575f600f82815481106115e1576115e161399b565b905f5260205f20015490505f6115f7308361079d565b9050801561167857604051806080016040528083815260200182815260200161161f84610a32565b81525f848152600d6020908152604091829020825180840190935280548352600101548282015290910152855186908690811061165e5761165e61399b565b6020026020010181905250838061167490613e37565b9450505b50506001016115c3565b50909392505050565b600e818154811061169a575f80fd5b5f91825260209091200154905081565b5f818152600c6020526040812054606091036116d85760405162461bcd60e51b81526004016108cc90613ca1565b5f828152600c6020526040902060010180546116f3906139af565b80601f016020809104026020016040519081016040528092919081815260200182805461171f906139af565b801561176a5780601f106117415761010080835404028352916020019161176a565b820191905f5260205f20905b81548152906001019060200180831161174d57829003601f168201915b50505050509050919050565b5f516020613fa05f395f51905f5261178d816121da565b5f805b600e54811015611829578380519060200120600c5f600e84815481106117b8576117b861399b565b905f5260205f20015481526020019081526020015f206001016040516117de9190613a4f565b60405180910390200361182157600c5f600e83815481106118015761180161399b565b905f5260205f20015481526020019081526020015f205f01549150611829565b600101611790565b50805f036118985760405162461bcd60e51b815260206004820152603660248201527f53686172656431313535546f6b656e3a20436f6c6c656374696f6e2077697468604482015275081cdd59999a5e08191bd95cc81b9bdd08195e1a5cdd60521b60648201526084016108cc565b6118a6600980546001019055565b5f6118b060095490565b90506118cc30828860405180602001604052805f815250612531565b6118d681886122c0565b5f818152600d602090815260408083208881556001808201879055600f805491820181559094527f8d1108e10bcb7c27dddfc02ed9d693a074039d026cf4ea4240b40f7d581ac8029093018490558051848152918201889052810188905230907fafde70c98492a2ca81a3e5545bed44efeb0747a64b5e63a918df2e9d8e83ef359060600160405180910390a25050505050505050565b600f546060905f906001600160401b0381111561198c5761198c612ebc565b6040519080825280602002602001820160405280156119d057816020015b604080518082019091525f80825260208201528152602001906001900390816119aa5790505b5090505f5b600f5481101561104257600d5f600f83815481106119f5576119f561399b565b905f5260205f20015481526020019081526020015f206040518060400160405290815f8201548152602001600182015481525050828281518110611a3b57611a3b61399b565b60209081029190910101526001016119d5565b5f82815260208190526040902060010154611a68816121da565b610b7c8383612433565b600f818154811061169a575f80fd5b60606010805480602002602001604051908101604052809291908181526020015f905b82821015611b4c578382905f5260205f20018054611ac1906139af565b80601f0160208091040260200160405190810160405280929190818152602001828054611aed906139af565b8015611b385780601f10611b0f57610100808354040283529160200191611b38565b820191905f5260205f20905b815481529060010190602001808311611b1b57829003601f168201915b505050505081526020019060010190611aa4565b50505050905090565b604080518082019091525f80825260208201525f8281526007602052604081205411611bce5760405162461bcd60e51b815260206004820152602260248201527f53686172656431313535546f6b656e3a204e6f6e6578697374656e7420746f6b60448201526132b760f11b60648201526084016108cc565b505f908152600d6020908152604091829020825180840190935280548352600101549082015290565b6001600160a01b038316611c1d5760405162461bcd60e51b81526004016108cc90613b5b565b5f8211611c3c5760405162461bcd60e51b81526004016108cc90613ba5565b6040516370a0823160e01b8152336004820152849083906001600160a01b038316906370a0823190602401602060405180830381865afa158015611c82573d5f5f3e3d5ffd5b505050506040513d601f19601f82011682018060405250810190611ca69190613e4f565b1015611d085760405162461bcd60e51b815260206004820152602b60248201527f53686172656431313535546f6b656e3a20496e73756666696369656e7420455260448201526a4332302062616c616e636560a81b60648201526084016108cc565b604051636eb1769f60e11b815233600482015230602482015283906001600160a01b0383169063dd62ed3e90604401602060405180830381865afa158015611d52573d5f5f3e3d5ffd5b505050506040513d601f19601f82011682018060405250810190611d769190613e4f565b1015611dda5760405162461bcd60e51b815260206004820152602d60248201527f53686172656431313535546f6b656e3a20496e73756666696369656e7420455260448201526c43323020616c6c6f77616e636560981b60648201526084016108cc565b6040516323b872dd60e01b81523360048201526001600160a01b038581166024830152604482018590528216906323b872dd906064016020604051808303815f875af1158015611e2c573d5f5f3e3d5ffd5b505050506040513d601f19601f82011682018060405250810190611e509190613e66565b505f805b600f54811015611eb3578380519060200120611e7c600f8381548110610c2357610c2361399b565b8051906020012003611eab57600f8181548110611e9b57611e9b61399b565b905f5260205f2001549150611eb3565b600101611e54565b50805f03611ed35760405162461bcd60e51b81526004016108cc90613c02565b6001611edf308361079d565b1015611efd5760405162461bcd60e51b81526004016108cc90613c58565b611f19303383600160405180602001604052805f815250611fc5565b6040516323b872dd60e01b81523360048201526001600160a01b038681166024830152604482018690528316906323b872dd906064016020604051808303815f875af1158015611f6b573d5f5f3e3d5ffd5b505050506040513d601f19601f82011682018060405250810190611f8f9190613e66565b50505050505050565b6001600160a01b039182165f90815260036020908152604080832093909416825291909152205460ff1690565b336001600160a01b0386168114801590611fe65750611fe48682611f98565b155b156120175760405163711bec9160e11b81526001600160a01b038083166004830152871660248201526044016108cc565b610b50868686868661265b565b6001600160a01b038316331480159061204457506120428333611f98565b155b1561204f573361106f565b610ac28383836126de565b5f612064816121da565b5f8251116120845760405162461bcd60e51b81526004016108cc90613d26565b601080546001810182555f919091527f1b6847dc741a1b0cd08d278845f9d819d87b734759afb55fe2de5cb82a9ae672016120bf8382613a9e565b50336001600160a01b03167f4b33dafb50dac5530c30aca4e4069fd67a18220888b874b8519558d1769d49a1836040516114f89190612fd8565b600c6020525f90815260409020805460018201805491929161211a906139af565b80601f0160208091040260200160405190810160405280929190818152602001828054612146906139af565b80156121915780601f1061216857610100808354040283529160200191612191565b820191905f5260205f20905b81548152906001019060200180831161217457829003601f168201915b5050505050905082565b5f6001600160e01b03198216636cdb3d1360e11b14806121cb57506001600160e01b031982166303a24d0760e21b145b806107c057506107c082612744565b610d118133612778565b5f81815260066020526040812080546060929190612201906139af565b80601f016020809104026020016040519081016040528092919081815260200182805461222d906139af565b80156122785780601f1061224f57610100808354040283529160200191612278565b820191905f5260205f20905b81548152906001019060200180831161225b57829003601f168201915b505050505090505f81511161229557612290836127b1565b6122b9565b6005816040516020016122a9929190613e81565b6040516020818303038152906040525b9392505050565b5f8281526006602052604090206122d78282613a9e565b50817f6bb7ff708619ba0610cba295a58592e0451dee2622938c8755667688daf3529b61230384610a32565b6040516114f89190612fd8565b6001600160a01b03841661233957604051632bfa23e760e11b81525f60048201526024016108cc565b610b7c5f858585856127c0565b6001600160a01b03841661236f57604051632bfa23e760e11b81525f60048201526024016108cc565b6001600160a01b03851661239757604051626a0d4560e21b81525f60048201526024016108cc565b610aea85858585856127c0565b5f6123af83836112a7565b61242c575f838152602081815260408083206001600160a01b03861684529091529020805460ff191660011790556123e43390565b6001600160a01b0316826001600160a01b0316847f2f8788117e7eff1d82e926ec794901d17c78024a50270940304540a733656f0d60405160405180910390a45060016107c0565b505f6107c0565b5f61243e83836112a7565b1561242c575f838152602081815260408083206001600160a01b0386168085529252808320805460ff1916905551339286917ff6391f5c32d9c69d2a47ea670b442974b53935d1edc7fd64eb21e047a839171b9190a45060016107c0565b6124a4612813565b6001805460ff191690557f5db9ee0a495bf2e6ff9c91a7834c1ba4fdd244a5e8aa4e537bd38aeae4b073aa335b6040516001600160a01b03909116815260200160405180910390a1565b6001600160a01b03831661251657604051626a0d4560e21b81525f60048201526024016108cc565b610ac2835f848460405180602001604052805f8152506127c0565b6001600160a01b03841661255a57604051632bfa23e760e11b81525f60048201526024016108cc565b60408051600180825260208201869052818301908152606082018590526080820190925290610b505f878484876127c0565b61259461285e565b6001805460ff1916811790557f62e78cea01bee320cd4e420270b5ea74000d11b0c9f74754ebdbfc544b05a258336124d1565b6001600160a01b0382166125ef5760405162ced3e160e81b81525f60048201526024016108cc565b6001600160a01b038381165f81815260036020908152604080832094871680845294825291829020805460ff191686151590811790915591519182527f17307eab39ab6107e8899845ad3d59bd9653f200f220920489ca2b5937696c31910160405180910390a3505050565b6001600160a01b03841661268457604051632bfa23e760e11b81525f60048201526024016108cc565b6001600160a01b0385166126ac57604051626a0d4560e21b81525f60048201526024016108cc565b60408051600180825260208201869052818301908152606082018590526080820190925290611f8f87878484876127c0565b6001600160a01b03831661270657604051626a0d4560e21b81525f60048201526024016108cc565b604080516001808252602082018590528183019081526060820184905260a082019092525f60808201818152919291610aea918791859085906127c0565b5f6001600160e01b03198216637965db0b60e01b14806107c057506301ffc9a760e01b6001600160e01b03198316146107c0565b61278282826112a7565b61125e5760405163e2517d3f60e01b81526001600160a01b0382166004820152602481018390526044016108cc565b6060600480546116f3906139af565b6127cc858585856128a4565b6001600160a01b03841615610aea578251339060010361280557602084810151908401516127fe8389898585896128b8565b5050610b50565b610b508187878787876129d9565b60015460ff1661285c5760405162461bcd60e51b815260206004820152601460248201527314185d5cd8589b194e881b9bdd081c185d5cd95960621b60448201526064016108cc565b565b60015460ff161561285c5760405162461bcd60e51b815260206004820152601060248201526f14185d5cd8589b194e881c185d5cd95960821b60448201526064016108cc565b6128ac61285e565b610b7c84848484612ac0565b6001600160a01b0384163b15610b505760405163f23a6e6160e01b81526001600160a01b0385169063f23a6e61906128fc9089908990889088908890600401613ea3565b6020604051808303815f875af1925050508015612936575060408051601f3d908101601f1916820190925261293391810190613ee7565b60015b61299d573d808015612963576040519150601f19603f3d011682016040523d82523d5f602084013e612968565b606091505b5080515f0361299557604051632bfa23e760e11b81526001600160a01b03861660048201526024016108cc565b805160208201fd5b6001600160e01b0319811663f23a6e6160e01b14611f8f57604051632bfa23e760e11b81526001600160a01b03861660048201526024016108cc565b6001600160a01b0384163b15610b505760405163bc197c8160e01b81526001600160a01b0385169063bc197c8190612a1d9089908990889088908890600401613f02565b6020604051808303815f875af1925050508015612a57575060408051601f3d908101601f19168201909252612a5491810190613ee7565b60015b612a84573d808015612963576040519150601f19603f3d011682016040523d82523d5f602084013e612968565b6001600160e01b0319811663bc197c8160e01b14611f8f57604051632bfa23e760e11b81526001600160a01b03861660048201526024016108cc565b612acc84848484612ba7565b6001600160a01b038416612b49575f805b8351811015612b305760208181028481018201519086018201515f908152600790925260408220805491928392612b15908490613f5f565b90915550612b2590508184613f5f565b925050600101612add565b508060085f828254612b429190613f5f565b9091555050505b6001600160a01b038316610b7c575f805b8351811015612b965760208181028481018201519086018201515f90815260079092526040909120805482900390559190910190600101612b5a565b506008805491909103905550505050565b8051825114612bd65781518151604051635b05999160e01b8152600481019290925260248201526044016108cc565b335f5b8351811015612cde576020818102858101820151908501909101516001600160a01b03881615612c8e575f8281526002602090815260408083206001600160a01b038c16845290915290205481811015612c66576040516303dee4c560e01b81526001600160a01b038a1660048201526024810182905260448101839052606481018490526084016108cc565b5f8381526002602090815260408083206001600160a01b038d16845290915290209082900390555b6001600160a01b03871615612cd4575f8281526002602090815260408083206001600160a01b038b16845290915281208054839290612cce908490613f5f565b90915550505b5050600101612bd9565b508251600103612d5e5760208301515f906020840151909150856001600160a01b0316876001600160a01b0316846001600160a01b03167fc3d58168c5ae7397731d063d5bbf3d657854427343f4c083240f7aacaa2d0f628585604051612d4f929190918252602082015260400190565b60405180910390a45050610aea565b836001600160a01b0316856001600160a01b0316826001600160a01b03167f4a39dc06d4c0dbc64b70af90fd698a233a518aa5d07e595d983b8c0526c8f7fb8686604051612dad929190613f72565b60405180910390a45050505050565b508054612dc8906139af565b5f825580601f10612dd7575050565b601f0160209004905f5260205f2090810190610d119190612e31565b60405180608001604052805f81526020015f815260200160608152602001612e2c60405180604001604052805f81526020015f81525090565b905290565b5b80821115612e45575f8155600101612e32565b5090565b80356001600160a01b0381168114612e5f575f5ffd5b919050565b5f5f60408385031215612e75575f5ffd5b612e7e83612e49565b946020939093013593505050565b6001600160e01b031981168114610d11575f5ffd5b5f60208284031215612eb1575f5ffd5b81356122b981612e8c565b634e487b7160e01b5f52604160045260245ffd5b604051601f8201601f191681016001600160401b0381118282101715612ef857612ef8612ebc565b604052919050565b5f82601f830112612f0f575f5ffd5b8135602083015f5f6001600160401b03841115612f2e57612f2e612ebc565b50601f8301601f1916602001612f4381612ed0565b915050828152858383011115612f57575f5ffd5b828260208301375f92810160200192909252509392505050565b5f60208284031215612f81575f5ffd5b81356001600160401b03811115612f96575f5ffd5b612fa284828501612f00565b949350505050565b5f81518084528060208401602086015e5f602082860101526020601f19601f83011685010191505092915050565b602081525f6122b96020830184612faa565b5f60208284031215612ffa575f5ffd5b5035919050565b5f5f60408385031215613012575f5ffd5b8235915060208301356001600160401b0381111561302e575f5ffd5b61303a85828601612f00565b9150509250929050565b5f6001600160401b0382111561305c5761305c612ebc565b5060051b60200190565b5f82601f830112613075575f5ffd5b813561308861308382613044565b612ed0565b8082825260208201915060208360051b8601019250858311156130a9575f5ffd5b602085015b838110156130c65780358352602092830192016130ae565b5095945050505050565b5f5f5f5f608085870312156130e3575f5ffd5b6130ec85612e49565b935060208501356001600160401b03811115613106575f5ffd5b61311287828801613066565b93505060408501356001600160401b0381111561312d575f5ffd5b61313987828801613066565b92505060608501356001600160401b03811115613154575f5ffd5b61316087828801612f00565b91505092959194509250565b5f5f5f5f5f60a08688031215613180575f5ffd5b61318986612e49565b945061319760208701612e49565b935060408601356001600160401b038111156131b1575f5ffd5b6131bd88828901613066565b93505060608601356001600160401b038111156131d8575f5ffd5b6131e488828901613066565b92505060808601356001600160401b038111156131ff575f5ffd5b61320b88828901612f00565b9150509295509295909350565b5f5f60408385031215613229575f5ffd5b8235915061323960208401612e49565b90509250929050565b5f5f5f60608486031215613254575f5ffd5b61325d84612e49565b925060208401356001600160401b03811115613277575f5ffd5b61328386828701612f00565b93969395505050506040919091013590565b5f5f604083850312156132a6575f5ffd5b82356001600160401b038111156132bb575f5ffd5b8301601f810185136132cb575f5ffd5b80356132d961308382613044565b8082825260208201915060208360051b8501019250878311156132fa575f5ffd5b6020840193505b828410156133235761331284612e49565b825260209384019390910190613301565b945050505060208301356001600160401b03811115613340575f5ffd5b61303a85828601613066565b5f8151808452602084019350602083015f5b8281101561337c57815186526020958601959091019060010161335e565b5093949350505050565b602081525f6122b9602083018461334c565b805182525f602082015160406020850152612fa26040850182612faa565b602081525f6122b96020830184613398565b5f602082016020835280845180835260408501915060408160051b8601019250602086015f5b8281101561341f57603f1987860301845261340a858351613398565b945060209384019391909101906001016133ee565b50929695505050505050565b5f5f5f6060848603121561343d575f5ffd5b61344684612e49565b925060208401356001600160401b03811115613460575f5ffd5b61346c86828701613066565b92505060408401356001600160401b03811115613487575f5ffd5b61349386828701613066565b9150509250925092565b5f5f5f5f608085870312156134b0575f5ffd5b6134b985612e49565b9350602085013592506040850135915060608501356001600160401b03811115613154575f5ffd5b8015158114610d11575f5ffd5b5f5f604083850312156134ff575f5ffd5b61350883612e49565b91506020830135613518816134e1565b809150509250929050565b5f602082016020835280845180835260408501915060408160051b8601019250602086015f5b8281101561341f57603f1987860301845281518051865260208101516020870152604081015160a0604088015261358360a0880182612faa565b9050606082015191506135a3606088018380518252602090810151910152565b9550506020938401939190910190600101613549565b5f5f83601f8401126135c9575f5ffd5b5081356001600160401b038111156135df575f5ffd5b6020830191508360208260051b85010111156135f9575f5ffd5b9250929050565b5f5f83601f840112613610575f5ffd5b5081356001600160401b03811115613626575f5ffd5b6020830191508360208285010111156135f9575f5ffd5b5f5f5f5f5f5f5f5f60a0898b031215613654575f5ffd5b61365d89612e49565b975061366b60208a01612e49565b965060408901356001600160401b03811115613685575f5ffd5b6136918b828c016135b9565b90975095505060608901356001600160401b038111156136af575f5ffd5b6136bb8b828c016135b9565b90955093505060808901356001600160401b038111156136d9575f5ffd5b6136e58b828c01613600565b999c989b5096995094979396929594505050565b5f5f5f5f6080858703121561370c575f5ffd5b84356001600160401b03811115613721575f5ffd5b61372d87828801612f00565b945050602085013592506040850135915060608501356001600160401b03811115613154575f5ffd5b602080825282518282018190525f918401906040840190835b818110156137a25761378c83855180518252602090810151910152565b602093909301926040929092019160010161376f565b509095945050505050565b5f602082016020835280845180835260408501915060408160051b8601019250602086015f5b8281101561341f57603f198786030184526137ef858351612faa565b945060209384019391909101906001016137d3565b8151815260208083015190820152604081016107c0565b5f5f5f5f6080858703121561382e575f5ffd5b61383785612e49565b935061384560208601612e49565b92506040850135915060608501356001600160401b03811115613154575f5ffd5b5f5f60408385031215613877575f5ffd5b61388083612e49565b915061323960208401612e49565b5f5f5f5f5f5f60a087890312156138a3575f5ffd5b6138ac87612e49565b95506138ba60208801612e49565b9450604087013593506060870135925060808701356001600160401b038111156138e2575f5ffd5b6138ee89828a01613600565b979a9699509497509295939492505050565b5f5f5f5f5f60a08688031215613914575f5ffd5b61391d86612e49565b945061392b60208701612e49565b9350604086013592506060860135915060808601356001600160401b038111156131ff575f5ffd5b5f5f5f60608486031215613965575f5ffd5b61396e84612e49565b95602085013595506040909401359392505050565b828152604060208201525f612fa26040830184612faa565b634e487b7160e01b5f52603260045260245ffd5b600181811c908216806139c357607f821691505b60208210810361104257634e487b7160e01b5f52602260045260245ffd5b5f81546139ed816139af565b600182168015613a045760018114613a1957613a46565b60ff1983168652811515820286019350613a46565b845f5260205f205f5b83811015613a3e57815488820152600190910190602001613a22565b505081860193505b50505092915050565b5f6122b982846139e1565b601f821115610ac257805f5260205f20601f840160051c81016020851015613a7f5750805b601f840160051c820191505b81811015610aea575f8155600101613a8b565b81516001600160401b03811115613ab757613ab7612ebc565b613acb81613ac584546139af565b84613a5a565b6020601f821160018114613b00575f8315613ae65750848201515b600184901b5f19600386901b1c198216175b855550610aea565b5f84815260208120601f198516915b82811015613b2f5787850151825560209485019460019092019101613b0f565b5084821015613b4c57868401515f19600387901b60f8161c191681555b50505050600190811b01905550565b6020808252602a908201527f53686172656431313535546f6b656e3a20496e76616c696420726563697069656040820152696e74206164647265737360b01b606082015260800190565b60208082526037908201527f53686172656431313535546f6b656e3a205472616e7366657220616d6f756e7460408201527f206d7573742062652067726561746572207468616e2030000000000000000000606082015260800190565b60208082526036908201527f53686172656431313535546f6b656e3a204e46542077697468207370656369666040820152751a59590815549248191bd95cc81b9bdd08195e1a5cdd60521b606082015260800190565b60208082526029908201527f53686172656431313535546f6b656e3a20496e73756666696369656e74204e46604082015268542062616c616e636560b81b606082015260800190565b6020808252602a908201527f53686172656431313535546f6b656e3a20436f6c6c656374696f6e20646f6573604082015269081b9bdd08195e1a5cdd60b21b606082015260800190565b634e487b7160e01b5f52601160045260245ffd5b818103818111156107c0576107c0613ceb565b634e487b7160e01b5f52603160045260245ffd5b60208082526025908201527f53686172656431313535546f6b656e3a20446174612063616e6e6f7420626520604082015264656d70747960d81b606082015260800190565b818103613d76575050565b613d8082546139af565b6001600160401b03811115613d9757613d97612ebc565b613da581613ac584546139af565b5f601f821160018114613dd4575f8315613ae6575081850154600184901b5f19600386901b1c19821617613af8565b5f8581526020808220868352908220601f198616925b83811015613e0a5782860154825560019586019590910190602001613dea565b5085831015613e2757818501545f19600388901b60f8161c191681555b5050505050600190811b01905550565b5f60018201613e4857613e48613ceb565b5060010190565b5f60208284031215613e5f575f5ffd5b5051919050565b5f60208284031215613e76575f5ffd5b81516122b9816134e1565b5f613e8c82856139e1565b83518060208601835e5f9101908152949350505050565b6001600160a01b03868116825285166020820152604081018490526060810183905260a0608082018190525f90613edc90830184612faa565b979650505050505050565b5f60208284031215613ef7575f5ffd5b81516122b981612e8c565b6001600160a01b0386811682528516602082015260a0604082018190525f90613f2d9083018661334c565b8281036060840152613f3f818661334c565b90508281036080840152613f538185612faa565b98975050505050505050565b808201808211156107c0576107c0613ceb565b604081525f613f84604083018561334c565b8281036020840152613f96818561334c565b9594505050505056fe9f2df0fed2c77648de5860a4cc508cd0818c85b8b8a1ab4ceeef8d981c8956a6a2646970667358221220a45fea7d8eeebc342c5206fc86615f111c2e1ba1c923fbcafedddbbfd9ca919464736f6c634300081e0033",
			"opcodes": "PUSH1 0xA0 PUSH1 0x40 MSTORE PUSH0 PUSH1 0x80 SWAP1 DUP2 MSTORE PUSH1 0x5 SWAP1 PUSH2 0x17 SWAP1 DUP3 PUSH2 0x2E3 JUMP JUMPDEST POP CALLVALUE DUP1 ISZERO PUSH2 0x23 JUMPI PUSH0 PUSH0 REVERT JUMPDEST POP PUSH1 0x40 DUP1 MLOAD PUSH1 0x20 DUP2 ADD SWAP1 SWAP2 MSTORE PUSH0 DUP2 MSTORE PUSH1 0x1 DUP1 SLOAD PUSH1 0xFF NOT AND SWAP1 SSTORE PUSH2 0x45 DUP2 PUSH2 0xFA JUMP JUMPDEST POP PUSH2 0x50 PUSH0 CALLER PUSH2 0x10A JUMP JUMPDEST POP PUSH2 0x7B PUSH32 0x9F2DF0FED2C77648DE5860A4CC508CD0818C85B8B8A1AB4CEEEF8D981C8956A6 CALLER PUSH2 0x10A JUMP JUMPDEST POP PUSH2 0xA6 PUSH32 0xE926D122B799DCBE5C2ECCDF60AE0AEFBB1A4BC75A7848BB07BEFECF8C775F5C CALLER PUSH2 0x10A JUMP JUMPDEST POP PUSH1 0x40 DUP1 MLOAD DUP1 DUP3 ADD SWAP1 SWAP2 MSTORE PUSH1 0x13 DUP2 MSTORE PUSH32 0x436172626F6E2043726564697420417373657400000000000000000000000000 PUSH1 0x20 DUP3 ADD MSTORE PUSH1 0xB SWAP1 PUSH2 0xE8 SWAP1 DUP3 PUSH2 0x2E3 JUMP JUMPDEST POP PUSH2 0xF5 ADDRESS DUP1 PUSH1 0x1 PUSH2 0x1B3 JUMP JUMPDEST PUSH2 0x39D JUMP JUMPDEST PUSH1 0x4 PUSH2 0x106 DUP3 DUP3 PUSH2 0x2E3 JUMP JUMPDEST POP POP JUMP JUMPDEST PUSH0 DUP3 DUP2 MSTORE PUSH1 0x20 DUP2 DUP2 MSTORE PUSH1 0x40 DUP1 DUP4 KECCAK256 PUSH1 0x1 PUSH1 0x1 PUSH1 0xA0 SHL SUB DUP6 AND DUP5 MSTORE SWAP1 SWAP2 MSTORE DUP2 KECCAK256 SLOAD PUSH1 0xFF AND PUSH2 0x1AA JUMPI PUSH0 DUP4 DUP2 MSTORE PUSH1 0x20 DUP2 DUP2 MSTORE PUSH1 0x40 DUP1 DUP4 KECCAK256 PUSH1 0x1 PUSH1 0x1 PUSH1 0xA0 SHL SUB DUP7 AND DUP5 MSTORE SWAP1 SWAP2 MSTORE SWAP1 KECCAK256 DUP1 SLOAD PUSH1 0xFF NOT AND PUSH1 0x1 OR SWAP1 SSTORE PUSH2 0x162 CALLER SWAP1 JUMP JUMPDEST PUSH1 0x1 PUSH1 0x1 PUSH1 0xA0 SHL SUB AND DUP3 PUSH1 0x1 PUSH1 0x1 PUSH1 0xA0 SHL SUB AND DUP5 PUSH32 0x2F8788117E7EFF1D82E926EC794901D17C78024A50270940304540A733656F0D PUSH1 0x40 MLOAD PUSH1 0x40 MLOAD DUP1 SWAP2 SUB SWAP1 LOG4 POP PUSH1 0x1 PUSH2 0x1AD JUMP JUMPDEST POP PUSH0 JUMPDEST SWAP3 SWAP2 POP POP JUMP JUMPDEST PUSH1 0x1 PUSH1 0x1 PUSH1 0xA0 SHL SUB DUP3 AND PUSH2 0x1DF JUMPI PUSH1 0x40 MLOAD PUSH3 0xCED3E1 PUSH1 0xE8 SHL DUP2 MSTORE PUSH0 PUSH1 0x4 DUP3 ADD MSTORE PUSH1 0x24 ADD PUSH1 0x40 MLOAD DUP1 SWAP2 SUB SWAP1 REVERT JUMPDEST PUSH1 0x1 PUSH1 0x1 PUSH1 0xA0 SHL SUB DUP4 DUP2 AND PUSH0 DUP2 DUP2 MSTORE PUSH1 0x3 PUSH1 0x20 SWAP1 DUP2 MSTORE PUSH1 0x40 DUP1 DUP4 KECCAK256 SWAP5 DUP8 AND DUP1 DUP5 MSTORE SWAP5 DUP3 MSTORE SWAP2 DUP3 SWAP1 KECCAK256 DUP1 SLOAD PUSH1 0xFF NOT AND DUP7 ISZERO ISZERO SWAP1 DUP2 OR SWAP1 SWAP2 SSTORE SWAP2 MLOAD SWAP2 DUP3 MSTORE PUSH32 0x17307EAB39AB6107E8899845AD3D59BD9653F200F220920489CA2B5937696C31 SWAP2 ADD PUSH1 0x40 MLOAD DUP1 SWAP2 SUB SWAP1 LOG3 POP POP POP JUMP JUMPDEST PUSH4 0x4E487B71 PUSH1 0xE0 SHL PUSH0 MSTORE PUSH1 0x41 PUSH1 0x4 MSTORE PUSH1 0x24 PUSH0 REVERT JUMPDEST PUSH1 0x1 DUP2 DUP2 SHR SWAP1 DUP3 AND DUP1 PUSH2 0x273 JUMPI PUSH1 0x7F DUP3 AND SWAP2 POP JUMPDEST PUSH1 0x20 DUP3 LT DUP2 SUB PUSH2 0x291 JUMPI PUSH4 0x4E487B71 PUSH1 0xE0 SHL PUSH0 MSTORE PUSH1 0x22 PUSH1 0x4 MSTORE PUSH1 0x24 PUSH0 REVERT JUMPDEST POP SWAP2 SWAP1 POP JUMP JUMPDEST PUSH1 0x1F DUP3 GT ISZERO PUSH2 0x2DE JUMPI DUP1 PUSH0 MSTORE PUSH1 0x20 PUSH0 KECCAK256 PUSH1 0x1F DUP5 ADD PUSH1 0x5 SHR DUP2 ADD PUSH1 0x20 DUP6 LT ISZERO PUSH2 0x2BC JUMPI POP DUP1 JUMPDEST PUSH1 0x1F DUP5 ADD PUSH1 0x5 SHR DUP3 ADD SWAP2 POP JUMPDEST DUP2 DUP2 LT ISZERO PUSH2 0x2DB JUMPI PUSH0 DUP2 SSTORE PUSH1 0x1 ADD PUSH2 0x2C8 JUMP JUMPDEST POP POP JUMPDEST POP POP POP JUMP JUMPDEST DUP2 MLOAD PUSH1 0x1 PUSH1 0x1 PUSH1 0x40 SHL SUB DUP2 GT ISZERO PUSH2 0x2FC JUMPI PUSH2 0x2FC PUSH2 0x24B JUMP JUMPDEST PUSH2 0x310 DUP2 PUSH2 0x30A DUP5 SLOAD PUSH2 0x25F JUMP JUMPDEST DUP5 PUSH2 0x297 JUMP JUMPDEST PUSH1 0x20 PUSH1 0x1F DUP3 GT PUSH1 0x1 DUP2 EQ PUSH2 0x342 JUMPI PUSH0 DUP4 ISZERO PUSH2 0x32B JUMPI POP DUP5 DUP3 ADD MLOAD JUMPDEST PUSH0 NOT PUSH1 0x3 DUP6 SWAP1 SHL SHR NOT AND PUSH1 0x1 DUP5 SWAP1 SHL OR DUP5 SSTORE PUSH2 0x2DB JUMP JUMPDEST PUSH0 DUP5 DUP2 MSTORE PUSH1 0x20 DUP2 KECCAK256 PUSH1 0x1F NOT DUP6 AND SWAP2 JUMPDEST DUP3 DUP2 LT ISZERO PUSH2 0x371 JUMPI DUP8 DUP6 ADD MLOAD DUP3 SSTORE PUSH1 0x20 SWAP5 DUP6 ADD SWAP5 PUSH1 0x1 SWAP1 SWAP3 ADD SWAP2 ADD PUSH2 0x351 JUMP JUMPDEST POP DUP5 DUP3 LT ISZERO PUSH2 0x38E JUMPI DUP7 DUP5 ADD MLOAD PUSH0 NOT PUSH1 0x3 DUP8 SWAP1 SHL PUSH1 0xF8 AND SHR NOT AND DUP2 SSTORE JUMPDEST POP POP POP POP PUSH1 0x1 SWAP1 DUP2 SHL ADD SWAP1 SSTORE POP JUMP JUMPDEST PUSH2 0x3FF5 DUP1 PUSH2 0x3AA PUSH0 CODECOPY PUSH0 RETURN INVALID PUSH1 0x80 PUSH1 0x40 MSTORE CALLVALUE DUP1 ISZERO PUSH2 0xF JUMPI PUSH0 PUSH0 REVERT JUMPDEST POP PUSH1 0x4 CALLDATASIZE LT PUSH2 0x2FE JUMPI PUSH0 CALLDATALOAD PUSH1 0xE0 SHR DUP1 PUSH4 0x91D14854 GT PUSH2 0x195 JUMPI DUP1 PUSH4 0xCAFF99CE GT PUSH2 0xE4 JUMPI DUP1 PUSH4 0xE22C4515 GT PUSH2 0x9E JUMPI DUP1 PUSH4 0xF242432A GT PUSH2 0x79 JUMPI DUP1 PUSH4 0xF242432A EQ PUSH2 0x743 JUMPI DUP1 PUSH4 0xF5298ACA EQ PUSH2 0x756 JUMPI DUP1 PUSH4 0xFB218F5F EQ PUSH2 0x769 JUMPI DUP1 PUSH4 0xFDBDA0EC EQ PUSH2 0x77C JUMPI PUSH0 PUSH0 REVERT JUMPDEST DUP1 PUSH4 0xE22C4515 EQ PUSH2 0x6FD JUMPI DUP1 PUSH4 0xE985E9C5 EQ PUSH2 0x710 JUMPI DUP1 PUSH4 0xF23A6E61 EQ PUSH2 0x723 JUMPI PUSH0 PUSH0 REVERT JUMPDEST DUP1 PUSH4 0xCAFF99CE EQ PUSH2 0x667 JUMPI DUP1 PUSH4 0xD5391393 EQ PUSH2 0x68E JUMPI DUP1 PUSH4 0xD547741F EQ PUSH2 0x6A2 JUMPI DUP1 PUSH4 0xD58778D6 EQ PUSH2 0x6B5 JUMPI DUP1 PUSH4 0xDD5B3A65 EQ PUSH2 0x6C8 JUMPI DUP1 PUSH4 0xDF6F5B20 EQ PUSH2 0x6DD JUMPI PUSH0 PUSH0 REVERT JUMPDEST DUP1 PUSH4 0xA7098728 GT PUSH2 0x14F JUMPI DUP1 PUSH4 0xBC197C81 GT PUSH2 0x12A JUMPI DUP1 PUSH4 0xBC197C81 EQ PUSH2 0x5E5 JUMPI DUP1 PUSH4 0xBD85B039 EQ PUSH2 0x620 JUMPI DUP1 PUSH4 0xBE7CF750 EQ PUSH2 0x63F JUMPI DUP1 PUSH4 0xC71D0EA3 EQ PUSH2 0x652 JUMPI PUSH0 PUSH0 REVERT JUMPDEST DUP1 PUSH4 0xA7098728 EQ PUSH2 0x5AA JUMPI DUP1 PUSH4 0xA9B566A3 EQ PUSH2 0x5BF JUMPI DUP1 PUSH4 0xB21FA654 EQ PUSH2 0x5D2 JUMPI PUSH0 PUSH0 REVERT JUMPDEST DUP1 PUSH4 0x91D14854 EQ PUSH2 0x544 JUMPI DUP1 PUSH4 0x9CDF0F46 EQ PUSH2 0x557 JUMPI DUP1 PUSH4 0x9DD6A449 EQ PUSH2 0x56A JUMPI DUP1 PUSH4 0xA217FDDF EQ PUSH2 0x57D JUMPI DUP1 PUSH4 0xA22CB465 EQ PUSH2 0x584 JUMPI DUP1 PUSH4 0xA5E2361D EQ PUSH2 0x597 JUMPI PUSH0 PUSH0 REVERT JUMPDEST DUP1 PUSH4 0x3038BFDF GT PUSH2 0x251 JUMPI DUP1 PUSH4 0x5C975ABB GT PUSH2 0x20B JUMPI DUP1 PUSH4 0x70164F0E GT PUSH2 0x1E6 JUMPI DUP1 PUSH4 0x70164F0E EQ PUSH2 0x50E JUMPI DUP1 PUSH4 0x731133E9 EQ PUSH2 0x521 JUMPI DUP1 PUSH4 0x77E1B4CA EQ PUSH2 0x534 JUMPI DUP1 PUSH4 0x8456CB59 EQ PUSH2 0x53C JUMPI PUSH0 PUSH0 REVERT JUMPDEST DUP1 PUSH4 0x5C975ABB EQ PUSH2 0x4DB JUMPI DUP1 PUSH4 0x6804A958 EQ PUSH2 0x4E6 JUMPI DUP1 PUSH4 0x6B20C454 EQ PUSH2 0x4FB JUMPI PUSH0 PUSH0 REVERT JUMPDEST DUP1 PUSH4 0x3038BFDF EQ PUSH2 0x44C JUMPI DUP1 PUSH4 0x36568ABE EQ PUSH2 0x45F JUMPI DUP1 PUSH4 0x3F4BA83A EQ PUSH2 0x472 JUMPI DUP1 PUSH4 0x4E1273F4 EQ PUSH2 0x47A JUMPI DUP1 PUSH4 0x4F558E79 EQ PUSH2 0x49A JUMPI DUP1 PUSH4 0x5A1F3C28 EQ PUSH2 0x4BB JUMPI PUSH0 PUSH0 REVERT JUMPDEST DUP1 PUSH4 0x18160DDD GT PUSH2 0x2BC JUMPI DUP1 PUSH4 0x258672AA GT PUSH2 0x297 JUMPI DUP1 PUSH4 0x258672AA EQ PUSH2 0x3D8 JUMPI DUP1 PUSH4 0x2EB2C2D6 EQ PUSH2 0x413 JUMPI DUP1 PUSH4 0x2F2FF15D EQ PUSH2 0x426 JUMPI DUP1 PUSH4 0x30377174 EQ PUSH2 0x439 JUMPI PUSH0 PUSH0 REVERT JUMPDEST DUP1 PUSH4 0x18160DDD EQ PUSH2 0x39B JUMPI DUP1 PUSH4 0x1F7FDFFA EQ PUSH2 0x3A3 JUMPI DUP1 PUSH4 0x248A9CA3 EQ PUSH2 0x3B6 JUMPI PUSH0 PUSH0 REVERT JUMPDEST DUP1 PUSH3 0xFDD58E EQ PUSH2 0x302 JUMPI DUP1 PUSH4 0x1FFC9A7 EQ PUSH2 0x328 JUMPI DUP1 PUSH4 0x59DFE13 EQ PUSH2 0x34B JUMPI DUP1 PUSH4 0x6FDDE03 EQ PUSH2 0x360 JUMPI DUP1 PUSH4 0xE89341C EQ PUSH2 0x375 JUMPI DUP1 PUSH4 0x162094C4 EQ PUSH2 0x388 JUMPI JUMPDEST PUSH0 PUSH0 REVERT JUMPDEST PUSH2 0x315 PUSH2 0x310 CALLDATASIZE PUSH1 0x4 PUSH2 0x2E64 JUMP JUMPDEST PUSH2 0x79D JUMP JUMPDEST PUSH1 0x40 MLOAD SWAP1 DUP2 MSTORE PUSH1 0x20 ADD JUMPDEST PUSH1 0x40 MLOAD DUP1 SWAP2 SUB SWAP1 RETURN JUMPDEST PUSH2 0x33B PUSH2 0x336 CALLDATASIZE PUSH1 0x4 PUSH2 0x2EA1 JUMP JUMPDEST PUSH2 0x7C6 JUMP JUMPDEST PUSH1 0x40 MLOAD SWAP1 ISZERO ISZERO DUP2 MSTORE PUSH1 0x20 ADD PUSH2 0x31F JUMP JUMPDEST PUSH2 0x35E PUSH2 0x359 CALLDATASIZE PUSH1 0x4 PUSH2 0x2F71 JUMP JUMPDEST PUSH2 0x7EA JUMP JUMPDEST STOP JUMPDEST PUSH2 0x368 PUSH2 0x9A6 JUMP JUMPDEST PUSH1 0x40 MLOAD PUSH2 0x31F SWAP2 SWAP1 PUSH2 0x2FD8 JUMP JUMPDEST PUSH2 0x368 PUSH2 0x383 CALLDATASIZE PUSH1 0x4 PUSH2 0x2FEA JUMP JUMPDEST PUSH2 0xA32 JUMP JUMPDEST PUSH2 0x35E PUSH2 0x396 CALLDATASIZE PUSH1 0x4 PUSH2 0x3001 JUMP JUMPDEST PUSH2 0xA3D JUMP JUMPDEST PUSH1 0x8 SLOAD PUSH2 0x315 JUMP JUMPDEST PUSH2 0x35E PUSH2 0x3B1 CALLDATASIZE PUSH1 0x4 PUSH2 0x30D0 JUMP JUMPDEST PUSH2 0xAC7 JUMP JUMPDEST PUSH2 0x315 PUSH2 0x3C4 CALLDATASIZE PUSH1 0x4 PUSH2 0x2FEA JUMP JUMPDEST PUSH0 SWAP1 DUP2 MSTORE PUSH1 0x20 DUP2 SWAP1 MSTORE PUSH1 0x40 SWAP1 KECCAK256 PUSH1 0x1 ADD SLOAD SWAP1 JUMP JUMPDEST PUSH2 0x3FE PUSH2 0x3E6 CALLDATASIZE PUSH1 0x4 PUSH2 0x2FEA JUMP JUMPDEST PUSH1 0xD PUSH1 0x20 MSTORE PUSH0 SWAP1 DUP2 MSTORE PUSH1 0x40 SWAP1 KECCAK256 DUP1 SLOAD PUSH1 0x1 SWAP1 SWAP2 ADD SLOAD DUP3 JUMP JUMPDEST PUSH1 0x40 DUP1 MLOAD SWAP3 DUP4 MSTORE PUSH1 0x20 DUP4 ADD SWAP2 SWAP1 SWAP2 MSTORE ADD PUSH2 0x31F JUMP JUMPDEST PUSH2 0x35E PUSH2 0x421 CALLDATASIZE PUSH1 0x4 PUSH2 0x316C JUMP JUMPDEST PUSH2 0xAF1 JUMP JUMPDEST PUSH2 0x35E PUSH2 0x434 CALLDATASIZE PUSH1 0x4 PUSH2 0x3218 JUMP JUMPDEST PUSH2 0xB58 JUMP JUMPDEST PUSH2 0x368 PUSH2 0x447 CALLDATASIZE PUSH1 0x4 PUSH2 0x2FEA JUMP JUMPDEST PUSH2 0xB82 JUMP JUMPDEST PUSH2 0x35E PUSH2 0x45A CALLDATASIZE PUSH1 0x4 PUSH2 0x3242 JUMP JUMPDEST PUSH2 0xBA9 JUMP JUMPDEST PUSH2 0x35E PUSH2 0x46D CALLDATASIZE PUSH1 0x4 PUSH2 0x3218 JUMP JUMPDEST PUSH2 0xCCC JUMP JUMPDEST PUSH2 0x35E PUSH2 0xCFF JUMP JUMPDEST PUSH2 0x48D PUSH2 0x488 CALLDATASIZE PUSH1 0x4 PUSH2 0x3295 JUMP JUMPDEST PUSH2 0xD14 JUMP JUMPDEST PUSH1 0x40 MLOAD PUSH2 0x31F SWAP2 SWAP1 PUSH2 0x3386 JUMP JUMPDEST PUSH2 0x33B PUSH2 0x4A8 CALLDATASIZE PUSH1 0x4 PUSH2 0x2FEA JUMP JUMPDEST PUSH0 SWAP1 DUP2 MSTORE PUSH1 0x7 PUSH1 0x20 MSTORE PUSH1 0x40 SWAP1 KECCAK256 SLOAD ISZERO ISZERO SWAP1 JUMP JUMPDEST PUSH2 0x4CE PUSH2 0x4C9 CALLDATASIZE PUSH1 0x4 PUSH2 0x2FEA JUMP JUMPDEST PUSH2 0xDDE JUMP JUMPDEST PUSH1 0x40 MLOAD PUSH2 0x31F SWAP2 SWAP1 PUSH2 0x33B6 JUMP JUMPDEST PUSH1 0x1 SLOAD PUSH1 0xFF AND PUSH2 0x33B JUMP JUMPDEST PUSH2 0x4EE PUSH2 0xEDA JUMP JUMPDEST PUSH1 0x40 MLOAD PUSH2 0x31F SWAP2 SWAP1 PUSH2 0x33C8 JUMP JUMPDEST PUSH2 0x35E PUSH2 0x509 CALLDATASIZE PUSH1 0x4 PUSH2 0x342B JUMP JUMPDEST PUSH2 0x1048 JUMP JUMPDEST PUSH2 0x35E PUSH2 0x51C CALLDATASIZE PUSH1 0x4 PUSH2 0x2F71 JUMP JUMPDEST PUSH2 0x10A7 JUMP JUMPDEST PUSH2 0x35E PUSH2 0x52F CALLDATASIZE PUSH1 0x4 PUSH2 0x349D JUMP JUMPDEST PUSH2 0x1262 JUMP JUMPDEST PUSH2 0x33B PUSH2 0x1285 JUMP JUMPDEST PUSH2 0x35E PUSH2 0x1295 JUMP JUMPDEST PUSH2 0x33B PUSH2 0x552 CALLDATASIZE PUSH1 0x4 PUSH2 0x3218 JUMP JUMPDEST PUSH2 0x12A7 JUMP JUMPDEST PUSH2 0x35E PUSH2 0x565 CALLDATASIZE PUSH1 0x4 PUSH2 0x2F71 JUMP JUMPDEST PUSH2 0x12CF JUMP JUMPDEST PUSH2 0x35E PUSH2 0x578 CALLDATASIZE PUSH1 0x4 PUSH2 0x34EE JUMP JUMPDEST PUSH2 0x1448 JUMP JUMPDEST PUSH2 0x315 PUSH0 DUP2 JUMP JUMPDEST PUSH2 0x35E PUSH2 0x592 CALLDATASIZE PUSH1 0x4 PUSH2 0x34EE JUMP JUMPDEST PUSH2 0x1504 JUMP JUMPDEST PUSH2 0x35E PUSH2 0x5A5 CALLDATASIZE PUSH1 0x4 PUSH2 0x3218 JUMP JUMPDEST PUSH2 0x150F JUMP JUMPDEST PUSH2 0x5B2 PUSH2 0x1519 JUMP JUMPDEST PUSH1 0x40 MLOAD PUSH2 0x31F SWAP2 SWAP1 PUSH2 0x3523 JUMP JUMPDEST PUSH2 0x315 PUSH2 0x5CD CALLDATASIZE PUSH1 0x4 PUSH2 0x2FEA JUMP JUMPDEST PUSH2 0x168B JUMP JUMPDEST PUSH2 0x368 PUSH2 0x5E0 CALLDATASIZE PUSH1 0x4 PUSH2 0x2FEA JUMP JUMPDEST PUSH2 0x16AA JUMP JUMPDEST PUSH2 0x607 PUSH2 0x5F3 CALLDATASIZE PUSH1 0x4 PUSH2 0x363D JUMP JUMPDEST PUSH4 0xBC197C81 PUSH1 0xE0 SHL SWAP9 SWAP8 POP POP POP POP POP POP POP POP JUMP JUMPDEST PUSH1 0x40 MLOAD PUSH1 0x1 PUSH1 0x1 PUSH1 0xE0 SHL SUB NOT SWAP1 SWAP2 AND DUP2 MSTORE PUSH1 0x20 ADD PUSH2 0x31F JUMP JUMPDEST PUSH2 0x315 PUSH2 0x62E CALLDATASIZE PUSH1 0x4 PUSH2 0x2FEA JUMP JUMPDEST PUSH0 SWAP1 DUP2 MSTORE PUSH1 0x7 PUSH1 0x20 MSTORE PUSH1 0x40 SWAP1 KECCAK256 SLOAD SWAP1 JUMP JUMPDEST PUSH2 0x35E PUSH2 0x64D CALLDATASIZE PUSH1 0x4 PUSH2 0x36F9 JUMP JUMPDEST PUSH2 0x1776 JUMP JUMPDEST PUSH2 0x65A PUSH2 0x196D JUMP JUMPDEST PUSH1 0x40 MLOAD PUSH2 0x31F SWAP2 SWAP1 PUSH2 0x3756 JUMP JUMPDEST PUSH2 0x315 PUSH32 0xE926D122B799DCBE5C2ECCDF60AE0AEFBB1A4BC75A7848BB07BEFECF8C775F5C DUP2 JUMP JUMPDEST PUSH2 0x315 PUSH0 MLOAD PUSH1 0x20 PUSH2 0x3FA0 PUSH0 CODECOPY PUSH0 MLOAD SWAP1 PUSH0 MSTORE DUP2 JUMP JUMPDEST PUSH2 0x35E PUSH2 0x6B0 CALLDATASIZE PUSH1 0x4 PUSH2 0x3218 JUMP JUMPDEST PUSH2 0x1A4E JUMP JUMPDEST PUSH2 0x315 PUSH2 0x6C3 CALLDATASIZE PUSH1 0x4 PUSH2 0x2FEA JUMP JUMPDEST PUSH2 0x1A72 JUMP JUMPDEST PUSH2 0x6D0 PUSH2 0x1A81 JUMP JUMPDEST PUSH1 0x40 MLOAD PUSH2 0x31F SWAP2 SWAP1 PUSH2 0x37AD JUMP JUMPDEST PUSH2 0x6F0 PUSH2 0x6EB CALLDATASIZE PUSH1 0x4 PUSH2 0x2FEA JUMP JUMPDEST PUSH2 0x1B55 JUMP JUMPDEST PUSH1 0x40 MLOAD PUSH2 0x31F SWAP2 SWAP1 PUSH2 0x3804 JUMP JUMPDEST PUSH2 0x35E PUSH2 0x70B CALLDATASIZE PUSH1 0x4 PUSH2 0x381B JUMP JUMPDEST PUSH2 0x1BF7 JUMP JUMPDEST PUSH2 0x33B PUSH2 0x71E CALLDATASIZE PUSH1 0x4 PUSH2 0x3866 JUMP JUMPDEST PUSH2 0x1F98 JUMP JUMPDEST PUSH2 0x607 PUSH2 0x731 CALLDATASIZE PUSH1 0x4 PUSH2 0x388E JUMP JUMPDEST PUSH4 0xF23A6E61 PUSH1 0xE0 SHL SWAP7 SWAP6 POP POP POP POP POP POP JUMP JUMPDEST PUSH2 0x35E PUSH2 0x751 CALLDATASIZE PUSH1 0x4 PUSH2 0x3900 JUMP JUMPDEST PUSH2 0x1FC5 JUMP JUMPDEST PUSH2 0x35E PUSH2 0x764 CALLDATASIZE PUSH1 0x4 PUSH2 0x3953 JUMP JUMPDEST PUSH2 0x2024 JUMP JUMPDEST PUSH2 0x35E PUSH2 0x777 CALLDATASIZE PUSH1 0x4 PUSH2 0x2F71 JUMP JUMPDEST PUSH2 0x205A JUMP JUMPDEST PUSH2 0x78F PUSH2 0x78A CALLDATASIZE PUSH1 0x4 PUSH2 0x2FEA JUMP JUMPDEST PUSH2 0x20F9 JUMP JUMPDEST PUSH1 0x40 MLOAD PUSH2 0x31F SWAP3 SWAP2 SWAP1 PUSH2 0x3983 JUMP JUMPDEST PUSH0 DUP2 DUP2 MSTORE PUSH1 0x2 PUSH1 0x20 SWAP1 DUP2 MSTORE PUSH1 0x40 DUP1 DUP4 KECCAK256 PUSH1 0x1 PUSH1 0x1 PUSH1 0xA0 SHL SUB DUP7 AND DUP5 MSTORE SWAP1 SWAP2 MSTORE SWAP1 KECCAK256 SLOAD JUMPDEST SWAP3 SWAP2 POP POP JUMP JUMPDEST PUSH0 PUSH1 0x1 PUSH1 0x1 PUSH1 0xE0 SHL SUB NOT DUP3 AND PUSH4 0x2711897 PUSH1 0xE5 SHL EQ DUP1 PUSH2 0x7C0 JUMPI POP PUSH2 0x7C0 DUP3 PUSH2 0x219B JUMP JUMPDEST PUSH32 0xE926D122B799DCBE5C2ECCDF60AE0AEFBB1A4BC75A7848BB07BEFECF8C775F5C PUSH2 0x814 DUP2 PUSH2 0x21DA JUMP JUMPDEST PUSH0 JUMPDEST PUSH1 0xE SLOAD DUP2 LT ISZERO PUSH2 0x8DE JUMPI PUSH0 PUSH1 0xE DUP3 DUP2 SLOAD DUP2 LT PUSH2 0x834 JUMPI PUSH2 0x834 PUSH2 0x399B JUMP JUMPDEST SWAP1 PUSH0 MSTORE PUSH1 0x20 PUSH0 KECCAK256 ADD SLOAD SWAP1 POP DUP4 DUP1 MLOAD SWAP1 PUSH1 0x20 ADD KECCAK256 PUSH1 0xC PUSH0 DUP4 DUP2 MSTORE PUSH1 0x20 ADD SWAP1 DUP2 MSTORE PUSH1 0x20 ADD PUSH0 KECCAK256 PUSH1 0x1 ADD PUSH1 0x40 MLOAD PUSH2 0x868 SWAP2 SWAP1 PUSH2 0x3A4F JUMP JUMPDEST PUSH1 0x40 MLOAD DUP1 SWAP2 SUB SWAP1 KECCAK256 SUB PUSH2 0x8D5 JUMPI PUSH1 0x40 MLOAD PUSH3 0x461BCD PUSH1 0xE5 SHL DUP2 MSTORE PUSH1 0x20 PUSH1 0x4 DUP3 ADD MSTORE PUSH1 0x2A PUSH1 0x24 DUP3 ADD MSTORE PUSH32 0x53686172656431313535546F6B656E3A204475706C6963617465207375666669 PUSH1 0x44 DUP3 ADD MSTORE PUSH10 0x1E0819195D1958DD1959 PUSH1 0xB2 SHL PUSH1 0x64 DUP3 ADD MSTORE PUSH1 0x84 ADD JUMPDEST PUSH1 0x40 MLOAD DUP1 SWAP2 SUB SWAP1 REVERT JUMPDEST POP PUSH1 0x1 ADD PUSH2 0x816 JUMP JUMPDEST POP PUSH2 0x8ED PUSH1 0xA DUP1 SLOAD PUSH1 0x1 ADD SWAP1 SSTORE JUMP JUMPDEST PUSH0 PUSH2 0x8F7 PUSH1 0xA SLOAD SWAP1 JUMP JUMPDEST PUSH1 0x40 DUP1 MLOAD DUP1 DUP3 ADD DUP3 MSTORE DUP3 DUP2 MSTORE PUSH1 0x20 DUP1 DUP3 ADD DUP8 DUP2 MSTORE PUSH0 DUP6 DUP2 MSTORE PUSH1 0xC SWAP1 SWAP3 MSTORE SWAP3 SWAP1 KECCAK256 DUP2 MLOAD DUP2 SSTORE SWAP2 MLOAD SWAP3 SWAP4 POP SWAP2 PUSH1 0x1 DUP3 ADD SWAP1 PUSH2 0x930 SWAP1 DUP3 PUSH2 0x3A9E JUMP JUMPDEST POP POP PUSH1 0xE DUP1 SLOAD PUSH1 0x1 DUP2 ADD DUP3 SSTORE PUSH0 SWAP2 SWAP1 SWAP2 MSTORE PUSH32 0xBB7B4A454DC3493923482F07822329ED19E8244EFF582CC204F8554C3620C3FD ADD DUP3 SWAP1 SSTORE POP PUSH1 0x40 MLOAD DUP2 SWAP1 PUSH32 0x62B7B5BA11BFC95430FAB0460FDF99B9C8FBC2B3A6A48CAF79C3EE1B591C0336 SWAP1 PUSH2 0x999 SWAP1 DUP7 SWAP1 PUSH2 0x2FD8 JUMP JUMPDEST PUSH1 0x40 MLOAD DUP1 SWAP2 SUB SWAP1 LOG2 POP POP POP JUMP JUMPDEST PUSH1 0xB DUP1 SLOAD PUSH2 0x9B3 SWAP1 PUSH2 0x39AF JUMP JUMPDEST DUP1 PUSH1 0x1F ADD PUSH1 0x20 DUP1 SWAP2 DIV MUL PUSH1 0x20 ADD PUSH1 0x40 MLOAD SWAP1 DUP2 ADD PUSH1 0x40 MSTORE DUP1 SWAP3 SWAP2 SWAP1 DUP2 DUP2 MSTORE PUSH1 0x20 ADD DUP3 DUP1 SLOAD PUSH2 0x9DF SWAP1 PUSH2 0x39AF JUMP JUMPDEST DUP1 ISZERO PUSH2 0xA2A JUMPI DUP1 PUSH1 0x1F LT PUSH2 0xA01 JUMPI PUSH2 0x100 DUP1 DUP4 SLOAD DIV MUL DUP4 MSTORE SWAP2 PUSH1 0x20 ADD SWAP2 PUSH2 0xA2A JUMP JUMPDEST DUP3 ADD SWAP2 SWAP1 PUSH0 MSTORE PUSH1 0x20 PUSH0 KECCAK256 SWAP1 JUMPDEST DUP2 SLOAD DUP2 MSTORE SWAP1 PUSH1 0x1 ADD SWAP1 PUSH1 0x20 ADD DUP1 DUP4 GT PUSH2 0xA0D JUMPI DUP3 SWAP1 SUB PUSH1 0x1F AND DUP3 ADD SWAP2 JUMPDEST POP POP POP POP POP DUP2 JUMP JUMPDEST PUSH1 0x60 PUSH2 0x7C0 DUP3 PUSH2 0x21E4 JUMP JUMPDEST PUSH0 PUSH2 0xA47 DUP2 PUSH2 0x21DA JUMP JUMPDEST PUSH0 DUP4 DUP2 MSTORE PUSH1 0x7 PUSH1 0x20 MSTORE PUSH1 0x40 DUP2 KECCAK256 SLOAD GT PUSH2 0xAB8 JUMPI PUSH1 0x40 MLOAD PUSH3 0x461BCD PUSH1 0xE5 SHL DUP2 MSTORE PUSH1 0x20 PUSH1 0x4 DUP3 ADD MSTORE PUSH1 0x2D PUSH1 0x24 DUP3 ADD MSTORE PUSH32 0x53686172656431313535546F6B656E3A2055524920736574206F66206E6F6E65 PUSH1 0x44 DUP3 ADD MSTORE PUSH13 0x3C34B9BA32B73A103A37B5B2B7 PUSH1 0x99 SHL PUSH1 0x64 DUP3 ADD MSTORE PUSH1 0x84 ADD PUSH2 0x8CC JUMP JUMPDEST PUSH2 0xAC2 DUP4 DUP4 PUSH2 0x22C0 JUMP JUMPDEST POP POP POP JUMP JUMPDEST PUSH0 MLOAD PUSH1 0x20 PUSH2 0x3FA0 PUSH0 CODECOPY PUSH0 MLOAD SWAP1 PUSH0 MSTORE PUSH2 0xADE DUP2 PUSH2 0x21DA JUMP JUMPDEST PUSH2 0xAEA DUP6 DUP6 DUP6 DUP6 PUSH2 0x2310 JUMP JUMPDEST POP POP POP POP POP JUMP JUMPDEST CALLER PUSH1 0x1 PUSH1 0x1 PUSH1 0xA0 SHL SUB DUP7 AND DUP2 EQ DUP1 ISZERO SWAP1 PUSH2 0xB12 JUMPI POP PUSH2 0xB10 DUP7 DUP3 PUSH2 0x1F98 JUMP JUMPDEST ISZERO JUMPDEST ISZERO PUSH2 0xB43 JUMPI PUSH1 0x40 MLOAD PUSH4 0x711BEC91 PUSH1 0xE1 SHL DUP2 MSTORE PUSH1 0x1 PUSH1 0x1 PUSH1 0xA0 SHL SUB DUP1 DUP4 AND PUSH1 0x4 DUP4 ADD MSTORE DUP8 AND PUSH1 0x24 DUP3 ADD MSTORE PUSH1 0x44 ADD PUSH2 0x8CC JUMP JUMPDEST PUSH2 0xB50 DUP7 DUP7 DUP7 DUP7 DUP7 PUSH2 0x2346 JUMP JUMPDEST POP POP POP POP POP POP JUMP JUMPDEST PUSH0 DUP3 DUP2 MSTORE PUSH1 0x20 DUP2 SWAP1 MSTORE PUSH1 0x40 SWAP1 KECCAK256 PUSH1 0x1 ADD SLOAD PUSH2 0xB72 DUP2 PUSH2 0x21DA JUMP JUMPDEST PUSH2 0xB7C DUP4 DUP4 PUSH2 0x23A4 JUMP JUMPDEST POP POP POP POP JUMP JUMPDEST PUSH1 0x10 DUP2 DUP2 SLOAD DUP2 LT PUSH2 0xB91 JUMPI PUSH0 DUP1 REVERT JUMPDEST SWAP1 PUSH0 MSTORE PUSH1 0x20 PUSH0 KECCAK256 ADD PUSH0 SWAP2 POP SWAP1 POP DUP1 SLOAD PUSH2 0x9B3 SWAP1 PUSH2 0x39AF JUMP JUMPDEST PUSH0 PUSH2 0xBB3 DUP2 PUSH2 0x21DA JUMP JUMPDEST PUSH1 0x1 PUSH1 0x1 PUSH1 0xA0 SHL SUB DUP5 AND PUSH2 0xBD9 JUMPI PUSH1 0x40 MLOAD PUSH3 0x461BCD PUSH1 0xE5 SHL DUP2 MSTORE PUSH1 0x4 ADD PUSH2 0x8CC SWAP1 PUSH2 0x3B5B JUMP JUMPDEST PUSH0 DUP3 GT PUSH2 0xBF8 JUMPI PUSH1 0x40 MLOAD PUSH3 0x461BCD PUSH1 0xE5 SHL DUP2 MSTORE PUSH1 0x4 ADD PUSH2 0x8CC SWAP1 PUSH2 0x3BA5 JUMP JUMPDEST PUSH0 DUP1 JUMPDEST PUSH1 0xF SLOAD DUP2 LT ISZERO PUSH2 0xC68 JUMPI DUP5 DUP1 MLOAD SWAP1 PUSH1 0x20 ADD KECCAK256 PUSH2 0xC31 PUSH1 0xF DUP4 DUP2 SLOAD DUP2 LT PUSH2 0xC23 JUMPI PUSH2 0xC23 PUSH2 0x399B JUMP JUMPDEST SWAP1 PUSH0 MSTORE PUSH1 0x20 PUSH0 KECCAK256 ADD SLOAD PUSH2 0xA32 JUMP JUMPDEST DUP1 MLOAD SWAP1 PUSH1 0x20 ADD KECCAK256 SUB PUSH2 0xC60 JUMPI PUSH1 0xF DUP2 DUP2 SLOAD DUP2 LT PUSH2 0xC50 JUMPI PUSH2 0xC50 PUSH2 0x399B JUMP JUMPDEST SWAP1 PUSH0 MSTORE PUSH1 0x20 PUSH0 KECCAK256 ADD SLOAD SWAP2 POP PUSH2 0xC68 JUMP JUMPDEST PUSH1 0x1 ADD PUSH2 0xBFB JUMP JUMPDEST POP DUP1 PUSH0 SUB PUSH2 0xC88 JUMPI PUSH1 0x40 MLOAD PUSH3 0x461BCD PUSH1 0xE5 SHL DUP2 MSTORE PUSH1 0x4 ADD PUSH2 0x8CC SWAP1 PUSH2 0x3C02 JUMP JUMPDEST DUP3 PUSH2 0xC93 ADDRESS DUP4 PUSH2 0x79D JUMP JUMPDEST LT ISZERO PUSH2 0xCB1 JUMPI PUSH1 0x40 MLOAD PUSH3 0x461BCD PUSH1 0xE5 SHL DUP2 MSTORE PUSH1 0x4 ADD PUSH2 0x8CC SWAP1 PUSH2 0x3C58 JUMP JUMPDEST PUSH2 0xAEA ADDRESS DUP7 DUP4 DUP7 PUSH1 0x40 MLOAD DUP1 PUSH1 0x20 ADD PUSH1 0x40 MSTORE DUP1 PUSH0 DUP2 MSTORE POP PUSH2 0x1FC5 JUMP JUMPDEST PUSH1 0x1 PUSH1 0x1 PUSH1 0xA0 SHL SUB DUP2 AND CALLER EQ PUSH2 0xCF5 JUMPI PUSH1 0x40 MLOAD PUSH4 0x334BD919 PUSH1 0xE1 SHL DUP2 MSTORE PUSH1 0x4 ADD PUSH1 0x40 MLOAD DUP1 SWAP2 SUB SWAP1 REVERT JUMPDEST PUSH2 0xAC2 DUP3 DUP3 PUSH2 0x2433 JUMP JUMPDEST PUSH0 PUSH2 0xD09 DUP2 PUSH2 0x21DA JUMP JUMPDEST PUSH2 0xD11 PUSH2 0x249C JUMP JUMPDEST POP JUMP JUMPDEST PUSH1 0x60 DUP2 MLOAD DUP4 MLOAD EQ PUSH2 0xD45 JUMPI DUP2 MLOAD DUP4 MLOAD PUSH1 0x40 MLOAD PUSH4 0x5B059991 PUSH1 0xE0 SHL DUP2 MSTORE PUSH1 0x4 DUP2 ADD SWAP3 SWAP1 SWAP3 MSTORE PUSH1 0x24 DUP3 ADD MSTORE PUSH1 0x44 ADD PUSH2 0x8CC JUMP JUMPDEST PUSH0 DUP4 MLOAD PUSH1 0x1 PUSH1 0x1 PUSH1 0x40 SHL SUB DUP2 GT ISZERO PUSH2 0xD5F JUMPI PUSH2 0xD5F PUSH2 0x2EBC JUMP JUMPDEST PUSH1 0x40 MLOAD SWAP1 DUP1 DUP3 MSTORE DUP1 PUSH1 0x20 MUL PUSH1 0x20 ADD DUP3 ADD PUSH1 0x40 MSTORE DUP1 ISZERO PUSH2 0xD88 JUMPI DUP2 PUSH1 0x20 ADD PUSH1 0x20 DUP3 MUL DUP1 CALLDATASIZE DUP4 CALLDATACOPY ADD SWAP1 POP JUMPDEST POP SWAP1 POP PUSH0 JUMPDEST DUP5 MLOAD DUP2 LT ISZERO PUSH2 0xDD6 JUMPI PUSH1 0x20 DUP1 DUP3 MUL DUP7 ADD ADD MLOAD PUSH2 0xDB1 SWAP1 PUSH1 0x20 DUP1 DUP5 MUL DUP8 ADD ADD MLOAD PUSH2 0x79D JUMP JUMPDEST DUP3 DUP3 DUP2 MLOAD DUP2 LT PUSH2 0xDC3 JUMPI PUSH2 0xDC3 PUSH2 0x399B JUMP JUMPDEST PUSH1 0x20 SWAP1 DUP2 MUL SWAP2 SWAP1 SWAP2 ADD ADD MSTORE PUSH1 0x1 ADD PUSH2 0xD8D JUMP JUMPDEST POP SWAP4 SWAP3 POP POP POP JUMP JUMPDEST PUSH1 0x40 DUP1 MLOAD DUP1 DUP3 ADD SWAP1 SWAP2 MSTORE PUSH0 DUP2 MSTORE PUSH1 0x60 PUSH1 0x20 DUP3 ADD MSTORE PUSH0 DUP3 DUP2 MSTORE PUSH1 0xC PUSH1 0x20 MSTORE PUSH1 0x40 DUP2 KECCAK256 SLOAD SWAP1 SUB PUSH2 0xE1E JUMPI PUSH1 0x40 MLOAD PUSH3 0x461BCD PUSH1 0xE5 SHL DUP2 MSTORE PUSH1 0x4 ADD PUSH2 0x8CC SWAP1 PUSH2 0x3CA1 JUMP JUMPDEST PUSH1 0xC PUSH0 DUP4 DUP2 MSTORE PUSH1 0x20 ADD SWAP1 DUP2 MSTORE PUSH1 0x20 ADD PUSH0 KECCAK256 PUSH1 0x40 MLOAD DUP1 PUSH1 0x40 ADD PUSH1 0x40 MSTORE SWAP1 DUP2 PUSH0 DUP3 ADD SLOAD DUP2 MSTORE PUSH1 0x20 ADD PUSH1 0x1 DUP3 ADD DUP1 SLOAD PUSH2 0xE53 SWAP1 PUSH2 0x39AF JUMP JUMPDEST DUP1 PUSH1 0x1F ADD PUSH1 0x20 DUP1 SWAP2 DIV MUL PUSH1 0x20 ADD PUSH1 0x40 MLOAD SWAP1 DUP2 ADD PUSH1 0x40 MSTORE DUP1 SWAP3 SWAP2 SWAP1 DUP2 DUP2 MSTORE PUSH1 0x20 ADD DUP3 DUP1 SLOAD PUSH2 0xE7F SWAP1 PUSH2 0x39AF JUMP JUMPDEST DUP1 ISZERO PUSH2 0xECA JUMPI DUP1 PUSH1 0x1F LT PUSH2 0xEA1 JUMPI PUSH2 0x100 DUP1 DUP4 SLOAD DIV MUL DUP4 MSTORE SWAP2 PUSH1 0x20 ADD SWAP2 PUSH2 0xECA JUMP JUMPDEST DUP3 ADD SWAP2 SWAP1 PUSH0 MSTORE PUSH1 0x20 PUSH0 KECCAK256 SWAP1 JUMPDEST DUP2 SLOAD DUP2 MSTORE SWAP1 PUSH1 0x1 ADD SWAP1 PUSH1 0x20 ADD DUP1 DUP4 GT PUSH2 0xEAD JUMPI DUP3 SWAP1 SUB PUSH1 0x1F AND DUP3 ADD SWAP2 JUMPDEST POP POP POP POP POP DUP2 MSTORE POP POP SWAP1 POP SWAP2 SWAP1 POP JUMP JUMPDEST PUSH1 0xE SLOAD PUSH1 0x60 SWAP1 PUSH0 SWAP1 PUSH1 0x1 PUSH1 0x1 PUSH1 0x40 SHL SUB DUP2 GT ISZERO PUSH2 0xEF9 JUMPI PUSH2 0xEF9 PUSH2 0x2EBC JUMP JUMPDEST PUSH1 0x40 MLOAD SWAP1 DUP1 DUP3 MSTORE DUP1 PUSH1 0x20 MUL PUSH1 0x20 ADD DUP3 ADD PUSH1 0x40 MSTORE DUP1 ISZERO PUSH2 0xF3E JUMPI DUP2 PUSH1 0x20 ADD JUMPDEST PUSH1 0x40 DUP1 MLOAD DUP1 DUP3 ADD SWAP1 SWAP2 MSTORE PUSH0 DUP2 MSTORE PUSH1 0x60 PUSH1 0x20 DUP3 ADD MSTORE DUP2 MSTORE PUSH1 0x20 ADD SWAP1 PUSH1 0x1 SWAP1 SUB SWAP1 DUP2 PUSH2 0xF17 JUMPI SWAP1 POP JUMPDEST POP SWAP1 POP PUSH0 JUMPDEST PUSH1 0xE SLOAD DUP2 LT ISZERO PUSH2 0x1042 JUMPI PUSH1 0xC PUSH0 PUSH1 0xE DUP4 DUP2 SLOAD DUP2 LT PUSH2 0xF63 JUMPI PUSH2 0xF63 PUSH2 0x399B JUMP JUMPDEST SWAP1 PUSH0 MSTORE PUSH1 0x20 PUSH0 KECCAK256 ADD SLOAD DUP2 MSTORE PUSH1 0x20 ADD SWAP1 DUP2 MSTORE PUSH1 0x20 ADD PUSH0 KECCAK256 PUSH1 0x40 MLOAD DUP1 PUSH1 0x40 ADD PUSH1 0x40 MSTORE SWAP1 DUP2 PUSH0 DUP3 ADD SLOAD DUP2 MSTORE PUSH1 0x20 ADD PUSH1 0x1 DUP3 ADD DUP1 SLOAD PUSH2 0xF9D SWAP1 PUSH2 0x39AF JUMP JUMPDEST DUP1 PUSH1 0x1F ADD PUSH1 0x20 DUP1 SWAP2 DIV MUL PUSH1 0x20 ADD PUSH1 0x40 MLOAD SWAP1 DUP2 ADD PUSH1 0x40 MSTORE DUP1 SWAP3 SWAP2 SWAP1 DUP2 DUP2 MSTORE PUSH1 0x20 ADD DUP3 DUP1 SLOAD PUSH2 0xFC9 SWAP1 PUSH2 0x39AF JUMP JUMPDEST DUP1 ISZERO PUSH2 0x1014 JUMPI DUP1 PUSH1 0x1F LT PUSH2 0xFEB JUMPI PUSH2 0x100 DUP1 DUP4 SLOAD DIV MUL DUP4 MSTORE SWAP2 PUSH1 0x20 ADD SWAP2 PUSH2 0x1014 JUMP JUMPDEST DUP3 ADD SWAP2 SWAP1 PUSH0 MSTORE PUSH1 0x20 PUSH0 KECCAK256 SWAP1 JUMPDEST DUP2 SLOAD DUP2 MSTORE SWAP1 PUSH1 0x1 ADD SWAP1 PUSH1 0x20 ADD DUP1 DUP4 GT PUSH2 0xFF7 JUMPI DUP3 SWAP1 SUB PUSH1 0x1F AND DUP3 ADD SWAP2 JUMPDEST POP POP POP POP POP DUP2 MSTORE POP POP DUP3 DUP3 DUP2 MLOAD DUP2 LT PUSH2 0x102F JUMPI PUSH2 0x102F PUSH2 0x399B JUMP JUMPDEST PUSH1 0x20 SWAP1 DUP2 MUL SWAP2 SWAP1 SWAP2 ADD ADD MSTORE PUSH1 0x1 ADD PUSH2 0xF43 JUMP JUMPDEST POP SWAP2 SWAP1 POP JUMP JUMPDEST PUSH1 0x1 PUSH1 0x1 PUSH1 0xA0 SHL SUB DUP4 AND CALLER EQ DUP1 ISZERO SWAP1 PUSH2 0x1068 JUMPI POP PUSH2 0x1066 DUP4 CALLER PUSH2 0x1F98 JUMP JUMPDEST ISZERO JUMPDEST ISZERO PUSH2 0x109C JUMPI CALLER JUMPDEST PUSH1 0x40 MLOAD PUSH4 0x711BEC91 PUSH1 0xE1 SHL DUP2 MSTORE PUSH1 0x1 PUSH1 0x1 PUSH1 0xA0 SHL SUB SWAP2 DUP3 AND PUSH1 0x4 DUP3 ADD MSTORE SWAP1 DUP5 AND PUSH1 0x24 DUP3 ADD MSTORE PUSH1 0x44 ADD PUSH2 0x8CC JUMP JUMPDEST PUSH2 0xAC2 DUP4 DUP4 DUP4 PUSH2 0x24EE JUMP JUMPDEST PUSH0 PUSH2 0x10B1 DUP2 PUSH2 0x21DA JUMP JUMPDEST PUSH0 JUMPDEST PUSH1 0xE SLOAD DUP2 LT ISZERO PUSH2 0x11FB JUMPI PUSH0 PUSH1 0xE DUP3 DUP2 SLOAD DUP2 LT PUSH2 0x10D1 JUMPI PUSH2 0x10D1 PUSH2 0x399B JUMP JUMPDEST SWAP1 PUSH0 MSTORE PUSH1 0x20 PUSH0 KECCAK256 ADD SLOAD SWAP1 POP DUP4 DUP1 MLOAD SWAP1 PUSH1 0x20 ADD KECCAK256 PUSH1 0xC PUSH0 DUP4 DUP2 MSTORE PUSH1 0x20 ADD SWAP1 DUP2 MSTORE PUSH1 0x20 ADD PUSH0 KECCAK256 PUSH1 0x1 ADD PUSH1 0x40 MLOAD PUSH2 0x1105 SWAP2 SWAP1 PUSH2 0x3A4F JUMP JUMPDEST PUSH1 0x40 MLOAD DUP1 SWAP2 SUB SWAP1 KECCAK256 SUB PUSH2 0x11F2 JUMPI PUSH0 DUP2 DUP2 MSTORE PUSH1 0xC PUSH1 0x20 MSTORE PUSH1 0x40 DUP2 KECCAK256 DUP2 DUP2 SSTORE SWAP1 PUSH2 0x1130 PUSH1 0x1 DUP4 ADD DUP3 PUSH2 0x2DBC JUMP JUMPDEST POP POP PUSH1 0xE SLOAD PUSH2 0x1141 SWAP1 PUSH1 0x1 SWAP1 PUSH2 0x3CFF JUMP JUMPDEST DUP3 LT ISZERO PUSH2 0x1190 JUMPI PUSH1 0xE DUP1 SLOAD PUSH2 0x1158 SWAP1 PUSH1 0x1 SWAP1 PUSH2 0x3CFF JUMP JUMPDEST DUP2 SLOAD DUP2 LT PUSH2 0x1168 JUMPI PUSH2 0x1168 PUSH2 0x399B JUMP JUMPDEST SWAP1 PUSH0 MSTORE PUSH1 0x20 PUSH0 KECCAK256 ADD SLOAD PUSH1 0xE DUP4 DUP2 SLOAD DUP2 LT PUSH2 0x1184 JUMPI PUSH2 0x1184 PUSH2 0x399B JUMP JUMPDEST PUSH0 SWAP2 DUP3 MSTORE PUSH1 0x20 SWAP1 SWAP2 KECCAK256 ADD SSTORE JUMPDEST PUSH1 0xE DUP1 SLOAD DUP1 PUSH2 0x11A1 JUMPI PUSH2 0x11A1 PUSH2 0x3D12 JUMP JUMPDEST PUSH1 0x1 SWAP1 SUB DUP2 DUP2 SWAP1 PUSH0 MSTORE PUSH1 0x20 PUSH0 KECCAK256 ADD PUSH0 SWAP1 SSTORE SWAP1 SSTORE DUP1 PUSH32 0xF2C458821D360029E0B4D57E1F001B05DB9D486EF001529D2E931753D7CF32F4 DUP6 PUSH1 0x40 MLOAD PUSH2 0x11E4 SWAP2 SWAP1 PUSH2 0x2FD8 JUMP JUMPDEST PUSH1 0x40 MLOAD DUP1 SWAP2 SUB SWAP1 LOG2 POP POP POP POP JUMP JUMPDEST POP PUSH1 0x1 ADD PUSH2 0x10B3 JUMP JUMPDEST POP PUSH1 0x40 MLOAD PUSH3 0x461BCD PUSH1 0xE5 SHL DUP2 MSTORE PUSH1 0x20 PUSH1 0x4 DUP3 ADD MSTORE PUSH1 0x31 PUSH1 0x24 DUP3 ADD MSTORE PUSH32 0x53686172656431313535546F6B656E3A20436F6C6C656374696F6E2077697468 PUSH1 0x44 DUP3 ADD MSTORE PUSH17 0x81CDD59999A5E081B9BDD08199BDD5B99 PUSH1 0x7A SHL PUSH1 0x64 DUP3 ADD MSTORE PUSH1 0x84 ADD PUSH2 0x8CC JUMP JUMPDEST POP POP JUMP JUMPDEST PUSH0 MLOAD PUSH1 0x20 PUSH2 0x3FA0 PUSH0 CODECOPY PUSH0 MLOAD SWAP1 PUSH0 MSTORE PUSH2 0x1279 DUP2 PUSH2 0x21DA JUMP JUMPDEST PUSH2 0xAEA DUP6 DUP6 DUP6 DUP6 PUSH2 0x2531 JUMP JUMPDEST PUSH0 PUSH2 0x1290 ADDRESS CALLER PUSH2 0x1F98 JUMP JUMPDEST SWAP1 POP SWAP1 JUMP JUMPDEST PUSH0 PUSH2 0x129F DUP2 PUSH2 0x21DA JUMP JUMPDEST PUSH2 0xD11 PUSH2 0x258C JUMP JUMPDEST PUSH0 SWAP2 DUP3 MSTORE PUSH1 0x20 DUP3 DUP2 MSTORE PUSH1 0x40 DUP1 DUP5 KECCAK256 PUSH1 0x1 PUSH1 0x1 PUSH1 0xA0 SHL SUB SWAP4 SWAP1 SWAP4 AND DUP5 MSTORE SWAP2 SWAP1 MSTORE SWAP1 KECCAK256 SLOAD PUSH1 0xFF AND SWAP1 JUMP JUMPDEST PUSH0 PUSH2 0x12D9 DUP2 PUSH2 0x21DA JUMP JUMPDEST PUSH0 DUP3 MLOAD GT PUSH2 0x12F9 JUMPI PUSH1 0x40 MLOAD PUSH3 0x461BCD PUSH1 0xE5 SHL DUP2 MSTORE PUSH1 0x4 ADD PUSH2 0x8CC SWAP1 PUSH2 0x3D26 JUMP JUMPDEST PUSH0 JUMPDEST PUSH1 0x10 SLOAD DUP2 LT ISZERO PUSH2 0x13FF JUMPI DUP3 DUP1 MLOAD SWAP1 PUSH1 0x20 ADD KECCAK256 PUSH1 0x10 DUP3 DUP2 SLOAD DUP2 LT PUSH2 0x1320 JUMPI PUSH2 0x1320 PUSH2 0x399B JUMP JUMPDEST SWAP1 PUSH0 MSTORE PUSH1 0x20 PUSH0 KECCAK256 ADD PUSH1 0x40 MLOAD PUSH2 0x1335 SWAP2 SWAP1 PUSH2 0x3A4F JUMP JUMPDEST PUSH1 0x40 MLOAD DUP1 SWAP2 SUB SWAP1 KECCAK256 SUB PUSH2 0x13F7 JUMPI PUSH1 0x10 DUP1 SLOAD PUSH2 0x1352 SWAP1 PUSH1 0x1 SWAP1 PUSH2 0x3CFF JUMP JUMPDEST DUP2 SLOAD DUP2 LT PUSH2 0x1362 JUMPI PUSH2 0x1362 PUSH2 0x399B JUMP JUMPDEST SWAP1 PUSH0 MSTORE PUSH1 0x20 PUSH0 KECCAK256 ADD PUSH1 0x10 DUP3 DUP2 SLOAD DUP2 LT PUSH2 0x137D JUMPI PUSH2 0x137D PUSH2 0x399B JUMP JUMPDEST SWAP1 PUSH0 MSTORE PUSH1 0x20 PUSH0 KECCAK256 ADD SWAP1 DUP2 PUSH2 0x1391 SWAP2 SWAP1 PUSH2 0x3D6B JUMP JUMPDEST POP PUSH1 0x10 DUP1 SLOAD DUP1 PUSH2 0x13A3 JUMPI PUSH2 0x13A3 PUSH2 0x3D12 JUMP JUMPDEST PUSH1 0x1 SWAP1 SUB DUP2 DUP2 SWAP1 PUSH0 MSTORE PUSH1 0x20 PUSH0 KECCAK256 ADD PUSH0 PUSH2 0x13BC SWAP2 SWAP1 PUSH2 0x2DBC JUMP JUMPDEST SWAP1 SSTORE CALLER PUSH1 0x1 PUSH1 0x1 PUSH1 0xA0 SHL SUB AND PUSH32 0xE29642266027CB54AE2F8DFFF02A7147B64461546559736868A4A962AC7E4CA DUP5 PUSH1 0x40 MLOAD PUSH2 0x999 SWAP2 SWAP1 PUSH2 0x2FD8 JUMP JUMPDEST PUSH1 0x1 ADD PUSH2 0x12FB JUMP JUMPDEST POP PUSH1 0x40 MLOAD PUSH3 0x461BCD PUSH1 0xE5 SHL DUP2 MSTORE PUSH1 0x20 PUSH1 0x4 DUP3 ADD MSTORE PUSH1 0x1F PUSH1 0x24 DUP3 ADD MSTORE PUSH32 0x53686172656431313535546F6B656E3A2044617461206E6F7420666F756E6400 PUSH1 0x44 DUP3 ADD MSTORE PUSH1 0x64 ADD PUSH2 0x8CC JUMP JUMPDEST PUSH1 0x1 PUSH1 0x1 PUSH1 0xA0 SHL SUB DUP3 AND PUSH2 0x14B0 JUMPI PUSH1 0x40 MLOAD PUSH3 0x461BCD PUSH1 0xE5 SHL DUP2 MSTORE PUSH1 0x20 PUSH1 0x4 DUP3 ADD MSTORE PUSH1 0x29 PUSH1 0x24 DUP3 ADD MSTORE PUSH32 0x53686172656431313535546F6B656E3A20496E76616C6964206F70657261746F PUSH1 0x44 DUP3 ADD MSTORE PUSH9 0x722061646472657373 PUSH1 0xB8 SHL PUSH1 0x64 DUP3 ADD MSTORE PUSH1 0x84 ADD PUSH2 0x8CC JUMP JUMPDEST PUSH2 0x14BB ADDRESS DUP4 DUP4 PUSH2 0x25C7 JUMP JUMPDEST DUP2 PUSH1 0x1 PUSH1 0x1 PUSH1 0xA0 SHL SUB AND PUSH32 0x8D3369E8CE7E1085710A510CA605F9599E0AE164E4C5A0C65B8106D6681F8EFE DUP3 PUSH1 0x40 MLOAD PUSH2 0x14F8 SWAP2 ISZERO ISZERO DUP2 MSTORE PUSH1 0x20 ADD SWAP1 JUMP JUMPDEST PUSH1 0x40 MLOAD DUP1 SWAP2 SUB SWAP1 LOG2 POP POP JUMP JUMPDEST PUSH2 0x125E CALLER DUP4 DUP4 PUSH2 0x25C7 JUMP JUMPDEST PUSH0 PUSH2 0xB72 DUP2 PUSH2 0x21DA JUMP JUMPDEST PUSH1 0x60 PUSH0 DUP1 JUMPDEST PUSH1 0xF SLOAD DUP2 LT ISZERO PUSH2 0x156A JUMPI PUSH0 PUSH2 0x154E ADDRESS PUSH1 0xF DUP5 DUP2 SLOAD DUP2 LT PUSH2 0x1540 JUMPI PUSH2 0x1540 PUSH2 0x399B JUMP JUMPDEST SWAP1 PUSH0 MSTORE PUSH1 0x20 PUSH0 KECCAK256 ADD SLOAD PUSH2 0x79D JUMP JUMPDEST GT ISZERO PUSH2 0x1562 JUMPI DUP2 PUSH2 0x155E DUP2 PUSH2 0x3E37 JUMP JUMPDEST SWAP3 POP POP JUMPDEST PUSH1 0x1 ADD PUSH2 0x151E JUMP JUMPDEST POP PUSH0 DUP2 PUSH1 0x1 PUSH1 0x1 PUSH1 0x40 SHL SUB DUP2 GT ISZERO PUSH2 0x1584 JUMPI PUSH2 0x1584 PUSH2 0x2EBC JUMP JUMPDEST PUSH1 0x40 MLOAD SWAP1 DUP1 DUP3 MSTORE DUP1 PUSH1 0x20 MUL PUSH1 0x20 ADD DUP3 ADD PUSH1 0x40 MSTORE DUP1 ISZERO PUSH2 0x15BD JUMPI DUP2 PUSH1 0x20 ADD JUMPDEST PUSH2 0x15AA PUSH2 0x2DF3 JUMP JUMPDEST DUP2 MSTORE PUSH1 0x20 ADD SWAP1 PUSH1 0x1 SWAP1 SUB SWAP1 DUP2 PUSH2 0x15A2 JUMPI SWAP1 POP JUMPDEST POP SWAP1 POP PUSH0 DUP1 JUMPDEST PUSH1 0xF SLOAD DUP2 LT ISZERO PUSH2 0x1682 JUMPI PUSH0 PUSH1 0xF DUP3 DUP2 SLOAD DUP2 LT PUSH2 0x15E1 JUMPI PUSH2 0x15E1 PUSH2 0x399B JUMP JUMPDEST SWAP1 PUSH0 MSTORE PUSH1 0x20 PUSH0 KECCAK256 ADD SLOAD SWAP1 POP PUSH0 PUSH2 0x15F7 ADDRESS DUP4 PUSH2 0x79D JUMP JUMPDEST SWAP1 POP DUP1 ISZERO PUSH2 0x1678 JUMPI PUSH1 0x40 MLOAD DUP1 PUSH1 0x80 ADD PUSH1 0x40 MSTORE DUP1 DUP4 DUP2 MSTORE PUSH1 0x20 ADD DUP3 DUP2 MSTORE PUSH1 0x20 ADD PUSH2 0x161F DUP5 PUSH2 0xA32 JUMP JUMPDEST DUP2 MSTORE PUSH0 DUP5 DUP2 MSTORE PUSH1 0xD PUSH1 0x20 SWAP1 DUP2 MSTORE PUSH1 0x40 SWAP2 DUP3 SWAP1 KECCAK256 DUP3 MLOAD DUP1 DUP5 ADD SWAP1 SWAP4 MSTORE DUP1 SLOAD DUP4 MSTORE PUSH1 0x1 ADD SLOAD DUP3 DUP3 ADD MSTORE SWAP1 SWAP2 ADD MSTORE DUP6 MLOAD DUP7 SWAP1 DUP7 SWAP1 DUP2 LT PUSH2 0x165E JUMPI PUSH2 0x165E PUSH2 0x399B JUMP JUMPDEST PUSH1 0x20 MUL PUSH1 0x20 ADD ADD DUP2 SWAP1 MSTORE POP DUP4 DUP1 PUSH2 0x1674 SWAP1 PUSH2 0x3E37 JUMP JUMPDEST SWAP5 POP POP JUMPDEST POP POP PUSH1 0x1 ADD PUSH2 0x15C3 JUMP JUMPDEST POP SWAP1 SWAP4 SWAP3 POP POP POP JUMP JUMPDEST PUSH1 0xE DUP2 DUP2 SLOAD DUP2 LT PUSH2 0x169A JUMPI PUSH0 DUP1 REVERT JUMPDEST PUSH0 SWAP2 DUP3 MSTORE PUSH1 0x20 SWAP1 SWAP2 KECCAK256 ADD SLOAD SWAP1 POP DUP2 JUMP JUMPDEST PUSH0 DUP2 DUP2 MSTORE PUSH1 0xC PUSH1 0x20 MSTORE PUSH1 0x40 DUP2 KECCAK256 SLOAD PUSH1 0x60 SWAP2 SUB PUSH2 0x16D8 JUMPI PUSH1 0x40 MLOAD PUSH3 0x461BCD PUSH1 0xE5 SHL DUP2 MSTORE PUSH1 0x4 ADD PUSH2 0x8CC SWAP1 PUSH2 0x3CA1 JUMP JUMPDEST PUSH0 DUP3 DUP2 MSTORE PUSH1 0xC PUSH1 0x20 MSTORE PUSH1 0x40 SWAP1 KECCAK256 PUSH1 0x1 ADD DUP1 SLOAD PUSH2 0x16F3 SWAP1 PUSH2 0x39AF JUMP JUMPDEST DUP1 PUSH1 0x1F ADD PUSH1 0x20 DUP1 SWAP2 DIV MUL PUSH1 0x20 ADD PUSH1 0x40 MLOAD SWAP1 DUP2 ADD PUSH1 0x40 MSTORE DUP1 SWAP3 SWAP2 SWAP1 DUP2 DUP2 MSTORE PUSH1 0x20 ADD DUP3 DUP1 SLOAD PUSH2 0x171F SWAP1 PUSH2 0x39AF JUMP JUMPDEST DUP1 ISZERO PUSH2 0x176A JUMPI DUP1 PUSH1 0x1F LT PUSH2 0x1741 JUMPI PUSH2 0x100 DUP1 DUP4 SLOAD DIV MUL DUP4 MSTORE SWAP2 PUSH1 0x20 ADD SWAP2 PUSH2 0x176A JUMP JUMPDEST DUP3 ADD SWAP2 SWAP1 PUSH0 MSTORE PUSH1 0x20 PUSH0 KECCAK256 SWAP1 JUMPDEST DUP2 SLOAD DUP2 MSTORE SWAP1 PUSH1 0x1 ADD SWAP1 PUSH1 0x20 ADD DUP1 DUP4 GT PUSH2 0x174D JUMPI DUP3 SWAP1 SUB PUSH1 0x1F AND DUP3 ADD SWAP2 JUMPDEST POP POP POP POP POP SWAP1 POP SWAP2 SWAP1 POP JUMP JUMPDEST PUSH0 MLOAD PUSH1 0x20 PUSH2 0x3FA0 PUSH0 CODECOPY PUSH0 MLOAD SWAP1 PUSH0 MSTORE PUSH2 0x178D DUP2 PUSH2 0x21DA JUMP JUMPDEST PUSH0 DUP1 JUMPDEST PUSH1 0xE SLOAD DUP2 LT ISZERO PUSH2 0x1829 JUMPI DUP4 DUP1 MLOAD SWAP1 PUSH1 0x20 ADD KECCAK256 PUSH1 0xC PUSH0 PUSH1 0xE DUP5 DUP2 SLOAD DUP2 LT PUSH2 0x17B8 JUMPI PUSH2 0x17B8 PUSH2 0x399B JUMP JUMPDEST SWAP1 PUSH0 MSTORE PUSH1 0x20 PUSH0 KECCAK256 ADD SLOAD DUP2 MSTORE PUSH1 0x20 ADD SWAP1 DUP2 MSTORE PUSH1 0x20 ADD PUSH0 KECCAK256 PUSH1 0x1 ADD PUSH1 0x40 MLOAD PUSH2 0x17DE SWAP2 SWAP1 PUSH2 0x3A4F JUMP JUMPDEST PUSH1 0x40 MLOAD DUP1 SWAP2 SUB SWAP1 KECCAK256 SUB PUSH2 0x1821 JUMPI PUSH1 0xC PUSH0 PUSH1 0xE DUP4 DUP2 SLOAD DUP2 LT PUSH2 0x1801 JUMPI PUSH2 0x1801 PUSH2 0x399B JUMP JUMPDEST SWAP1 PUSH0 MSTORE PUSH1 0x20 PUSH0 KECCAK256 ADD SLOAD DUP2 MSTORE PUSH1 0x20 ADD SWAP1 DUP2 MSTORE PUSH1 0x20 ADD PUSH0 KECCAK256 PUSH0 ADD SLOAD SWAP2 POP PUSH2 0x1829 JUMP JUMPDEST PUSH1 0x1 ADD PUSH2 0x1790 JUMP JUMPDEST POP DUP1 PUSH0 SUB PUSH2 0x1898 JUMPI PUSH1 0x40 MLOAD PUSH3 0x461BCD PUSH1 0xE5 SHL DUP2 MSTORE PUSH1 0x20 PUSH1 0x4 DUP3 ADD MSTORE PUSH1 0x36 PUSH1 0x24 DUP3 ADD MSTORE PUSH32 0x53686172656431313535546F6B656E3A20436F6C6C656374696F6E2077697468 PUSH1 0x44 DUP3 ADD MSTORE PUSH22 0x81CDD59999A5E08191BD95CC81B9BDD08195E1A5CDD PUSH1 0x52 SHL PUSH1 0x64 DUP3 ADD MSTORE PUSH1 0x84 ADD PUSH2 0x8CC JUMP JUMPDEST PUSH2 0x18A6 PUSH1 0x9 DUP1 SLOAD PUSH1 0x1 ADD SWAP1 SSTORE JUMP JUMPDEST PUSH0 PUSH2 0x18B0 PUSH1 0x9 SLOAD SWAP1 JUMP JUMPDEST SWAP1 POP PUSH2 0x18CC ADDRESS DUP3 DUP9 PUSH1 0x40 MLOAD DUP1 PUSH1 0x20 ADD PUSH1 0x40 MSTORE DUP1 PUSH0 DUP2 MSTORE POP PUSH2 0x2531 JUMP JUMPDEST PUSH2 0x18D6 DUP2 DUP9 PUSH2 0x22C0 JUMP JUMPDEST PUSH0 DUP2 DUP2 MSTORE PUSH1 0xD PUSH1 0x20 SWAP1 DUP2 MSTORE PUSH1 0x40 DUP1 DUP4 KECCAK256 DUP9 DUP2 SSTORE PUSH1 0x1 DUP1 DUP3 ADD DUP8 SWAP1 SSTORE PUSH1 0xF DUP1 SLOAD SWAP2 DUP3 ADD DUP2 SSTORE SWAP1 SWAP5 MSTORE PUSH32 0x8D1108E10BCB7C27DDDFC02ED9D693A074039D026CF4EA4240B40F7D581AC802 SWAP1 SWAP4 ADD DUP5 SWAP1 SSTORE DUP1 MLOAD DUP5 DUP2 MSTORE SWAP2 DUP3 ADD DUP9 SWAP1 MSTORE DUP2 ADD DUP9 SWAP1 MSTORE ADDRESS SWAP1 PUSH32 0xAFDE70C98492A2CA81A3E5545BED44EFEB0747A64B5E63A918DF2E9D8E83EF35 SWAP1 PUSH1 0x60 ADD PUSH1 0x40 MLOAD DUP1 SWAP2 SUB SWAP1 LOG2 POP POP POP POP POP POP POP POP JUMP JUMPDEST PUSH1 0xF SLOAD PUSH1 0x60 SWAP1 PUSH0 SWAP1 PUSH1 0x1 PUSH1 0x1 PUSH1 0x40 SHL SUB DUP2 GT ISZERO PUSH2 0x198C JUMPI PUSH2 0x198C PUSH2 0x2EBC JUMP JUMPDEST PUSH1 0x40 MLOAD SWAP1 DUP1 DUP3 MSTORE DUP1 PUSH1 0x20 MUL PUSH1 0x20 ADD DUP3 ADD PUSH1 0x40 MSTORE DUP1 ISZERO PUSH2 0x19D0 JUMPI DUP2 PUSH1 0x20 ADD JUMPDEST PUSH1 0x40 DUP1 MLOAD DUP1 DUP3 ADD SWAP1 SWAP2 MSTORE PUSH0 DUP1 DUP3 MSTORE PUSH1 0x20 DUP3 ADD MSTORE DUP2 MSTORE PUSH1 0x20 ADD SWAP1 PUSH1 0x1 SWAP1 SUB SWAP1 DUP2 PUSH2 0x19AA JUMPI SWAP1 POP JUMPDEST POP SWAP1 POP PUSH0 JUMPDEST PUSH1 0xF SLOAD DUP2 LT ISZERO PUSH2 0x1042 JUMPI PUSH1 0xD PUSH0 PUSH1 0xF DUP4 DUP2 SLOAD DUP2 LT PUSH2 0x19F5 JUMPI PUSH2 0x19F5 PUSH2 0x399B JUMP JUMPDEST SWAP1 PUSH0 MSTORE PUSH1 0x20 PUSH0 KECCAK256 ADD SLOAD DUP2 MSTORE PUSH1 0x20 ADD SWAP1 DUP2 MSTORE PUSH1 0x20 ADD PUSH0 KECCAK256 PUSH1 0x40 MLOAD DUP1 PUSH1 0x40 ADD PUSH1 0x40 MSTORE SWAP1 DUP2 PUSH0 DUP3 ADD SLOAD DUP2 MSTORE PUSH1 0x20 ADD PUSH1 0x1 DUP3 ADD SLOAD DUP2 MSTORE POP POP DUP3 DUP3 DUP2 MLOAD DUP2 LT PUSH2 0x1A3B JUMPI PUSH2 0x1A3B PUSH2 0x399B JUMP JUMPDEST PUSH1 0x20 SWAP1 DUP2 MUL SWAP2 SWAP1 SWAP2 ADD ADD MSTORE PUSH1 0x1 ADD PUSH2 0x19D5 JUMP JUMPDEST PUSH0 DUP3 DUP2 MSTORE PUSH1 0x20 DUP2 SWAP1 MSTORE PUSH1 0x40 SWAP1 KECCAK256 PUSH1 0x1 ADD SLOAD PUSH2 0x1A68 DUP2 PUSH2 0x21DA JUMP JUMPDEST PUSH2 0xB7C DUP4 DUP4 PUSH2 0x2433 JUMP JUMPDEST PUSH1 0xF DUP2 DUP2 SLOAD DUP2 LT PUSH2 0x169A JUMPI PUSH0 DUP1 REVERT JUMPDEST PUSH1 0x60 PUSH1 0x10 DUP1 SLOAD DUP1 PUSH1 0x20 MUL PUSH1 0x20 ADD PUSH1 0x40 MLOAD SWAP1 DUP2 ADD PUSH1 0x40 MSTORE DUP1 SWAP3 SWAP2 SWAP1 DUP2 DUP2 MSTORE PUSH1 0x20 ADD PUSH0 SWAP1 JUMPDEST DUP3 DUP3 LT ISZERO PUSH2 0x1B4C JUMPI DUP4 DUP3 SWAP1 PUSH0 MSTORE PUSH1 0x20 PUSH0 KECCAK256 ADD DUP1 SLOAD PUSH2 0x1AC1 SWAP1 PUSH2 0x39AF JUMP JUMPDEST DUP1 PUSH1 0x1F ADD PUSH1 0x20 DUP1 SWAP2 DIV MUL PUSH1 0x20 ADD PUSH1 0x40 MLOAD SWAP1 DUP2 ADD PUSH1 0x40 MSTORE DUP1 SWAP3 SWAP2 SWAP1 DUP2 DUP2 MSTORE PUSH1 0x20 ADD DUP3 DUP1 SLOAD PUSH2 0x1AED SWAP1 PUSH2 0x39AF JUMP JUMPDEST DUP1 ISZERO PUSH2 0x1B38 JUMPI DUP1 PUSH1 0x1F LT PUSH2 0x1B0F JUMPI PUSH2 0x100 DUP1 DUP4 SLOAD DIV MUL DUP4 MSTORE SWAP2 PUSH1 0x20 ADD SWAP2 PUSH2 0x1B38 JUMP JUMPDEST DUP3 ADD SWAP2 SWAP1 PUSH0 MSTORE PUSH1 0x20 PUSH0 KECCAK256 SWAP1 JUMPDEST DUP2 SLOAD DUP2 MSTORE SWAP1 PUSH1 0x1 ADD SWAP1 PUSH1 0x20 ADD DUP1 DUP4 GT PUSH2 0x1B1B JUMPI DUP3 SWAP1 SUB PUSH1 0x1F AND DUP3 ADD SWAP2 JUMPDEST POP POP POP POP POP DUP2 MSTORE PUSH1 0x20 ADD SWAP1 PUSH1 0x1 ADD SWAP1 PUSH2 0x1AA4 JUMP JUMPDEST POP POP POP POP SWAP1 POP SWAP1 JUMP JUMPDEST PUSH1 0x40 DUP1 MLOAD DUP1 DUP3 ADD SWAP1 SWAP2 MSTORE PUSH0 DUP1 DUP3 MSTORE PUSH1 0x20 DUP3 ADD MSTORE PUSH0 DUP3 DUP2 MSTORE PUSH1 0x7 PUSH1 0x20 MSTORE PUSH1 0x40 DUP2 KECCAK256 SLOAD GT PUSH2 0x1BCE JUMPI PUSH1 0x40 MLOAD PUSH3 0x461BCD PUSH1 0xE5 SHL DUP2 MSTORE PUSH1 0x20 PUSH1 0x4 DUP3 ADD MSTORE PUSH1 0x22 PUSH1 0x24 DUP3 ADD MSTORE PUSH32 0x53686172656431313535546F6B656E3A204E6F6E6578697374656E7420746F6B PUSH1 0x44 DUP3 ADD MSTORE PUSH2 0x32B7 PUSH1 0xF1 SHL PUSH1 0x64 DUP3 ADD MSTORE PUSH1 0x84 ADD PUSH2 0x8CC JUMP JUMPDEST POP PUSH0 SWAP1 DUP2 MSTORE PUSH1 0xD PUSH1 0x20 SWAP1 DUP2 MSTORE PUSH1 0x40 SWAP2 DUP3 SWAP1 KECCAK256 DUP3 MLOAD DUP1 DUP5 ADD SWAP1 SWAP4 MSTORE DUP1 SLOAD DUP4 MSTORE PUSH1 0x1 ADD SLOAD SWAP1 DUP3 ADD MSTORE SWAP1 JUMP JUMPDEST PUSH1 0x1 PUSH1 0x1 PUSH1 0xA0 SHL SUB DUP4 AND PUSH2 0x1C1D JUMPI PUSH1 0x40 MLOAD PUSH3 0x461BCD PUSH1 0xE5 SHL DUP2 MSTORE PUSH1 0x4 ADD PUSH2 0x8CC SWAP1 PUSH2 0x3B5B JUMP JUMPDEST PUSH0 DUP3 GT PUSH2 0x1C3C JUMPI PUSH1 0x40 MLOAD PUSH3 0x461BCD PUSH1 0xE5 SHL DUP2 MSTORE PUSH1 0x4 ADD PUSH2 0x8CC SWAP1 PUSH2 0x3BA5 JUMP JUMPDEST PUSH1 0x40 MLOAD PUSH4 0x70A08231 PUSH1 0xE0 SHL DUP2 MSTORE CALLER PUSH1 0x4 DUP3 ADD MSTORE DUP5 SWAP1 DUP4 SWAP1 PUSH1 0x1 PUSH1 0x1 PUSH1 0xA0 SHL SUB DUP4 AND SWAP1 PUSH4 0x70A08231 SWAP1 PUSH1 0x24 ADD PUSH1 0x20 PUSH1 0x40 MLOAD DUP1 DUP4 SUB DUP2 DUP7 GAS STATICCALL ISZERO DUP1 ISZERO PUSH2 0x1C82 JUMPI RETURNDATASIZE PUSH0 PUSH0 RETURNDATACOPY RETURNDATASIZE PUSH0 REVERT JUMPDEST POP POP POP POP PUSH1 0x40 MLOAD RETURNDATASIZE PUSH1 0x1F NOT PUSH1 0x1F DUP3 ADD AND DUP3 ADD DUP1 PUSH1 0x40 MSTORE POP DUP2 ADD SWAP1 PUSH2 0x1CA6 SWAP2 SWAP1 PUSH2 0x3E4F JUMP JUMPDEST LT ISZERO PUSH2 0x1D08 JUMPI PUSH1 0x40 MLOAD PUSH3 0x461BCD PUSH1 0xE5 SHL DUP2 MSTORE PUSH1 0x20 PUSH1 0x4 DUP3 ADD MSTORE PUSH1 0x2B PUSH1 0x24 DUP3 ADD MSTORE PUSH32 0x53686172656431313535546F6B656E3A20496E73756666696369656E74204552 PUSH1 0x44 DUP3 ADD MSTORE PUSH11 0x4332302062616C616E6365 PUSH1 0xA8 SHL PUSH1 0x64 DUP3 ADD MSTORE PUSH1 0x84 ADD PUSH2 0x8CC JUMP JUMPDEST PUSH1 0x40 MLOAD PUSH4 0x6EB1769F PUSH1 0xE1 SHL DUP2 MSTORE CALLER PUSH1 0x4 DUP3 ADD MSTORE ADDRESS PUSH1 0x24 DUP3 ADD MSTORE DUP4 SWAP1 PUSH1 0x1 PUSH1 0x1 PUSH1 0xA0 SHL SUB DUP4 AND SWAP1 PUSH4 0xDD62ED3E SWAP1 PUSH1 0x44 ADD PUSH1 0x20 PUSH1 0x40 MLOAD DUP1 DUP4 SUB DUP2 DUP7 GAS STATICCALL ISZERO DUP1 ISZERO PUSH2 0x1D52 JUMPI RETURNDATASIZE PUSH0 PUSH0 RETURNDATACOPY RETURNDATASIZE PUSH0 REVERT JUMPDEST POP POP POP POP PUSH1 0x40 MLOAD RETURNDATASIZE PUSH1 0x1F NOT PUSH1 0x1F DUP3 ADD AND DUP3 ADD DUP1 PUSH1 0x40 MSTORE POP DUP2 ADD SWAP1 PUSH2 0x1D76 SWAP2 SWAP1 PUSH2 0x3E4F JUMP JUMPDEST LT ISZERO PUSH2 0x1DDA JUMPI PUSH1 0x40 MLOAD PUSH3 0x461BCD PUSH1 0xE5 SHL DUP2 MSTORE PUSH1 0x20 PUSH1 0x4 DUP3 ADD MSTORE PUSH1 0x2D PUSH1 0x24 DUP3 ADD MSTORE PUSH32 0x53686172656431313535546F6B656E3A20496E73756666696369656E74204552 PUSH1 0x44 DUP3 ADD MSTORE PUSH13 0x43323020616C6C6F77616E6365 PUSH1 0x98 SHL PUSH1 0x64 DUP3 ADD MSTORE PUSH1 0x84 ADD PUSH2 0x8CC JUMP JUMPDEST PUSH1 0x40 MLOAD PUSH4 0x23B872DD PUSH1 0xE0 SHL DUP2 MSTORE CALLER PUSH1 0x4 DUP3 ADD MSTORE PUSH1 0x1 PUSH1 0x1 PUSH1 0xA0 SHL SUB DUP6 DUP2 AND PUSH1 0x24 DUP4 ADD MSTORE PUSH1 0x44 DUP3 ADD DUP6 SWAP1 MSTORE DUP3 AND SWAP1 PUSH4 0x23B872DD SWAP1 PUSH1 0x64 ADD PUSH1 0x20 PUSH1 0x40 MLOAD DUP1 DUP4 SUB DUP2 PUSH0 DUP8 GAS CALL ISZERO DUP1 ISZERO PUSH2 0x1E2C JUMPI RETURNDATASIZE PUSH0 PUSH0 RETURNDATACOPY RETURNDATASIZE PUSH0 REVERT JUMPDEST POP POP POP POP PUSH1 0x40 MLOAD RETURNDATASIZE PUSH1 0x1F NOT PUSH1 0x1F DUP3 ADD AND DUP3 ADD DUP1 PUSH1 0x40 MSTORE POP DUP2 ADD SWAP1 PUSH2 0x1E50 SWAP2 SWAP1 PUSH2 0x3E66 JUMP JUMPDEST POP PUSH0 DUP1 JUMPDEST PUSH1 0xF SLOAD DUP2 LT ISZERO PUSH2 0x1EB3 JUMPI DUP4 DUP1 MLOAD SWAP1 PUSH1 0x20 ADD KECCAK256 PUSH2 0x1E7C PUSH1 0xF DUP4 DUP2 SLOAD DUP2 LT PUSH2 0xC23 JUMPI PUSH2 0xC23 PUSH2 0x399B JUMP JUMPDEST DUP1 MLOAD SWAP1 PUSH1 0x20 ADD KECCAK256 SUB PUSH2 0x1EAB JUMPI PUSH1 0xF DUP2 DUP2 SLOAD DUP2 LT PUSH2 0x1E9B JUMPI PUSH2 0x1E9B PUSH2 0x399B JUMP JUMPDEST SWAP1 PUSH0 MSTORE PUSH1 0x20 PUSH0 KECCAK256 ADD SLOAD SWAP2 POP PUSH2 0x1EB3 JUMP JUMPDEST PUSH1 0x1 ADD PUSH2 0x1E54 JUMP JUMPDEST POP DUP1 PUSH0 SUB PUSH2 0x1ED3 JUMPI PUSH1 0x40 MLOAD PUSH3 0x461BCD PUSH1 0xE5 SHL DUP2 MSTORE PUSH1 0x4 ADD PUSH2 0x8CC SWAP1 PUSH2 0x3C02 JUMP JUMPDEST PUSH1 0x1 PUSH2 0x1EDF ADDRESS DUP4 PUSH2 0x79D JUMP JUMPDEST LT ISZERO PUSH2 0x1EFD JUMPI PUSH1 0x40 MLOAD PUSH3 0x461BCD PUSH1 0xE5 SHL DUP2 MSTORE PUSH1 0x4 ADD PUSH2 0x8CC SWAP1 PUSH2 0x3C58 JUMP JUMPDEST PUSH2 0x1F19 ADDRESS CALLER DUP4 PUSH1 0x1 PUSH1 0x40 MLOAD DUP1 PUSH1 0x20 ADD PUSH1 0x40 MSTORE DUP1 PUSH0 DUP2 MSTORE POP PUSH2 0x1FC5 JUMP JUMPDEST PUSH1 0x40 MLOAD PUSH4 0x23B872DD PUSH1 0xE0 SHL DUP2 MSTORE CALLER PUSH1 0x4 DUP3 ADD MSTORE PUSH1 0x1 PUSH1 0x1 PUSH1 0xA0 SHL SUB DUP7 DUP2 AND PUSH1 0x24 DUP4 ADD MSTORE PUSH1 0x44 DUP3 ADD DUP7 SWAP1 MSTORE DUP4 AND SWAP1 PUSH4 0x23B872DD SWAP1 PUSH1 0x64 ADD PUSH1 0x20 PUSH1 0x40 MLOAD DUP1 DUP4 SUB DUP2 PUSH0 DUP8 GAS CALL ISZERO DUP1 ISZERO PUSH2 0x1F6B JUMPI RETURNDATASIZE PUSH0 PUSH0 RETURNDATACOPY RETURNDATASIZE PUSH0 REVERT JUMPDEST POP POP POP POP PUSH1 0x40 MLOAD RETURNDATASIZE PUSH1 0x1F NOT PUSH1 0x1F DUP3 ADD AND DUP3 ADD DUP1 PUSH1 0x40 MSTORE POP DUP2 ADD SWAP1 PUSH2 0x1F8F SWAP2 SWAP1 PUSH2 0x3E66 JUMP JUMPDEST POP POP POP POP POP POP POP JUMP JUMPDEST PUSH1 0x1 PUSH1 0x1 PUSH1 0xA0 SHL SUB SWAP2 DUP3 AND PUSH0 SWAP1 DUP2 MSTORE PUSH1 0x3 PUSH1 0x20 SWAP1 DUP2 MSTORE PUSH1 0x40 DUP1 DUP4 KECCAK256 SWAP4 SWAP1 SWAP5 AND DUP3 MSTORE SWAP2 SWAP1 SWAP2 MSTORE KECCAK256 SLOAD PUSH1 0xFF AND SWAP1 JUMP JUMPDEST CALLER PUSH1 0x1 PUSH1 0x1 PUSH1 0xA0 SHL SUB DUP7 AND DUP2 EQ DUP1 ISZERO SWAP1 PUSH2 0x1FE6 JUMPI POP PUSH2 0x1FE4 DUP7 DUP3 PUSH2 0x1F98 JUMP JUMPDEST ISZERO JUMPDEST ISZERO PUSH2 0x2017 JUMPI PUSH1 0x40 MLOAD PUSH4 0x711BEC91 PUSH1 0xE1 SHL DUP2 MSTORE PUSH1 0x1 PUSH1 0x1 PUSH1 0xA0 SHL SUB DUP1 DUP4 AND PUSH1 0x4 DUP4 ADD MSTORE DUP8 AND PUSH1 0x24 DUP3 ADD MSTORE PUSH1 0x44 ADD PUSH2 0x8CC JUMP JUMPDEST PUSH2 0xB50 DUP7 DUP7 DUP7 DUP7 DUP7 PUSH2 0x265B JUMP JUMPDEST PUSH1 0x1 PUSH1 0x1 PUSH1 0xA0 SHL SUB DUP4 AND CALLER EQ DUP1 ISZERO SWAP1 PUSH2 0x2044 JUMPI POP PUSH2 0x2042 DUP4 CALLER PUSH2 0x1F98 JUMP JUMPDEST ISZERO JUMPDEST ISZERO PUSH2 0x204F JUMPI CALLER PUSH2 0x106F JUMP JUMPDEST PUSH2 0xAC2 DUP4 DUP4 DUP4 PUSH2 0x26DE JUMP JUMPDEST PUSH0 PUSH2 0x2064 DUP2 PUSH2 0x21DA JUMP JUMPDEST PUSH0 DUP3 MLOAD GT PUSH2 0x2084 JUMPI PUSH1 0x40 MLOAD PUSH3 0x461BCD PUSH1 0xE5 SHL DUP2 MSTORE PUSH1 0x4 ADD PUSH2 0x8CC SWAP1 PUSH2 0x3D26 JUMP JUMPDEST PUSH1 0x10 DUP1 SLOAD PUSH1 0x1 DUP2 ADD DUP3 SSTORE PUSH0 SWAP2 SWAP1 SWAP2 MSTORE PUSH32 0x1B6847DC741A1B0CD08D278845F9D819D87B734759AFB55FE2DE5CB82A9AE672 ADD PUSH2 0x20BF DUP4 DUP3 PUSH2 0x3A9E JUMP JUMPDEST POP CALLER PUSH1 0x1 PUSH1 0x1 PUSH1 0xA0 SHL SUB AND PUSH32 0x4B33DAFB50DAC5530C30ACA4E4069FD67A18220888B874B8519558D1769D49A1 DUP4 PUSH1 0x40 MLOAD PUSH2 0x14F8 SWAP2 SWAP1 PUSH2 0x2FD8 JUMP JUMPDEST PUSH1 0xC PUSH1 0x20 MSTORE PUSH0 SWAP1 DUP2 MSTORE PUSH1 0x40 SWAP1 KECCAK256 DUP1 SLOAD PUSH1 0x1 DUP3 ADD DUP1 SLOAD SWAP2 SWAP3 SWAP2 PUSH2 0x211A SWAP1 PUSH2 0x39AF JUMP JUMPDEST DUP1 PUSH1 0x1F ADD PUSH1 0x20 DUP1 SWAP2 DIV MUL PUSH1 0x20 ADD PUSH1 0x40 MLOAD SWAP1 DUP2 ADD PUSH1 0x40 MSTORE DUP1 SWAP3 SWAP2 SWAP1 DUP2 DUP2 MSTORE PUSH1 0x20 ADD DUP3 DUP1 SLOAD PUSH2 0x2146 SWAP1 PUSH2 0x39AF JUMP JUMPDEST DUP1 ISZERO PUSH2 0x2191 JUMPI DUP1 PUSH1 0x1F LT PUSH2 0x2168 JUMPI PUSH2 0x100 DUP1 DUP4 SLOAD DIV MUL DUP4 MSTORE SWAP2 PUSH1 0x20 ADD SWAP2 PUSH2 0x2191 JUMP JUMPDEST DUP3 ADD SWAP2 SWAP1 PUSH0 MSTORE PUSH1 0x20 PUSH0 KECCAK256 SWAP1 JUMPDEST DUP2 SLOAD DUP2 MSTORE SWAP1 PUSH1 0x1 ADD SWAP1 PUSH1 0x20 ADD DUP1 DUP4 GT PUSH2 0x2174 JUMPI DUP3 SWAP1 SUB PUSH1 0x1F AND DUP3 ADD SWAP2 JUMPDEST POP POP POP POP POP SWAP1 POP DUP3 JUMP JUMPDEST PUSH0 PUSH1 0x1 PUSH1 0x1 PUSH1 0xE0 SHL SUB NOT DUP3 AND PUSH4 0x6CDB3D13 PUSH1 0xE1 SHL EQ DUP1 PUSH2 0x21CB JUMPI POP PUSH1 0x1 PUSH1 0x1 PUSH1 0xE0 SHL SUB NOT DUP3 AND PUSH4 0x3A24D07 PUSH1 0xE2 SHL EQ JUMPDEST DUP1 PUSH2 0x7C0 JUMPI POP PUSH2 0x7C0 DUP3 PUSH2 0x2744 JUMP JUMPDEST PUSH2 0xD11 DUP2 CALLER PUSH2 0x2778 JUMP JUMPDEST PUSH0 DUP2 DUP2 MSTORE PUSH1 0x6 PUSH1 0x20 MSTORE PUSH1 0x40 DUP2 KECCAK256 DUP1 SLOAD PUSH1 0x60 SWAP3 SWAP2 SWAP1 PUSH2 0x2201 SWAP1 PUSH2 0x39AF JUMP JUMPDEST DUP1 PUSH1 0x1F ADD PUSH1 0x20 DUP1 SWAP2 DIV MUL PUSH1 0x20 ADD PUSH1 0x40 MLOAD SWAP1 DUP2 ADD PUSH1 0x40 MSTORE DUP1 SWAP3 SWAP2 SWAP1 DUP2 DUP2 MSTORE PUSH1 0x20 ADD DUP3 DUP1 SLOAD PUSH2 0x222D SWAP1 PUSH2 0x39AF JUMP JUMPDEST DUP1 ISZERO PUSH2 0x2278 JUMPI DUP1 PUSH1 0x1F LT PUSH2 0x224F JUMPI PUSH2 0x100 DUP1 DUP4 SLOAD DIV MUL DUP4 MSTORE SWAP2 PUSH1 0x20 ADD SWAP2 PUSH2 0x2278 JUMP JUMPDEST DUP3 ADD SWAP2 SWAP1 PUSH0 MSTORE PUSH1 0x20 PUSH0 KECCAK256 SWAP1 JUMPDEST DUP2 SLOAD DUP2 MSTORE SWAP1 PUSH1 0x1 ADD SWAP1 PUSH1 0x20 ADD DUP1 DUP4 GT PUSH2 0x225B JUMPI DUP3 SWAP1 SUB PUSH1 0x1F AND DUP3 ADD SWAP2 JUMPDEST POP POP POP POP POP SWAP1 POP PUSH0 DUP2 MLOAD GT PUSH2 0x2295 JUMPI PUSH2 0x2290 DUP4 PUSH2 0x27B1 JUMP JUMPDEST PUSH2 0x22B9 JUMP JUMPDEST PUSH1 0x5 DUP2 PUSH1 0x40 MLOAD PUSH1 0x20 ADD PUSH2 0x22A9 SWAP3 SWAP2 SWAP1 PUSH2 0x3E81 JUMP JUMPDEST PUSH1 0x40 MLOAD PUSH1 0x20 DUP2 DUP4 SUB SUB DUP2 MSTORE SWAP1 PUSH1 0x40 MSTORE JUMPDEST SWAP4 SWAP3 POP POP POP JUMP JUMPDEST PUSH0 DUP3 DUP2 MSTORE PUSH1 0x6 PUSH1 0x20 MSTORE PUSH1 0x40 SWAP1 KECCAK256 PUSH2 0x22D7 DUP3 DUP3 PUSH2 0x3A9E JUMP JUMPDEST POP DUP2 PUSH32 0x6BB7FF708619BA0610CBA295A58592E0451DEE2622938C8755667688DAF3529B PUSH2 0x2303 DUP5 PUSH2 0xA32 JUMP JUMPDEST PUSH1 0x40 MLOAD PUSH2 0x14F8 SWAP2 SWAP1 PUSH2 0x2FD8 JUMP JUMPDEST PUSH1 0x1 PUSH1 0x1 PUSH1 0xA0 SHL SUB DUP5 AND PUSH2 0x2339 JUMPI PUSH1 0x40 MLOAD PUSH4 0x2BFA23E7 PUSH1 0xE1 SHL DUP2 MSTORE PUSH0 PUSH1 0x4 DUP3 ADD MSTORE PUSH1 0x24 ADD PUSH2 0x8CC JUMP JUMPDEST PUSH2 0xB7C PUSH0 DUP6 DUP6 DUP6 DUP6 PUSH2 0x27C0 JUMP JUMPDEST PUSH1 0x1 PUSH1 0x1 PUSH1 0xA0 SHL SUB DUP5 AND PUSH2 0x236F JUMPI PUSH1 0x40 MLOAD PUSH4 0x2BFA23E7 PUSH1 0xE1 SHL DUP2 MSTORE PUSH0 PUSH1 0x4 DUP3 ADD MSTORE PUSH1 0x24 ADD PUSH2 0x8CC JUMP JUMPDEST PUSH1 0x1 PUSH1 0x1 PUSH1 0xA0 SHL SUB DUP6 AND PUSH2 0x2397 JUMPI PUSH1 0x40 MLOAD PUSH3 0x6A0D45 PUSH1 0xE2 SHL DUP2 MSTORE PUSH0 PUSH1 0x4 DUP3 ADD MSTORE PUSH1 0x24 ADD PUSH2 0x8CC JUMP JUMPDEST PUSH2 0xAEA DUP6 DUP6 DUP6 DUP6 DUP6 PUSH2 0x27C0 JUMP JUMPDEST PUSH0 PUSH2 0x23AF DUP4 DUP4 PUSH2 0x12A7 JUMP JUMPDEST PUSH2 0x242C JUMPI PUSH0 DUP4 DUP2 MSTORE PUSH1 0x20 DUP2 DUP2 MSTORE PUSH1 0x40 DUP1 DUP4 KECCAK256 PUSH1 0x1 PUSH1 0x1 PUSH1 0xA0 SHL SUB DUP7 AND DUP5 MSTORE SWAP1 SWAP2 MSTORE SWAP1 KECCAK256 DUP1 SLOAD PUSH1 0xFF NOT AND PUSH1 0x1 OR SWAP1 SSTORE PUSH2 0x23E4 CALLER SWAP1 JUMP JUMPDEST PUSH1 0x1 PUSH1 0x1 PUSH1 0xA0 SHL SUB AND DUP3 PUSH1 0x1 PUSH1 0x1 PUSH1 0xA0 SHL SUB AND DUP5 PUSH32 0x2F8788117E7EFF1D82E926EC794901D17C78024A50270940304540A733656F0D PUSH1 0x40 MLOAD PUSH1 0x40 MLOAD DUP1 SWAP2 SUB SWAP1 LOG4 POP PUSH1 0x1 PUSH2 0x7C0 JUMP JUMPDEST POP PUSH0 PUSH2 0x7C0 JUMP JUMPDEST PUSH0 PUSH2 0x243E DUP4 DUP4 PUSH2 0x12A7 JUMP JUMPDEST ISZERO PUSH2 0x242C JUMPI PUSH0 DUP4 DUP2 MSTORE PUSH1 0x20 DUP2 DUP2 MSTORE PUSH1 0x40 DUP1 DUP4 KECCAK256 PUSH1 0x1 PUSH1 0x1 PUSH1 0xA0 SHL SUB DUP7 AND DUP1 DUP6 MSTORE SWAP3 MSTORE DUP1 DUP4 KECCAK256 DUP1 SLOAD PUSH1 0xFF NOT AND SWAP1 SSTORE MLOAD CALLER SWAP3 DUP7 SWAP2 PUSH32 0xF6391F5C32D9C69D2A47EA670B442974B53935D1EDC7FD64EB21E047A839171B SWAP2 SWAP1 LOG4 POP PUSH1 0x1 PUSH2 0x7C0 JUMP JUMPDEST PUSH2 0x24A4 PUSH2 0x2813 JUMP JUMPDEST PUSH1 0x1 DUP1 SLOAD PUSH1 0xFF NOT AND SWAP1 SSTORE PUSH32 0x5DB9EE0A495BF2E6FF9C91A7834C1BA4FDD244A5E8AA4E537BD38AEAE4B073AA CALLER JUMPDEST PUSH1 0x40 MLOAD PUSH1 0x1 PUSH1 0x1 PUSH1 0xA0 SHL SUB SWAP1 SWAP2 AND DUP2 MSTORE PUSH1 0x20 ADD PUSH1 0x40 MLOAD DUP1 SWAP2 SUB SWAP1 LOG1 JUMP JUMPDEST PUSH1 0x1 PUSH1 0x1 PUSH1 0xA0 SHL SUB DUP4 AND PUSH2 0x2516 JUMPI PUSH1 0x40 MLOAD PUSH3 0x6A0D45 PUSH1 0xE2 SHL DUP2 MSTORE PUSH0 PUSH1 0x4 DUP3 ADD MSTORE PUSH1 0x24 ADD PUSH2 0x8CC JUMP JUMPDEST PUSH2 0xAC2 DUP4 PUSH0 DUP5 DUP5 PUSH1 0x40 MLOAD DUP1 PUSH1 0x20 ADD PUSH1 0x40 MSTORE DUP1 PUSH0 DUP2 MSTORE POP PUSH2 0x27C0 JUMP JUMPDEST PUSH1 0x1 PUSH1 0x1 PUSH1 0xA0 SHL SUB DUP5 AND PUSH2 0x255A JUMPI PUSH1 0x40 MLOAD PUSH4 0x2BFA23E7 PUSH1 0xE1 SHL DUP2 MSTORE PUSH0 PUSH1 0x4 DUP3 ADD MSTORE PUSH1 0x24 ADD PUSH2 0x8CC JUMP JUMPDEST PUSH1 0x40 DUP1 MLOAD PUSH1 0x1 DUP1 DUP3 MSTORE PUSH1 0x20 DUP3 ADD DUP7 SWAP1 MSTORE DUP2 DUP4 ADD SWAP1 DUP2 MSTORE PUSH1 0x60 DUP3 ADD DUP6 SWAP1 MSTORE PUSH1 0x80 DUP3 ADD SWAP1 SWAP3 MSTORE SWAP1 PUSH2 0xB50 PUSH0 DUP8 DUP5 DUP5 DUP8 PUSH2 0x27C0 JUMP JUMPDEST PUSH2 0x2594 PUSH2 0x285E JUMP JUMPDEST PUSH1 0x1 DUP1 SLOAD PUSH1 0xFF NOT AND DUP2 OR SWAP1 SSTORE PUSH32 0x62E78CEA01BEE320CD4E420270B5EA74000D11B0C9F74754EBDBFC544B05A258 CALLER PUSH2 0x24D1 JUMP JUMPDEST PUSH1 0x1 PUSH1 0x1 PUSH1 0xA0 SHL SUB DUP3 AND PUSH2 0x25EF JUMPI PUSH1 0x40 MLOAD PUSH3 0xCED3E1 PUSH1 0xE8 SHL DUP2 MSTORE PUSH0 PUSH1 0x4 DUP3 ADD MSTORE PUSH1 0x24 ADD PUSH2 0x8CC JUMP JUMPDEST PUSH1 0x1 PUSH1 0x1 PUSH1 0xA0 SHL SUB DUP4 DUP2 AND PUSH0 DUP2 DUP2 MSTORE PUSH1 0x3 PUSH1 0x20 SWAP1 DUP2 MSTORE PUSH1 0x40 DUP1 DUP4 KECCAK256 SWAP5 DUP8 AND DUP1 DUP5 MSTORE SWAP5 DUP3 MSTORE SWAP2 DUP3 SWAP1 KECCAK256 DUP1 SLOAD PUSH1 0xFF NOT AND DUP7 ISZERO ISZERO SWAP1 DUP2 OR SWAP1 SWAP2 SSTORE SWAP2 MLOAD SWAP2 DUP3 MSTORE PUSH32 0x17307EAB39AB6107E8899845AD3D59BD9653F200F220920489CA2B5937696C31 SWAP2 ADD PUSH1 0x40 MLOAD DUP1 SWAP2 SUB SWAP1 LOG3 POP POP POP JUMP JUMPDEST PUSH1 0x1 PUSH1 0x1 PUSH1 0xA0 SHL SUB DUP5 AND PUSH2 0x2684 JUMPI PUSH1 0x40 MLOAD PUSH4 0x2BFA23E7 PUSH1 0xE1 SHL DUP2 MSTORE PUSH0 PUSH1 0x4 DUP3 ADD MSTORE PUSH1 0x24 ADD PUSH2 0x8CC JUMP JUMPDEST PUSH1 0x1 PUSH1 0x1 PUSH1 0xA0 SHL SUB DUP6 AND PUSH2 0x26AC JUMPI PUSH1 0x40 MLOAD PUSH3 0x6A0D45 PUSH1 0xE2 SHL DUP2 MSTORE PUSH0 PUSH1 0x4 DUP3 ADD MSTORE PUSH1 0x24 ADD PUSH2 0x8CC JUMP JUMPDEST PUSH1 0x40 DUP1 MLOAD PUSH1 0x1 DUP1 DUP3 MSTORE PUSH1 0x20 DUP3 ADD DUP7 SWAP1 MSTORE DUP2 DUP4 ADD SWAP1 DUP2 MSTORE PUSH1 0x60 DUP3 ADD DUP6 SWAP1 MSTORE PUSH1 0x80 DUP3 ADD SWAP1 SWAP3 MSTORE SWAP1 PUSH2 0x1F8F DUP8 DUP8 DUP5 DUP5 DUP8 PUSH2 0x27C0 JUMP JUMPDEST PUSH1 0x1 PUSH1 0x1 PUSH1 0xA0 SHL SUB DUP4 AND PUSH2 0x2706 JUMPI PUSH1 0x40 MLOAD PUSH3 0x6A0D45 PUSH1 0xE2 SHL DUP2 MSTORE PUSH0 PUSH1 0x4 DUP3 ADD MSTORE PUSH1 0x24 ADD PUSH2 0x8CC JUMP JUMPDEST PUSH1 0x40 DUP1 MLOAD PUSH1 0x1 DUP1 DUP3 MSTORE PUSH1 0x20 DUP3 ADD DUP6 SWAP1 MSTORE DUP2 DUP4 ADD SWAP1 DUP2 MSTORE PUSH1 0x60 DUP3 ADD DUP5 SWAP1 MSTORE PUSH1 0xA0 DUP3 ADD SWAP1 SWAP3 MSTORE PUSH0 PUSH1 0x80 DUP3 ADD DUP2 DUP2 MSTORE SWAP2 SWAP3 SWAP2 PUSH2 0xAEA SWAP2 DUP8 SWAP2 DUP6 SWAP1 DUP6 SWAP1 PUSH2 0x27C0 JUMP JUMPDEST PUSH0 PUSH1 0x1 PUSH1 0x1 PUSH1 0xE0 SHL SUB NOT DUP3 AND PUSH4 0x7965DB0B PUSH1 0xE0 SHL EQ DUP1 PUSH2 0x7C0 JUMPI POP PUSH4 0x1FFC9A7 PUSH1 0xE0 SHL PUSH1 0x1 PUSH1 0x1 PUSH1 0xE0 SHL SUB NOT DUP4 AND EQ PUSH2 0x7C0 JUMP JUMPDEST PUSH2 0x2782 DUP3 DUP3 PUSH2 0x12A7 JUMP JUMPDEST PUSH2 0x125E JUMPI PUSH1 0x40 MLOAD PUSH4 0xE2517D3F PUSH1 0xE0 SHL DUP2 MSTORE PUSH1 0x1 PUSH1 0x1 PUSH1 0xA0 SHL SUB DUP3 AND PUSH1 0x4 DUP3 ADD MSTORE PUSH1 0x24 DUP2 ADD DUP4 SWAP1 MSTORE PUSH1 0x44 ADD PUSH2 0x8CC JUMP JUMPDEST PUSH1 0x60 PUSH1 0x4 DUP1 SLOAD PUSH2 0x16F3 SWAP1 PUSH2 0x39AF JUMP JUMPDEST PUSH2 0x27CC DUP6 DUP6 DUP6 DUP6 PUSH2 0x28A4 JUMP JUMPDEST PUSH1 0x1 PUSH1 0x1 PUSH1 0xA0 SHL SUB DUP5 AND ISZERO PUSH2 0xAEA JUMPI DUP3 MLOAD CALLER SWAP1 PUSH1 0x1 SUB PUSH2 0x2805 JUMPI PUSH1 0x20 DUP5 DUP2 ADD MLOAD SWAP1 DUP5 ADD MLOAD PUSH2 0x27FE DUP4 DUP10 DUP10 DUP6 DUP6 DUP10 PUSH2 0x28B8 JUMP JUMPDEST POP POP PUSH2 0xB50 JUMP JUMPDEST PUSH2 0xB50 DUP2 DUP8 DUP8 DUP8 DUP8 DUP8 PUSH2 0x29D9 JUMP JUMPDEST PUSH1 0x1 SLOAD PUSH1 0xFF AND PUSH2 0x285C JUMPI PUSH1 0x40 MLOAD PUSH3 0x461BCD PUSH1 0xE5 SHL DUP2 MSTORE PUSH1 0x20 PUSH1 0x4 DUP3 ADD MSTORE PUSH1 0x14 PUSH1 0x24 DUP3 ADD MSTORE PUSH20 0x14185D5CD8589B194E881B9BDD081C185D5CD959 PUSH1 0x62 SHL PUSH1 0x44 DUP3 ADD MSTORE PUSH1 0x64 ADD PUSH2 0x8CC JUMP JUMPDEST JUMP JUMPDEST PUSH1 0x1 SLOAD PUSH1 0xFF AND ISZERO PUSH2 0x285C JUMPI PUSH1 0x40 MLOAD PUSH3 0x461BCD PUSH1 0xE5 SHL DUP2 MSTORE PUSH1 0x20 PUSH1 0x4 DUP3 ADD MSTORE PUSH1 0x10 PUSH1 0x24 DUP3 ADD MSTORE PUSH16 0x14185D5CD8589B194E881C185D5CD959 PUSH1 0x82 SHL PUSH1 0x44 DUP3 ADD MSTORE PUSH1 0x64 ADD PUSH2 0x8CC JUMP JUMPDEST PUSH2 0x28AC PUSH2 0x285E JUMP JUMPDEST PUSH2 0xB7C DUP5 DUP5 DUP5 DUP5 PUSH2 0x2AC0 JUMP JUMPDEST PUSH1 0x1 PUSH1 0x1 PUSH1 0xA0 SHL SUB DUP5 AND EXTCODESIZE ISZERO PUSH2 0xB50 JUMPI PUSH1 0x40 MLOAD PUSH4 0xF23A6E61 PUSH1 0xE0 SHL DUP2 MSTORE PUSH1 0x1 PUSH1 0x1 PUSH1 0xA0 SHL SUB DUP6 AND SWAP1 PUSH4 0xF23A6E61 SWAP1 PUSH2 0x28FC SWAP1 DUP10 SWAP1 DUP10 SWAP1 DUP9 SWAP1 DUP9 SWAP1 DUP9 SWAP1 PUSH1 0x4 ADD PUSH2 0x3EA3 JUMP JUMPDEST PUSH1 0x20 PUSH1 0x40 MLOAD DUP1 DUP4 SUB DUP2 PUSH0 DUP8 GAS CALL SWAP3 POP POP POP DUP1 ISZERO PUSH2 0x2936 JUMPI POP PUSH1 0x40 DUP1 MLOAD PUSH1 0x1F RETURNDATASIZE SWAP1 DUP2 ADD PUSH1 0x1F NOT AND DUP3 ADD SWAP1 SWAP3 MSTORE PUSH2 0x2933 SWAP2 DUP2 ADD SWAP1 PUSH2 0x3EE7 JUMP JUMPDEST PUSH1 0x1 JUMPDEST PUSH2 0x299D JUMPI RETURNDATASIZE DUP1 DUP1 ISZERO PUSH2 0x2963 JUMPI PUSH1 0x40 MLOAD SWAP2 POP PUSH1 0x1F NOT PUSH1 0x3F RETURNDATASIZE ADD AND DUP3 ADD PUSH1 0x40 MSTORE RETURNDATASIZE DUP3 MSTORE RETURNDATASIZE PUSH0 PUSH1 0x20 DUP5 ADD RETURNDATACOPY PUSH2 0x2968 JUMP JUMPDEST PUSH1 0x60 SWAP2 POP JUMPDEST POP DUP1 MLOAD PUSH0 SUB PUSH2 0x2995 JUMPI PUSH1 0x40 MLOAD PUSH4 0x2BFA23E7 PUSH1 0xE1 SHL DUP2 MSTORE PUSH1 0x1 PUSH1 0x1 PUSH1 0xA0 SHL SUB DUP7 AND PUSH1 0x4 DUP3 ADD MSTORE PUSH1 0x24 ADD PUSH2 0x8CC JUMP JUMPDEST DUP1 MLOAD PUSH1 0x20 DUP3 ADD REVERT JUMPDEST PUSH1 0x1 PUSH1 0x1 PUSH1 0xE0 SHL SUB NOT DUP2 AND PUSH4 0xF23A6E61 PUSH1 0xE0 SHL EQ PUSH2 0x1F8F JUMPI PUSH1 0x40 MLOAD PUSH4 0x2BFA23E7 PUSH1 0xE1 SHL DUP2 MSTORE PUSH1 0x1 PUSH1 0x1 PUSH1 0xA0 SHL SUB DUP7 AND PUSH1 0x4 DUP3 ADD MSTORE PUSH1 0x24 ADD PUSH2 0x8CC JUMP JUMPDEST PUSH1 0x1 PUSH1 0x1 PUSH1 0xA0 SHL SUB DUP5 AND EXTCODESIZE ISZERO PUSH2 0xB50 JUMPI PUSH1 0x40 MLOAD PUSH4 0xBC197C81 PUSH1 0xE0 SHL DUP2 MSTORE PUSH1 0x1 PUSH1 0x1 PUSH1 0xA0 SHL SUB DUP6 AND SWAP1 PUSH4 0xBC197C81 SWAP1 PUSH2 0x2A1D SWAP1 DUP10 SWAP1 DUP10 SWAP1 DUP9 SWAP1 DUP9 SWAP1 DUP9 SWAP1 PUSH1 0x4 ADD PUSH2 0x3F02 JUMP JUMPDEST PUSH1 0x20 PUSH1 0x40 MLOAD DUP1 DUP4 SUB DUP2 PUSH0 DUP8 GAS CALL SWAP3 POP POP POP DUP1 ISZERO PUSH2 0x2A57 JUMPI POP PUSH1 0x40 DUP1 MLOAD PUSH1 0x1F RETURNDATASIZE SWAP1 DUP2 ADD PUSH1 0x1F NOT AND DUP3 ADD SWAP1 SWAP3 MSTORE PUSH2 0x2A54 SWAP2 DUP2 ADD SWAP1 PUSH2 0x3EE7 JUMP JUMPDEST PUSH1 0x1 JUMPDEST PUSH2 0x2A84 JUMPI RETURNDATASIZE DUP1 DUP1 ISZERO PUSH2 0x2963 JUMPI PUSH1 0x40 MLOAD SWAP2 POP PUSH1 0x1F NOT PUSH1 0x3F RETURNDATASIZE ADD AND DUP3 ADD PUSH1 0x40 MSTORE RETURNDATASIZE DUP3 MSTORE RETURNDATASIZE PUSH0 PUSH1 0x20 DUP5 ADD RETURNDATACOPY PUSH2 0x2968 JUMP JUMPDEST PUSH1 0x1 PUSH1 0x1 PUSH1 0xE0 SHL SUB NOT DUP2 AND PUSH4 0xBC197C81 PUSH1 0xE0 SHL EQ PUSH2 0x1F8F JUMPI PUSH1 0x40 MLOAD PUSH4 0x2BFA23E7 PUSH1 0xE1 SHL DUP2 MSTORE PUSH1 0x1 PUSH1 0x1 PUSH1 0xA0 SHL SUB DUP7 AND PUSH1 0x4 DUP3 ADD MSTORE PUSH1 0x24 ADD PUSH2 0x8CC JUMP JUMPDEST PUSH2 0x2ACC DUP5 DUP5 DUP5 DUP5 PUSH2 0x2BA7 JUMP JUMPDEST PUSH1 0x1 PUSH1 0x1 PUSH1 0xA0 SHL SUB DUP5 AND PUSH2 0x2B49 JUMPI PUSH0 DUP1 JUMPDEST DUP4 MLOAD DUP2 LT ISZERO PUSH2 0x2B30 JUMPI PUSH1 0x20 DUP2 DUP2 MUL DUP5 DUP2 ADD DUP3 ADD MLOAD SWAP1 DUP7 ADD DUP3 ADD MLOAD PUSH0 SWAP1 DUP2 MSTORE PUSH1 0x7 SWAP1 SWAP3 MSTORE PUSH1 0x40 DUP3 KECCAK256 DUP1 SLOAD SWAP2 SWAP3 DUP4 SWAP3 PUSH2 0x2B15 SWAP1 DUP5 SWAP1 PUSH2 0x3F5F JUMP JUMPDEST SWAP1 SWAP2 SSTORE POP PUSH2 0x2B25 SWAP1 POP DUP2 DUP5 PUSH2 0x3F5F JUMP JUMPDEST SWAP3 POP POP PUSH1 0x1 ADD PUSH2 0x2ADD JUMP JUMPDEST POP DUP1 PUSH1 0x8 PUSH0 DUP3 DUP3 SLOAD PUSH2 0x2B42 SWAP2 SWAP1 PUSH2 0x3F5F JUMP JUMPDEST SWAP1 SWAP2 SSTORE POP POP POP JUMPDEST PUSH1 0x1 PUSH1 0x1 PUSH1 0xA0 SHL SUB DUP4 AND PUSH2 0xB7C JUMPI PUSH0 DUP1 JUMPDEST DUP4 MLOAD DUP2 LT ISZERO PUSH2 0x2B96 JUMPI PUSH1 0x20 DUP2 DUP2 MUL DUP5 DUP2 ADD DUP3 ADD MLOAD SWAP1 DUP7 ADD DUP3 ADD MLOAD PUSH0 SWAP1 DUP2 MSTORE PUSH1 0x7 SWAP1 SWAP3 MSTORE PUSH1 0x40 SWAP1 SWAP2 KECCAK256 DUP1 SLOAD DUP3 SWAP1 SUB SWAP1 SSTORE SWAP2 SWAP1 SWAP2 ADD SWAP1 PUSH1 0x1 ADD PUSH2 0x2B5A JUMP JUMPDEST POP PUSH1 0x8 DUP1 SLOAD SWAP2 SWAP1 SWAP2 SUB SWAP1 SSTORE POP POP POP POP JUMP JUMPDEST DUP1 MLOAD DUP3 MLOAD EQ PUSH2 0x2BD6 JUMPI DUP2 MLOAD DUP2 MLOAD PUSH1 0x40 MLOAD PUSH4 0x5B059991 PUSH1 0xE0 SHL DUP2 MSTORE PUSH1 0x4 DUP2 ADD SWAP3 SWAP1 SWAP3 MSTORE PUSH1 0x24 DUP3 ADD MSTORE PUSH1 0x44 ADD PUSH2 0x8CC JUMP JUMPDEST CALLER PUSH0 JUMPDEST DUP4 MLOAD DUP2 LT ISZERO PUSH2 0x2CDE JUMPI PUSH1 0x20 DUP2 DUP2 MUL DUP6 DUP2 ADD DUP3 ADD MLOAD SWAP1 DUP6 ADD SWAP1 SWAP2 ADD MLOAD PUSH1 0x1 PUSH1 0x1 PUSH1 0xA0 SHL SUB DUP9 AND ISZERO PUSH2 0x2C8E JUMPI PUSH0 DUP3 DUP2 MSTORE PUSH1 0x2 PUSH1 0x20 SWAP1 DUP2 MSTORE PUSH1 0x40 DUP1 DUP4 KECCAK256 PUSH1 0x1 PUSH1 0x1 PUSH1 0xA0 SHL SUB DUP13 AND DUP5 MSTORE SWAP1 SWAP2 MSTORE SWAP1 KECCAK256 SLOAD DUP2 DUP2 LT ISZERO PUSH2 0x2C66 JUMPI PUSH1 0x40 MLOAD PUSH4 0x3DEE4C5 PUSH1 0xE0 SHL DUP2 MSTORE PUSH1 0x1 PUSH1 0x1 PUSH1 0xA0 SHL SUB DUP11 AND PUSH1 0x4 DUP3 ADD MSTORE PUSH1 0x24 DUP2 ADD DUP3 SWAP1 MSTORE PUSH1 0x44 DUP2 ADD DUP4 SWAP1 MSTORE PUSH1 0x64 DUP2 ADD DUP5 SWAP1 MSTORE PUSH1 0x84 ADD PUSH2 0x8CC JUMP JUMPDEST PUSH0 DUP4 DUP2 MSTORE PUSH1 0x2 PUSH1 0x20 SWAP1 DUP2 MSTORE PUSH1 0x40 DUP1 DUP4 KECCAK256 PUSH1 0x1 PUSH1 0x1 PUSH1 0xA0 SHL SUB DUP14 AND DUP5 MSTORE SWAP1 SWAP2 MSTORE SWAP1 KECCAK256 SWAP1 DUP3 SWAP1 SUB SWAP1 SSTORE JUMPDEST PUSH1 0x1 PUSH1 0x1 PUSH1 0xA0 SHL SUB DUP8 AND ISZERO PUSH2 0x2CD4 JUMPI PUSH0 DUP3 DUP2 MSTORE PUSH1 0x2 PUSH1 0x20 SWAP1 DUP2 MSTORE PUSH1 0x40 DUP1 DUP4 KECCAK256 PUSH1 0x1 PUSH1 0x1 PUSH1 0xA0 SHL SUB DUP12 AND DUP5 MSTORE SWAP1 SWAP2 MSTORE DUP2 KECCAK256 DUP1 SLOAD DUP4 SWAP3 SWAP1 PUSH2 0x2CCE SWAP1 DUP5 SWAP1 PUSH2 0x3F5F JUMP JUMPDEST SWAP1 SWAP2 SSTORE POP POP JUMPDEST POP POP PUSH1 0x1 ADD PUSH2 0x2BD9 JUMP JUMPDEST POP DUP3 MLOAD PUSH1 0x1 SUB PUSH2 0x2D5E JUMPI PUSH1 0x20 DUP4 ADD MLOAD PUSH0 SWAP1 PUSH1 0x20 DUP5 ADD MLOAD SWAP1 SWAP2 POP DUP6 PUSH1 0x1 PUSH1 0x1 PUSH1 0xA0 SHL SUB AND DUP8 PUSH1 0x1 PUSH1 0x1 PUSH1 0xA0 SHL SUB AND DUP5 PUSH1 0x1 PUSH1 0x1 PUSH1 0xA0 SHL SUB AND PUSH32 0xC3D58168C5AE7397731D063D5BBF3D657854427343F4C083240F7AACAA2D0F62 DUP6 DUP6 PUSH1 0x40 MLOAD PUSH2 0x2D4F SWAP3 SWAP2 SWAP1 SWAP2 DUP3 MSTORE PUSH1 0x20 DUP3 ADD MSTORE PUSH1 0x40 ADD SWAP1 JUMP JUMPDEST PUSH1 0x40 MLOAD DUP1 SWAP2 SUB SWAP1 LOG4 POP POP PUSH2 0xAEA JUMP JUMPDEST DUP4 PUSH1 0x1 PUSH1 0x1 PUSH1 0xA0 SHL SUB AND DUP6 PUSH1 0x1 PUSH1 0x1 PUSH1 0xA0 SHL SUB AND DUP3 PUSH1 0x1 PUSH1 0x1 PUSH1 0xA0 SHL SUB AND PUSH32 0x4A39DC06D4C0DBC64B70AF90FD698A233A518AA5D07E595D983B8C0526C8F7FB DUP7 DUP7 PUSH1 0x40 MLOAD PUSH2 0x2DAD SWAP3 SWAP2 SWAP1 PUSH2 0x3F72 JUMP JUMPDEST PUSH1 0x40 MLOAD DUP1 SWAP2 SUB SWAP1 LOG4 POP POP POP POP POP JUMP JUMPDEST POP DUP1 SLOAD PUSH2 0x2DC8 SWAP1 PUSH2 0x39AF JUMP JUMPDEST PUSH0 DUP3 SSTORE DUP1 PUSH1 0x1F LT PUSH2 0x2DD7 JUMPI POP POP JUMP JUMPDEST PUSH1 0x1F ADD PUSH1 0x20 SWAP1 DIV SWAP1 PUSH0 MSTORE PUSH1 0x20 PUSH0 KECCAK256 SWAP1 DUP2 ADD SWAP1 PUSH2 0xD11 SWAP2 SWAP1 PUSH2 0x2E31 JUMP JUMPDEST PUSH1 0x40 MLOAD DUP1 PUSH1 0x80 ADD PUSH1 0x40 MSTORE DUP1 PUSH0 DUP2 MSTORE PUSH1 0x20 ADD PUSH0 DUP2 MSTORE PUSH1 0x20 ADD PUSH1 0x60 DUP2 MSTORE PUSH1 0x20 ADD PUSH2 0x2E2C PUSH1 0x40 MLOAD DUP1 PUSH1 0x40 ADD PUSH1 0x40 MSTORE DUP1 PUSH0 DUP2 MSTORE PUSH1 0x20 ADD PUSH0 DUP2 MSTORE POP SWAP1 JUMP JUMPDEST SWAP1 MSTORE SWAP1 JUMP JUMPDEST JUMPDEST DUP1 DUP3 GT ISZERO PUSH2 0x2E45 JUMPI PUSH0 DUP2 SSTORE PUSH1 0x1 ADD PUSH2 0x2E32 JUMP JUMPDEST POP SWAP1 JUMP JUMPDEST DUP1 CALLDATALOAD PUSH1 0x1 PUSH1 0x1 PUSH1 0xA0 SHL SUB DUP2 AND DUP2 EQ PUSH2 0x2E5F JUMPI PUSH0 PUSH0 REVERT JUMPDEST SWAP2 SWAP1 POP JUMP JUMPDEST PUSH0 PUSH0 PUSH1 0x40 DUP4 DUP6 SUB SLT ISZERO PUSH2 0x2E75 JUMPI PUSH0 PUSH0 REVERT JUMPDEST PUSH2 0x2E7E DUP4 PUSH2 0x2E49 JUMP JUMPDEST SWAP5 PUSH1 0x20 SWAP4 SWAP1 SWAP4 ADD CALLDATALOAD SWAP4 POP POP POP JUMP JUMPDEST PUSH1 0x1 PUSH1 0x1 PUSH1 0xE0 SHL SUB NOT DUP2 AND DUP2 EQ PUSH2 0xD11 JUMPI PUSH0 PUSH0 REVERT JUMPDEST PUSH0 PUSH1 0x20 DUP3 DUP5 SUB SLT ISZERO PUSH2 0x2EB1 JUMPI PUSH0 PUSH0 REVERT JUMPDEST DUP2 CALLDATALOAD PUSH2 0x22B9 DUP2 PUSH2 0x2E8C JUMP JUMPDEST PUSH4 0x4E487B71 PUSH1 0xE0 SHL PUSH0 MSTORE PUSH1 0x41 PUSH1 0x4 MSTORE PUSH1 0x24 PUSH0 REVERT JUMPDEST PUSH1 0x40 MLOAD PUSH1 0x1F DUP3 ADD PUSH1 0x1F NOT AND DUP2 ADD PUSH1 0x1 PUSH1 0x1 PUSH1 0x40 SHL SUB DUP2 GT DUP3 DUP3 LT OR ISZERO PUSH2 0x2EF8 JUMPI PUSH2 0x2EF8 PUSH2 0x2EBC JUMP JUMPDEST PUSH1 0x40 MSTORE SWAP2 SWAP1 POP JUMP JUMPDEST PUSH0 DUP3 PUSH1 0x1F DUP4 ADD SLT PUSH2 0x2F0F JUMPI PUSH0 PUSH0 REVERT JUMPDEST DUP2 CALLDATALOAD PUSH1 0x20 DUP4 ADD PUSH0 PUSH0 PUSH1 0x1 PUSH1 0x1 PUSH1 0x40 SHL SUB DUP5 GT ISZERO PUSH2 0x2F2E JUMPI PUSH2 0x2F2E PUSH2 0x2EBC JUMP JUMPDEST POP PUSH1 0x1F DUP4 ADD PUSH1 0x1F NOT AND PUSH1 0x20 ADD PUSH2 0x2F43 DUP2 PUSH2 0x2ED0 JUMP JUMPDEST SWAP2 POP POP DUP3 DUP2 MSTORE DUP6 DUP4 DUP4 ADD GT ISZERO PUSH2 0x2F57 JUMPI PUSH0 PUSH0 REVERT JUMPDEST DUP3 DUP3 PUSH1 0x20 DUP4 ADD CALLDATACOPY PUSH0 SWAP3 DUP2 ADD PUSH1 0x20 ADD SWAP3 SWAP1 SWAP3 MSTORE POP SWAP4 SWAP3 POP POP POP JUMP JUMPDEST PUSH0 PUSH1 0x20 DUP3 DUP5 SUB SLT ISZERO PUSH2 0x2F81 JUMPI PUSH0 PUSH0 REVERT JUMPDEST DUP2 CALLDATALOAD PUSH1 0x1 PUSH1 0x1 PUSH1 0x40 SHL SUB DUP2 GT ISZERO PUSH2 0x2F96 JUMPI PUSH0 PUSH0 REVERT JUMPDEST PUSH2 0x2FA2 DUP5 DUP3 DUP6 ADD PUSH2 0x2F00 JUMP JUMPDEST SWAP5 SWAP4 POP POP POP POP JUMP JUMPDEST PUSH0 DUP2 MLOAD DUP1 DUP5 MSTORE DUP1 PUSH1 0x20 DUP5 ADD PUSH1 0x20 DUP7 ADD MCOPY PUSH0 PUSH1 0x20 DUP3 DUP7 ADD ADD MSTORE PUSH1 0x20 PUSH1 0x1F NOT PUSH1 0x1F DUP4 ADD AND DUP6 ADD ADD SWAP2 POP POP SWAP3 SWAP2 POP POP JUMP JUMPDEST PUSH1 0x20 DUP2 MSTORE PUSH0 PUSH2 0x22B9 PUSH1 0x20 DUP4 ADD DUP5 PUSH2 0x2FAA JUMP JUMPDEST PUSH0 PUSH1 0x20 DUP3 DUP5 SUB SLT ISZERO PUSH2 0x2FFA JUMPI PUSH0 PUSH0 REVERT JUMPDEST POP CALLDATALOAD SWAP2 SWAP1 POP JUMP JUMPDEST PUSH0 PUSH0 PUSH1 0x40 DUP4 DUP6 SUB SLT ISZERO PUSH2 0x3012 JUMPI PUSH0 PUSH0 REVERT JUMPDEST DUP3 CALLDATALOAD SWAP2 POP PUSH1 0x20 DUP4 ADD CALLDATALOAD PUSH1 0x1 PUSH1 0x1 PUSH1 0x40 SHL SUB DUP2 GT ISZERO PUSH2 0x302E JUMPI PUSH0 PUSH0 REVERT JUMPDEST PUSH2 0x303A DUP6 DUP3 DUP7 ADD PUSH2 0x2F00 JUMP JUMPDEST SWAP2 POP POP SWAP3 POP SWAP3 SWAP1 POP JUMP JUMPDEST PUSH0 PUSH1 0x1 PUSH1 0x1 PUSH1 0x40 SHL SUB DUP3 GT ISZERO PUSH2 0x305C JUMPI PUSH2 0x305C PUSH2 0x2EBC JUMP JUMPDEST POP PUSH1 0x5 SHL PUSH1 0x20 ADD SWAP1 JUMP JUMPDEST PUSH0 DUP3 PUSH1 0x1F DUP4 ADD SLT PUSH2 0x3075 JUMPI PUSH0 PUSH0 REVERT JUMPDEST DUP2 CALLDATALOAD PUSH2 0x3088 PUSH2 0x3083 DUP3 PUSH2 0x3044 JUMP JUMPDEST PUSH2 0x2ED0 JUMP JUMPDEST DUP1 DUP3 DUP3 MSTORE PUSH1 0x20 DUP3 ADD SWAP2 POP PUSH1 0x20 DUP4 PUSH1 0x5 SHL DUP7 ADD ADD SWAP3 POP DUP6 DUP4 GT ISZERO PUSH2 0x30A9 JUMPI PUSH0 PUSH0 REVERT JUMPDEST PUSH1 0x20 DUP6 ADD JUMPDEST DUP4 DUP2 LT ISZERO PUSH2 0x30C6 JUMPI DUP1 CALLDATALOAD DUP4 MSTORE PUSH1 0x20 SWAP3 DUP4 ADD SWAP3 ADD PUSH2 0x30AE JUMP JUMPDEST POP SWAP6 SWAP5 POP POP POP POP POP JUMP JUMPDEST PUSH0 PUSH0 PUSH0 PUSH0 PUSH1 0x80 DUP6 DUP8 SUB SLT ISZERO PUSH2 0x30E3 JUMPI PUSH0 PUSH0 REVERT JUMPDEST PUSH2 0x30EC DUP6 PUSH2 0x2E49 JUMP JUMPDEST SWAP4 POP PUSH1 0x20 DUP6 ADD CALLDATALOAD PUSH1 0x1 PUSH1 0x1 PUSH1 0x40 SHL SUB DUP2 GT ISZERO PUSH2 0x3106 JUMPI PUSH0 PUSH0 REVERT JUMPDEST PUSH2 0x3112 DUP8 DUP3 DUP9 ADD PUSH2 0x3066 JUMP JUMPDEST SWAP4 POP POP PUSH1 0x40 DUP6 ADD CALLDATALOAD PUSH1 0x1 PUSH1 0x1 PUSH1 0x40 SHL SUB DUP2 GT ISZERO PUSH2 0x312D JUMPI PUSH0 PUSH0 REVERT JUMPDEST PUSH2 0x3139 DUP8 DUP3 DUP9 ADD PUSH2 0x3066 JUMP JUMPDEST SWAP3 POP POP PUSH1 0x60 DUP6 ADD CALLDATALOAD PUSH1 0x1 PUSH1 0x1 PUSH1 0x40 SHL SUB DUP2 GT ISZERO PUSH2 0x3154 JUMPI PUSH0 PUSH0 REVERT JUMPDEST PUSH2 0x3160 DUP8 DUP3 DUP9 ADD PUSH2 0x2F00 JUMP JUMPDEST SWAP2 POP POP SWAP3 SWAP6 SWAP2 SWAP5 POP SWAP3 POP JUMP JUMPDEST PUSH0 PUSH0 PUSH0 PUSH0 PUSH0 PUSH1 0xA0 DUP7 DUP9 SUB SLT ISZERO PUSH2 0x3180 JUMPI PUSH0 PUSH0 REVERT JUMPDEST PUSH2 0x3189 DUP7 PUSH2 0x2E49 JUMP JUMPDEST SWAP5 POP PUSH2 0x3197 PUSH1 0x20 DUP8 ADD PUSH2 0x2E49 JUMP JUMPDEST SWAP4 POP PUSH1 0x40 DUP7 ADD CALLDATALOAD PUSH1 0x1 PUSH1 0x1 PUSH1 0x40 SHL SUB DUP2 GT ISZERO PUSH2 0x31B1 JUMPI PUSH0 PUSH0 REVERT JUMPDEST PUSH2 0x31BD DUP9 DUP3 DUP10 ADD PUSH2 0x3066 JUMP JUMPDEST SWAP4 POP POP PUSH1 0x60 DUP7 ADD CALLDATALOAD PUSH1 0x1 PUSH1 0x1 PUSH1 0x40 SHL SUB DUP2 GT ISZERO PUSH2 0x31D8 JUMPI PUSH0 PUSH0 REVERT JUMPDEST PUSH2 0x31E4 DUP9 DUP3 DUP10 ADD PUSH2 0x3066 JUMP JUMPDEST SWAP3 POP POP PUSH1 0x80 DUP7 ADD CALLDATALOAD PUSH1 0x1 PUSH1 0x1 PUSH1 0x40 SHL SUB DUP2 GT ISZERO PUSH2 0x31FF JUMPI PUSH0 PUSH0 REVERT JUMPDEST PUSH2 0x320B DUP9 DUP3 DUP10 ADD PUSH2 0x2F00 JUMP JUMPDEST SWAP2 POP POP SWAP3 SWAP6 POP SWAP3 SWAP6 SWAP1 SWAP4 POP JUMP JUMPDEST PUSH0 PUSH0 PUSH1 0x40 DUP4 DUP6 SUB SLT ISZERO PUSH2 0x3229 JUMPI PUSH0 PUSH0 REVERT JUMPDEST DUP3 CALLDATALOAD SWAP2 POP PUSH2 0x3239 PUSH1 0x20 DUP5 ADD PUSH2 0x2E49 JUMP JUMPDEST SWAP1 POP SWAP3 POP SWAP3 SWAP1 POP JUMP JUMPDEST PUSH0 PUSH0 PUSH0 PUSH1 0x60 DUP5 DUP7 SUB SLT ISZERO PUSH2 0x3254 JUMPI PUSH0 PUSH0 REVERT JUMPDEST PUSH2 0x325D DUP5 PUSH2 0x2E49 JUMP JUMPDEST SWAP3 POP PUSH1 0x20 DUP5 ADD CALLDATALOAD PUSH1 0x1 PUSH1 0x1 PUSH1 0x40 SHL SUB DUP2 GT ISZERO PUSH2 0x3277 JUMPI PUSH0 PUSH0 REVERT JUMPDEST PUSH2 0x3283 DUP7 DUP3 DUP8 ADD PUSH2 0x2F00 JUMP JUMPDEST SWAP4 SWAP7 SWAP4 SWAP6 POP POP POP POP PUSH1 0x40 SWAP2 SWAP1 SWAP2 ADD CALLDATALOAD SWAP1 JUMP JUMPDEST PUSH0 PUSH0 PUSH1 0x40 DUP4 DUP6 SUB SLT ISZERO PUSH2 0x32A6 JUMPI PUSH0 PUSH0 REVERT JUMPDEST DUP3 CALLDATALOAD PUSH1 0x1 PUSH1 0x1 PUSH1 0x40 SHL SUB DUP2 GT ISZERO PUSH2 0x32BB JUMPI PUSH0 PUSH0 REVERT JUMPDEST DUP4 ADD PUSH1 0x1F DUP2 ADD DUP6 SGT PUSH2 0x32CB JUMPI PUSH0 PUSH0 REVERT JUMPDEST DUP1 CALLDATALOAD PUSH2 0x32D9 PUSH2 0x3083 DUP3 PUSH2 0x3044 JUMP JUMPDEST DUP1 DUP3 DUP3 MSTORE PUSH1 0x20 DUP3 ADD SWAP2 POP PUSH1 0x20 DUP4 PUSH1 0x5 SHL DUP6 ADD ADD SWAP3 POP DUP8 DUP4 GT ISZERO PUSH2 0x32FA JUMPI PUSH0 PUSH0 REVERT JUMPDEST PUSH1 0x20 DUP5 ADD SWAP4 POP JUMPDEST DUP3 DUP5 LT ISZERO PUSH2 0x3323 JUMPI PUSH2 0x3312 DUP5 PUSH2 0x2E49 JUMP JUMPDEST DUP3 MSTORE PUSH1 0x20 SWAP4 DUP5 ADD SWAP4 SWAP1 SWAP2 ADD SWAP1 PUSH2 0x3301 JUMP JUMPDEST SWAP5 POP POP POP POP PUSH1 0x20 DUP4 ADD CALLDATALOAD PUSH1 0x1 PUSH1 0x1 PUSH1 0x40 SHL SUB DUP2 GT ISZERO PUSH2 0x3340 JUMPI PUSH0 PUSH0 REVERT JUMPDEST PUSH2 0x303A DUP6 DUP3 DUP7 ADD PUSH2 0x3066 JUMP JUMPDEST PUSH0 DUP2 MLOAD DUP1 DUP5 MSTORE PUSH1 0x20 DUP5 ADD SWAP4 POP PUSH1 0x20 DUP4 ADD PUSH0 JUMPDEST DUP3 DUP2 LT ISZERO PUSH2 0x337C JUMPI DUP2 MLOAD DUP7 MSTORE PUSH1 0x20 SWAP6 DUP7 ADD SWAP6 SWAP1 SWAP2 ADD SWAP1 PUSH1 0x1 ADD PUSH2 0x335E JUMP JUMPDEST POP SWAP4 SWAP5 SWAP4 POP POP POP POP JUMP JUMPDEST PUSH1 0x20 DUP2 MSTORE PUSH0 PUSH2 0x22B9 PUSH1 0x20 DUP4 ADD DUP5 PUSH2 0x334C JUMP JUMPDEST DUP1 MLOAD DUP3 MSTORE PUSH0 PUSH1 0x20 DUP3 ADD MLOAD PUSH1 0x40 PUSH1 0x20 DUP6 ADD MSTORE PUSH2 0x2FA2 PUSH1 0x40 DUP6 ADD DUP3 PUSH2 0x2FAA JUMP JUMPDEST PUSH1 0x20 DUP2 MSTORE PUSH0 PUSH2 0x22B9 PUSH1 0x20 DUP4 ADD DUP5 PUSH2 0x3398 JUMP JUMPDEST PUSH0 PUSH1 0x20 DUP3 ADD PUSH1 0x20 DUP4 MSTORE DUP1 DUP5 MLOAD DUP1 DUP4 MSTORE PUSH1 0x40 DUP6 ADD SWAP2 POP PUSH1 0x40 DUP2 PUSH1 0x5 SHL DUP7 ADD ADD SWAP3 POP PUSH1 0x20 DUP7 ADD PUSH0 JUMPDEST DUP3 DUP2 LT ISZERO PUSH2 0x341F JUMPI PUSH1 0x3F NOT DUP8 DUP7 SUB ADD DUP5 MSTORE PUSH2 0x340A DUP6 DUP4 MLOAD PUSH2 0x3398 JUMP JUMPDEST SWAP5 POP PUSH1 0x20 SWAP4 DUP5 ADD SWAP4 SWAP2 SWAP1 SWAP2 ADD SWAP1 PUSH1 0x1 ADD PUSH2 0x33EE JUMP JUMPDEST POP SWAP3 SWAP7 SWAP6 POP POP POP POP POP POP JUMP JUMPDEST PUSH0 PUSH0 PUSH0 PUSH1 0x60 DUP5 DUP7 SUB SLT ISZERO PUSH2 0x343D JUMPI PUSH0 PUSH0 REVERT JUMPDEST PUSH2 0x3446 DUP5 PUSH2 0x2E49 JUMP JUMPDEST SWAP3 POP PUSH1 0x20 DUP5 ADD CALLDATALOAD PUSH1 0x1 PUSH1 0x1 PUSH1 0x40 SHL SUB DUP2 GT ISZERO PUSH2 0x3460 JUMPI PUSH0 PUSH0 REVERT JUMPDEST PUSH2 0x346C DUP7 DUP3 DUP8 ADD PUSH2 0x3066 JUMP JUMPDEST SWAP3 POP POP PUSH1 0x40 DUP5 ADD CALLDATALOAD PUSH1 0x1 PUSH1 0x1 PUSH1 0x40 SHL SUB DUP2 GT ISZERO PUSH2 0x3487 JUMPI PUSH0 PUSH0 REVERT JUMPDEST PUSH2 0x3493 DUP7 DUP3 DUP8 ADD PUSH2 0x3066 JUMP JUMPDEST SWAP2 POP POP SWAP3 POP SWAP3 POP SWAP3 JUMP JUMPDEST PUSH0 PUSH0 PUSH0 PUSH0 PUSH1 0x80 DUP6 DUP8 SUB SLT ISZERO PUSH2 0x34B0 JUMPI PUSH0 PUSH0 REVERT JUMPDEST PUSH2 0x34B9 DUP6 PUSH2 0x2E49 JUMP JUMPDEST SWAP4 POP PUSH1 0x20 DUP6 ADD CALLDATALOAD SWAP3 POP PUSH1 0x40 DUP6 ADD CALLDATALOAD SWAP2 POP PUSH1 0x60 DUP6 ADD CALLDATALOAD PUSH1 0x1 PUSH1 0x1 PUSH1 0x40 SHL SUB DUP2 GT ISZERO PUSH2 0x3154 JUMPI PUSH0 PUSH0 REVERT JUMPDEST DUP1 ISZERO ISZERO DUP2 EQ PUSH2 0xD11 JUMPI PUSH0 PUSH0 REVERT JUMPDEST PUSH0 PUSH0 PUSH1 0x40 DUP4 DUP6 SUB SLT ISZERO PUSH2 0x34FF JUMPI PUSH0 PUSH0 REVERT JUMPDEST PUSH2 0x3508 DUP4 PUSH2 0x2E49 JUMP JUMPDEST SWAP2 POP PUSH1 0x20 DUP4 ADD CALLDATALOAD PUSH2 0x3518 DUP2 PUSH2 0x34E1 JUMP JUMPDEST DUP1 SWAP2 POP POP SWAP3 POP SWAP3 SWAP1 POP JUMP JUMPDEST PUSH0 PUSH1 0x20 DUP3 ADD PUSH1 0x20 DUP4 MSTORE DUP1 DUP5 MLOAD DUP1 DUP4 MSTORE PUSH1 0x40 DUP6 ADD SWAP2 POP PUSH1 0x40 DUP2 PUSH1 0x5 SHL DUP7 ADD ADD SWAP3 POP PUSH1 0x20 DUP7 ADD PUSH0 JUMPDEST DUP3 DUP2 LT ISZERO PUSH2 0x341F JUMPI PUSH1 0x3F NOT DUP8 DUP7 SUB ADD DUP5 MSTORE DUP2 MLOAD DUP1 MLOAD DUP7 MSTORE PUSH1 0x20 DUP2 ADD MLOAD PUSH1 0x20 DUP8 ADD MSTORE PUSH1 0x40 DUP2 ADD MLOAD PUSH1 0xA0 PUSH1 0x40 DUP9 ADD MSTORE PUSH2 0x3583 PUSH1 0xA0 DUP9 ADD DUP3 PUSH2 0x2FAA JUMP JUMPDEST SWAP1 POP PUSH1 0x60 DUP3 ADD MLOAD SWAP2 POP PUSH2 0x35A3 PUSH1 0x60 DUP9 ADD DUP4 DUP1 MLOAD DUP3 MSTORE PUSH1 0x20 SWAP1 DUP2 ADD MLOAD SWAP2 ADD MSTORE JUMP JUMPDEST SWAP6 POP POP PUSH1 0x20 SWAP4 DUP5 ADD SWAP4 SWAP2 SWAP1 SWAP2 ADD SWAP1 PUSH1 0x1 ADD PUSH2 0x3549 JUMP JUMPDEST PUSH0 PUSH0 DUP4 PUSH1 0x1F DUP5 ADD SLT PUSH2 0x35C9 JUMPI PUSH0 PUSH0 REVERT JUMPDEST POP DUP2 CALLDATALOAD PUSH1 0x1 PUSH1 0x1 PUSH1 0x40 SHL SUB DUP2 GT ISZERO PUSH2 0x35DF JUMPI PUSH0 PUSH0 REVERT JUMPDEST PUSH1 0x20 DUP4 ADD SWAP2 POP DUP4 PUSH1 0x20 DUP3 PUSH1 0x5 SHL DUP6 ADD ADD GT ISZERO PUSH2 0x35F9 JUMPI PUSH0 PUSH0 REVERT JUMPDEST SWAP3 POP SWAP3 SWAP1 POP JUMP JUMPDEST PUSH0 PUSH0 DUP4 PUSH1 0x1F DUP5 ADD SLT PUSH2 0x3610 JUMPI PUSH0 PUSH0 REVERT JUMPDEST POP DUP2 CALLDATALOAD PUSH1 0x1 PUSH1 0x1 PUSH1 0x40 SHL SUB DUP2 GT ISZERO PUSH2 0x3626 JUMPI PUSH0 PUSH0 REVERT JUMPDEST PUSH1 0x20 DUP4 ADD SWAP2 POP DUP4 PUSH1 0x20 DUP3 DUP6 ADD ADD GT ISZERO PUSH2 0x35F9 JUMPI PUSH0 PUSH0 REVERT JUMPDEST PUSH0 PUSH0 PUSH0 PUSH0 PUSH0 PUSH0 PUSH0 PUSH0 PUSH1 0xA0 DUP10 DUP12 SUB SLT ISZERO PUSH2 0x3654 JUMPI PUSH0 PUSH0 REVERT JUMPDEST PUSH2 0x365D DUP10 PUSH2 0x2E49 JUMP JUMPDEST SWAP8 POP PUSH2 0x366B PUSH1 0x20 DUP11 ADD PUSH2 0x2E49 JUMP JUMPDEST SWAP7 POP PUSH1 0x40 DUP10 ADD CALLDATALOAD PUSH1 0x1 PUSH1 0x1 PUSH1 0x40 SHL SUB DUP2 GT ISZERO PUSH2 0x3685 JUMPI PUSH0 PUSH0 REVERT JUMPDEST PUSH2 0x3691 DUP12 DUP3 DUP13 ADD PUSH2 0x35B9 JUMP JUMPDEST SWAP1 SWAP8 POP SWAP6 POP POP PUSH1 0x60 DUP10 ADD CALLDATALOAD PUSH1 0x1 PUSH1 0x1 PUSH1 0x40 SHL SUB DUP2 GT ISZERO PUSH2 0x36AF JUMPI PUSH0 PUSH0 REVERT JUMPDEST PUSH2 0x36BB DUP12 DUP3 DUP13 ADD PUSH2 0x35B9 JUMP JUMPDEST SWAP1 SWAP6 POP SWAP4 POP POP PUSH1 0x80 DUP10 ADD CALLDATALOAD PUSH1 0x1 PUSH1 0x1 PUSH1 0x40 SHL SUB DUP2 GT ISZERO PUSH2 0x36D9 JUMPI PUSH0 PUSH0 REVERT JUMPDEST PUSH2 0x36E5 DUP12 DUP3 DUP13 ADD PUSH2 0x3600 JUMP JUMPDEST SWAP10 SWAP13 SWAP9 SWAP12 POP SWAP7 SWAP10 POP SWAP5 SWAP8 SWAP4 SWAP7 SWAP3 SWAP6 SWAP5 POP POP POP JUMP JUMPDEST PUSH0 PUSH0 PUSH0 PUSH0 PUSH1 0x80 DUP6 DUP8 SUB SLT ISZERO PUSH2 0x370C JUMPI PUSH0 PUSH0 REVERT JUMPDEST DUP5 CALLDATALOAD PUSH1 0x1 PUSH1 0x1 PUSH1 0x40 SHL SUB DUP2 GT ISZERO PUSH2 0x3721 JUMPI PUSH0 PUSH0 REVERT JUMPDEST PUSH2 0x372D DUP8 DUP3 DUP9 ADD PUSH2 0x2F00 JUMP JUMPDEST SWAP5 POP POP PUSH1 0x20 DUP6 ADD CALLDATALOAD SWAP3 POP PUSH1 0x40 DUP6 ADD CALLDATALOAD SWAP2 POP PUSH1 0x60 DUP6 ADD CALLDATALOAD PUSH1 0x1 PUSH1 0x1 PUSH1 0x40 SHL SUB DUP2 GT ISZERO PUSH2 0x3154 JUMPI PUSH0 PUSH0 REVERT JUMPDEST PUSH1 0x20 DUP1 DUP3 MSTORE DUP3 MLOAD DUP3 DUP3 ADD DUP2 SWAP1 MSTORE PUSH0 SWAP2 DUP5 ADD SWAP1 PUSH1 0x40 DUP5 ADD SWAP1 DUP4 JUMPDEST DUP2 DUP2 LT ISZERO PUSH2 0x37A2 JUMPI PUSH2 0x378C DUP4 DUP6 MLOAD DUP1 MLOAD DUP3 MSTORE PUSH1 0x20 SWAP1 DUP2 ADD MLOAD SWAP2 ADD MSTORE JUMP JUMPDEST PUSH1 0x20 SWAP4 SWAP1 SWAP4 ADD SWAP3 PUSH1 0x40 SWAP3 SWAP1 SWAP3 ADD SWAP2 PUSH1 0x1 ADD PUSH2 0x376F JUMP JUMPDEST POP SWAP1 SWAP6 SWAP5 POP POP POP POP POP JUMP JUMPDEST PUSH0 PUSH1 0x20 DUP3 ADD PUSH1 0x20 DUP4 MSTORE DUP1 DUP5 MLOAD DUP1 DUP4 MSTORE PUSH1 0x40 DUP6 ADD SWAP2 POP PUSH1 0x40 DUP2 PUSH1 0x5 SHL DUP7 ADD ADD SWAP3 POP PUSH1 0x20 DUP7 ADD PUSH0 JUMPDEST DUP3 DUP2 LT ISZERO PUSH2 0x341F JUMPI PUSH1 0x3F NOT DUP8 DUP7 SUB ADD DUP5 MSTORE PUSH2 0x37EF DUP6 DUP4 MLOAD PUSH2 0x2FAA JUMP JUMPDEST SWAP5 POP PUSH1 0x20 SWAP4 DUP5 ADD SWAP4 SWAP2 SWAP1 SWAP2 ADD SWAP1 PUSH1 0x1 ADD PUSH2 0x37D3 JUMP JUMPDEST DUP2 MLOAD DUP2 MSTORE PUSH1 0x20 DUP1 DUP4 ADD MLOAD SWAP1 DUP3 ADD MSTORE PUSH1 0x40 DUP2 ADD PUSH2 0x7C0 JUMP JUMPDEST PUSH0 PUSH0 PUSH0 PUSH0 PUSH1 0x80 DUP6 DUP8 SUB SLT ISZERO PUSH2 0x382E JUMPI PUSH0 PUSH0 REVERT JUMPDEST PUSH2 0x3837 DUP6 PUSH2 0x2E49 JUMP JUMPDEST SWAP4 POP PUSH2 0x3845 PUSH1 0x20 DUP7 ADD PUSH2 0x2E49 JUMP JUMPDEST SWAP3 POP PUSH1 0x40 DUP6 ADD CALLDATALOAD SWAP2 POP PUSH1 0x60 DUP6 ADD CALLDATALOAD PUSH1 0x1 PUSH1 0x1 PUSH1 0x40 SHL SUB DUP2 GT ISZERO PUSH2 0x3154 JUMPI PUSH0 PUSH0 REVERT JUMPDEST PUSH0 PUSH0 PUSH1 0x40 DUP4 DUP6 SUB SLT ISZERO PUSH2 0x3877 JUMPI PUSH0 PUSH0 REVERT JUMPDEST PUSH2 0x3880 DUP4 PUSH2 0x2E49 JUMP JUMPDEST SWAP2 POP PUSH2 0x3239 PUSH1 0x20 DUP5 ADD PUSH2 0x2E49 JUMP JUMPDEST PUSH0 PUSH0 PUSH0 PUSH0 PUSH0 PUSH0 PUSH1 0xA0 DUP8 DUP10 SUB SLT ISZERO PUSH2 0x38A3 JUMPI PUSH0 PUSH0 REVERT JUMPDEST PUSH2 0x38AC DUP8 PUSH2 0x2E49 JUMP JUMPDEST SWAP6 POP PUSH2 0x38BA PUSH1 0x20 DUP9 ADD PUSH2 0x2E49 JUMP JUMPDEST SWAP5 POP PUSH1 0x40 DUP8 ADD CALLDATALOAD SWAP4 POP PUSH1 0x60 DUP8 ADD CALLDATALOAD SWAP3 POP PUSH1 0x80 DUP8 ADD CALLDATALOAD PUSH1 0x1 PUSH1 0x1 PUSH1 0x40 SHL SUB DUP2 GT ISZERO PUSH2 0x38E2 JUMPI PUSH0 PUSH0 REVERT JUMPDEST PUSH2 0x38EE DUP10 DUP3 DUP11 ADD PUSH2 0x3600 JUMP JUMPDEST SWAP8 SWAP11 SWAP7 SWAP10 POP SWAP5 SWAP8 POP SWAP3 SWAP6 SWAP4 SWAP5 SWAP3 POP POP POP JUMP JUMPDEST PUSH0 PUSH0 PUSH0 PUSH0 PUSH0 PUSH1 0xA0 DUP7 DUP9 SUB SLT ISZERO PUSH2 0x3914 JUMPI PUSH0 PUSH0 REVERT JUMPDEST PUSH2 0x391D DUP7 PUSH2 0x2E49 JUMP JUMPDEST SWAP5 POP PUSH2 0x392B PUSH1 0x20 DUP8 ADD PUSH2 0x2E49 JUMP JUMPDEST SWAP4 POP PUSH1 0x40 DUP7 ADD CALLDATALOAD SWAP3 POP PUSH1 0x60 DUP7 ADD CALLDATALOAD SWAP2 POP PUSH1 0x80 DUP7 ADD CALLDATALOAD PUSH1 0x1 PUSH1 0x1 PUSH1 0x40 SHL SUB DUP2 GT ISZERO PUSH2 0x31FF JUMPI PUSH0 PUSH0 REVERT JUMPDEST PUSH0 PUSH0 PUSH0 PUSH1 0x60 DUP5 DUP7 SUB SLT ISZERO PUSH2 0x3965 JUMPI PUSH0 PUSH0 REVERT JUMPDEST PUSH2 0x396E DUP5 PUSH2 0x2E49 JUMP JUMPDEST SWAP6 PUSH1 0x20 DUP6 ADD CALLDATALOAD SWAP6 POP PUSH1 0x40 SWAP1 SWAP5 ADD CALLDATALOAD SWAP4 SWAP3 POP POP POP JUMP JUMPDEST DUP3 DUP2 MSTORE PUSH1 0x40 PUSH1 0x20 DUP3 ADD MSTORE PUSH0 PUSH2 0x2FA2 PUSH1 0x40 DUP4 ADD DUP5 PUSH2 0x2FAA JUMP JUMPDEST PUSH4 0x4E487B71 PUSH1 0xE0 SHL PUSH0 MSTORE PUSH1 0x32 PUSH1 0x4 MSTORE PUSH1 0x24 PUSH0 REVERT JUMPDEST PUSH1 0x1 DUP2 DUP2 SHR SWAP1 DUP3 AND DUP1 PUSH2 0x39C3 JUMPI PUSH1 0x7F DUP3 AND SWAP2 POP JUMPDEST PUSH1 0x20 DUP3 LT DUP2 SUB PUSH2 0x1042 JUMPI PUSH4 0x4E487B71 PUSH1 0xE0 SHL PUSH0 MSTORE PUSH1 0x22 PUSH1 0x4 MSTORE PUSH1 0x24 PUSH0 REVERT JUMPDEST PUSH0 DUP2 SLOAD PUSH2 0x39ED DUP2 PUSH2 0x39AF JUMP JUMPDEST PUSH1 0x1 DUP3 AND DUP1 ISZERO PUSH2 0x3A04 JUMPI PUSH1 0x1 DUP2 EQ PUSH2 0x3A19 JUMPI PUSH2 0x3A46 JUMP JUMPDEST PUSH1 0xFF NOT DUP4 AND DUP7 MSTORE DUP2 ISZERO ISZERO DUP3 MUL DUP7 ADD SWAP4 POP PUSH2 0x3A46 JUMP JUMPDEST DUP5 PUSH0 MSTORE PUSH1 0x20 PUSH0 KECCAK256 PUSH0 JUMPDEST DUP4 DUP2 LT ISZERO PUSH2 0x3A3E JUMPI DUP2 SLOAD DUP9 DUP3 ADD MSTORE PUSH1 0x1 SWAP1 SWAP2 ADD SWAP1 PUSH1 0x20 ADD PUSH2 0x3A22 JUMP JUMPDEST POP POP DUP2 DUP7 ADD SWAP4 POP JUMPDEST POP POP POP SWAP3 SWAP2 POP POP JUMP JUMPDEST PUSH0 PUSH2 0x22B9 DUP3 DUP5 PUSH2 0x39E1 JUMP JUMPDEST PUSH1 0x1F DUP3 GT ISZERO PUSH2 0xAC2 JUMPI DUP1 PUSH0 MSTORE PUSH1 0x20 PUSH0 KECCAK256 PUSH1 0x1F DUP5 ADD PUSH1 0x5 SHR DUP2 ADD PUSH1 0x20 DUP6 LT ISZERO PUSH2 0x3A7F JUMPI POP DUP1 JUMPDEST PUSH1 0x1F DUP5 ADD PUSH1 0x5 SHR DUP3 ADD SWAP2 POP JUMPDEST DUP2 DUP2 LT ISZERO PUSH2 0xAEA JUMPI PUSH0 DUP2 SSTORE PUSH1 0x1 ADD PUSH2 0x3A8B JUMP JUMPDEST DUP2 MLOAD PUSH1 0x1 PUSH1 0x1 PUSH1 0x40 SHL SUB DUP2 GT ISZERO PUSH2 0x3AB7 JUMPI PUSH2 0x3AB7 PUSH2 0x2EBC JUMP JUMPDEST PUSH2 0x3ACB DUP2 PUSH2 0x3AC5 DUP5 SLOAD PUSH2 0x39AF JUMP JUMPDEST DUP5 PUSH2 0x3A5A JUMP JUMPDEST PUSH1 0x20 PUSH1 0x1F DUP3 GT PUSH1 0x1 DUP2 EQ PUSH2 0x3B00 JUMPI PUSH0 DUP4 ISZERO PUSH2 0x3AE6 JUMPI POP DUP5 DUP3 ADD MLOAD JUMPDEST PUSH1 0x1 DUP5 SWAP1 SHL PUSH0 NOT PUSH1 0x3 DUP7 SWAP1 SHL SHR NOT DUP3 AND OR JUMPDEST DUP6 SSTORE POP PUSH2 0xAEA JUMP JUMPDEST PUSH0 DUP5 DUP2 MSTORE PUSH1 0x20 DUP2 KECCAK256 PUSH1 0x1F NOT DUP6 AND SWAP2 JUMPDEST DUP3 DUP2 LT ISZERO PUSH2 0x3B2F JUMPI DUP8 DUP6 ADD MLOAD DUP3 SSTORE PUSH1 0x20 SWAP5 DUP6 ADD SWAP5 PUSH1 0x1 SWAP1 SWAP3 ADD SWAP2 ADD PUSH2 0x3B0F JUMP JUMPDEST POP DUP5 DUP3 LT ISZERO PUSH2 0x3B4C JUMPI DUP7 DUP5 ADD MLOAD PUSH0 NOT PUSH1 0x3 DUP8 SWAP1 SHL PUSH1 0xF8 AND SHR NOT AND DUP2 SSTORE JUMPDEST POP POP POP POP PUSH1 0x1 SWAP1 DUP2 SHL ADD SWAP1 SSTORE POP JUMP JUMPDEST PUSH1 0x20 DUP1 DUP3 MSTORE PUSH1 0x2A SWAP1 DUP3 ADD MSTORE PUSH32 0x53686172656431313535546F6B656E3A20496E76616C69642072656369706965 PUSH1 0x40 DUP3 ADD MSTORE PUSH10 0x6E742061646472657373 PUSH1 0xB0 SHL PUSH1 0x60 DUP3 ADD MSTORE PUSH1 0x80 ADD SWAP1 JUMP JUMPDEST PUSH1 0x20 DUP1 DUP3 MSTORE PUSH1 0x37 SWAP1 DUP3 ADD MSTORE PUSH32 0x53686172656431313535546F6B656E3A205472616E7366657220616D6F756E74 PUSH1 0x40 DUP3 ADD MSTORE PUSH32 0x206D7573742062652067726561746572207468616E2030000000000000000000 PUSH1 0x60 DUP3 ADD MSTORE PUSH1 0x80 ADD SWAP1 JUMP JUMPDEST PUSH1 0x20 DUP1 DUP3 MSTORE PUSH1 0x36 SWAP1 DUP3 ADD MSTORE PUSH32 0x53686172656431313535546F6B656E3A204E4654207769746820737065636966 PUSH1 0x40 DUP3 ADD MSTORE PUSH22 0x1A59590815549248191BD95CC81B9BDD08195E1A5CDD PUSH1 0x52 SHL PUSH1 0x60 DUP3 ADD MSTORE PUSH1 0x80 ADD SWAP1 JUMP JUMPDEST PUSH1 0x20 DUP1 DUP3 MSTORE PUSH1 0x29 SWAP1 DUP3 ADD MSTORE PUSH32 0x53686172656431313535546F6B656E3A20496E73756666696369656E74204E46 PUSH1 0x40 DUP3 ADD MSTORE PUSH9 0x542062616C616E6365 PUSH1 0xB8 SHL PUSH1 0x60 DUP3 ADD MSTORE PUSH1 0x80 ADD SWAP1 JUMP JUMPDEST PUSH1 0x20 DUP1 DUP3 MSTORE PUSH1 0x2A SWAP1 DUP3 ADD MSTORE PUSH32 0x53686172656431313535546F6B656E3A20436F6C6C656374696F6E20646F6573 PUSH1 0x40 DUP3 ADD MSTORE PUSH10 0x81B9BDD08195E1A5CDD PUSH1 0xB2 SHL PUSH1 0x60 DUP3 ADD MSTORE PUSH1 0x80 ADD SWAP1 JUMP JUMPDEST PUSH4 0x4E487B71 PUSH1 0xE0 SHL PUSH0 MSTORE PUSH1 0x11 PUSH1 0x4 MSTORE PUSH1 0x24 PUSH0 REVERT JUMPDEST DUP2 DUP2 SUB DUP2 DUP2 GT ISZERO PUSH2 0x7C0 JUMPI PUSH2 0x7C0 PUSH2 0x3CEB JUMP JUMPDEST PUSH4 0x4E487B71 PUSH1 0xE0 SHL PUSH0 MSTORE PUSH1 0x31 PUSH1 0x4 MSTORE PUSH1 0x24 PUSH0 REVERT JUMPDEST PUSH1 0x20 DUP1 DUP3 MSTORE PUSH1 0x25 SWAP1 DUP3 ADD MSTORE PUSH32 0x53686172656431313535546F6B656E3A20446174612063616E6E6F7420626520 PUSH1 0x40 DUP3 ADD MSTORE PUSH5 0x656D707479 PUSH1 0xD8 SHL PUSH1 0x60 DUP3 ADD MSTORE PUSH1 0x80 ADD SWAP1 JUMP JUMPDEST DUP2 DUP2 SUB PUSH2 0x3D76 JUMPI POP POP JUMP JUMPDEST PUSH2 0x3D80 DUP3 SLOAD PUSH2 0x39AF JUMP JUMPDEST PUSH1 0x1 PUSH1 0x1 PUSH1 0x40 SHL SUB DUP2 GT ISZERO PUSH2 0x3D97 JUMPI PUSH2 0x3D97 PUSH2 0x2EBC JUMP JUMPDEST PUSH2 0x3DA5 DUP2 PUSH2 0x3AC5 DUP5 SLOAD PUSH2 0x39AF JUMP JUMPDEST PUSH0 PUSH1 0x1F DUP3 GT PUSH1 0x1 DUP2 EQ PUSH2 0x3DD4 JUMPI PUSH0 DUP4 ISZERO PUSH2 0x3AE6 JUMPI POP DUP2 DUP6 ADD SLOAD PUSH1 0x1 DUP5 SWAP1 SHL PUSH0 NOT PUSH1 0x3 DUP7 SWAP1 SHL SHR NOT DUP3 AND OR PUSH2 0x3AF8 JUMP JUMPDEST PUSH0 DUP6 DUP2 MSTORE PUSH1 0x20 DUP1 DUP3 KECCAK256 DUP7 DUP4 MSTORE SWAP1 DUP3 KECCAK256 PUSH1 0x1F NOT DUP7 AND SWAP3 JUMPDEST DUP4 DUP2 LT ISZERO PUSH2 0x3E0A JUMPI DUP3 DUP7 ADD SLOAD DUP3 SSTORE PUSH1 0x1 SWAP6 DUP7 ADD SWAP6 SWAP1 SWAP2 ADD SWAP1 PUSH1 0x20 ADD PUSH2 0x3DEA JUMP JUMPDEST POP DUP6 DUP4 LT ISZERO PUSH2 0x3E27 JUMPI DUP2 DUP6 ADD SLOAD PUSH0 NOT PUSH1 0x3 DUP9 SWAP1 SHL PUSH1 0xF8 AND SHR NOT AND DUP2 SSTORE JUMPDEST POP POP POP POP POP PUSH1 0x1 SWAP1 DUP2 SHL ADD SWAP1 SSTORE POP JUMP JUMPDEST PUSH0 PUSH1 0x1 DUP3 ADD PUSH2 0x3E48 JUMPI PUSH2 0x3E48 PUSH2 0x3CEB JUMP JUMPDEST POP PUSH1 0x1 ADD SWAP1 JUMP JUMPDEST PUSH0 PUSH1 0x20 DUP3 DUP5 SUB SLT ISZERO PUSH2 0x3E5F JUMPI PUSH0 PUSH0 REVERT JUMPDEST POP MLOAD SWAP2 SWAP1 POP JUMP JUMPDEST PUSH0 PUSH1 0x20 DUP3 DUP5 SUB SLT ISZERO PUSH2 0x3E76 JUMPI PUSH0 PUSH0 REVERT JUMPDEST DUP2 MLOAD PUSH2 0x22B9 DUP2 PUSH2 0x34E1 JUMP JUMPDEST PUSH0 PUSH2 0x3E8C DUP3 DUP6 PUSH2 0x39E1 JUMP JUMPDEST DUP4 MLOAD DUP1 PUSH1 0x20 DUP7 ADD DUP4 MCOPY PUSH0 SWAP2 ADD SWAP1 DUP2 MSTORE SWAP5 SWAP4 POP POP POP POP JUMP JUMPDEST PUSH1 0x1 PUSH1 0x1 PUSH1 0xA0 SHL SUB DUP7 DUP2 AND DUP3 MSTORE DUP6 AND PUSH1 0x20 DUP3 ADD MSTORE PUSH1 0x40 DUP2 ADD DUP5 SWAP1 MSTORE PUSH1 0x60 DUP2 ADD DUP4 SWAP1 MSTORE PUSH1 0xA0 PUSH1 0x80 DUP3 ADD DUP2 SWAP1 MSTORE PUSH0 SWAP1 PUSH2 0x3EDC SWAP1 DUP4 ADD DUP5 PUSH2 0x2FAA JUMP JUMPDEST SWAP8 SWAP7 POP POP POP POP POP POP POP JUMP JUMPDEST PUSH0 PUSH1 0x20 DUP3 DUP5 SUB SLT ISZERO PUSH2 0x3EF7 JUMPI PUSH0 PUSH0 REVERT JUMPDEST DUP2 MLOAD PUSH2 0x22B9 DUP2 PUSH2 0x2E8C JUMP JUMPDEST PUSH1 0x1 PUSH1 0x1 PUSH1 0xA0 SHL SUB DUP7 DUP2 AND DUP3 MSTORE DUP6 AND PUSH1 0x20 DUP3 ADD MSTORE PUSH1 0xA0 PUSH1 0x40 DUP3 ADD DUP2 SWAP1 MSTORE PUSH0 SWAP1 PUSH2 0x3F2D SWAP1 DUP4 ADD DUP7 PUSH2 0x334C JUMP JUMPDEST DUP3 DUP2 SUB PUSH1 0x60 DUP5 ADD MSTORE PUSH2 0x3F3F DUP2 DUP7 PUSH2 0x334C JUMP JUMPDEST SWAP1 POP DUP3 DUP2 SUB PUSH1 0x80 DUP5 ADD MSTORE PUSH2 0x3F53 DUP2 DUP6 PUSH2 0x2FAA JUMP JUMPDEST SWAP9 SWAP8 POP POP POP POP POP POP POP POP JUMP JUMPDEST DUP1 DUP3 ADD DUP1 DUP3 GT ISZERO PUSH2 0x7C0 JUMPI PUSH2 0x7C0 PUSH2 0x3CEB JUMP JUMPDEST PUSH1 0x40 DUP2 MSTORE PUSH0 PUSH2 0x3F84 PUSH1 0x40 DUP4 ADD DUP6 PUSH2 0x334C JUMP JUMPDEST DUP3 DUP2 SUB PUSH1 0x20 DUP5 ADD MSTORE PUSH2 0x3F96 DUP2 DUP6 PUSH2 0x334C JUMP JUMPDEST SWAP6 SWAP5 POP POP POP POP POP JUMP INVALID SWAP16 0x2D CREATE INVALID 0xD2 0xC7 PUSH23 0x48DE5860A4CC508CD0818C85B8B8A1AB4CEEEF8D981C89 JUMP 0xA6 LOG2 PUSH5 0x6970667358 0x22 SLT KECCAK256 LOG4 PUSH0 0xEA PUSH30 0x8EEEBC342C5206FC86615F111C2E1BA1C923FBCAFEDDDBBFD9CA91946473 PUSH16 0x6C634300081E00330000000000000000 "
		},
		"gasEstimates": {
			"creation": {
				"codeDepositCost": "3274600",
				"executionCost": "infinite",
				"totalCost": "infinite"
			},
			"external": {
				"COLLECTION_CREATOR_ROLE()": "228",
				"DEFAULT_ADMIN_ROLE()": "294",
				"MINTER_ROLE()": "infinite",
				"approveOperatorForContractNFTs(address,bool)": "28277",
				"balanceOf(address,uint256)": "2682",
				"balanceOfBatch(address[],uint256[])": "infinite",
				"burn(address,uint256,uint256)": "infinite",
				"burnBatch(address,uint256[],uint256[])": "infinite",
				"collectionDatas(uint256)": "4642",
				"collectionIds(uint256)": "4651",
				"collections(uint256)": "infinite",
				"createCollection(string)": "infinite",
				"deleteCollectionBySuffix(string)": "infinite",
				"deleteDataByValue(string)": "infinite",
				"exists(uint256)": "2581",
				"getAllCollectionDatas()": "infinite",
				"getAllCollections()": "infinite",
				"getAllStoredData()": "infinite",
				"getCollection(uint256)": "infinite",
				"getCollectionData(uint256)": "7090",
				"getCollectionSuffix(uint256)": "infinite",
				"getContractNFTs()": "infinite",
				"getRoleAdmin(bytes32)": "2546",
				"grantRole(bytes32,address)": "infinite",
				"grantRoleTo(bytes32,address)": "infinite",
				"hasRole(bytes32,address)": "2704",
				"isApprovedForAll(address,address)": "infinite",
				"isOperatorApprovedForContractNFTs()": "2637",
				"mint(address,uint256,uint256,bytes)": "infinite",
				"mintBatch(address,uint256[],uint256[],bytes)": "infinite",
				"name()": "infinite",
				"onERC1155BatchReceived(address,address,uint256[],uint256[],bytes)": "infinite",
				"onERC1155Received(address,address,uint256,uint256,bytes)": "infinite",
				"pause()": "infinite",
				"paused()": "2371",
				"renounceRole(bytes32,address)": "29085",
				"revokeRole(bytes32,address)": "infinite",
				"safeBatchTransferFrom(address,address,uint256[],uint256[],bytes)": "infinite",
				"safeCast(string,uint256,bytes32,string)": "infinite",
				"safeTransferFrom(address,address,uint256,uint256,bytes)": "infinite",
				"setApprovalForAll(address,bool)": "26818",
				"setTokenURI(uint256,string)": "infinite",
				"storeData(string)": "infinite",
				"storedData(uint256)": "infinite",
				"supportsInterface(bytes4)": "infinite",
				"tokenIds(uint256)": "4672",
				"totalSupply()": "2349",
				"totalSupply(uint256)": "2513",
				"transferERC20(address,address,uint256,string)": "infinite",
				"transferNFTByURI(address,string,uint256)": "infinite",
				"unpause()": "infinite",
				"uri(uint256)": "infinite"
			},
			"internal": {
				"_update(address,address,uint256[] memory,uint256[] memory)": "infinite"
			}
		},
		"methodIdentifiers": {
			"COLLECTION_CREATOR_ROLE()": "caff99ce",
			"DEFAULT_ADMIN_ROLE()": "a217fddf",
			"MINTER_ROLE()": "d5391393",
			"approveOperatorForContractNFTs(address,bool)": "9dd6a449",
			"balanceOf(address,uint256)": "00fdd58e",
			"balanceOfBatch(address[],uint256[])": "4e1273f4",
			"burn(address,uint256,uint256)": "f5298aca",
			"burnBatch(address,uint256[],uint256[])": "6b20c454",
			"collectionDatas(uint256)": "258672aa",
			"collectionIds(uint256)": "a9b566a3",
			"collections(uint256)": "fdbda0ec",
			"createCollection(string)": "059dfe13",
			"deleteCollectionBySuffix(string)": "70164f0e",
			"deleteDataByValue(string)": "9cdf0f46",
			"exists(uint256)": "4f558e79",
			"getAllCollectionDatas()": "c71d0ea3",
			"getAllCollections()": "6804a958",
			"getAllStoredData()": "dd5b3a65",
			"getCollection(uint256)": "5a1f3c28",
			"getCollectionData(uint256)": "df6f5b20",
			"getCollectionSuffix(uint256)": "b21fa654",
			"getContractNFTs()": "a7098728",
			"getRoleAdmin(bytes32)": "248a9ca3",
			"grantRole(bytes32,address)": "2f2ff15d",
			"grantRoleTo(bytes32,address)": "a5e2361d",
			"hasRole(bytes32,address)": "91d14854",
			"isApprovedForAll(address,address)": "e985e9c5",
			"isOperatorApprovedForContractNFTs()": "77e1b4ca",
			"mint(address,uint256,uint256,bytes)": "731133e9",
			"mintBatch(address,uint256[],uint256[],bytes)": "1f7fdffa",
			"name()": "06fdde03",
			"onERC1155BatchReceived(address,address,uint256[],uint256[],bytes)": "bc197c81",
			"onERC1155Received(address,address,uint256,uint256,bytes)": "f23a6e61",
			"pause()": "8456cb59",
			"paused()": "5c975abb",
			"renounceRole(bytes32,address)": "36568abe",
			"revokeRole(bytes32,address)": "d547741f",
			"safeBatchTransferFrom(address,address,uint256[],uint256[],bytes)": "2eb2c2d6",
			"safeCast(string,uint256,bytes32,string)": "be7cf750",
			"safeTransferFrom(address,address,uint256,uint256,bytes)": "f242432a",
			"setApprovalForAll(address,bool)": "a22cb465",
			"setTokenURI(uint256,string)": "162094c4",
			"storeData(string)": "fb218f5f",
			"storedData(uint256)": "30377174",
			"supportsInterface(bytes4)": "01ffc9a7",
			"tokenIds(uint256)": "d58778d6",
			"totalSupply()": "18160ddd",
			"totalSupply(uint256)": "bd85b039",
			"transferERC20(address,address,uint256,string)": "e22c4515",
			"transferNFTByURI(address,string,uint256)": "3038bfdf",
			"unpause()": "3f4ba83a",
			"uri(uint256)": "0e89341c"
		}
	},
	"abi": [
		{
			"inputs": [],
			"stateMutability": "nonpayable",
			"type": "constructor"
		},
		{
			"inputs": [],
			"name": "AccessControlBadConfirmation",
			"type": "error"
		},
		{
			"inputs": [
				{
					"internalType": "address",
					"name": "account",
					"type": "address"
				},
				{
					"internalType": "bytes32",
					"name": "neededRole",
					"type": "bytes32"
				}
			],
			"name": "AccessControlUnauthorizedAccount",
			"type": "error"
		},
		{
			"inputs": [
				{
					"internalType": "address",
					"name": "sender",
					"type": "address"
				},
				{
					"internalType": "uint256",
					"name": "balance",
					"type": "uint256"
				},
				{
					"internalType": "uint256",
					"name": "needed",
					"type": "uint256"
				},
				{
					"internalType": "uint256",
					"name": "tokenId",
					"type": "uint256"
				}
			],
			"name": "ERC1155InsufficientBalance",
			"type": "error"
		},
		{
			"inputs": [
				{
					"internalType": "address",
					"name": "approver",
					"type": "address"
				}
			],
			"name": "ERC1155InvalidApprover",
			"type": "error"
		},
		{
			"inputs": [
				{
					"internalType": "uint256",
					"name": "idsLength",
					"type": "uint256"
				},
				{
					"internalType": "uint256",
					"name": "valuesLength",
					"type": "uint256"
				}
			],
			"name": "ERC1155InvalidArrayLength",
			"type": "error"
		},
		{
			"inputs": [
				{
					"internalType": "address",
					"name": "operator",
					"type": "address"
				}
			],
			"name": "ERC1155InvalidOperator",
			"type": "error"
		},
		{
			"inputs": [
				{
					"internalType": "address",
					"name": "receiver",
					"type": "address"
				}
			],
			"name": "ERC1155InvalidReceiver",
			"type": "error"
		},
		{
			"inputs": [
				{
					"internalType": "address",
					"name": "sender",
					"type": "address"
				}
			],
			"name": "ERC1155InvalidSender",
			"type": "error"
		},
		{
			"inputs": [
				{
					"internalType": "address",
					"name": "operator",
					"type": "address"
				},
				{
					"internalType": "address",
					"name": "owner",
					"type": "address"
				}
			],
			"name": "ERC1155MissingApprovalForAll",
			"type": "error"
		},
		{
			"anonymous": false,
			"inputs": [
				{
					"indexed": true,
					"internalType": "address",
					"name": "account",
					"type": "address"
				},
				{
					"indexed": true,
					"internalType": "address",
					"name": "operator",
					"type": "address"
				},
				{
					"indexed": false,
					"internalType": "bool",
					"name": "approved",
					"type": "bool"
				}
			],
			"name": "ApprovalForAll",
			"type": "event"
		},
		{
			"anonymous": false,
			"inputs": [
				{
					"indexed": true,
					"internalType": "uint256",
					"name": "collectionId",
					"type": "uint256"
				},
				{
					"indexed": false,
					"internalType": "string",
					"name": "suffix",
					"type": "string"
				}
			],
			"name": "CollectionCreated",
			"type": "event"
		},
		{
			"anonymous": false,
			"inputs": [
				{
					"indexed": true,
					"internalType": "uint256",
					"name": "collectionId",
					"type": "uint256"
				},
				{
					"indexed": false,
					"internalType": "string",
					"name": "suffix",
					"type": "string"
				}
			],
			"name": "CollectionDeleted",
			"type": "event"
		},
		{
			"anonymous": false,
			"inputs": [
				{
					"indexed": true,
					"internalType": "address",
					"name": "account",
					"type": "address"
				},
				{
					"indexed": false,
					"internalType": "uint256",
					"name": "tokenId",
					"type": "uint256"
				},
				{
					"indexed": false,
					"internalType": "bytes32",
					"name": "collectionURI",
					"type": "bytes32"
				},
				{
					"indexed": false,
					"internalType": "uint256",
					"name": "amount",
					"type": "uint256"
				}
			],
			"name": "CollectionURIMinted",
			"type": "event"
		},
		{
			"anonymous": false,
			"inputs": [
				{
					"indexed": true,
					"internalType": "address",
					"name": "account",
					"type": "address"
				},
				{
					"indexed": false,
					"internalType": "string",
					"name": "data",
					"type": "string"
				}
			],
			"name": "DataDeleted",
			"type": "event"
		},
		{
			"anonymous": false,
			"inputs": [
				{
					"indexed": true,
					"internalType": "address",
					"name": "account",
					"type": "address"
				},
				{
					"indexed": false,
					"internalType": "string",
					"name": "data",
					"type": "string"
				}
			],
			"name": "DataStored",
			"type": "event"
		},
		{
			"anonymous": false,
			"inputs": [
				{
					"indexed": true,
					"internalType": "address",
					"name": "operator",
					"type": "address"
				},
				{
					"indexed": false,
					"internalType": "bool",
					"name": "approved",
					"type": "bool"
				}
			],
			"name": "OperatorApprovedForContractNFTs",
			"type": "event"
		},
		{
			"anonymous": false,
			"inputs": [
				{
					"indexed": false,
					"internalType": "address",
					"name": "account",
					"type": "address"
				}
			],
			"name": "Paused",
			"type": "event"
		},
		{
			"anonymous": false,
			"inputs": [
				{
					"indexed": true,
					"internalType": "bytes32",
					"name": "role",
					"type": "bytes32"
				},
				{
					"indexed": true,
					"internalType": "bytes32",
					"name": "previousAdminRole",
					"type": "bytes32"
				},
				{
					"indexed": true,
					"internalType": "bytes32",
					"name": "newAdminRole",
					"type": "bytes32"
				}
			],
			"name": "RoleAdminChanged",
			"type": "event"
		},
		{
			"anonymous": false,
			"inputs": [
				{
					"indexed": true,
					"internalType": "bytes32",
					"name": "role",
					"type": "bytes32"
				},
				{
					"indexed": true,
					"internalType": "address",
					"name": "account",
					"type": "address"
				},
				{
					"indexed": true,
					"internalType": "address",
					"name": "sender",
					"type": "address"
				}
			],
			"name": "RoleGranted",
			"type": "event"
		},
		{
			"anonymous": false,
			"inputs": [
				{
					"indexed": true,
					"internalType": "bytes32",
					"name": "role",
					"type": "bytes32"
				},
				{
					"indexed": true,
					"internalType": "address",
					"name": "account",
					"type": "address"
				},
				{
					"indexed": true,
					"internalType": "address",
					"name": "sender",
					"type": "address"
				}
			],
			"name": "RoleRevoked",
			"type": "event"
		},
		{
			"anonymous": false,
			"inputs": [
				{
					"indexed": true,
					"internalType": "address",
					"name": "operator",
					"type": "address"
				},
				{
					"indexed": true,
					"internalType": "address",
					"name": "from",
					"type": "address"
				},
				{
					"indexed": true,
					"internalType": "address",
					"name": "to",
					"type": "address"
				},
				{
					"indexed": false,
					"internalType": "uint256[]",
					"name": "ids",
					"type": "uint256[]"
				},
				{
					"indexed": false,
					"internalType": "uint256[]",
					"name": "values",
					"type": "uint256[]"
				}
			],
			"name": "TransferBatch",
			"type": "event"
		},
		{
			"anonymous": false,
			"inputs": [
				{
					"indexed": true,
					"internalType": "address",
					"name": "operator",
					"type": "address"
				},
				{
					"indexed": true,
					"internalType": "address",
					"name": "from",
					"type": "address"
				},
				{
					"indexed": true,
					"internalType": "address",
					"name": "to",
					"type": "address"
				},
				{
					"indexed": false,
					"internalType": "uint256",
					"name": "id",
					"type": "uint256"
				},
				{
					"indexed": false,
					"internalType": "uint256",
					"name": "value",
					"type": "uint256"
				}
			],
			"name": "TransferSingle",
			"type": "event"
		},
		{
			"anonymous": false,
			"inputs": [
				{
					"indexed": false,
					"internalType": "string",
					"name": "value",
					"type": "string"
				},
				{
					"indexed": true,
					"internalType": "uint256",
					"name": "id",
					"type": "uint256"
				}
			],
			"name": "URI",
			"type": "event"
		},
		{
			"anonymous": false,
			"inputs": [
				{
					"indexed": false,
					"internalType": "address",
					"name": "account",
					"type": "address"
				}
			],
			"name": "Unpaused",
			"type": "event"
		},
		{
			"inputs": [],
			"name": "COLLECTION_CREATOR_ROLE",
			"outputs": [
				{
					"internalType": "bytes32",
					"name": "",
					"type": "bytes32"
				}
			],
			"stateMutability": "view",
			"type": "function"
		},
		{
			"inputs": [],
			"name": "DEFAULT_ADMIN_ROLE",
			"outputs": [
				{
					"internalType": "bytes32",
					"name": "",
					"type": "bytes32"
				}
			],
			"stateMutability": "view",
			"type": "function"
		},
		{
			"inputs": [],
			"name": "MINTER_ROLE",
			"outputs": [
				{
					"internalType": "bytes32",
					"name": "",
					"type": "bytes32"
				}
			],
			"stateMutability": "view",
			"type": "function"
		},
		{
			"inputs": [
				{
					"internalType": "address",
					"name": "operator",
					"type": "address"
				},
				{
					"internalType": "bool",
					"name": "approved",
					"type": "bool"
				}
			],
			"name": "approveOperatorForContractNFTs",
			"outputs": [],
			"stateMutability": "nonpayable",
			"type": "function"
		},
		{
			"inputs": [
				{
					"internalType": "address",
					"name": "account",
					"type": "address"
				},
				{
					"internalType": "uint256",
					"name": "id",
					"type": "uint256"
				}
			],
			"name": "balanceOf",
			"outputs": [
				{
					"internalType": "uint256",
					"name": "",
					"type": "uint256"
				}
			],
			"stateMutability": "view",
			"type": "function"
		},
		{
			"inputs": [
				{
					"internalType": "address[]",
					"name": "accounts",
					"type": "address[]"
				},
				{
					"internalType": "uint256[]",
					"name": "ids",
					"type": "uint256[]"
				}
			],
			"name": "balanceOfBatch",
			"outputs": [
				{
					"internalType": "uint256[]",
					"name": "",
					"type": "uint256[]"
				}
			],
			"stateMutability": "view",
			"type": "function"
		},
		{
			"inputs": [
				{
					"internalType": "address",
					"name": "account",
					"type": "address"
				},
				{
					"internalType": "uint256",
					"name": "id",
					"type": "uint256"
				},
				{
					"internalType": "uint256",
					"name": "value",
					"type": "uint256"
				}
			],
			"name": "burn",
			"outputs": [],
			"stateMutability": "nonpayable",
			"type": "function"
		},
		{
			"inputs": [
				{
					"internalType": "address",
					"name": "account",
					"type": "address"
				},
				{
					"internalType": "uint256[]",
					"name": "ids",
					"type": "uint256[]"
				},
				{
					"internalType": "uint256[]",
					"name": "values",
					"type": "uint256[]"
				}
			],
			"name": "burnBatch",
			"outputs": [],
			"stateMutability": "nonpayable",
			"type": "function"
		},
		{
			"inputs": [
				{
					"internalType": "uint256",
					"name": "",
					"type": "uint256"
				}
			],
			"name": "collectionDatas",
			"outputs": [
				{
					"internalType": "bytes32",
					"name": "cid",
					"type": "bytes32"
				},
				{
					"internalType": "uint256",
					"name": "collectionId",
					"type": "uint256"
				}
			],
			"stateMutability": "view",
			"type": "function"
		},
		{
			"inputs": [
				{
					"internalType": "uint256",
					"name": "",
					"type": "uint256"
				}
			],
			"name": "collectionIds",
			"outputs": [
				{
					"internalType": "uint256",
					"name": "",
					"type": "uint256"
				}
			],
			"stateMutability": "view",
			"type": "function"
		},
		{
			"inputs": [
				{
					"internalType": "uint256",
					"name": "",
					"type": "uint256"
				}
			],
			"name": "collections",
			"outputs": [
				{
					"internalType": "uint256",
					"name": "id",
					"type": "uint256"
				},
				{
					"internalType": "string",
					"name": "suffix",
					"type": "string"
				}
			],
			"stateMutability": "view",
			"type": "function"
		},
		{
			"inputs": [
				{
					"internalType": "string",
					"name": "suffix",
					"type": "string"
				}
			],
			"name": "createCollection",
			"outputs": [],
			"stateMutability": "nonpayable",
			"type": "function"
		},
		{
			"inputs": [
				{
					"internalType": "string",
					"name": "suffix",
					"type": "string"
				}
			],
			"name": "deleteCollectionBySuffix",
			"outputs": [],
			"stateMutability": "nonpayable",
			"type": "function"
		},
		{
			"inputs": [
				{
					"internalType": "string",
					"name": "data",
					"type": "string"
				}
			],
			"name": "deleteDataByValue",
			"outputs": [],
			"stateMutability": "nonpayable",
			"type": "function"
		},
		{
			"inputs": [
				{
					"internalType": "uint256",
					"name": "id",
					"type": "uint256"
				}
			],
			"name": "exists",
			"outputs": [
				{
					"internalType": "bool",
					"name": "",
					"type": "bool"
				}
			],
			"stateMutability": "view",
			"type": "function"
		},
		{
			"inputs": [],
			"name": "getAllCollectionDatas",
			"outputs": [
				{
					"components": [
						{
							"internalType": "bytes32",
							"name": "cid",
							"type": "bytes32"
						},
						{
							"internalType": "uint256",
							"name": "collectionId",
							"type": "uint256"
						}
					],
					"internalType": "struct Shared1155TokenSSSS.CollectionData[]",
					"name": "",
					"type": "tuple[]"
				}
			],
			"stateMutability": "view",
			"type": "function"
		},
		{
			"inputs": [],
			"name": "getAllCollections",
			"outputs": [
				{
					"components": [
						{
							"internalType": "uint256",
							"name": "id",
							"type": "uint256"
						},
						{
							"internalType": "string",
							"name": "suffix",
							"type": "string"
						}
					],
					"internalType": "struct Shared1155TokenSSSS.Collection[]",
					"name": "",
					"type": "tuple[]"
				}
			],
			"stateMutability": "view",
			"type": "function"
		},
		{
			"inputs": [],
			"name": "getAllStoredData",
			"outputs": [
				{
					"internalType": "string[]",
					"name": "",
					"type": "string[]"
				}
			],
			"stateMutability": "view",
			"type": "function"
		},
		{
			"inputs": [
				{
					"internalType": "uint256",
					"name": "collectionId",
					"type": "uint256"
				}
			],
			"name": "getCollection",
			"outputs": [
				{
					"components": [
						{
							"internalType": "uint256",
							"name": "id",
							"type": "uint256"
						},
						{
							"internalType": "string",
							"name": "suffix",
							"type": "string"
						}
					],
					"internalType": "struct Shared1155TokenSSSS.Collection",
					"name": "",
					"type": "tuple"
				}
			],
			"stateMutability": "view",
			"type": "function"
		},
		{
			"inputs": [
				{
					"internalType": "uint256",
					"name": "tokenId",
					"type": "uint256"
				}
			],
			"name": "getCollectionData",
			"outputs": [
				{
					"components": [
						{
							"internalType": "bytes32",
							"name": "cid",
							"type": "bytes32"
						},
						{
							"internalType": "uint256",
							"name": "collectionId",
							"type": "uint256"
						}
					],
					"internalType": "struct Shared1155TokenSSSS.CollectionData",
					"name": "",
					"type": "tuple"
				}
			],
			"stateMutability": "view",
			"type": "function"
		},
		{
			"inputs": [
				{
					"internalType": "uint256",
					"name": "collectionId",
					"type": "uint256"
				}
			],
			"name": "getCollectionSuffix",
			"outputs": [
				{
					"internalType": "string",
					"name": "",
					"type": "string"
				}
			],
			"stateMutability": "view",
			"type": "function"
		},
		{
			"inputs": [],
			"name": "getContractNFTs",
			"outputs": [
				{
					"components": [
						{
							"internalType": "uint256",
							"name": "tokenId",
							"type": "uint256"
						},
						{
							"internalType": "uint256",
							"name": "amount",
							"type": "uint256"
						},
						{
							"internalType": "string",
							"name": "uri",
							"type": "string"
						},
						{
							"components": [
								{
									"internalType": "bytes32",
									"name": "cid",
									"type": "bytes32"
								},
								{
									"internalType": "uint256",
									"name": "collectionId",
									"type": "uint256"
								}
							],
							"internalType": "struct Shared1155TokenSSSS.CollectionData",
							"name": "collectionData",
							"type": "tuple"
						}
					],
					"internalType": "struct Shared1155TokenSSSS.NFTDetails[]",
					"name": "",
					"type": "tuple[]"
				}
			],
			"stateMutability": "view",
			"type": "function"
		},
		{
			"inputs": [
				{
					"internalType": "bytes32",
					"name": "role",
					"type": "bytes32"
				}
			],
			"name": "getRoleAdmin",
			"outputs": [
				{
					"internalType": "bytes32",
					"name": "",
					"type": "bytes32"
				}
			],
			"stateMutability": "view",
			"type": "function"
		},
		{
			"inputs": [
				{
					"internalType": "bytes32",
					"name": "role",
					"type": "bytes32"
				},
				{
					"internalType": "address",
					"name": "account",
					"type": "address"
				}
			],
			"name": "grantRole",
			"outputs": [],
			"stateMutability": "nonpayable",
			"type": "function"
		},
		{
			"inputs": [
				{
					"internalType": "bytes32",
					"name": "role",
					"type": "bytes32"
				},
				{
					"internalType": "address",
					"name": "account",
					"type": "address"
				}
			],
			"name": "grantRoleTo",
			"outputs": [],
			"stateMutability": "nonpayable",
			"type": "function"
		},
		{
			"inputs": [
				{
					"internalType": "bytes32",
					"name": "role",
					"type": "bytes32"
				},
				{
					"internalType": "address",
					"name": "account",
					"type": "address"
				}
			],
			"name": "hasRole",
			"outputs": [
				{
					"internalType": "bool",
					"name": "",
					"type": "bool"
				}
			],
			"stateMutability": "view",
			"type": "function"
		},
		{
			"inputs": [
				{
					"internalType": "address",
					"name": "account",
					"type": "address"
				},
				{
					"internalType": "address",
					"name": "operator",
					"type": "address"
				}
			],
			"name": "isApprovedForAll",
			"outputs": [
				{
					"internalType": "bool",
					"name": "",
					"type": "bool"
				}
			],
			"stateMutability": "view",
			"type": "function"
		},
		{
			"inputs": [],
			"name": "isOperatorApprovedForContractNFTs",
			"outputs": [
				{
					"internalType": "bool",
					"name": "",
					"type": "bool"
				}
			],
			"stateMutability": "view",
			"type": "function"
		},
		{
			"inputs": [
				{
					"internalType": "address",
					"name": "account",
					"type": "address"
				},
				{
					"internalType": "uint256",
					"name": "id",
					"type": "uint256"
				},
				{
					"internalType": "uint256",
					"name": "amount",
					"type": "uint256"
				},
				{
					"internalType": "bytes",
					"name": "data",
					"type": "bytes"
				}
			],
			"name": "mint",
			"outputs": [],
			"stateMutability": "nonpayable",
			"type": "function"
		},
		{
			"inputs": [
				{
					"internalType": "address",
					"name": "to",
					"type": "address"
				},
				{
					"internalType": "uint256[]",
					"name": "ids",
					"type": "uint256[]"
				},
				{
					"internalType": "uint256[]",
					"name": "amounts",
					"type": "uint256[]"
				},
				{
					"internalType": "bytes",
					"name": "data",
					"type": "bytes"
				}
			],
			"name": "mintBatch",
			"outputs": [],
			"stateMutability": "nonpayable",
			"type": "function"
		},
		{
			"inputs": [],
			"name": "name",
			"outputs": [
				{
					"internalType": "string",
					"name": "",
					"type": "string"
				}
			],
			"stateMutability": "view",
			"type": "function"
		},
		{
			"inputs": [
				{
					"internalType": "address",
					"name": "operator",
					"type": "address"
				},
				{
					"internalType": "address",
					"name": "from",
					"type": "address"
				},
				{
					"internalType": "uint256[]",
					"name": "ids",
					"type": "uint256[]"
				},
				{
					"internalType": "uint256[]",
					"name": "values",
					"type": "uint256[]"
				},
				{
					"internalType": "bytes",
					"name": "data",
					"type": "bytes"
				}
			],
			"name": "onERC1155BatchReceived",
			"outputs": [
				{
					"internalType": "bytes4",
					"name": "",
					"type": "bytes4"
				}
			],
			"stateMutability": "nonpayable",
			"type": "function"
		},
		{
			"inputs": [
				{
					"internalType": "address",
					"name": "operator",
					"type": "address"
				},
				{
					"internalType": "address",
					"name": "from",
					"type": "address"
				},
				{
					"internalType": "uint256",
					"name": "id",
					"type": "uint256"
				},
				{
					"internalType": "uint256",
					"name": "value",
					"type": "uint256"
				},
				{
					"internalType": "bytes",
					"name": "data",
					"type": "bytes"
				}
			],
			"name": "onERC1155Received",
			"outputs": [
				{
					"internalType": "bytes4",
					"name": "",
					"type": "bytes4"
				}
			],
			"stateMutability": "nonpayable",
			"type": "function"
		},
		{
			"inputs": [],
			"name": "pause",
			"outputs": [],
			"stateMutability": "nonpayable",
			"type": "function"
		},
		{
			"inputs": [],
			"name": "paused",
			"outputs": [
				{
					"internalType": "bool",
					"name": "",
					"type": "bool"
				}
			],
			"stateMutability": "view",
			"type": "function"
		},
		{
			"inputs": [
				{
					"internalType": "bytes32",
					"name": "role",
					"type": "bytes32"
				},
				{
					"internalType": "address",
					"name": "callerConfirmation",
					"type": "address"
				}
			],
			"name": "renounceRole",
			"outputs": [],
			"stateMutability": "nonpayable",
			"type": "function"
		},
		{
			"inputs": [
				{
					"internalType": "bytes32",
					"name": "role",
					"type": "bytes32"
				},
				{
					"internalType": "address",
					"name": "account",
					"type": "address"
				}
			],
			"name": "revokeRole",
			"outputs": [],
			"stateMutability": "nonpayable",
			"type": "function"
		},
		{
			"inputs": [
				{
					"internalType": "address",
					"name": "from",
					"type": "address"
				},
				{
					"internalType": "address",
					"name": "to",
					"type": "address"
				},
				{
					"internalType": "uint256[]",
					"name": "ids",
					"type": "uint256[]"
				},
				{
					"internalType": "uint256[]",
					"name": "values",
					"type": "uint256[]"
				},
				{
					"internalType": "bytes",
					"name": "data",
					"type": "bytes"
				}
			],
			"name": "safeBatchTransferFrom",
			"outputs": [],
			"stateMutability": "nonpayable",
			"type": "function"
		},
		{
			"inputs": [
				{
					"internalType": "string",
					"name": "tokenURI",
					"type": "string"
				},
				{
					"internalType": "uint256",
					"name": "amount",
					"type": "uint256"
				},
				{
					"internalType": "bytes32",
					"name": "cid",
					"type": "bytes32"
				},
				{
					"internalType": "string",
					"name": "suffix",
					"type": "string"
				}
			],
			"name": "safeCast",
			"outputs": [],
			"stateMutability": "nonpayable",
			"type": "function"
		},
		{
			"inputs": [
				{
					"internalType": "address",
					"name": "from",
					"type": "address"
				},
				{
					"internalType": "address",
					"name": "to",
					"type": "address"
				},
				{
					"internalType": "uint256",
					"name": "id",
					"type": "uint256"
				},
				{
					"internalType": "uint256",
					"name": "value",
					"type": "uint256"
				},
				{
					"internalType": "bytes",
					"name": "data",
					"type": "bytes"
				}
			],
			"name": "safeTransferFrom",
			"outputs": [],
			"stateMutability": "nonpayable",
			"type": "function"
		},
		{
			"inputs": [
				{
					"internalType": "address",
					"name": "operator",
					"type": "address"
				},
				{
					"internalType": "bool",
					"name": "approved",
					"type": "bool"
				}
			],
			"name": "setApprovalForAll",
			"outputs": [],
			"stateMutability": "nonpayable",
			"type": "function"
		},
		{
			"inputs": [
				{
					"internalType": "uint256",
					"name": "tokenId",
					"type": "uint256"
				},
				{
					"internalType": "string",
					"name": "newURI",
					"type": "string"
				}
			],
			"name": "setTokenURI",
			"outputs": [],
			"stateMutability": "nonpayable",
			"type": "function"
		},
		{
			"inputs": [
				{
					"internalType": "string",
					"name": "data",
					"type": "string"
				}
			],
			"name": "storeData",
			"outputs": [],
			"stateMutability": "nonpayable",
			"type": "function"
		},
		{
			"inputs": [
				{
					"internalType": "uint256",
					"name": "",
					"type": "uint256"
				}
			],
			"name": "storedData",
			"outputs": [
				{
					"internalType": "string",
					"name": "",
					"type": "string"
				}
			],
			"stateMutability": "view",
			"type": "function"
		},
		{
			"inputs": [
				{
					"internalType": "bytes4",
					"name": "interfaceId",
					"type": "bytes4"
				}
			],
			"name": "supportsInterface",
			"outputs": [
				{
					"internalType": "bool",
					"name": "",
					"type": "bool"
				}
			],
			"stateMutability": "view",
			"type": "function"
		},
		{
			"inputs": [
				{
					"internalType": "uint256",
					"name": "",
					"type": "uint256"
				}
			],
			"name": "tokenIds",
			"outputs": [
				{
					"internalType": "uint256",
					"name": "",
					"type": "uint256"
				}
			],
			"stateMutability": "view",
			"type": "function"
		},
		{
			"inputs": [],
			"name": "totalSupply",
			"outputs": [
				{
					"internalType": "uint256",
					"name": "",
					"type": "uint256"
				}
			],
			"stateMutability": "view",
			"type": "function"
		},
		{
			"inputs": [
				{
					"internalType": "uint256",
					"name": "id",
					"type": "uint256"
				}
			],
			"name": "totalSupply",
			"outputs": [
				{
					"internalType": "uint256",
					"name": "",
					"type": "uint256"
				}
			],
			"stateMutability": "view",
			"type": "function"
		},
		{
			"inputs": [
				{
					"internalType": "address",
					"name": "tokenAddress",
					"type": "address"
				},
				{
					"internalType": "address",
					"name": "to",
					"type": "address"
				},
				{
					"internalType": "uint256",
					"name": "amount",
					"type": "uint256"
				},
				{
					"internalType": "string",
					"name": "targetURI",
					"type": "string"
				}
			],
			"name": "transferERC20",
			"outputs": [],
			"stateMutability": "nonpayable",
			"type": "function"
		},
		{
			"inputs": [
				{
					"internalType": "address",
					"name": "to",
					"type": "address"
				},
				{
					"internalType": "string",
					"name": "targetURI",
					"type": "string"
				},
				{
					"internalType": "uint256",
					"name": "amount",
					"type": "uint256"
				}
			],
			"name": "transferNFTByURI",
			"outputs": [],
			"stateMutability": "nonpayable",
			"type": "function"
		},
		{
			"inputs": [],
			"name": "unpause",
			"outputs": [],
			"stateMutability": "nonpayable",
			"type": "function"
		},
		{
			"inputs": [
				{
					"internalType": "uint256",
					"name": "tokenId",
					"type": "uint256"
				}
			],
			"name": "uri",
			"outputs": [
				{
					"internalType": "string",
					"name": "",
					"type": "string"
				}
			],
			"stateMutability": "view",
			"type": "function"
		}
	]
}