{
	"data": {
		"bytecode": {
			"linkReferences": {},
			"object": "608060405260405180602001604052805f81525060059081620000239190620006c0565b5034801562000030575f80fd5b5060405180602001604052805f8152505f60015f6101000a81548160ff0219169083151502179055506200006a816200017460201b60201c565b506200008e5f801b620000826200018960201b60201c565b6200019060201b60201c565b50620000d07f9f2df0fed2c77648de5860a4cc508cd0818c85b8b8a1ab4ceeef8d981c8956a6620000c46200018960201b60201c565b6200019060201b60201c565b50620001127fe926d122b799dcbe5c2eccdf60ae0aefbb1a4bc75a7848bb07befecf8c775f5c620001066200018960201b60201c565b6200019060201b60201c565b506040518060400160405280601381526020017f436172626f6e2043726564697420417373657400000000000000000000000000815250600b9081620001599190620006c0565b506200016e303060016200028b60201b60201c565b62000839565b8060049081620001859190620006c0565b5050565b5f33905090565b5f620001a38383620003f960201b60201c565b620002815760015f808581526020019081526020015f205f015f8473ffffffffffffffffffffffffffffffffffffffff1673ffffffffffffffffffffffffffffffffffffffff1681526020019081526020015f205f6101000a81548160ff0219169083151502179055506200021d6200018960201b60201c565b73ffffffffffffffffffffffffffffffffffffffff168273ffffffffffffffffffffffffffffffffffffffff16847f2f8788117e7eff1d82e926ec794901d17c78024a50270940304540a733656f0d60405160405180910390a46001905062000285565b5f90505b92915050565b5f73ffffffffffffffffffffffffffffffffffffffff168273ffffffffffffffffffffffffffffffffffffffff1603620002fe575f6040517fced3e100000000000000000000000000000000000000000000000000000000008152600401620002f59190620007e7565b60405180910390fd5b8060035f8573ffffffffffffffffffffffffffffffffffffffff1673ffffffffffffffffffffffffffffffffffffffff1681526020019081526020015f205f8473ffffffffffffffffffffffffffffffffffffffff1673ffffffffffffffffffffffffffffffffffffffff1681526020019081526020015f205f6101000a81548160ff0219169083151502179055508173ffffffffffffffffffffffffffffffffffffffff168373ffffffffffffffffffffffffffffffffffffffff167f17307eab39ab6107e8899845ad3d59bd9653f200f220920489ca2b5937696c3183604051620003ec91906200081e565b60405180910390a3505050565b5f805f8481526020019081526020015f205f015f8373ffffffffffffffffffffffffffffffffffffffff1673ffffffffffffffffffffffffffffffffffffffff1681526020019081526020015f205f9054906101000a900460ff16905092915050565b5f81519050919050565b7f4e487b71000000000000000000000000000000000000000000000000000000005f52604160045260245ffd5b7f4e487b71000000000000000000000000000000000000000000000000000000005f52602260045260245ffd5b5f6002820490506001821680620004d857607f821691505b602082108103620004ee57620004ed62000493565b5b50919050565b5f819050815f5260205f209050919050565b5f6020601f8301049050919050565b5f82821b905092915050565b5f60088302620005527fffffffffffffffffffffffffffffffffffffffffffffffffffffffffffffffff8262000515565b6200055e868362000515565b95508019841693508086168417925050509392505050565b5f819050919050565b5f819050919050565b5f620005a8620005a26200059c8462000576565b6200057f565b62000576565b9050919050565b5f819050919050565b620005c38362000588565b620005db620005d282620005af565b84845462000521565b825550505050565b5f90565b620005f1620005e3565b620005fe818484620005b8565b505050565b5b818110156200062557620006195f82620005e7565b60018101905062000604565b5050565b601f82111562000674576200063e81620004f4565b620006498462000506565b8101602085101562000659578190505b62000671620006688562000506565b83018262000603565b50505b505050565b5f82821c905092915050565b5f620006965f198460080262000679565b1980831691505092915050565b5f620006b0838362000685565b9150826002028217905092915050565b620006cb826200045c565b67ffffffffffffffff811115620006e757620006e662000466565b5b620006f38254620004c0565b6200070082828562000629565b5f60209050601f83116001811462000736575f841562000721578287015190505b6200072d8582620006a3565b8655506200079c565b601f1984166200074686620004f4565b5f5b828110156200076f5784890151825560018201915060208501945060208101905062000748565b868310156200078f57848901516200078b601f89168262000685565b8355505b6001600288020188555050505b505050505050565b5f73ffffffffffffffffffffffffffffffffffffffff82169050919050565b5f620007cf82620007a4565b9050919050565b620007e181620007c3565b82525050565b5f602082019050620007fc5f830184620007d6565b92915050565b5f8115159050919050565b620008188162000802565b82525050565b5f602082019050620008335f8301846200080d565b92915050565b6175fe80620008475f395ff3fe608060405234801561000f575f80fd5b5060043610610375575f3560e01c806391d14854116101d1578063caff99ce11610102578063e22c4515116100a0578063f242432a1161007a578063f242432a14610ac5578063f5298aca14610ae1578063fb218f5f14610afd578063fdbda0ec14610b1957610375565b8063e22c451514610a49578063e985e9c514610a65578063f23a6e6114610a9557610375565b8063d58778d6116100dc578063d58778d614610998578063dd5b3a65146109c8578063dedaff54146109e6578063df6f5b2014610a1957610375565b8063caff99ce14610940578063d53913931461095e578063d547741f1461097c57610375565b8063a70987281161016f578063bc197c8111610149578063bc197c81146108a6578063bd85b039146108d6578063be7cf75014610906578063c71d0ea31461092257610375565b8063a709872814610828578063a9b566a314610846578063b21fa6541461087657610375565b8063a217fddf116101ab578063a217fddf146107b4578063a22cb465146107d2578063a3e1ff32146107ee578063a5e2361d1461080c57610375565b806391d148541461074c5780639cdf0f461461077c5780639dd6a4491461079857610375565b80633038bfdf116102ab5780636804a95811610249578063731133e911610223578063731133e9146106d857806377e1b4ca146106f45780638456cb59146107125780638bb27d021461071c57610375565b80636804a958146106825780636b20c454146106a057806370164f0e146106bc57610375565b80634e1273f4116102855780634e1273f4146105d45780634f558e79146106045780635a1f3c28146106345780635c975abb1461066457610375565b80633038bfdf1461059257806336568abe146105ae5780633f4ba83a146105ca57610375565b80631f43cf8511610318578063258672aa116102f2578063258672aa146104f95780632eb2c2d61461052a5780632f2ff15d14610546578063303771741461056257610375565b80631f43cf851461047d5780631f7fdffa146104ad578063248a9ca3146104c957610375565b806306fdde031161035457806306fdde03146103f55780630e89341c14610413578063162094c41461044357806318160ddd1461045f57610375565b8062fdd58e1461037957806301ffc9a7146103a9578063059dfe13146103d9575b5f80fd5b610393600480360381019061038e9190614b4b565b610b4a565b6040516103a09190614b98565b60405180910390f35b6103c360048036038101906103be9190614c06565b610ba0565b6040516103d09190614c4b565b60405180910390f35b6103f360048036038101906103ee9190614da0565b610c19565b005b6103fd610db3565b60405161040a9190614e61565b60405180910390f35b61042d60048036038101906104289190614e81565b610e3f565b60405161043a9190614e61565b60405180910390f35b61045d60048036038101906104589190614eac565b610e51565b005b610467610eb6565b6040516104749190614b98565b60405180910390f35b61049760048036038101906104929190614f06565b610ebf565b6040516104a491906150e8565b60405180910390f35b6104c760048036038101906104c2919061526a565b6110c4565b005b6104e360048036038101906104de919061534c565b611101565b6040516104f09190615386565b60405180910390f35b610513600480360381019061050e9190614e81565b61111d565b60405161052192919061539f565b60405180910390f35b610544600480360381019061053f91906153c6565b61113d565b005b610560600480360381019061055b9190615491565b6111e4565b005b61057c60048036038101906105779190614e81565b611206565b6040516105899190614e61565b60405180910390f35b6105ac60048036038101906105a791906154cf565b6112ac565b005b6105c860048036038101906105c39190615491565b611493565b005b6105d261150e565b005b6105ee60048036038101906105e991906155fb565b611525565b6040516105fb9190615719565b60405180910390f35b61061e60048036038101906106199190614e81565b61162c565b60405161062b9190614c4b565b60405180910390f35b61064e60048036038101906106499190614e81565b61163f565b60405161065b9190615773565b60405180910390f35b61066c611758565b6040516106799190614c4b565b60405180910390f35b61068a61176d565b6040516106979190615888565b60405180910390f35b6106ba60048036038101906106b591906158a8565b6118de565b005b6106d660048036038101906106d19190614da0565b61198a565b005b6106f260048036038101906106ed9190615930565b611b3e565b005b6106fc611b7b565b6040516107099190614c4b565b60405180910390f35b61071a611b8b565b005b61073660048036038101906107319190614e81565b611ba2565b6040516107439190615aba565b60405180910390f35b61076660048036038101906107619190615491565b611d16565b6040516107739190614c4b565b60405180910390f35b61079660048036038101906107919190614da0565b611d79565b005b6107b260048036038101906107ad9190615b04565b611f39565b005b6107bc612004565b6040516107c99190615386565b60405180910390f35b6107ec60048036038101906107e79190615b04565b61200a565b005b6107f6612020565b60405161080391906150e8565b60405180910390f35b61082660048036038101906108219190615491565b6121ba565b005b6108306121d6565b60405161083d91906150e8565b60405180910390f35b610860600480360381019061085b9190614e81565b61236b565b60405161086d9190614b98565b60405180910390f35b610890600480360381019061088b9190614e81565b61238b565b60405161089d9190614e61565b60405180910390f35b6108c060048036038101906108bb9190615bf0565b612484565b6040516108cd9190615cd6565b60405180910390f35b6108f060048036038101906108eb9190614e81565b61249b565b6040516108fd9190614b98565b60405180910390f35b610920600480360381019061091b9190615cef565b6124b5565b005b61092a6126aa565b6040516109379190615e33565b60405180910390f35b610948612795565b6040516109559190615386565b60405180910390f35b6109666127b9565b6040516109739190615386565b60405180910390f35b61099660048036038101906109919190615491565b6127dd565b005b6109b260048036038101906109ad9190614e81565b6127ff565b6040516109bf9190614b98565b60405180910390f35b6109d061281f565b6040516109dd9190615f0e565b60405180910390f35b610a0060048036038101906109fb9190615f2e565b6128f3565b604051610a109493929190615f7b565b60405180910390f35b610a336004803603810190610a2e9190614e81565b612977565b604051610a409190615feb565b60405180910390f35b610a636004803603810190610a5e9190616004565b6129ff565b005b610a7f6004803603810190610a7a9190616084565b612dd5565b604051610a8c9190614c4b565b60405180910390f35b610aaf6004803603810190610aaa91906160c2565b612e63565b604051610abc9190615cd6565b60405180910390f35b610adf6004803603810190610ada9190616158565b612e78565b005b610afb6004803603810190610af691906161eb565b612f1f565b005b610b176004803603810190610b129190614da0565b612fcb565b005b610b336004803603810190610b2e9190614e81565b61309e565b604051610b4192919061623b565b60405180910390f35b5f60025f8381526020019081526020015f205f8473ffffffffffffffffffffffffffffffffffffffff1673ffffffffffffffffffffffffffffffffffffffff1681526020019081526020015f2054905092915050565b5f7f4e2312e0000000000000000000000000000000000000000000000000000000007bffffffffffffffffffffffffffffffffffffffffffffffffffffffff1916827bffffffffffffffffffffffffffffffffffffffffffffffffffffffff19161480610c125750610c1182613144565b5b9050919050565b7fe926d122b799dcbe5c2eccdf60ae0aefbb1a4bc75a7848bb07befecf8c775f5c610c4381613225565b5f5b600e80549050811015610cf1575f600e8281548110610c6757610c66616269565b5b905f5260205f20015490508380519060200120600c5f8381526020019081526020015f20600101604051610c9b919061638f565b604051809103902003610ce3576040517f08c379a0000000000000000000000000000000000000000000000000000000008152600401610cda90616415565b60405180910390fd5b508080600101915050610c45565b50610cfc600a613239565b5f610d07600a61324d565b9050604051806040016040528082815260200184815250600c5f8381526020019081526020015f205f820151815f01556020820151816001019081610d4c91906165d0565b50905050600e81908060018154018082558091505060019003905f5260205f20015f9091909190915055807f62b7b5ba11bfc95430fab0460fdf99b9c8fbc2b3a6a48caf79c3ee1b591c033684604051610da69190614e61565b60405180910390a2505050565b600b8054610dc0906162c3565b80601f0160208091040260200160405190810160405280929190818152602001828054610dec906162c3565b8015610e375780601f10610e0e57610100808354040283529160200191610e37565b820191905f5260205f20905b815481529060010190602001808311610e1a57829003601f168201915b505050505081565b6060610e4a82613259565b9050919050565b5f801b610e5d81613225565b5f610e678461249b565b11610ea7576040517f08c379a0000000000000000000000000000000000000000000000000000000008152600401610e9e9061670f565b60405180910390fd5b610eb18383613338565b505050565b5f600854905090565b60605f73ffffffffffffffffffffffffffffffffffffffff168273ffffffffffffffffffffffffffffffffffffffff1603610f2f576040517f08c379a0000000000000000000000000000000000000000000000000000000008152600401610f269061679d565b60405180910390fd5b5f805b600f80549050811015610f88575f610f6685600f8481548110610f5857610f57616269565b5b905f5260205f200154610b4a565b1115610f7b578180610f77906167e8565b9250505b8080600101915050610f32565b505f8167ffffffffffffffff811115610fa457610fa3614c7c565b5b604051908082528060200260200182016040528015610fdd57816020015b610fca6149f5565b815260200190600190039081610fc25790505b5090505f805b600f805490508110156110b8575f600f828154811061100557611004616269565b5b905f5260205f20015490505f61101b8883610b4a565b90505f8111156110a957604051806080016040528083815260200182815260200161104584610e3f565b8152602001600d5f8581526020019081526020015f206040518060400160405290815f820154815260200160018201548152505081525085858151811061108f5761108e616269565b5b602002602001018190525083806110a5906167e8565b9450505b50508080600101915050610fe3565b50819350505050919050565b7f9f2df0fed2c77648de5860a4cc508cd0818c85b8b8a1ab4ceeef8d981c8956a66110ee81613225565b6110fa8585858561339b565b5050505050565b5f805f8381526020019081526020015f20600101549050919050565b600d602052805f5260405f205f91509050805f0154908060010154905082565b5f61114661341e565b90508073ffffffffffffffffffffffffffffffffffffffff168673ffffffffffffffffffffffffffffffffffffffff161415801561118b57506111898682612dd5565b155b156111cf5780866040517fe237d9220000000000000000000000000000000000000000000000000000000081526004016111c692919061682f565b60405180910390fd5b6111dc8686868686613425565b505050505050565b6111ed82611101565b6111f681613225565b6112008383613519565b50505050565b60108181548110611215575f80fd5b905f5260205f20015f91509050805461122d906162c3565b80601f0160208091040260200160405190810160405280929190818152602001828054611259906162c3565b80156112a45780601f1061127b576101008083540402835291602001916112a4565b820191905f5260205f20905b81548152906001019060200180831161128757829003601f168201915b505050505081565b5f801b6112b881613225565b5f73ffffffffffffffffffffffffffffffffffffffff168473ffffffffffffffffffffffffffffffffffffffff1603611326576040517f08c379a000000000000000000000000000000000000000000000000000000000815260040161131d906168c6565b60405180910390fd5b5f8211611368576040517f08c379a000000000000000000000000000000000000000000000000000000000815260040161135f90616954565b60405180910390fd5b5f805b600f805490508110156113e25784805190602001206113a5600f838154811061139757611396616269565b5b905f5260205f200154610e3f565b80519060200120036113d557600f81815481106113c5576113c4616269565b5b905f5260205f20015491506113e2565b808060010191505061136b565b505f8103611425576040517f08c379a000000000000000000000000000000000000000000000000000000000815260040161141c906169e2565b60405180910390fd5b826114303083610b4a565b1015611471576040517f08c379a000000000000000000000000000000000000000000000000000000000815260040161146890616a70565b60405180910390fd5b61148c3086838660405180602001604052805f815250612e78565b5050505050565b61149b61341e565b73ffffffffffffffffffffffffffffffffffffffff168173ffffffffffffffffffffffffffffffffffffffff16146114ff576040517f6697b23200000000000000000000000000000000000000000000000000000000815260040160405180910390fd5b6115098282613602565b505050565b5f801b61151a81613225565b6115226136eb565b50565b6060815183511461157157815183516040517f5b059991000000000000000000000000000000000000000000000000000000008152600401611568929190616a8e565b60405180910390fd5b5f835167ffffffffffffffff81111561158d5761158c614c7c565b5b6040519080825280602002602001820160405280156115bb5781602001602082028036833780820191505090505b5090505f5b8451811015611621576115f76115df828761374c90919063ffffffff16565b6115f2838761375f90919063ffffffff16565b610b4a565b82828151811061160a57611609616269565b5b6020026020010181815250508060010190506115c0565b508091505092915050565b5f806116378361249b565b119050919050565b611647614a21565b5f600c5f8481526020019081526020015f205f01540361169c576040517f08c379a000000000000000000000000000000000000000000000000000000000815260040161169390616b25565b60405180910390fd5b600c5f8381526020019081526020015f206040518060400160405290815f82015481526020016001820180546116d1906162c3565b80601f01602080910402602001604051908101604052809291908181526020018280546116fd906162c3565b80156117485780601f1061171f57610100808354040283529160200191611748565b820191905f5260205f20905b81548152906001019060200180831161172b57829003601f168201915b5050505050815250509050919050565b5f60015f9054906101000a900460ff16905090565b60605f600e8054905067ffffffffffffffff81111561178f5761178e614c7c565b5b6040519080825280602002602001820160405280156117c857816020015b6117b5614a21565b8152602001906001900390816117ad5790505b5090505f5b600e805490508110156118d657600c5f600e83815481106117f1576117f0616269565b5b905f5260205f20015481526020019081526020015f206040518060400160405290815f820154815260200160018201805461182b906162c3565b80601f0160208091040260200160405190810160405280929190818152602001828054611857906162c3565b80156118a25780601f10611879576101008083540402835291602001916118a2565b820191905f5260205f20905b81548152906001019060200180831161188557829003601f168201915b5050505050815250508282815181106118be576118bd616269565b5b602002602001018190525080806001019150506117cd565b508091505090565b6118e661341e565b73ffffffffffffffffffffffffffffffffffffffff168373ffffffffffffffffffffffffffffffffffffffff161415801561192f575061192d8361192861341e565b612dd5565b155b1561197a5761193c61341e565b836040517fe237d92200000000000000000000000000000000000000000000000000000000815260040161197192919061682f565b60405180910390fd5b611985838383613772565b505050565b5f801b61199681613225565b5f5b600e80549050811015611afe575f600e82815481106119ba576119b9616269565b5b905f5260205f20015490508380519060200120600c5f8381526020019081526020015f206001016040516119ee919061638f565b604051809103902003611af057600c5f8281526020019081526020015f205f8082015f9055600182015f611a229190614a3a565b50506001600e80549050611a369190616b43565b821015611a8c57600e6001600e80549050611a519190616b43565b81548110611a6257611a61616269565b5b905f5260205f200154600e8381548110611a7f57611a7e616269565b5b905f5260205f2001819055505b600e805480611a9e57611a9d616b76565b5b600190038181905f5260205f20015f90559055807ff2c458821d360029e0b4d57e1f001b05db9d486ef001529d2e931753d7cf32f485604051611ae19190614e61565b60405180910390a25050611b3a565b508080600101915050611998565b506040517f08c379a0000000000000000000000000000000000000000000000000000000008152600401611b3190616c13565b60405180910390fd5b5050565b7f9f2df0fed2c77648de5860a4cc508cd0818c85b8b8a1ab4ceeef8d981c8956a6611b6881613225565b611b7485858585613802565b5050505050565b5f611b863033612dd5565b905090565b5f801b611b9781613225565b611b9f613897565b50565b60605f611bae8361249b565b11611bee576040517f08c379a0000000000000000000000000000000000000000000000000000000008152600401611be590616ca1565b60405180910390fd5b60115f8381526020019081526020015f20805480602002602001604051908101604052809291908181526020015f905b82821015611d0b578382905f5260205f2090600402016040518060800160405290815f82015f9054906101000a900473ffffffffffffffffffffffffffffffffffffffff1673ffffffffffffffffffffffffffffffffffffffff1673ffffffffffffffffffffffffffffffffffffffff168152602001600182015f9054906101000a900473ffffffffffffffffffffffffffffffffffffffff1673ffffffffffffffffffffffffffffffffffffffff1673ffffffffffffffffffffffffffffffffffffffff1681526020016002820154815260200160038201548152505081526020019060010190611c1e565b505050509050919050565b5f805f8481526020019081526020015f205f015f8373ffffffffffffffffffffffffffffffffffffffff1673ffffffffffffffffffffffffffffffffffffffff1681526020019081526020015f205f9054906101000a900460ff16905092915050565b5f801b611d8581613225565b5f825111611dc8576040517f08c379a0000000000000000000000000000000000000000000000000000000008152600401611dbf90616d2f565b60405180910390fd5b5f5b601080549050811015611ef957828051906020012060108281548110611df357611df2616269565b5b905f5260205f2001604051611e08919061638f565b604051809103902003611eec5760106001601080549050611e299190616b43565b81548110611e3a57611e39616269565b5b905f5260205f200160108281548110611e5657611e55616269565b5b905f5260205f20019081611e6a9190616d74565b506010805480611e7d57611e7c616b76565b5b600190038181905f5260205f20015f611e969190614a3a565b90553373ffffffffffffffffffffffffffffffffffffffff167f0e29642266027cb54ae2f8dfff02a7147b64461546559736868a4a962ac7e4ca84604051611ede9190614e61565b60405180910390a250611f35565b8080600101915050611dca565b506040517f08c379a0000000000000000000000000000000000000000000000000000000008152600401611f2c90616ea3565b60405180910390fd5b5050565b5f73ffffffffffffffffffffffffffffffffffffffff168273ffffffffffffffffffffffffffffffffffffffff1603611fa7576040517f08c379a0000000000000000000000000000000000000000000000000000000008152600401611f9e90616f31565b60405180910390fd5b611fb23083836138f8565b8173ffffffffffffffffffffffffffffffffffffffff167f8d3369e8ce7e1085710a510ca605f9599e0ae164e4c5a0c65b8106d6681f8efe82604051611ff89190614c4b565b60405180910390a25050565b5f801b81565b61201c61201561341e565b83836138f8565b5050565b60605f3390505f805b600f8054905081101561207f575f61205d84600f848154811061204f5761204e616269565b5b905f5260205f200154610b4a565b111561207257818061206e906167e8565b9250505b8080600101915050612029565b505f8167ffffffffffffffff81111561209b5761209a614c7c565b5b6040519080825280602002602001820160405280156120d457816020015b6120c16149f5565b8152602001906001900390816120b95790505b5090505f805b600f805490508110156121af575f600f82815481106120fc576120fb616269565b5b905f5260205f20015490505f6121128783610b4a565b90505f8111156121a057604051806080016040528083815260200182815260200161213c84610e3f565b8152602001600d5f8581526020019081526020015f206040518060400160405290815f820154815260200160018201548152505081525085858151811061218657612185616269565b5b6020026020010181905250838061219c906167e8565b9450505b505080806001019150506120da565b508194505050505090565b5f801b6121c681613225565b6121d08383613519565b50505050565b60605f805b600f80549050811015612231575f61220f30600f848154811061220157612200616269565b5b905f5260205f200154610b4a565b1115612224578180612220906167e8565b9250505b80806001019150506121db565b505f8167ffffffffffffffff81111561224d5761224c614c7c565b5b60405190808252806020026020018201604052801561228657816020015b6122736149f5565b81526020019060019003908161226b5790505b5090505f805b600f80549050811015612361575f600f82815481106122ae576122ad616269565b5b905f5260205f20015490505f6122c43083610b4a565b90505f8111156123525760405180608001604052808381526020018281526020016122ee84610e3f565b8152602001600d5f8581526020019081526020015f206040518060400160405290815f820154815260200160018201548152505081525085858151811061233857612337616269565b5b6020026020010181905250838061234e906167e8565b9450505b5050808060010191505061228c565b5081935050505090565b600e818154811061237a575f80fd5b905f5260205f20015f915090505481565b60605f600c5f8481526020019081526020015f205f0154036123e2576040517f08c379a00000000000000000000000000000000000000000000000000000000081526004016123d990616b25565b60405180910390fd5b600c5f8381526020019081526020015f206001018054612401906162c3565b80601f016020809104026020016040519081016040528092919081815260200182805461242d906162c3565b80156124785780601f1061244f57610100808354040283529160200191612478565b820191905f5260205f20905b81548152906001019060200180831161245b57829003601f168201915b50505050509050919050565b5f63bc197c8160e01b905098975050505050505050565b5f60075f8381526020019081526020015f20549050919050565b7f9f2df0fed2c77648de5860a4cc508cd0818c85b8b8a1ab4ceeef8d981c8956a66124df81613225565b5f805b600e80549050811015612585578380519060200120600c5f600e848154811061250e5761250d616269565b5b905f5260205f20015481526020019081526020015f20600101604051612534919061638f565b60405180910390200361257857600c5f600e838154811061255857612557616269565b5b905f5260205f20015481526020019081526020015f205f01549150612585565b80806001019150506124e2565b505f81036125c8576040517f08c379a00000000000000000000000000000000000000000000000000000000081526004016125bf90616fbf565b60405180910390fd5b6125d26009613239565b5f6125dd600961324d565b90506125f930828860405180602001604052805f815250613802565b6126038188613338565b5f600d5f8381526020019081526020015f20905085815f0181905550828160010181905550600f82908060018154018082558091505060019003905f5260205f20015f90919091909150553073ffffffffffffffffffffffffffffffffffffffff167fafde70c98492a2ca81a3e5545bed44efeb0747a64b5e63a918df2e9d8e83ef3583888a60405161269893929190616fdd565b60405180910390a25050505050505050565b60605f600f8054905067ffffffffffffffff8111156126cc576126cb614c7c565b5b60405190808252806020026020018201604052801561270557816020015b6126f2614a77565b8152602001906001900390816126ea5790505b5090505f5b600f8054905081101561278d57600d5f600f838154811061272e5761272d616269565b5b905f5260205f20015481526020019081526020015f206040518060400160405290815f820154815260200160018201548152505082828151811061277557612774616269565b5b6020026020010181905250808060010191505061270a565b508091505090565b7fe926d122b799dcbe5c2eccdf60ae0aefbb1a4bc75a7848bb07befecf8c775f5c81565b7f9f2df0fed2c77648de5860a4cc508cd0818c85b8b8a1ab4ceeef8d981c8956a681565b6127e682611101565b6127ef81613225565b6127f98383613602565b50505050565b600f818154811061280e575f80fd5b905f5260205f20015f915090505481565b60606010805480602002602001604051908101604052809291908181526020015f905b828210156128ea578382905f5260205f2001805461285f906162c3565b80601f016020809104026020016040519081016040528092919081815260200182805461288b906162c3565b80156128d65780601f106128ad576101008083540402835291602001916128d6565b820191905f5260205f20905b8154815290600101906020018083116128b957829003601f168201915b505050505081526020019060010190612842565b50505050905090565b6011602052815f5260405f20818154811061290c575f80fd5b905f5260205f2090600402015f9150915050805f015f9054906101000a900473ffffffffffffffffffffffffffffffffffffffff1690806001015f9054906101000a900473ffffffffffffffffffffffffffffffffffffffff16908060020154908060030154905084565b61297f614a77565b5f6129898361249b565b116129c9576040517f08c379a00000000000000000000000000000000000000000000000000000000081526004016129c090616ca1565b60405180910390fd5b600d5f8381526020019081526020015f206040518060400160405290815f82015481526020016001820154815250509050919050565b5f73ffffffffffffffffffffffffffffffffffffffff168373ffffffffffffffffffffffffffffffffffffffff1603612a6d576040517f08c379a0000000000000000000000000000000000000000000000000000000008152600401612a64906168c6565b60405180910390fd5b5f8211612aaf576040517f08c379a0000000000000000000000000000000000000000000000000000000008152600401612aa690616954565b60405180910390fd5b5f849050828173ffffffffffffffffffffffffffffffffffffffff166370a08231336040518263ffffffff1660e01b8152600401612aed9190617012565b602060405180830381865afa158015612b08573d5f803e3d5ffd5b505050506040513d601f19601f82011682018060405250810190612b2c919061703f565b1015612b6d576040517f08c379a0000000000000000000000000000000000000000000000000000000008152600401612b64906170da565b60405180910390fd5b828173ffffffffffffffffffffffffffffffffffffffff1663dd62ed3e33306040518363ffffffff1660e01b8152600401612ba992919061682f565b602060405180830381865afa158015612bc4573d5f803e3d5ffd5b505050506040513d601f19601f82011682018060405250810190612be8919061703f565b1015612c29576040517f08c379a0000000000000000000000000000000000000000000000000000000008152600401612c2090617168565b60405180910390fd5b8073ffffffffffffffffffffffffffffffffffffffff166323b872dd3386866040518463ffffffff1660e01b8152600401612c6693929190617186565b6020604051808303815f875af1158015612c82573d5f803e3d5ffd5b505050506040513d601f19601f82011682018060405250810190612ca691906171cf565b505f805b600f80549050811015612d21578380519060200120612ce4600f8381548110612cd657612cd5616269565b5b905f5260205f200154610e3f565b8051906020012003612d1457600f8181548110612d0457612d03616269565b5b905f5260205f2001549150612d21565b8080600101915050612caa565b505f8103612d64576040517f08c379a0000000000000000000000000000000000000000000000000000000008152600401612d5b906169e2565b60405180910390fd5b6001612d703083610b4a565b1015612db1576040517f08c379a0000000000000000000000000000000000000000000000000000000008152600401612da890616a70565b60405180910390fd5b612dcd303383600160405180602001604052805f815250612e78565b505050505050565b5f60035f8473ffffffffffffffffffffffffffffffffffffffff1673ffffffffffffffffffffffffffffffffffffffff1681526020019081526020015f205f8373ffffffffffffffffffffffffffffffffffffffff1673ffffffffffffffffffffffffffffffffffffffff1681526020019081526020015f205f9054906101000a900460ff16905092915050565b5f63f23a6e6160e01b90509695505050505050565b5f612e8161341e565b90508073ffffffffffffffffffffffffffffffffffffffff168673ffffffffffffffffffffffffffffffffffffffff1614158015612ec65750612ec48682612dd5565b155b15612f0a5780866040517fe237d922000000000000000000000000000000000000000000000000000000008152600401612f0192919061682f565b60405180910390fd5b612f178686868686613a61565b505050505050565b612f2761341e565b73ffffffffffffffffffffffffffffffffffffffff168373ffffffffffffffffffffffffffffffffffffffff1614158015612f705750612f6e83612f6961341e565b612dd5565b155b15612fbb57612f7d61341e565b836040517fe237d922000000000000000000000000000000000000000000000000000000008152600401612fb292919061682f565b60405180910390fd5b612fc6838383613b67565b505050565b5f801b612fd781613225565b5f82511161301a576040517f08c379a000000000000000000000000000000000000000000000000000000000815260040161301190616d2f565b60405180910390fd5b601082908060018154018082558091505060019003905f5260205f20015f90919091909150908161304b91906165d0565b503373ffffffffffffffffffffffffffffffffffffffff167f4b33dafb50dac5530c30aca4e4069fd67a18220888b874b8519558d1769d49a1836040516130929190614e61565b60405180910390a25050565b600c602052805f5260405f205f91509050805f0154908060010180546130c3906162c3565b80601f01602080910402602001604051908101604052809291908181526020018280546130ef906162c3565b801561313a5780601f106131115761010080835404028352916020019161313a565b820191905f5260205f20905b81548152906001019060200180831161311d57829003601f168201915b5050505050905082565b5f7fd9b67a26000000000000000000000000000000000000000000000000000000007bffffffffffffffffffffffffffffffffffffffffffffffffffffffff1916827bffffffffffffffffffffffffffffffffffffffffffffffffffffffff1916148061320e57507f0e89341c000000000000000000000000000000000000000000000000000000007bffffffffffffffffffffffffffffffffffffffffffffffffffffffff1916827bffffffffffffffffffffffffffffffffffffffffffffffffffffffff1916145b8061321e575061321d82613c09565b5b9050919050565b6132368161323161341e565b613c82565b50565b6001815f015f828254019250508190555050565b5f815f01549050919050565b60605f60065f8481526020019081526020015f208054613278906162c3565b80601f01602080910402602001604051908101604052809291908181526020018280546132a4906162c3565b80156132ef5780601f106132c6576101008083540402835291602001916132ef565b820191905f5260205f20905b8154815290600101906020018083116132d257829003601f168201915b505050505090505f81511161330c5761330783613cd3565b613330565b6005816040516020016133209291906172b4565b6040516020818303038152906040525b915050919050565b8060065f8481526020019081526020015f20908161335691906165d0565b50817f6bb7ff708619ba0610cba295a58592e0451dee2622938c8755667688daf3529b61338284610e3f565b60405161338f9190614e61565b60405180910390a25050565b5f73ffffffffffffffffffffffffffffffffffffffff168473ffffffffffffffffffffffffffffffffffffffff160361340b575f6040517f57f447ce0000000000000000000000000000000000000000000000000000000081526004016134029190617012565b60405180910390fd5b6134185f85858585613d65565b50505050565b5f33905090565b5f73ffffffffffffffffffffffffffffffffffffffff168473ffffffffffffffffffffffffffffffffffffffff1603613495575f6040517f57f447ce00000000000000000000000000000000000000000000000000000000815260040161348c9190617012565b60405180910390fd5b5f73ffffffffffffffffffffffffffffffffffffffff168573ffffffffffffffffffffffffffffffffffffffff1603613505575f6040517f01a835140000000000000000000000000000000000000000000000000000000081526004016134fc9190617012565b60405180910390fd5b6135128585858585613d65565b5050505050565b5f6135248383611d16565b6135f85760015f808581526020019081526020015f205f015f8473ffffffffffffffffffffffffffffffffffffffff1673ffffffffffffffffffffffffffffffffffffffff1681526020019081526020015f205f6101000a81548160ff02191690831515021790555061359561341e565b73ffffffffffffffffffffffffffffffffffffffff168273ffffffffffffffffffffffffffffffffffffffff16847f2f8788117e7eff1d82e926ec794901d17c78024a50270940304540a733656f0d60405160405180910390a4600190506135fc565b5f90505b92915050565b5f61360d8383611d16565b156136e1575f805f8581526020019081526020015f205f015f8473ffffffffffffffffffffffffffffffffffffffff1673ffffffffffffffffffffffffffffffffffffffff1681526020019081526020015f205f6101000a81548160ff02191690831515021790555061367e61341e565b73ffffffffffffffffffffffffffffffffffffffff168273ffffffffffffffffffffffffffffffffffffffff16847ff6391f5c32d9c69d2a47ea670b442974b53935d1edc7fd64eb21e047a839171b60405160405180910390a4600190506136e5565b5f90505b92915050565b6136f3613e11565b5f60015f6101000a81548160ff0219169083151502179055507f5db9ee0a495bf2e6ff9c91a7834c1ba4fdd244a5e8aa4e537bd38aeae4b073aa61373561341e565b6040516137429190617012565b60405180910390a1565b5f60208202602084010151905092915050565b5f60208202602084010151905092915050565b5f73ffffffffffffffffffffffffffffffffffffffff168373ffffffffffffffffffffffffffffffffffffffff16036137e2575f6040517f01a835140000000000000000000000000000000000000000000000000000000081526004016137d99190617012565b60405180910390fd5b6137fd835f848460405180602001604052805f815250613d65565b505050565b5f73ffffffffffffffffffffffffffffffffffffffff168473ffffffffffffffffffffffffffffffffffffffff1603613872575f6040517f57f447ce0000000000000000000000000000000000000000000000000000000081526004016138699190617012565b60405180910390fd5b5f8061387e8585613e5a565b9150915061388f5f87848487613d65565b505050505050565b61389f613e8a565b6001805f6101000a81548160ff0219169083151502179055507f62e78cea01bee320cd4e420270b5ea74000d11b0c9f74754ebdbfc544b05a2586138e161341e565b6040516138ee9190617012565b60405180910390a1565b5f73ffffffffffffffffffffffffffffffffffffffff168273ffffffffffffffffffffffffffffffffffffffff1603613968575f6040517fced3e10000000000000000000000000000000000000000000000000000000000815260040161395f9190617012565b60405180910390fd5b8060035f8573ffffffffffffffffffffffffffffffffffffffff1673ffffffffffffffffffffffffffffffffffffffff1681526020019081526020015f205f8473ffffffffffffffffffffffffffffffffffffffff1673ffffffffffffffffffffffffffffffffffffffff1681526020019081526020015f205f6101000a81548160ff0219169083151502179055508173ffffffffffffffffffffffffffffffffffffffff168373ffffffffffffffffffffffffffffffffffffffff167f17307eab39ab6107e8899845ad3d59bd9653f200f220920489ca2b5937696c3183604051613a549190614c4b565b60405180910390a3505050565b5f73ffffffffffffffffffffffffffffffffffffffff168473ffffffffffffffffffffffffffffffffffffffff1603613ad1575f6040517f57f447ce000000000000000000000000000000000000000000000000000000008152600401613ac89190617012565b60405180910390fd5b5f73ffffffffffffffffffffffffffffffffffffffff168573ffffffffffffffffffffffffffffffffffffffff1603613b41575f6040517f01a83514000000000000000000000000000000000000000000000000000000008152600401613b389190617012565b60405180910390fd5b5f80613b4d8585613e5a565b91509150613b5e8787848487613d65565b50505050505050565b5f73ffffffffffffffffffffffffffffffffffffffff168373ffffffffffffffffffffffffffffffffffffffff1603613bd7575f6040517f01a83514000000000000000000000000000000000000000000000000000000008152600401613bce9190617012565b60405180910390fd5b5f80613be38484613e5a565b91509150613c02855f848460405180602001604052805f815250613d65565b5050505050565b5f7f7965db0b000000000000000000000000000000000000000000000000000000007bffffffffffffffffffffffffffffffffffffffffffffffffffffffff1916827bffffffffffffffffffffffffffffffffffffffffffffffffffffffff19161480613c7b5750613c7a82613ed4565b5b9050919050565b613c8c8282611d16565b613ccf5780826040517fe2517d3f000000000000000000000000000000000000000000000000000000008152600401613cc69291906172d7565b60405180910390fd5b5050565b606060048054613ce2906162c3565b80601f0160208091040260200160405190810160405280929190818152602001828054613d0e906162c3565b8015613d595780601f10613d3057610100808354040283529160200191613d59565b820191905f5260205f20905b815481529060010190602001808311613d3c57829003601f168201915b50505050509050919050565b613d7185858585613f3d565b5f73ffffffffffffffffffffffffffffffffffffffff168473ffffffffffffffffffffffffffffffffffffffff1614613e0a575f613dad61341e565b90506001845103613df9575f613dcc5f8661375f90919063ffffffff16565b90505f613de25f8661375f90919063ffffffff16565b9050613df2838989858589614187565b5050613e08565b613e07818787878787614336565b5b505b5050505050565b613e19611758565b613e58576040517f08c379a0000000000000000000000000000000000000000000000000000000008152600401613e4f90617348565b60405180910390fd5b565b60608060405191506001825283602083015260408201905060018152826020820152604081016040529250929050565b613e92611758565b15613ed2576040517f08c379a0000000000000000000000000000000000000000000000000000000008152600401613ec9906173b0565b60405180910390fd5b565b5f7f01ffc9a7000000000000000000000000000000000000000000000000000000007bffffffffffffffffffffffffffffffffffffffffffffffffffffffff1916827bffffffffffffffffffffffffffffffffffffffffffffffffffffffff1916149050919050565b613f45613e8a565b613f51848484846144e5565b5f5b8251811015614180575f828281518110613f7057613f6f616269565b5b602002602001015111156141735760115f848381518110613f9457613f93616269565b5b602002602001015181526020019081526020015f2060405180608001604052808773ffffffffffffffffffffffffffffffffffffffff1681526020018673ffffffffffffffffffffffffffffffffffffffff168152602001848481518110613fff57613ffe616269565b5b6020026020010151815260200142815250908060018154018082558091505060019003905f5260205f2090600402015f909190919091505f820151815f015f6101000a81548173ffffffffffffffffffffffffffffffffffffffff021916908373ffffffffffffffffffffffffffffffffffffffff1602179055506020820151816001015f6101000a81548173ffffffffffffffffffffffffffffffffffffffff021916908373ffffffffffffffffffffffffffffffffffffffff160217905550604082015181600201556060820151816003015550508373ffffffffffffffffffffffffffffffffffffffff168573ffffffffffffffffffffffffffffffffffffffff1684838151811061411757614116616269565b5b60200260200101517f3599acc8ea36acf6564c059f8a072f8e7844e39a6f1e8d3be1bcbf6dccecfb0085858151811061415357614152616269565b5b60200260200101514260405161416a929190616a8e565b60405180910390a45b8080600101915050613f53565b5050505050565b5f8473ffffffffffffffffffffffffffffffffffffffff163b111561432e578373ffffffffffffffffffffffffffffffffffffffff1663f23a6e6187878686866040518663ffffffff1660e01b81526004016141e7959493929190617420565b6020604051808303815f875af192505050801561422257506040513d601f19601f8201168201806040525081019061421f919061748c565b60015b6142a3573d805f8114614250576040519150601f19603f3d011682016040523d82523d5f602084013e614255565b606091505b505f81510361429b57846040517f57f447ce0000000000000000000000000000000000000000000000000000000081526004016142929190617012565b60405180910390fd5b805160208201fd5b63f23a6e6160e01b7bffffffffffffffffffffffffffffffffffffffffffffffffffffffff1916817bffffffffffffffffffffffffffffffffffffffffffffffffffffffff19161461432c57846040517f57f447ce0000000000000000000000000000000000000000000000000000000081526004016143239190617012565b60405180910390fd5b505b505050505050565b5f8473ffffffffffffffffffffffffffffffffffffffff163b11156144dd578373ffffffffffffffffffffffffffffffffffffffff1663bc197c8187878686866040518663ffffffff1660e01b81526004016143969594939291906174b7565b6020604051808303815f875af19250505080156143d157506040513d601f19601f820116820180604052508101906143ce919061748c565b60015b614452573d805f81146143ff576040519150601f19603f3d011682016040523d82523d5f602084013e614404565b606091505b505f81510361444a57846040517f57f447ce0000000000000000000000000000000000000000000000000000000081526004016144419190617012565b60405180910390fd5b805160208201fd5b63bc197c8160e01b7bffffffffffffffffffffffffffffffffffffffffffffffffffffffff1916817bffffffffffffffffffffffffffffffffffffffffffffffffffffffff1916146144db57846040517f57f447ce0000000000000000000000000000000000000000000000000000000081526004016144d29190617012565b60405180910390fd5b505b505050505050565b6144f184848484614662565b5f73ffffffffffffffffffffffffffffffffffffffff168473ffffffffffffffffffffffffffffffffffffffff16036145b4575f805b8351811015614599575f614544828561375f90919063ffffffff16565b90508060075f61455d858961375f90919063ffffffff16565b81526020019081526020015f205f828254614578919061751d565b92505081905550808361458b919061751d565b925050806001019050614527565b508060085f8282546145ab919061751d565b92505081905550505b5f73ffffffffffffffffffffffffffffffffffffffff168373ffffffffffffffffffffffffffffffffffffffff160361465c575f805b835181101561464a575f614607828561375f90919063ffffffff16565b90508060075f614620858961375f90919063ffffffff16565b81526020019081526020015f205f82825403925050819055508083019250508060010190506145ea565b508060085f8282540392505081905550505b50505050565b80518251146146ac57815181516040517f5b0599910000000000000000000000000000000000000000000000000000000081526004016146a3929190616a8e565b60405180910390fd5b5f6146b561341e565b90505f5b83518110156148b4575f6146d6828661375f90919063ffffffff16565b90505f6146ec838661375f90919063ffffffff16565b90505f73ffffffffffffffffffffffffffffffffffffffff168873ffffffffffffffffffffffffffffffffffffffff1614614811575f60025f8481526020019081526020015f205f8a73ffffffffffffffffffffffffffffffffffffffff1673ffffffffffffffffffffffffffffffffffffffff1681526020019081526020015f20549050818110156147bc57888183856040517f03dee4c50000000000000000000000000000000000000000000000000000000081526004016147b39493929190617550565b60405180910390fd5b81810360025f8581526020019081526020015f205f8b73ffffffffffffffffffffffffffffffffffffffff1673ffffffffffffffffffffffffffffffffffffffff1681526020019081526020015f2081905550505b5f73ffffffffffffffffffffffffffffffffffffffff168773ffffffffffffffffffffffffffffffffffffffff16146148a7578060025f8481526020019081526020015f205f8973ffffffffffffffffffffffffffffffffffffffff1673ffffffffffffffffffffffffffffffffffffffff1681526020019081526020015f205f82825461489f919061751d565b925050819055505b50508060010190506146b9565b50600183510361496f575f6148d25f8561375f90919063ffffffff16565b90505f6148e85f8561375f90919063ffffffff16565b90508573ffffffffffffffffffffffffffffffffffffffff168773ffffffffffffffffffffffffffffffffffffffff168473ffffffffffffffffffffffffffffffffffffffff167fc3d58168c5ae7397731d063d5bbf3d657854427343f4c083240f7aacaa2d0f628585604051614960929190616a8e565b60405180910390a450506149ee565b8373ffffffffffffffffffffffffffffffffffffffff168573ffffffffffffffffffffffffffffffffffffffff168273ffffffffffffffffffffffffffffffffffffffff167f4a39dc06d4c0dbc64b70af90fd698a233a518aa5d07e595d983b8c0526c8f7fb86866040516149e5929190617593565b60405180910390a45b5050505050565b60405180608001604052805f81526020015f815260200160608152602001614a1b614a77565b81525090565b60405180604001604052805f8152602001606081525090565b508054614a46906162c3565b5f825580601f10614a575750614a74565b601f0160209004905f5260205f2090810190614a739190614a92565b5b50565b60405180604001604052805f80191681526020015f81525090565b5b80821115614aa9575f815f905550600101614a93565b5090565b5f604051905090565b5f80fd5b5f80fd5b5f73ffffffffffffffffffffffffffffffffffffffff82169050919050565b5f614ae782614abe565b9050919050565b614af781614add565b8114614b01575f80fd5b50565b5f81359050614b1281614aee565b92915050565b5f819050919050565b614b2a81614b18565b8114614b34575f80fd5b50565b5f81359050614b4581614b21565b92915050565b5f8060408385031215614b6157614b60614ab6565b5b5f614b6e85828601614b04565b9250506020614b7f85828601614b37565b9150509250929050565b614b9281614b18565b82525050565b5f602082019050614bab5f830184614b89565b92915050565b5f7fffffffff0000000000000000000000000000000000000000000000000000000082169050919050565b614be581614bb1565b8114614bef575f80fd5b50565b5f81359050614c0081614bdc565b92915050565b5f60208284031215614c1b57614c1a614ab6565b5b5f614c2884828501614bf2565b91505092915050565b5f8115159050919050565b614c4581614c31565b82525050565b5f602082019050614c5e5f830184614c3c565b92915050565b5f80fd5b5f80fd5b5f601f19601f8301169050919050565b7f4e487b71000000000000000000000000000000000000000000000000000000005f52604160045260245ffd5b614cb282614c6c565b810181811067ffffffffffffffff82111715614cd157614cd0614c7c565b5b80604052505050565b5f614ce3614aad565b9050614cef8282614ca9565b919050565b5f67ffffffffffffffff821115614d0e57614d0d614c7c565b5b614d1782614c6c565b9050602081019050919050565b828183375f83830152505050565b5f614d44614d3f84614cf4565b614cda565b905082815260208101848484011115614d6057614d5f614c68565b5b614d6b848285614d24565b509392505050565b5f82601f830112614d8757614d86614c64565b5b8135614d97848260208601614d32565b91505092915050565b5f60208284031215614db557614db4614ab6565b5b5f82013567ffffffffffffffff811115614dd257614dd1614aba565b5b614dde84828501614d73565b91505092915050565b5f81519050919050565b5f82825260208201905092915050565b5f5b83811015614e1e578082015181840152602081019050614e03565b5f8484015250505050565b5f614e3382614de7565b614e3d8185614df1565b9350614e4d818560208601614e01565b614e5681614c6c565b840191505092915050565b5f6020820190508181035f830152614e798184614e29565b905092915050565b5f60208284031215614e9657614e95614ab6565b5b5f614ea384828501614b37565b91505092915050565b5f8060408385031215614ec257614ec1614ab6565b5b5f614ecf85828601614b37565b925050602083013567ffffffffffffffff811115614ef057614eef614aba565b5b614efc85828601614d73565b9150509250929050565b5f60208284031215614f1b57614f1a614ab6565b5b5f614f2884828501614b04565b91505092915050565b5f81519050919050565b5f82825260208201905092915050565b5f819050602082019050919050565b614f6381614b18565b82525050565b5f82825260208201905092915050565b5f614f8382614de7565b614f8d8185614f69565b9350614f9d818560208601614e01565b614fa681614c6c565b840191505092915050565b5f819050919050565b614fc381614fb1565b82525050565b604082015f820151614fdd5f850182614fba565b506020820151614ff06020850182614f5a565b50505050565b5f60a083015f83015161500b5f860182614f5a565b50602083015161501e6020860182614f5a565b50604083015184820360408601526150368282614f79565b915050606083015161504b6060860182614fc9565b508091505092915050565b5f6150618383614ff6565b905092915050565b5f602082019050919050565b5f61507f82614f31565b6150898185614f3b565b93508360208202850161509b85614f4b565b805f5b858110156150d657848403895281516150b78582615056565b94506150c283615069565b925060208a0199505060018101905061509e565b50829750879550505050505092915050565b5f6020820190508181035f8301526151008184615075565b905092915050565b5f67ffffffffffffffff82111561512257615121614c7c565b5b602082029050602081019050919050565b5f80fd5b5f61514961514484615108565b614cda565b9050808382526020820190506020840283018581111561516c5761516b615133565b5b835b8181101561519557806151818882614b37565b84526020840193505060208101905061516e565b5050509392505050565b5f82601f8301126151b3576151b2614c64565b5b81356151c3848260208601615137565b91505092915050565b5f67ffffffffffffffff8211156151e6576151e5614c7c565b5b6151ef82614c6c565b9050602081019050919050565b5f61520e615209846151cc565b614cda565b90508281526020810184848401111561522a57615229614c68565b5b615235848285614d24565b509392505050565b5f82601f83011261525157615250614c64565b5b81356152618482602086016151fc565b91505092915050565b5f805f806080858703121561528257615281614ab6565b5b5f61528f87828801614b04565b945050602085013567ffffffffffffffff8111156152b0576152af614aba565b5b6152bc8782880161519f565b935050604085013567ffffffffffffffff8111156152dd576152dc614aba565b5b6152e98782880161519f565b925050606085013567ffffffffffffffff81111561530a57615309614aba565b5b6153168782880161523d565b91505092959194509250565b61532b81614fb1565b8114615335575f80fd5b50565b5f8135905061534681615322565b92915050565b5f6020828403121561536157615360614ab6565b5b5f61536e84828501615338565b91505092915050565b61538081614fb1565b82525050565b5f6020820190506153995f830184615377565b92915050565b5f6040820190506153b25f830185615377565b6153bf6020830184614b89565b9392505050565b5f805f805f60a086880312156153df576153de614ab6565b5b5f6153ec88828901614b04565b95505060206153fd88828901614b04565b945050604086013567ffffffffffffffff81111561541e5761541d614aba565b5b61542a8882890161519f565b935050606086013567ffffffffffffffff81111561544b5761544a614aba565b5b6154578882890161519f565b925050608086013567ffffffffffffffff81111561547857615477614aba565b5b6154848882890161523d565b9150509295509295909350565b5f80604083850312156154a7576154a6614ab6565b5b5f6154b485828601615338565b92505060206154c585828601614b04565b9150509250929050565b5f805f606084860312156154e6576154e5614ab6565b5b5f6154f386828701614b04565b935050602084013567ffffffffffffffff81111561551457615513614aba565b5b61552086828701614d73565b925050604061553186828701614b37565b9150509250925092565b5f67ffffffffffffffff82111561555557615554614c7c565b5b602082029050602081019050919050565b5f6155786155738461553b565b614cda565b9050808382526020820190506020840283018581111561559b5761559a615133565b5b835b818110156155c457806155b08882614b04565b84526020840193505060208101905061559d565b5050509392505050565b5f82601f8301126155e2576155e1614c64565b5b81356155f2848260208601615566565b91505092915050565b5f806040838503121561561157615610614ab6565b5b5f83013567ffffffffffffffff81111561562e5761562d614aba565b5b61563a858286016155ce565b925050602083013567ffffffffffffffff81111561565b5761565a614aba565b5b6156678582860161519f565b9150509250929050565b5f81519050919050565b5f82825260208201905092915050565b5f819050602082019050919050565b5f6156a58383614f5a565b60208301905092915050565b5f602082019050919050565b5f6156c782615671565b6156d1818561567b565b93506156dc8361568b565b805f5b8381101561570c5781516156f3888261569a565b97506156fe836156b1565b9250506001810190506156df565b5085935050505092915050565b5f6020820190508181035f83015261573181846156bd565b905092915050565b5f604083015f83015161574e5f860182614f5a565b50602083015184820360208601526157668282614f79565b9150508091505092915050565b5f6020820190508181035f83015261578b8184615739565b905092915050565b5f81519050919050565b5f82825260208201905092915050565b5f819050602082019050919050565b5f604083015f8301516157d15f860182614f5a565b50602083015184820360208601526157e98282614f79565b9150508091505092915050565b5f61580183836157bc565b905092915050565b5f602082019050919050565b5f61581f82615793565b615829818561579d565b93508360208202850161583b856157ad565b805f5b85811015615876578484038952815161585785826157f6565b945061586283615809565b925060208a0199505060018101905061583e565b50829750879550505050505092915050565b5f6020820190508181035f8301526158a08184615815565b905092915050565b5f805f606084860312156158bf576158be614ab6565b5b5f6158cc86828701614b04565b935050602084013567ffffffffffffffff8111156158ed576158ec614aba565b5b6158f98682870161519f565b925050604084013567ffffffffffffffff81111561591a57615919614aba565b5b6159268682870161519f565b9150509250925092565b5f805f806080858703121561594857615947614ab6565b5b5f61595587828801614b04565b945050602061596687828801614b37565b935050604061597787828801614b37565b925050606085013567ffffffffffffffff81111561599857615997614aba565b5b6159a48782880161523d565b91505092959194509250565b5f81519050919050565b5f82825260208201905092915050565b5f819050602082019050919050565b6159e281614add565b82525050565b608082015f8201516159fc5f8501826159d9565b506020820151615a0f60208501826159d9565b506040820151615a226040850182614f5a565b506060820151615a356060850182614f5a565b50505050565b5f615a4683836159e8565b60808301905092915050565b5f602082019050919050565b5f615a68826159b0565b615a7281856159ba565b9350615a7d836159ca565b805f5b83811015615aad578151615a948882615a3b565b9750615a9f83615a52565b925050600181019050615a80565b5085935050505092915050565b5f6020820190508181035f830152615ad28184615a5e565b905092915050565b615ae381614c31565b8114615aed575f80fd5b50565b5f81359050615afe81615ada565b92915050565b5f8060408385031215615b1a57615b19614ab6565b5b5f615b2785828601614b04565b9250506020615b3885828601615af0565b9150509250929050565b5f80fd5b5f8083601f840112615b5b57615b5a614c64565b5b8235905067ffffffffffffffff811115615b7857615b77615b42565b5b602083019150836020820283011115615b9457615b93615133565b5b9250929050565b5f8083601f840112615bb057615baf614c64565b5b8235905067ffffffffffffffff811115615bcd57615bcc615b42565b5b602083019150836001820283011115615be957615be8615133565b5b9250929050565b5f805f805f805f8060a0898b031215615c0c57615c0b614ab6565b5b5f615c198b828c01614b04565b9850506020615c2a8b828c01614b04565b975050604089013567ffffffffffffffff811115615c4b57615c4a614aba565b5b615c578b828c01615b46565b9650965050606089013567ffffffffffffffff811115615c7a57615c79614aba565b5b615c868b828c01615b46565b9450945050608089013567ffffffffffffffff811115615ca957615ca8614aba565b5b615cb58b828c01615b9b565b92509250509295985092959890939650565b615cd081614bb1565b82525050565b5f602082019050615ce95f830184615cc7565b92915050565b5f805f8060808587031215615d0757615d06614ab6565b5b5f85013567ffffffffffffffff811115615d2457615d23614aba565b5b615d3087828801614d73565b9450506020615d4187828801614b37565b9350506040615d5287828801615338565b925050606085013567ffffffffffffffff811115615d7357615d72614aba565b5b615d7f87828801614d73565b91505092959194509250565b5f81519050919050565b5f82825260208201905092915050565b5f819050602082019050919050565b5f615dbf8383614fc9565b60408301905092915050565b5f602082019050919050565b5f615de182615d8b565b615deb8185615d95565b9350615df683615da5565b805f5b83811015615e26578151615e0d8882615db4565b9750615e1883615dcb565b925050600181019050615df9565b5085935050505092915050565b5f6020820190508181035f830152615e4b8184615dd7565b905092915050565b5f81519050919050565b5f82825260208201905092915050565b5f819050602082019050919050565b5f615e878383614f79565b905092915050565b5f602082019050919050565b5f615ea582615e53565b615eaf8185615e5d565b935083602082028501615ec185615e6d565b805f5b85811015615efc5784840389528151615edd8582615e7c565b9450615ee883615e8f565b925060208a01995050600181019050615ec4565b50829750879550505050505092915050565b5f6020820190508181035f830152615f268184615e9b565b905092915050565b5f8060408385031215615f4457615f43614ab6565b5b5f615f5185828601614b37565b9250506020615f6285828601614b37565b9150509250929050565b615f7581614add565b82525050565b5f608082019050615f8e5f830187615f6c565b615f9b6020830186615f6c565b615fa86040830185614b89565b615fb56060830184614b89565b95945050505050565b604082015f820151615fd25f850182614fba565b506020820151615fe56020850182614f5a565b50505050565b5f604082019050615ffe5f830184615fbe565b92915050565b5f805f806080858703121561601c5761601b614ab6565b5b5f61602987828801614b04565b945050602061603a87828801614b04565b935050604061604b87828801614b37565b925050606085013567ffffffffffffffff81111561606c5761606b614aba565b5b61607887828801614d73565b91505092959194509250565b5f806040838503121561609a57616099614ab6565b5b5f6160a785828601614b04565b92505060206160b885828601614b04565b9150509250929050565b5f805f805f8060a087890312156160dc576160db614ab6565b5b5f6160e989828a01614b04565b96505060206160fa89828a01614b04565b955050604061610b89828a01614b37565b945050606061611c89828a01614b37565b935050608087013567ffffffffffffffff81111561613d5761613c614aba565b5b61614989828a01615b9b565b92509250509295509295509295565b5f805f805f60a0868803121561617157616170614ab6565b5b5f61617e88828901614b04565b955050602061618f88828901614b04565b94505060406161a088828901614b37565b93505060606161b188828901614b37565b925050608086013567ffffffffffffffff8111156161d2576161d1614aba565b5b6161de8882890161523d565b9150509295509295909350565b5f805f6060848603121561620257616201614ab6565b5b5f61620f86828701614b04565b935050602061622086828701614b37565b925050604061623186828701614b37565b9150509250925092565b5f60408201905061624e5f830185614b89565b81810360208301526162608184614e29565b90509392505050565b7f4e487b71000000000000000000000000000000000000000000000000000000005f52603260045260245ffd5b7f4e487b71000000000000000000000000000000000000000000000000000000005f52602260045260245ffd5b5f60028204905060018216806162da57607f821691505b6020821081036162ed576162ec616296565b5b50919050565b5f81905092915050565b5f819050815f5260205f209050919050565b5f815461631b816162c3565b61632581866162f3565b9450600182165f811461633f576001811461635457616386565b60ff1983168652811515820286019350616386565b61635d856162fd565b5f5b8381101561637e5781548189015260018201915060208101905061635f565b838801955050505b50505092915050565b5f61639a828461630f565b915081905092915050565b7f53686172656431313535546f6b656e3a204475706c69636174652073756666695f8201527f7820646574656374656400000000000000000000000000000000000000000000602082015250565b5f6163ff602a83614df1565b915061640a826163a5565b604082019050919050565b5f6020820190508181035f83015261642c816163f3565b9050919050565b5f819050815f5260205f209050919050565b5f6020601f8301049050919050565b5f82821b905092915050565b5f6008830261648f7fffffffffffffffffffffffffffffffffffffffffffffffffffffffffffffffff82616454565b6164998683616454565b95508019841693508086168417925050509392505050565b5f819050919050565b5f6164d46164cf6164ca84614b18565b6164b1565b614b18565b9050919050565b5f819050919050565b6164ed836164ba565b6165016164f9826164db565b848454616460565b825550505050565b5f90565b616515616509565b6165208184846164e4565b505050565b5b81811015616543576165385f8261650d565b600181019050616526565b5050565b601f8211156165885761655981616433565b61656284616445565b81016020851015616571578190505b61658561657d85616445565b830182616525565b50505b505050565b5f82821c905092915050565b5f6165a85f198460080261658d565b1980831691505092915050565b5f6165c08383616599565b9150826002028217905092915050565b6165d982614de7565b67ffffffffffffffff8111156165f2576165f1614c7c565b5b6165fc82546162c3565b616607828285616547565b5f60209050601f831160018114616638575f8415616626578287015190505b61663085826165b5565b865550616697565b601f19841661664686616433565b5f5b8281101561666d57848901518255600182019150602085019450602081019050616648565b8683101561668a5784890151616686601f891682616599565b8355505b6001600288020188555050505b505050505050565b7f53686172656431313535546f6b656e3a2055524920736574206f66206e6f6e655f8201527f78697374656e7420746f6b656e00000000000000000000000000000000000000602082015250565b5f6166f9602d83614df1565b91506167048261669f565b604082019050919050565b5f6020820190508181035f830152616726816166ed565b9050919050565b7f53686172656431313535546f6b656e3a20496e76616c6964206163636f756e745f8201527f2061646472657373000000000000000000000000000000000000000000000000602082015250565b5f616787602883614df1565b91506167928261672d565b604082019050919050565b5f6020820190508181035f8301526167b48161677b565b9050919050565b7f4e487b71000000000000000000000000000000000000000000000000000000005f52601160045260245ffd5b5f6167f282614b18565b91507fffffffffffffffffffffffffffffffffffffffffffffffffffffffffffffffff8203616824576168236167bb565b5b600182019050919050565b5f6040820190506168425f830185615f6c565b61684f6020830184615f6c565b9392505050565b7f53686172656431313535546f6b656e3a20496e76616c696420726563697069655f8201527f6e74206164647265737300000000000000000000000000000000000000000000602082015250565b5f6168b0602a83614df1565b91506168bb82616856565b604082019050919050565b5f6020820190508181035f8301526168dd816168a4565b9050919050565b7f53686172656431313535546f6b656e3a205472616e7366657220616d6f756e745f8201527f206d7573742062652067726561746572207468616e2030000000000000000000602082015250565b5f61693e603783614df1565b9150616949826168e4565b604082019050919050565b5f6020820190508181035f83015261696b81616932565b9050919050565b7f53686172656431313535546f6b656e3a204e46542077697468207370656369665f8201527f6965642055524920646f6573206e6f7420657869737400000000000000000000602082015250565b5f6169cc603683614df1565b91506169d782616972565b604082019050919050565b5f6020820190508181035f8301526169f9816169c0565b9050919050565b7f53686172656431313535546f6b656e3a20496e73756666696369656e74204e465f8201527f542062616c616e63650000000000000000000000000000000000000000000000602082015250565b5f616a5a602983614df1565b9150616a6582616a00565b604082019050919050565b5f6020820190508181035f830152616a8781616a4e565b9050919050565b5f604082019050616aa15f830185614b89565b616aae6020830184614b89565b9392505050565b7f53686172656431313535546f6b656e3a20436f6c6c656374696f6e20646f65735f8201527f206e6f7420657869737400000000000000000000000000000000000000000000602082015250565b5f616b0f602a83614df1565b9150616b1a82616ab5565b604082019050919050565b5f6020820190508181035f830152616b3c81616b03565b9050919050565b5f616b4d82614b18565b9150616b5883614b18565b9250828203905081811115616b7057616b6f6167bb565b5b92915050565b7f4e487b71000000000000000000000000000000000000000000000000000000005f52603160045260245ffd5b7f53686172656431313535546f6b656e3a20436f6c6c656374696f6e20776974685f8201527f20737566666978206e6f7420666f756e64000000000000000000000000000000602082015250565b5f616bfd603183614df1565b9150616c0882616ba3565b604082019050919050565b5f6020820190508181035f830152616c2a81616bf1565b9050919050565b7f53686172656431313535546f6b656e3a204e6f6e6578697374656e7420746f6b5f8201527f656e000000000000000000000000000000000000000000000000000000000000602082015250565b5f616c8b602283614df1565b9150616c9682616c31565b604082019050919050565b5f6020820190508181035f830152616cb881616c7f565b9050919050565b7f53686172656431313535546f6b656e3a20446174612063616e6e6f74206265205f8201527f656d707479000000000000000000000000000000000000000000000000000000602082015250565b5f616d19602583614df1565b9150616d2482616cbf565b604082019050919050565b5f6020820190508181035f830152616d4681616d0d565b9050919050565b5f81549050616d5b816162c3565b9050919050565b5f819050815f5260205f209050919050565b818103616d82575050616e57565b616d8b82616d4d565b67ffffffffffffffff811115616da457616da3614c7c565b5b616dae82546162c3565b616db9828285616547565b5f601f831160018114616de6575f8415616dd4578287015490505b616dde85826165b5565b865550616e50565b601f198416616df487616d62565b9650616dff86616433565b5f5b82811015616e2657848901548255600182019150600185019450602081019050616e01565b86831015616e435784890154616e3f601f891682616599565b8355505b6001600288020188555050505b5050505050505b565b7f53686172656431313535546f6b656e3a2044617461206e6f7420666f756e64005f82015250565b5f616e8d601f83614df1565b9150616e9882616e59565b602082019050919050565b5f6020820190508181035f830152616eba81616e81565b9050919050565b7f53686172656431313535546f6b656e3a20496e76616c6964206f70657261746f5f8201527f7220616464726573730000000000000000000000000000000000000000000000602082015250565b5f616f1b602983614df1565b9150616f2682616ec1565b604082019050919050565b5f6020820190508181035f830152616f4881616f0f565b9050919050565b7f53686172656431313535546f6b656e3a20436f6c6c656374696f6e20776974685f8201527f2073756666697820646f6573206e6f7420657869737400000000000000000000602082015250565b5f616fa9603683614df1565b9150616fb482616f4f565b604082019050919050565b5f6020820190508181035f830152616fd681616f9d565b9050919050565b5f606082019050616ff05f830186614b89565b616ffd6020830185615377565b61700a6040830184614b89565b949350505050565b5f6020820190506170255f830184615f6c565b92915050565b5f8151905061703981614b21565b92915050565b5f6020828403121561705457617053614ab6565b5b5f6170618482850161702b565b91505092915050565b7f53686172656431313535546f6b656e3a20496e73756666696369656e742045525f8201527f4332302062616c616e6365000000000000000000000000000000000000000000602082015250565b5f6170c4602b83614df1565b91506170cf8261706a565b604082019050919050565b5f6020820190508181035f8301526170f1816170b8565b9050919050565b7f53686172656431313535546f6b656e3a20496e73756666696369656e742045525f8201527f43323020616c6c6f77616e636500000000000000000000000000000000000000602082015250565b5f617152602d83614df1565b915061715d826170f8565b604082019050919050565b5f6020820190508181035f83015261717f81617146565b9050919050565b5f6060820190506171995f830186615f6c565b6171a66020830185615f6c565b6171b36040830184614b89565b949350505050565b5f815190506171c981615ada565b92915050565b5f602082840312156171e4576171e3614ab6565b5b5f6171f1848285016171bb565b91505092915050565b5f81905092915050565b5f8154617210816162c3565b61721a81866171fa565b9450600182165f811461723457600181146172495761727b565b60ff198316865281151582028601935061727b565b61725285616433565b5f5b8381101561727357815481890152600182019150602081019050617254565b838801955050505b50505092915050565b5f61728e82614de7565b61729881856171fa565b93506172a8818560208601614e01565b80840191505092915050565b5f6172bf8285617204565b91506172cb8284617284565b91508190509392505050565b5f6040820190506172ea5f830185615f6c565b6172f76020830184615377565b9392505050565b7f5061757361626c653a206e6f74207061757365640000000000000000000000005f82015250565b5f617332601483614df1565b915061733d826172fe565b602082019050919050565b5f6020820190508181035f83015261735f81617326565b9050919050565b7f5061757361626c653a20706175736564000000000000000000000000000000005f82015250565b5f61739a601083614df1565b91506173a582617366565b602082019050919050565b5f6020820190508181035f8301526173c78161738e565b9050919050565b5f81519050919050565b5f82825260208201905092915050565b5f6173f2826173ce565b6173fc81856173d8565b935061740c818560208601614e01565b61741581614c6c565b840191505092915050565b5f60a0820190506174335f830188615f6c565b6174406020830187615f6c565b61744d6040830186614b89565b61745a6060830185614b89565b818103608083015261746c81846173e8565b90509695505050505050565b5f8151905061748681614bdc565b92915050565b5f602082840312156174a1576174a0614ab6565b5b5f6174ae84828501617478565b91505092915050565b5f60a0820190506174ca5f830188615f6c565b6174d76020830187615f6c565b81810360408301526174e981866156bd565b905081810360608301526174fd81856156bd565b9050818103608083015261751181846173e8565b90509695505050505050565b5f61752782614b18565b915061753283614b18565b925082820190508082111561754a576175496167bb565b5b92915050565b5f6080820190506175635f830187615f6c565b6175706020830186614b89565b61757d6040830185614b89565b61758a6060830184614b89565b95945050505050565b5f6040820190508181035f8301526175ab81856156bd565b905081810360208301526175bf81846156bd565b9050939250505056fea26469706673582212208911948eec64b367247c598b7140753a7abdd541a231b6282c1d29f863d1e65564736f6c63430008180033",
			"opcodes": "PUSH1 0x80 PUSH1 0x40 MSTORE PUSH1 0x40 MLOAD DUP1 PUSH1 0x20 ADD PUSH1 0x40 MSTORE DUP1 PUSH0 DUP2 MSTORE POP PUSH1 0x5 SWAP1 DUP2 PUSH3 0x23 SWAP2 SWAP1 PUSH3 0x6C0 JUMP JUMPDEST POP CALLVALUE DUP1 ISZERO PUSH3 0x30 JUMPI PUSH0 DUP1 REVERT JUMPDEST POP PUSH1 0x40 MLOAD DUP1 PUSH1 0x20 ADD PUSH1 0x40 MSTORE DUP1 PUSH0 DUP2 MSTORE POP PUSH0 PUSH1 0x1 PUSH0 PUSH2 0x100 EXP DUP2 SLOAD DUP2 PUSH1 0xFF MUL NOT AND SWAP1 DUP4 ISZERO ISZERO MUL OR SWAP1 SSTORE POP PUSH3 0x6A DUP2 PUSH3 0x174 PUSH1 0x20 SHL PUSH1 0x20 SHR JUMP JUMPDEST POP PUSH3 0x8E PUSH0 DUP1 SHL PUSH3 0x82 PUSH3 0x189 PUSH1 0x20 SHL PUSH1 0x20 SHR JUMP JUMPDEST PUSH3 0x190 PUSH1 0x20 SHL PUSH1 0x20 SHR JUMP JUMPDEST POP PUSH3 0xD0 PUSH32 0x9F2DF0FED2C77648DE5860A4CC508CD0818C85B8B8A1AB4CEEEF8D981C8956A6 PUSH3 0xC4 PUSH3 0x189 PUSH1 0x20 SHL PUSH1 0x20 SHR JUMP JUMPDEST PUSH3 0x190 PUSH1 0x20 SHL PUSH1 0x20 SHR JUMP JUMPDEST POP PUSH3 0x112 PUSH32 0xE926D122B799DCBE5C2ECCDF60AE0AEFBB1A4BC75A7848BB07BEFECF8C775F5C PUSH3 0x106 PUSH3 0x189 PUSH1 0x20 SHL PUSH1 0x20 SHR JUMP JUMPDEST PUSH3 0x190 PUSH1 0x20 SHL PUSH1 0x20 SHR JUMP JUMPDEST POP PUSH1 0x40 MLOAD DUP1 PUSH1 0x40 ADD PUSH1 0x40 MSTORE DUP1 PUSH1 0x13 DUP2 MSTORE PUSH1 0x20 ADD PUSH32 0x436172626F6E2043726564697420417373657400000000000000000000000000 DUP2 MSTORE POP PUSH1 0xB SWAP1 DUP2 PUSH3 0x159 SWAP2 SWAP1 PUSH3 0x6C0 JUMP JUMPDEST POP PUSH3 0x16E ADDRESS ADDRESS PUSH1 0x1 PUSH3 0x28B PUSH1 0x20 SHL PUSH1 0x20 SHR JUMP JUMPDEST PUSH3 0x839 JUMP JUMPDEST DUP1 PUSH1 0x4 SWAP1 DUP2 PUSH3 0x185 SWAP2 SWAP1 PUSH3 0x6C0 JUMP JUMPDEST POP POP JUMP JUMPDEST PUSH0 CALLER SWAP1 POP SWAP1 JUMP JUMPDEST PUSH0 PUSH3 0x1A3 DUP4 DUP4 PUSH3 0x3F9 PUSH1 0x20 SHL PUSH1 0x20 SHR JUMP JUMPDEST PUSH3 0x281 JUMPI PUSH1 0x1 PUSH0 DUP1 DUP6 DUP2 MSTORE PUSH1 0x20 ADD SWAP1 DUP2 MSTORE PUSH1 0x20 ADD PUSH0 KECCAK256 PUSH0 ADD PUSH0 DUP5 PUSH20 0xFFFFFFFFFFFFFFFFFFFFFFFFFFFFFFFFFFFFFFFF AND PUSH20 0xFFFFFFFFFFFFFFFFFFFFFFFFFFFFFFFFFFFFFFFF AND DUP2 MSTORE PUSH1 0x20 ADD SWAP1 DUP2 MSTORE PUSH1 0x20 ADD PUSH0 KECCAK256 PUSH0 PUSH2 0x100 EXP DUP2 SLOAD DUP2 PUSH1 0xFF MUL NOT AND SWAP1 DUP4 ISZERO ISZERO MUL OR SWAP1 SSTORE POP PUSH3 0x21D PUSH3 0x189 PUSH1 0x20 SHL PUSH1 0x20 SHR JUMP JUMPDEST PUSH20 0xFFFFFFFFFFFFFFFFFFFFFFFFFFFFFFFFFFFFFFFF AND DUP3 PUSH20 0xFFFFFFFFFFFFFFFFFFFFFFFFFFFFFFFFFFFFFFFF AND DUP5 PUSH32 0x2F8788117E7EFF1D82E926EC794901D17C78024A50270940304540A733656F0D PUSH1 0x40 MLOAD PUSH1 0x40 MLOAD DUP1 SWAP2 SUB SWAP1 LOG4 PUSH1 0x1 SWAP1 POP PUSH3 0x285 JUMP JUMPDEST PUSH0 SWAP1 POP JUMPDEST SWAP3 SWAP2 POP POP JUMP JUMPDEST PUSH0 PUSH20 0xFFFFFFFFFFFFFFFFFFFFFFFFFFFFFFFFFFFFFFFF AND DUP3 PUSH20 0xFFFFFFFFFFFFFFFFFFFFFFFFFFFFFFFFFFFFFFFF AND SUB PUSH3 0x2FE JUMPI PUSH0 PUSH1 0x40 MLOAD PUSH32 0xCED3E10000000000000000000000000000000000000000000000000000000000 DUP2 MSTORE PUSH1 0x4 ADD PUSH3 0x2F5 SWAP2 SWAP1 PUSH3 0x7E7 JUMP JUMPDEST PUSH1 0x40 MLOAD DUP1 SWAP2 SUB SWAP1 REVERT JUMPDEST DUP1 PUSH1 0x3 PUSH0 DUP6 PUSH20 0xFFFFFFFFFFFFFFFFFFFFFFFFFFFFFFFFFFFFFFFF AND PUSH20 0xFFFFFFFFFFFFFFFFFFFFFFFFFFFFFFFFFFFFFFFF AND DUP2 MSTORE PUSH1 0x20 ADD SWAP1 DUP2 MSTORE PUSH1 0x20 ADD PUSH0 KECCAK256 PUSH0 DUP5 PUSH20 0xFFFFFFFFFFFFFFFFFFFFFFFFFFFFFFFFFFFFFFFF AND PUSH20 0xFFFFFFFFFFFFFFFFFFFFFFFFFFFFFFFFFFFFFFFF AND DUP2 MSTORE PUSH1 0x20 ADD SWAP1 DUP2 MSTORE PUSH1 0x20 ADD PUSH0 KECCAK256 PUSH0 PUSH2 0x100 EXP DUP2 SLOAD DUP2 PUSH1 0xFF MUL NOT AND SWAP1 DUP4 ISZERO ISZERO MUL OR SWAP1 SSTORE POP DUP2 PUSH20 0xFFFFFFFFFFFFFFFFFFFFFFFFFFFFFFFFFFFFFFFF AND DUP4 PUSH20 0xFFFFFFFFFFFFFFFFFFFFFFFFFFFFFFFFFFFFFFFF AND PUSH32 0x17307EAB39AB6107E8899845AD3D59BD9653F200F220920489CA2B5937696C31 DUP4 PUSH1 0x40 MLOAD PUSH3 0x3EC SWAP2 SWAP1 PUSH3 0x81E JUMP JUMPDEST PUSH1 0x40 MLOAD DUP1 SWAP2 SUB SWAP1 LOG3 POP POP POP JUMP JUMPDEST PUSH0 DUP1 PUSH0 DUP5 DUP2 MSTORE PUSH1 0x20 ADD SWAP1 DUP2 MSTORE PUSH1 0x20 ADD PUSH0 KECCAK256 PUSH0 ADD PUSH0 DUP4 PUSH20 0xFFFFFFFFFFFFFFFFFFFFFFFFFFFFFFFFFFFFFFFF AND PUSH20 0xFFFFFFFFFFFFFFFFFFFFFFFFFFFFFFFFFFFFFFFF AND DUP2 MSTORE PUSH1 0x20 ADD SWAP1 DUP2 MSTORE PUSH1 0x20 ADD PUSH0 KECCAK256 PUSH0 SWAP1 SLOAD SWAP1 PUSH2 0x100 EXP SWAP1 DIV PUSH1 0xFF AND SWAP1 POP SWAP3 SWAP2 POP POP JUMP JUMPDEST PUSH0 DUP2 MLOAD SWAP1 POP SWAP2 SWAP1 POP JUMP JUMPDEST PUSH32 0x4E487B7100000000000000000000000000000000000000000000000000000000 PUSH0 MSTORE PUSH1 0x41 PUSH1 0x4 MSTORE PUSH1 0x24 PUSH0 REVERT JUMPDEST PUSH32 0x4E487B7100000000000000000000000000000000000000000000000000000000 PUSH0 MSTORE PUSH1 0x22 PUSH1 0x4 MSTORE PUSH1 0x24 PUSH0 REVERT JUMPDEST PUSH0 PUSH1 0x2 DUP3 DIV SWAP1 POP PUSH1 0x1 DUP3 AND DUP1 PUSH3 0x4D8 JUMPI PUSH1 0x7F DUP3 AND SWAP2 POP JUMPDEST PUSH1 0x20 DUP3 LT DUP2 SUB PUSH3 0x4EE JUMPI PUSH3 0x4ED PUSH3 0x493 JUMP JUMPDEST JUMPDEST POP SWAP2 SWAP1 POP JUMP JUMPDEST PUSH0 DUP2 SWAP1 POP DUP2 PUSH0 MSTORE PUSH1 0x20 PUSH0 KECCAK256 SWAP1 POP SWAP2 SWAP1 POP JUMP JUMPDEST PUSH0 PUSH1 0x20 PUSH1 0x1F DUP4 ADD DIV SWAP1 POP SWAP2 SWAP1 POP JUMP JUMPDEST PUSH0 DUP3 DUP3 SHL SWAP1 POP SWAP3 SWAP2 POP POP JUMP JUMPDEST PUSH0 PUSH1 0x8 DUP4 MUL PUSH3 0x552 PUSH32 0xFFFFFFFFFFFFFFFFFFFFFFFFFFFFFFFFFFFFFFFFFFFFFFFFFFFFFFFFFFFFFFFF DUP3 PUSH3 0x515 JUMP JUMPDEST PUSH3 0x55E DUP7 DUP4 PUSH3 0x515 JUMP JUMPDEST SWAP6 POP DUP1 NOT DUP5 AND SWAP4 POP DUP1 DUP7 AND DUP5 OR SWAP3 POP POP POP SWAP4 SWAP3 POP POP POP JUMP JUMPDEST PUSH0 DUP2 SWAP1 POP SWAP2 SWAP1 POP JUMP JUMPDEST PUSH0 DUP2 SWAP1 POP SWAP2 SWAP1 POP JUMP JUMPDEST PUSH0 PUSH3 0x5A8 PUSH3 0x5A2 PUSH3 0x59C DUP5 PUSH3 0x576 JUMP JUMPDEST PUSH3 0x57F JUMP JUMPDEST PUSH3 0x576 JUMP JUMPDEST SWAP1 POP SWAP2 SWAP1 POP JUMP JUMPDEST PUSH0 DUP2 SWAP1 POP SWAP2 SWAP1 POP JUMP JUMPDEST PUSH3 0x5C3 DUP4 PUSH3 0x588 JUMP JUMPDEST PUSH3 0x5DB PUSH3 0x5D2 DUP3 PUSH3 0x5AF JUMP JUMPDEST DUP5 DUP5 SLOAD PUSH3 0x521 JUMP JUMPDEST DUP3 SSTORE POP POP POP POP JUMP JUMPDEST PUSH0 SWAP1 JUMP JUMPDEST PUSH3 0x5F1 PUSH3 0x5E3 JUMP JUMPDEST PUSH3 0x5FE DUP2 DUP5 DUP5 PUSH3 0x5B8 JUMP JUMPDEST POP POP POP JUMP JUMPDEST JUMPDEST DUP2 DUP2 LT ISZERO PUSH3 0x625 JUMPI PUSH3 0x619 PUSH0 DUP3 PUSH3 0x5E7 JUMP JUMPDEST PUSH1 0x1 DUP2 ADD SWAP1 POP PUSH3 0x604 JUMP JUMPDEST POP POP JUMP JUMPDEST PUSH1 0x1F DUP3 GT ISZERO PUSH3 0x674 JUMPI PUSH3 0x63E DUP2 PUSH3 0x4F4 JUMP JUMPDEST PUSH3 0x649 DUP5 PUSH3 0x506 JUMP JUMPDEST DUP2 ADD PUSH1 0x20 DUP6 LT ISZERO PUSH3 0x659 JUMPI DUP2 SWAP1 POP JUMPDEST PUSH3 0x671 PUSH3 0x668 DUP6 PUSH3 0x506 JUMP JUMPDEST DUP4 ADD DUP3 PUSH3 0x603 JUMP JUMPDEST POP POP JUMPDEST POP POP POP JUMP JUMPDEST PUSH0 DUP3 DUP3 SHR SWAP1 POP SWAP3 SWAP2 POP POP JUMP JUMPDEST PUSH0 PUSH3 0x696 PUSH0 NOT DUP5 PUSH1 0x8 MUL PUSH3 0x679 JUMP JUMPDEST NOT DUP1 DUP4 AND SWAP2 POP POP SWAP3 SWAP2 POP POP JUMP JUMPDEST PUSH0 PUSH3 0x6B0 DUP4 DUP4 PUSH3 0x685 JUMP JUMPDEST SWAP2 POP DUP3 PUSH1 0x2 MUL DUP3 OR SWAP1 POP SWAP3 SWAP2 POP POP JUMP JUMPDEST PUSH3 0x6CB DUP3 PUSH3 0x45C JUMP JUMPDEST PUSH8 0xFFFFFFFFFFFFFFFF DUP2 GT ISZERO PUSH3 0x6E7 JUMPI PUSH3 0x6E6 PUSH3 0x466 JUMP JUMPDEST JUMPDEST PUSH3 0x6F3 DUP3 SLOAD PUSH3 0x4C0 JUMP JUMPDEST PUSH3 0x700 DUP3 DUP3 DUP6 PUSH3 0x629 JUMP JUMPDEST PUSH0 PUSH1 0x20 SWAP1 POP PUSH1 0x1F DUP4 GT PUSH1 0x1 DUP2 EQ PUSH3 0x736 JUMPI PUSH0 DUP5 ISZERO PUSH3 0x721 JUMPI DUP3 DUP8 ADD MLOAD SWAP1 POP JUMPDEST PUSH3 0x72D DUP6 DUP3 PUSH3 0x6A3 JUMP JUMPDEST DUP7 SSTORE POP PUSH3 0x79C JUMP JUMPDEST PUSH1 0x1F NOT DUP5 AND PUSH3 0x746 DUP7 PUSH3 0x4F4 JUMP JUMPDEST PUSH0 JUMPDEST DUP3 DUP2 LT ISZERO PUSH3 0x76F JUMPI DUP5 DUP10 ADD MLOAD DUP3 SSTORE PUSH1 0x1 DUP3 ADD SWAP2 POP PUSH1 0x20 DUP6 ADD SWAP5 POP PUSH1 0x20 DUP2 ADD SWAP1 POP PUSH3 0x748 JUMP JUMPDEST DUP7 DUP4 LT ISZERO PUSH3 0x78F JUMPI DUP5 DUP10 ADD MLOAD PUSH3 0x78B PUSH1 0x1F DUP10 AND DUP3 PUSH3 0x685 JUMP JUMPDEST DUP4 SSTORE POP JUMPDEST PUSH1 0x1 PUSH1 0x2 DUP9 MUL ADD DUP9 SSTORE POP POP POP JUMPDEST POP POP POP POP POP POP JUMP JUMPDEST PUSH0 PUSH20 0xFFFFFFFFFFFFFFFFFFFFFFFFFFFFFFFFFFFFFFFF DUP3 AND SWAP1 POP SWAP2 SWAP1 POP JUMP JUMPDEST PUSH0 PUSH3 0x7CF DUP3 PUSH3 0x7A4 JUMP JUMPDEST SWAP1 POP SWAP2 SWAP1 POP JUMP JUMPDEST PUSH3 0x7E1 DUP2 PUSH3 0x7C3 JUMP JUMPDEST DUP3 MSTORE POP POP JUMP JUMPDEST PUSH0 PUSH1 0x20 DUP3 ADD SWAP1 POP PUSH3 0x7FC PUSH0 DUP4 ADD DUP5 PUSH3 0x7D6 JUMP JUMPDEST SWAP3 SWAP2 POP POP JUMP JUMPDEST PUSH0 DUP2 ISZERO ISZERO SWAP1 POP SWAP2 SWAP1 POP JUMP JUMPDEST PUSH3 0x818 DUP2 PUSH3 0x802 JUMP JUMPDEST DUP3 MSTORE POP POP JUMP JUMPDEST PUSH0 PUSH1 0x20 DUP3 ADD SWAP1 POP PUSH3 0x833 PUSH0 DUP4 ADD DUP5 PUSH3 0x80D JUMP JUMPDEST SWAP3 SWAP2 POP POP JUMP JUMPDEST PUSH2 0x75FE DUP1 PUSH3 0x847 PUSH0 CODECOPY PUSH0 RETURN INVALID PUSH1 0x80 PUSH1 0x40 MSTORE CALLVALUE DUP1 ISZERO PUSH2 0xF JUMPI PUSH0 DUP1 REVERT JUMPDEST POP PUSH1 0x4 CALLDATASIZE LT PUSH2 0x375 JUMPI PUSH0 CALLDATALOAD PUSH1 0xE0 SHR DUP1 PUSH4 0x91D14854 GT PUSH2 0x1D1 JUMPI DUP1 PUSH4 0xCAFF99CE GT PUSH2 0x102 JUMPI DUP1 PUSH4 0xE22C4515 GT PUSH2 0xA0 JUMPI DUP1 PUSH4 0xF242432A GT PUSH2 0x7A JUMPI DUP1 PUSH4 0xF242432A EQ PUSH2 0xAC5 JUMPI DUP1 PUSH4 0xF5298ACA EQ PUSH2 0xAE1 JUMPI DUP1 PUSH4 0xFB218F5F EQ PUSH2 0xAFD JUMPI DUP1 PUSH4 0xFDBDA0EC EQ PUSH2 0xB19 JUMPI PUSH2 0x375 JUMP JUMPDEST DUP1 PUSH4 0xE22C4515 EQ PUSH2 0xA49 JUMPI DUP1 PUSH4 0xE985E9C5 EQ PUSH2 0xA65 JUMPI DUP1 PUSH4 0xF23A6E61 EQ PUSH2 0xA95 JUMPI PUSH2 0x375 JUMP JUMPDEST DUP1 PUSH4 0xD58778D6 GT PUSH2 0xDC JUMPI DUP1 PUSH4 0xD58778D6 EQ PUSH2 0x998 JUMPI DUP1 PUSH4 0xDD5B3A65 EQ PUSH2 0x9C8 JUMPI DUP1 PUSH4 0xDEDAFF54 EQ PUSH2 0x9E6 JUMPI DUP1 PUSH4 0xDF6F5B20 EQ PUSH2 0xA19 JUMPI PUSH2 0x375 JUMP JUMPDEST DUP1 PUSH4 0xCAFF99CE EQ PUSH2 0x940 JUMPI DUP1 PUSH4 0xD5391393 EQ PUSH2 0x95E JUMPI DUP1 PUSH4 0xD547741F EQ PUSH2 0x97C JUMPI PUSH2 0x375 JUMP JUMPDEST DUP1 PUSH4 0xA7098728 GT PUSH2 0x16F JUMPI DUP1 PUSH4 0xBC197C81 GT PUSH2 0x149 JUMPI DUP1 PUSH4 0xBC197C81 EQ PUSH2 0x8A6 JUMPI DUP1 PUSH4 0xBD85B039 EQ PUSH2 0x8D6 JUMPI DUP1 PUSH4 0xBE7CF750 EQ PUSH2 0x906 JUMPI DUP1 PUSH4 0xC71D0EA3 EQ PUSH2 0x922 JUMPI PUSH2 0x375 JUMP JUMPDEST DUP1 PUSH4 0xA7098728 EQ PUSH2 0x828 JUMPI DUP1 PUSH4 0xA9B566A3 EQ PUSH2 0x846 JUMPI DUP1 PUSH4 0xB21FA654 EQ PUSH2 0x876 JUMPI PUSH2 0x375 JUMP JUMPDEST DUP1 PUSH4 0xA217FDDF GT PUSH2 0x1AB JUMPI DUP1 PUSH4 0xA217FDDF EQ PUSH2 0x7B4 JUMPI DUP1 PUSH4 0xA22CB465 EQ PUSH2 0x7D2 JUMPI DUP1 PUSH4 0xA3E1FF32 EQ PUSH2 0x7EE JUMPI DUP1 PUSH4 0xA5E2361D EQ PUSH2 0x80C JUMPI PUSH2 0x375 JUMP JUMPDEST DUP1 PUSH4 0x91D14854 EQ PUSH2 0x74C JUMPI DUP1 PUSH4 0x9CDF0F46 EQ PUSH2 0x77C JUMPI DUP1 PUSH4 0x9DD6A449 EQ PUSH2 0x798 JUMPI PUSH2 0x375 JUMP JUMPDEST DUP1 PUSH4 0x3038BFDF GT PUSH2 0x2AB JUMPI DUP1 PUSH4 0x6804A958 GT PUSH2 0x249 JUMPI DUP1 PUSH4 0x731133E9 GT PUSH2 0x223 JUMPI DUP1 PUSH4 0x731133E9 EQ PUSH2 0x6D8 JUMPI DUP1 PUSH4 0x77E1B4CA EQ PUSH2 0x6F4 JUMPI DUP1 PUSH4 0x8456CB59 EQ PUSH2 0x712 JUMPI DUP1 PUSH4 0x8BB27D02 EQ PUSH2 0x71C JUMPI PUSH2 0x375 JUMP JUMPDEST DUP1 PUSH4 0x6804A958 EQ PUSH2 0x682 JUMPI DUP1 PUSH4 0x6B20C454 EQ PUSH2 0x6A0 JUMPI DUP1 PUSH4 0x70164F0E EQ PUSH2 0x6BC JUMPI PUSH2 0x375 JUMP JUMPDEST DUP1 PUSH4 0x4E1273F4 GT PUSH2 0x285 JUMPI DUP1 PUSH4 0x4E1273F4 EQ PUSH2 0x5D4 JUMPI DUP1 PUSH4 0x4F558E79 EQ PUSH2 0x604 JUMPI DUP1 PUSH4 0x5A1F3C28 EQ PUSH2 0x634 JUMPI DUP1 PUSH4 0x5C975ABB EQ PUSH2 0x664 JUMPI PUSH2 0x375 JUMP JUMPDEST DUP1 PUSH4 0x3038BFDF EQ PUSH2 0x592 JUMPI DUP1 PUSH4 0x36568ABE EQ PUSH2 0x5AE JUMPI DUP1 PUSH4 0x3F4BA83A EQ PUSH2 0x5CA JUMPI PUSH2 0x375 JUMP JUMPDEST DUP1 PUSH4 0x1F43CF85 GT PUSH2 0x318 JUMPI DUP1 PUSH4 0x258672AA GT PUSH2 0x2F2 JUMPI DUP1 PUSH4 0x258672AA EQ PUSH2 0x4F9 JUMPI DUP1 PUSH4 0x2EB2C2D6 EQ PUSH2 0x52A JUMPI DUP1 PUSH4 0x2F2FF15D EQ PUSH2 0x546 JUMPI DUP1 PUSH4 0x30377174 EQ PUSH2 0x562 JUMPI PUSH2 0x375 JUMP JUMPDEST DUP1 PUSH4 0x1F43CF85 EQ PUSH2 0x47D JUMPI DUP1 PUSH4 0x1F7FDFFA EQ PUSH2 0x4AD JUMPI DUP1 PUSH4 0x248A9CA3 EQ PUSH2 0x4C9 JUMPI PUSH2 0x375 JUMP JUMPDEST DUP1 PUSH4 0x6FDDE03 GT PUSH2 0x354 JUMPI DUP1 PUSH4 0x6FDDE03 EQ PUSH2 0x3F5 JUMPI DUP1 PUSH4 0xE89341C EQ PUSH2 0x413 JUMPI DUP1 PUSH4 0x162094C4 EQ PUSH2 0x443 JUMPI DUP1 PUSH4 0x18160DDD EQ PUSH2 0x45F JUMPI PUSH2 0x375 JUMP JUMPDEST DUP1 PUSH3 0xFDD58E EQ PUSH2 0x379 JUMPI DUP1 PUSH4 0x1FFC9A7 EQ PUSH2 0x3A9 JUMPI DUP1 PUSH4 0x59DFE13 EQ PUSH2 0x3D9 JUMPI JUMPDEST PUSH0 DUP1 REVERT JUMPDEST PUSH2 0x393 PUSH1 0x4 DUP1 CALLDATASIZE SUB DUP2 ADD SWAP1 PUSH2 0x38E SWAP2 SWAP1 PUSH2 0x4B4B JUMP JUMPDEST PUSH2 0xB4A JUMP JUMPDEST PUSH1 0x40 MLOAD PUSH2 0x3A0 SWAP2 SWAP1 PUSH2 0x4B98 JUMP JUMPDEST PUSH1 0x40 MLOAD DUP1 SWAP2 SUB SWAP1 RETURN JUMPDEST PUSH2 0x3C3 PUSH1 0x4 DUP1 CALLDATASIZE SUB DUP2 ADD SWAP1 PUSH2 0x3BE SWAP2 SWAP1 PUSH2 0x4C06 JUMP JUMPDEST PUSH2 0xBA0 JUMP JUMPDEST PUSH1 0x40 MLOAD PUSH2 0x3D0 SWAP2 SWAP1 PUSH2 0x4C4B JUMP JUMPDEST PUSH1 0x40 MLOAD DUP1 SWAP2 SUB SWAP1 RETURN JUMPDEST PUSH2 0x3F3 PUSH1 0x4 DUP1 CALLDATASIZE SUB DUP2 ADD SWAP1 PUSH2 0x3EE SWAP2 SWAP1 PUSH2 0x4DA0 JUMP JUMPDEST PUSH2 0xC19 JUMP JUMPDEST STOP JUMPDEST PUSH2 0x3FD PUSH2 0xDB3 JUMP JUMPDEST PUSH1 0x40 MLOAD PUSH2 0x40A SWAP2 SWAP1 PUSH2 0x4E61 JUMP JUMPDEST PUSH1 0x40 MLOAD DUP1 SWAP2 SUB SWAP1 RETURN JUMPDEST PUSH2 0x42D PUSH1 0x4 DUP1 CALLDATASIZE SUB DUP2 ADD SWAP1 PUSH2 0x428 SWAP2 SWAP1 PUSH2 0x4E81 JUMP JUMPDEST PUSH2 0xE3F JUMP JUMPDEST PUSH1 0x40 MLOAD PUSH2 0x43A SWAP2 SWAP1 PUSH2 0x4E61 JUMP JUMPDEST PUSH1 0x40 MLOAD DUP1 SWAP2 SUB SWAP1 RETURN JUMPDEST PUSH2 0x45D PUSH1 0x4 DUP1 CALLDATASIZE SUB DUP2 ADD SWAP1 PUSH2 0x458 SWAP2 SWAP1 PUSH2 0x4EAC JUMP JUMPDEST PUSH2 0xE51 JUMP JUMPDEST STOP JUMPDEST PUSH2 0x467 PUSH2 0xEB6 JUMP JUMPDEST PUSH1 0x40 MLOAD PUSH2 0x474 SWAP2 SWAP1 PUSH2 0x4B98 JUMP JUMPDEST PUSH1 0x40 MLOAD DUP1 SWAP2 SUB SWAP1 RETURN JUMPDEST PUSH2 0x497 PUSH1 0x4 DUP1 CALLDATASIZE SUB DUP2 ADD SWAP1 PUSH2 0x492 SWAP2 SWAP1 PUSH2 0x4F06 JUMP JUMPDEST PUSH2 0xEBF JUMP JUMPDEST PUSH1 0x40 MLOAD PUSH2 0x4A4 SWAP2 SWAP1 PUSH2 0x50E8 JUMP JUMPDEST PUSH1 0x40 MLOAD DUP1 SWAP2 SUB SWAP1 RETURN JUMPDEST PUSH2 0x4C7 PUSH1 0x4 DUP1 CALLDATASIZE SUB DUP2 ADD SWAP1 PUSH2 0x4C2 SWAP2 SWAP1 PUSH2 0x526A JUMP JUMPDEST PUSH2 0x10C4 JUMP JUMPDEST STOP JUMPDEST PUSH2 0x4E3 PUSH1 0x4 DUP1 CALLDATASIZE SUB DUP2 ADD SWAP1 PUSH2 0x4DE SWAP2 SWAP1 PUSH2 0x534C JUMP JUMPDEST PUSH2 0x1101 JUMP JUMPDEST PUSH1 0x40 MLOAD PUSH2 0x4F0 SWAP2 SWAP1 PUSH2 0x5386 JUMP JUMPDEST PUSH1 0x40 MLOAD DUP1 SWAP2 SUB SWAP1 RETURN JUMPDEST PUSH2 0x513 PUSH1 0x4 DUP1 CALLDATASIZE SUB DUP2 ADD SWAP1 PUSH2 0x50E SWAP2 SWAP1 PUSH2 0x4E81 JUMP JUMPDEST PUSH2 0x111D JUMP JUMPDEST PUSH1 0x40 MLOAD PUSH2 0x521 SWAP3 SWAP2 SWAP1 PUSH2 0x539F JUMP JUMPDEST PUSH1 0x40 MLOAD DUP1 SWAP2 SUB SWAP1 RETURN JUMPDEST PUSH2 0x544 PUSH1 0x4 DUP1 CALLDATASIZE SUB DUP2 ADD SWAP1 PUSH2 0x53F SWAP2 SWAP1 PUSH2 0x53C6 JUMP JUMPDEST PUSH2 0x113D JUMP JUMPDEST STOP JUMPDEST PUSH2 0x560 PUSH1 0x4 DUP1 CALLDATASIZE SUB DUP2 ADD SWAP1 PUSH2 0x55B SWAP2 SWAP1 PUSH2 0x5491 JUMP JUMPDEST PUSH2 0x11E4 JUMP JUMPDEST STOP JUMPDEST PUSH2 0x57C PUSH1 0x4 DUP1 CALLDATASIZE SUB DUP2 ADD SWAP1 PUSH2 0x577 SWAP2 SWAP1 PUSH2 0x4E81 JUMP JUMPDEST PUSH2 0x1206 JUMP JUMPDEST PUSH1 0x40 MLOAD PUSH2 0x589 SWAP2 SWAP1 PUSH2 0x4E61 JUMP JUMPDEST PUSH1 0x40 MLOAD DUP1 SWAP2 SUB SWAP1 RETURN JUMPDEST PUSH2 0x5AC PUSH1 0x4 DUP1 CALLDATASIZE SUB DUP2 ADD SWAP1 PUSH2 0x5A7 SWAP2 SWAP1 PUSH2 0x54CF JUMP JUMPDEST PUSH2 0x12AC JUMP JUMPDEST STOP JUMPDEST PUSH2 0x5C8 PUSH1 0x4 DUP1 CALLDATASIZE SUB DUP2 ADD SWAP1 PUSH2 0x5C3 SWAP2 SWAP1 PUSH2 0x5491 JUMP JUMPDEST PUSH2 0x1493 JUMP JUMPDEST STOP JUMPDEST PUSH2 0x5D2 PUSH2 0x150E JUMP JUMPDEST STOP JUMPDEST PUSH2 0x5EE PUSH1 0x4 DUP1 CALLDATASIZE SUB DUP2 ADD SWAP1 PUSH2 0x5E9 SWAP2 SWAP1 PUSH2 0x55FB JUMP JUMPDEST PUSH2 0x1525 JUMP JUMPDEST PUSH1 0x40 MLOAD PUSH2 0x5FB SWAP2 SWAP1 PUSH2 0x5719 JUMP JUMPDEST PUSH1 0x40 MLOAD DUP1 SWAP2 SUB SWAP1 RETURN JUMPDEST PUSH2 0x61E PUSH1 0x4 DUP1 CALLDATASIZE SUB DUP2 ADD SWAP1 PUSH2 0x619 SWAP2 SWAP1 PUSH2 0x4E81 JUMP JUMPDEST PUSH2 0x162C JUMP JUMPDEST PUSH1 0x40 MLOAD PUSH2 0x62B SWAP2 SWAP1 PUSH2 0x4C4B JUMP JUMPDEST PUSH1 0x40 MLOAD DUP1 SWAP2 SUB SWAP1 RETURN JUMPDEST PUSH2 0x64E PUSH1 0x4 DUP1 CALLDATASIZE SUB DUP2 ADD SWAP1 PUSH2 0x649 SWAP2 SWAP1 PUSH2 0x4E81 JUMP JUMPDEST PUSH2 0x163F JUMP JUMPDEST PUSH1 0x40 MLOAD PUSH2 0x65B SWAP2 SWAP1 PUSH2 0x5773 JUMP JUMPDEST PUSH1 0x40 MLOAD DUP1 SWAP2 SUB SWAP1 RETURN JUMPDEST PUSH2 0x66C PUSH2 0x1758 JUMP JUMPDEST PUSH1 0x40 MLOAD PUSH2 0x679 SWAP2 SWAP1 PUSH2 0x4C4B JUMP JUMPDEST PUSH1 0x40 MLOAD DUP1 SWAP2 SUB SWAP1 RETURN JUMPDEST PUSH2 0x68A PUSH2 0x176D JUMP JUMPDEST PUSH1 0x40 MLOAD PUSH2 0x697 SWAP2 SWAP1 PUSH2 0x5888 JUMP JUMPDEST PUSH1 0x40 MLOAD DUP1 SWAP2 SUB SWAP1 RETURN JUMPDEST PUSH2 0x6BA PUSH1 0x4 DUP1 CALLDATASIZE SUB DUP2 ADD SWAP1 PUSH2 0x6B5 SWAP2 SWAP1 PUSH2 0x58A8 JUMP JUMPDEST PUSH2 0x18DE JUMP JUMPDEST STOP JUMPDEST PUSH2 0x6D6 PUSH1 0x4 DUP1 CALLDATASIZE SUB DUP2 ADD SWAP1 PUSH2 0x6D1 SWAP2 SWAP1 PUSH2 0x4DA0 JUMP JUMPDEST PUSH2 0x198A JUMP JUMPDEST STOP JUMPDEST PUSH2 0x6F2 PUSH1 0x4 DUP1 CALLDATASIZE SUB DUP2 ADD SWAP1 PUSH2 0x6ED SWAP2 SWAP1 PUSH2 0x5930 JUMP JUMPDEST PUSH2 0x1B3E JUMP JUMPDEST STOP JUMPDEST PUSH2 0x6FC PUSH2 0x1B7B JUMP JUMPDEST PUSH1 0x40 MLOAD PUSH2 0x709 SWAP2 SWAP1 PUSH2 0x4C4B JUMP JUMPDEST PUSH1 0x40 MLOAD DUP1 SWAP2 SUB SWAP1 RETURN JUMPDEST PUSH2 0x71A PUSH2 0x1B8B JUMP JUMPDEST STOP JUMPDEST PUSH2 0x736 PUSH1 0x4 DUP1 CALLDATASIZE SUB DUP2 ADD SWAP1 PUSH2 0x731 SWAP2 SWAP1 PUSH2 0x4E81 JUMP JUMPDEST PUSH2 0x1BA2 JUMP JUMPDEST PUSH1 0x40 MLOAD PUSH2 0x743 SWAP2 SWAP1 PUSH2 0x5ABA JUMP JUMPDEST PUSH1 0x40 MLOAD DUP1 SWAP2 SUB SWAP1 RETURN JUMPDEST PUSH2 0x766 PUSH1 0x4 DUP1 CALLDATASIZE SUB DUP2 ADD SWAP1 PUSH2 0x761 SWAP2 SWAP1 PUSH2 0x5491 JUMP JUMPDEST PUSH2 0x1D16 JUMP JUMPDEST PUSH1 0x40 MLOAD PUSH2 0x773 SWAP2 SWAP1 PUSH2 0x4C4B JUMP JUMPDEST PUSH1 0x40 MLOAD DUP1 SWAP2 SUB SWAP1 RETURN JUMPDEST PUSH2 0x796 PUSH1 0x4 DUP1 CALLDATASIZE SUB DUP2 ADD SWAP1 PUSH2 0x791 SWAP2 SWAP1 PUSH2 0x4DA0 JUMP JUMPDEST PUSH2 0x1D79 JUMP JUMPDEST STOP JUMPDEST PUSH2 0x7B2 PUSH1 0x4 DUP1 CALLDATASIZE SUB DUP2 ADD SWAP1 PUSH2 0x7AD SWAP2 SWAP1 PUSH2 0x5B04 JUMP JUMPDEST PUSH2 0x1F39 JUMP JUMPDEST STOP JUMPDEST PUSH2 0x7BC PUSH2 0x2004 JUMP JUMPDEST PUSH1 0x40 MLOAD PUSH2 0x7C9 SWAP2 SWAP1 PUSH2 0x5386 JUMP JUMPDEST PUSH1 0x40 MLOAD DUP1 SWAP2 SUB SWAP1 RETURN JUMPDEST PUSH2 0x7EC PUSH1 0x4 DUP1 CALLDATASIZE SUB DUP2 ADD SWAP1 PUSH2 0x7E7 SWAP2 SWAP1 PUSH2 0x5B04 JUMP JUMPDEST PUSH2 0x200A JUMP JUMPDEST STOP JUMPDEST PUSH2 0x7F6 PUSH2 0x2020 JUMP JUMPDEST PUSH1 0x40 MLOAD PUSH2 0x803 SWAP2 SWAP1 PUSH2 0x50E8 JUMP JUMPDEST PUSH1 0x40 MLOAD DUP1 SWAP2 SUB SWAP1 RETURN JUMPDEST PUSH2 0x826 PUSH1 0x4 DUP1 CALLDATASIZE SUB DUP2 ADD SWAP1 PUSH2 0x821 SWAP2 SWAP1 PUSH2 0x5491 JUMP JUMPDEST PUSH2 0x21BA JUMP JUMPDEST STOP JUMPDEST PUSH2 0x830 PUSH2 0x21D6 JUMP JUMPDEST PUSH1 0x40 MLOAD PUSH2 0x83D SWAP2 SWAP1 PUSH2 0x50E8 JUMP JUMPDEST PUSH1 0x40 MLOAD DUP1 SWAP2 SUB SWAP1 RETURN JUMPDEST PUSH2 0x860 PUSH1 0x4 DUP1 CALLDATASIZE SUB DUP2 ADD SWAP1 PUSH2 0x85B SWAP2 SWAP1 PUSH2 0x4E81 JUMP JUMPDEST PUSH2 0x236B JUMP JUMPDEST PUSH1 0x40 MLOAD PUSH2 0x86D SWAP2 SWAP1 PUSH2 0x4B98 JUMP JUMPDEST PUSH1 0x40 MLOAD DUP1 SWAP2 SUB SWAP1 RETURN JUMPDEST PUSH2 0x890 PUSH1 0x4 DUP1 CALLDATASIZE SUB DUP2 ADD SWAP1 PUSH2 0x88B SWAP2 SWAP1 PUSH2 0x4E81 JUMP JUMPDEST PUSH2 0x238B JUMP JUMPDEST PUSH1 0x40 MLOAD PUSH2 0x89D SWAP2 SWAP1 PUSH2 0x4E61 JUMP JUMPDEST PUSH1 0x40 MLOAD DUP1 SWAP2 SUB SWAP1 RETURN JUMPDEST PUSH2 0x8C0 PUSH1 0x4 DUP1 CALLDATASIZE SUB DUP2 ADD SWAP1 PUSH2 0x8BB SWAP2 SWAP1 PUSH2 0x5BF0 JUMP JUMPDEST PUSH2 0x2484 JUMP JUMPDEST PUSH1 0x40 MLOAD PUSH2 0x8CD SWAP2 SWAP1 PUSH2 0x5CD6 JUMP JUMPDEST PUSH1 0x40 MLOAD DUP1 SWAP2 SUB SWAP1 RETURN JUMPDEST PUSH2 0x8F0 PUSH1 0x4 DUP1 CALLDATASIZE SUB DUP2 ADD SWAP1 PUSH2 0x8EB SWAP2 SWAP1 PUSH2 0x4E81 JUMP JUMPDEST PUSH2 0x249B JUMP JUMPDEST PUSH1 0x40 MLOAD PUSH2 0x8FD SWAP2 SWAP1 PUSH2 0x4B98 JUMP JUMPDEST PUSH1 0x40 MLOAD DUP1 SWAP2 SUB SWAP1 RETURN JUMPDEST PUSH2 0x920 PUSH1 0x4 DUP1 CALLDATASIZE SUB DUP2 ADD SWAP1 PUSH2 0x91B SWAP2 SWAP1 PUSH2 0x5CEF JUMP JUMPDEST PUSH2 0x24B5 JUMP JUMPDEST STOP JUMPDEST PUSH2 0x92A PUSH2 0x26AA JUMP JUMPDEST PUSH1 0x40 MLOAD PUSH2 0x937 SWAP2 SWAP1 PUSH2 0x5E33 JUMP JUMPDEST PUSH1 0x40 MLOAD DUP1 SWAP2 SUB SWAP1 RETURN JUMPDEST PUSH2 0x948 PUSH2 0x2795 JUMP JUMPDEST PUSH1 0x40 MLOAD PUSH2 0x955 SWAP2 SWAP1 PUSH2 0x5386 JUMP JUMPDEST PUSH1 0x40 MLOAD DUP1 SWAP2 SUB SWAP1 RETURN JUMPDEST PUSH2 0x966 PUSH2 0x27B9 JUMP JUMPDEST PUSH1 0x40 MLOAD PUSH2 0x973 SWAP2 SWAP1 PUSH2 0x5386 JUMP JUMPDEST PUSH1 0x40 MLOAD DUP1 SWAP2 SUB SWAP1 RETURN JUMPDEST PUSH2 0x996 PUSH1 0x4 DUP1 CALLDATASIZE SUB DUP2 ADD SWAP1 PUSH2 0x991 SWAP2 SWAP1 PUSH2 0x5491 JUMP JUMPDEST PUSH2 0x27DD JUMP JUMPDEST STOP JUMPDEST PUSH2 0x9B2 PUSH1 0x4 DUP1 CALLDATASIZE SUB DUP2 ADD SWAP1 PUSH2 0x9AD SWAP2 SWAP1 PUSH2 0x4E81 JUMP JUMPDEST PUSH2 0x27FF JUMP JUMPDEST PUSH1 0x40 MLOAD PUSH2 0x9BF SWAP2 SWAP1 PUSH2 0x4B98 JUMP JUMPDEST PUSH1 0x40 MLOAD DUP1 SWAP2 SUB SWAP1 RETURN JUMPDEST PUSH2 0x9D0 PUSH2 0x281F JUMP JUMPDEST PUSH1 0x40 MLOAD PUSH2 0x9DD SWAP2 SWAP1 PUSH2 0x5F0E JUMP JUMPDEST PUSH1 0x40 MLOAD DUP1 SWAP2 SUB SWAP1 RETURN JUMPDEST PUSH2 0xA00 PUSH1 0x4 DUP1 CALLDATASIZE SUB DUP2 ADD SWAP1 PUSH2 0x9FB SWAP2 SWAP1 PUSH2 0x5F2E JUMP JUMPDEST PUSH2 0x28F3 JUMP JUMPDEST PUSH1 0x40 MLOAD PUSH2 0xA10 SWAP5 SWAP4 SWAP3 SWAP2 SWAP1 PUSH2 0x5F7B JUMP JUMPDEST PUSH1 0x40 MLOAD DUP1 SWAP2 SUB SWAP1 RETURN JUMPDEST PUSH2 0xA33 PUSH1 0x4 DUP1 CALLDATASIZE SUB DUP2 ADD SWAP1 PUSH2 0xA2E SWAP2 SWAP1 PUSH2 0x4E81 JUMP JUMPDEST PUSH2 0x2977 JUMP JUMPDEST PUSH1 0x40 MLOAD PUSH2 0xA40 SWAP2 SWAP1 PUSH2 0x5FEB JUMP JUMPDEST PUSH1 0x40 MLOAD DUP1 SWAP2 SUB SWAP1 RETURN JUMPDEST PUSH2 0xA63 PUSH1 0x4 DUP1 CALLDATASIZE SUB DUP2 ADD SWAP1 PUSH2 0xA5E SWAP2 SWAP1 PUSH2 0x6004 JUMP JUMPDEST PUSH2 0x29FF JUMP JUMPDEST STOP JUMPDEST PUSH2 0xA7F PUSH1 0x4 DUP1 CALLDATASIZE SUB DUP2 ADD SWAP1 PUSH2 0xA7A SWAP2 SWAP1 PUSH2 0x6084 JUMP JUMPDEST PUSH2 0x2DD5 JUMP JUMPDEST PUSH1 0x40 MLOAD PUSH2 0xA8C SWAP2 SWAP1 PUSH2 0x4C4B JUMP JUMPDEST PUSH1 0x40 MLOAD DUP1 SWAP2 SUB SWAP1 RETURN JUMPDEST PUSH2 0xAAF PUSH1 0x4 DUP1 CALLDATASIZE SUB DUP2 ADD SWAP1 PUSH2 0xAAA SWAP2 SWAP1 PUSH2 0x60C2 JUMP JUMPDEST PUSH2 0x2E63 JUMP JUMPDEST PUSH1 0x40 MLOAD PUSH2 0xABC SWAP2 SWAP1 PUSH2 0x5CD6 JUMP JUMPDEST PUSH1 0x40 MLOAD DUP1 SWAP2 SUB SWAP1 RETURN JUMPDEST PUSH2 0xADF PUSH1 0x4 DUP1 CALLDATASIZE SUB DUP2 ADD SWAP1 PUSH2 0xADA SWAP2 SWAP1 PUSH2 0x6158 JUMP JUMPDEST PUSH2 0x2E78 JUMP JUMPDEST STOP JUMPDEST PUSH2 0xAFB PUSH1 0x4 DUP1 CALLDATASIZE SUB DUP2 ADD SWAP1 PUSH2 0xAF6 SWAP2 SWAP1 PUSH2 0x61EB JUMP JUMPDEST PUSH2 0x2F1F JUMP JUMPDEST STOP JUMPDEST PUSH2 0xB17 PUSH1 0x4 DUP1 CALLDATASIZE SUB DUP2 ADD SWAP1 PUSH2 0xB12 SWAP2 SWAP1 PUSH2 0x4DA0 JUMP JUMPDEST PUSH2 0x2FCB JUMP JUMPDEST STOP JUMPDEST PUSH2 0xB33 PUSH1 0x4 DUP1 CALLDATASIZE SUB DUP2 ADD SWAP1 PUSH2 0xB2E SWAP2 SWAP1 PUSH2 0x4E81 JUMP JUMPDEST PUSH2 0x309E JUMP JUMPDEST PUSH1 0x40 MLOAD PUSH2 0xB41 SWAP3 SWAP2 SWAP1 PUSH2 0x623B JUMP JUMPDEST PUSH1 0x40 MLOAD DUP1 SWAP2 SUB SWAP1 RETURN JUMPDEST PUSH0 PUSH1 0x2 PUSH0 DUP4 DUP2 MSTORE PUSH1 0x20 ADD SWAP1 DUP2 MSTORE PUSH1 0x20 ADD PUSH0 KECCAK256 PUSH0 DUP5 PUSH20 0xFFFFFFFFFFFFFFFFFFFFFFFFFFFFFFFFFFFFFFFF AND PUSH20 0xFFFFFFFFFFFFFFFFFFFFFFFFFFFFFFFFFFFFFFFF AND DUP2 MSTORE PUSH1 0x20 ADD SWAP1 DUP2 MSTORE PUSH1 0x20 ADD PUSH0 KECCAK256 SLOAD SWAP1 POP SWAP3 SWAP2 POP POP JUMP JUMPDEST PUSH0 PUSH32 0x4E2312E000000000000000000000000000000000000000000000000000000000 PUSH28 0xFFFFFFFFFFFFFFFFFFFFFFFFFFFFFFFFFFFFFFFFFFFFFFFFFFFFFFFF NOT AND DUP3 PUSH28 0xFFFFFFFFFFFFFFFFFFFFFFFFFFFFFFFFFFFFFFFFFFFFFFFFFFFFFFFF NOT AND EQ DUP1 PUSH2 0xC12 JUMPI POP PUSH2 0xC11 DUP3 PUSH2 0x3144 JUMP JUMPDEST JUMPDEST SWAP1 POP SWAP2 SWAP1 POP JUMP JUMPDEST PUSH32 0xE926D122B799DCBE5C2ECCDF60AE0AEFBB1A4BC75A7848BB07BEFECF8C775F5C PUSH2 0xC43 DUP2 PUSH2 0x3225 JUMP JUMPDEST PUSH0 JUMPDEST PUSH1 0xE DUP1 SLOAD SWAP1 POP DUP2 LT ISZERO PUSH2 0xCF1 JUMPI PUSH0 PUSH1 0xE DUP3 DUP2 SLOAD DUP2 LT PUSH2 0xC67 JUMPI PUSH2 0xC66 PUSH2 0x6269 JUMP JUMPDEST JUMPDEST SWAP1 PUSH0 MSTORE PUSH1 0x20 PUSH0 KECCAK256 ADD SLOAD SWAP1 POP DUP4 DUP1 MLOAD SWAP1 PUSH1 0x20 ADD KECCAK256 PUSH1 0xC PUSH0 DUP4 DUP2 MSTORE PUSH1 0x20 ADD SWAP1 DUP2 MSTORE PUSH1 0x20 ADD PUSH0 KECCAK256 PUSH1 0x1 ADD PUSH1 0x40 MLOAD PUSH2 0xC9B SWAP2 SWAP1 PUSH2 0x638F JUMP JUMPDEST PUSH1 0x40 MLOAD DUP1 SWAP2 SUB SWAP1 KECCAK256 SUB PUSH2 0xCE3 JUMPI PUSH1 0x40 MLOAD PUSH32 0x8C379A000000000000000000000000000000000000000000000000000000000 DUP2 MSTORE PUSH1 0x4 ADD PUSH2 0xCDA SWAP1 PUSH2 0x6415 JUMP JUMPDEST PUSH1 0x40 MLOAD DUP1 SWAP2 SUB SWAP1 REVERT JUMPDEST POP DUP1 DUP1 PUSH1 0x1 ADD SWAP2 POP POP PUSH2 0xC45 JUMP JUMPDEST POP PUSH2 0xCFC PUSH1 0xA PUSH2 0x3239 JUMP JUMPDEST PUSH0 PUSH2 0xD07 PUSH1 0xA PUSH2 0x324D JUMP JUMPDEST SWAP1 POP PUSH1 0x40 MLOAD DUP1 PUSH1 0x40 ADD PUSH1 0x40 MSTORE DUP1 DUP3 DUP2 MSTORE PUSH1 0x20 ADD DUP5 DUP2 MSTORE POP PUSH1 0xC PUSH0 DUP4 DUP2 MSTORE PUSH1 0x20 ADD SWAP1 DUP2 MSTORE PUSH1 0x20 ADD PUSH0 KECCAK256 PUSH0 DUP3 ADD MLOAD DUP2 PUSH0 ADD SSTORE PUSH1 0x20 DUP3 ADD MLOAD DUP2 PUSH1 0x1 ADD SWAP1 DUP2 PUSH2 0xD4C SWAP2 SWAP1 PUSH2 0x65D0 JUMP JUMPDEST POP SWAP1 POP POP PUSH1 0xE DUP2 SWAP1 DUP1 PUSH1 0x1 DUP2 SLOAD ADD DUP1 DUP3 SSTORE DUP1 SWAP2 POP POP PUSH1 0x1 SWAP1 SUB SWAP1 PUSH0 MSTORE PUSH1 0x20 PUSH0 KECCAK256 ADD PUSH0 SWAP1 SWAP2 SWAP1 SWAP2 SWAP1 SWAP2 POP SSTORE DUP1 PUSH32 0x62B7B5BA11BFC95430FAB0460FDF99B9C8FBC2B3A6A48CAF79C3EE1B591C0336 DUP5 PUSH1 0x40 MLOAD PUSH2 0xDA6 SWAP2 SWAP1 PUSH2 0x4E61 JUMP JUMPDEST PUSH1 0x40 MLOAD DUP1 SWAP2 SUB SWAP1 LOG2 POP POP POP JUMP JUMPDEST PUSH1 0xB DUP1 SLOAD PUSH2 0xDC0 SWAP1 PUSH2 0x62C3 JUMP JUMPDEST DUP1 PUSH1 0x1F ADD PUSH1 0x20 DUP1 SWAP2 DIV MUL PUSH1 0x20 ADD PUSH1 0x40 MLOAD SWAP1 DUP2 ADD PUSH1 0x40 MSTORE DUP1 SWAP3 SWAP2 SWAP1 DUP2 DUP2 MSTORE PUSH1 0x20 ADD DUP3 DUP1 SLOAD PUSH2 0xDEC SWAP1 PUSH2 0x62C3 JUMP JUMPDEST DUP1 ISZERO PUSH2 0xE37 JUMPI DUP1 PUSH1 0x1F LT PUSH2 0xE0E JUMPI PUSH2 0x100 DUP1 DUP4 SLOAD DIV MUL DUP4 MSTORE SWAP2 PUSH1 0x20 ADD SWAP2 PUSH2 0xE37 JUMP JUMPDEST DUP3 ADD SWAP2 SWAP1 PUSH0 MSTORE PUSH1 0x20 PUSH0 KECCAK256 SWAP1 JUMPDEST DUP2 SLOAD DUP2 MSTORE SWAP1 PUSH1 0x1 ADD SWAP1 PUSH1 0x20 ADD DUP1 DUP4 GT PUSH2 0xE1A JUMPI DUP3 SWAP1 SUB PUSH1 0x1F AND DUP3 ADD SWAP2 JUMPDEST POP POP POP POP POP DUP2 JUMP JUMPDEST PUSH1 0x60 PUSH2 0xE4A DUP3 PUSH2 0x3259 JUMP JUMPDEST SWAP1 POP SWAP2 SWAP1 POP JUMP JUMPDEST PUSH0 DUP1 SHL PUSH2 0xE5D DUP2 PUSH2 0x3225 JUMP JUMPDEST PUSH0 PUSH2 0xE67 DUP5 PUSH2 0x249B JUMP JUMPDEST GT PUSH2 0xEA7 JUMPI PUSH1 0x40 MLOAD PUSH32 0x8C379A000000000000000000000000000000000000000000000000000000000 DUP2 MSTORE PUSH1 0x4 ADD PUSH2 0xE9E SWAP1 PUSH2 0x670F JUMP JUMPDEST PUSH1 0x40 MLOAD DUP1 SWAP2 SUB SWAP1 REVERT JUMPDEST PUSH2 0xEB1 DUP4 DUP4 PUSH2 0x3338 JUMP JUMPDEST POP POP POP JUMP JUMPDEST PUSH0 PUSH1 0x8 SLOAD SWAP1 POP SWAP1 JUMP JUMPDEST PUSH1 0x60 PUSH0 PUSH20 0xFFFFFFFFFFFFFFFFFFFFFFFFFFFFFFFFFFFFFFFF AND DUP3 PUSH20 0xFFFFFFFFFFFFFFFFFFFFFFFFFFFFFFFFFFFFFFFF AND SUB PUSH2 0xF2F JUMPI PUSH1 0x40 MLOAD PUSH32 0x8C379A000000000000000000000000000000000000000000000000000000000 DUP2 MSTORE PUSH1 0x4 ADD PUSH2 0xF26 SWAP1 PUSH2 0x679D JUMP JUMPDEST PUSH1 0x40 MLOAD DUP1 SWAP2 SUB SWAP1 REVERT JUMPDEST PUSH0 DUP1 JUMPDEST PUSH1 0xF DUP1 SLOAD SWAP1 POP DUP2 LT ISZERO PUSH2 0xF88 JUMPI PUSH0 PUSH2 0xF66 DUP6 PUSH1 0xF DUP5 DUP2 SLOAD DUP2 LT PUSH2 0xF58 JUMPI PUSH2 0xF57 PUSH2 0x6269 JUMP JUMPDEST JUMPDEST SWAP1 PUSH0 MSTORE PUSH1 0x20 PUSH0 KECCAK256 ADD SLOAD PUSH2 0xB4A JUMP JUMPDEST GT ISZERO PUSH2 0xF7B JUMPI DUP2 DUP1 PUSH2 0xF77 SWAP1 PUSH2 0x67E8 JUMP JUMPDEST SWAP3 POP POP JUMPDEST DUP1 DUP1 PUSH1 0x1 ADD SWAP2 POP POP PUSH2 0xF32 JUMP JUMPDEST POP PUSH0 DUP2 PUSH8 0xFFFFFFFFFFFFFFFF DUP2 GT ISZERO PUSH2 0xFA4 JUMPI PUSH2 0xFA3 PUSH2 0x4C7C JUMP JUMPDEST JUMPDEST PUSH1 0x40 MLOAD SWAP1 DUP1 DUP3 MSTORE DUP1 PUSH1 0x20 MUL PUSH1 0x20 ADD DUP3 ADD PUSH1 0x40 MSTORE DUP1 ISZERO PUSH2 0xFDD JUMPI DUP2 PUSH1 0x20 ADD JUMPDEST PUSH2 0xFCA PUSH2 0x49F5 JUMP JUMPDEST DUP2 MSTORE PUSH1 0x20 ADD SWAP1 PUSH1 0x1 SWAP1 SUB SWAP1 DUP2 PUSH2 0xFC2 JUMPI SWAP1 POP JUMPDEST POP SWAP1 POP PUSH0 DUP1 JUMPDEST PUSH1 0xF DUP1 SLOAD SWAP1 POP DUP2 LT ISZERO PUSH2 0x10B8 JUMPI PUSH0 PUSH1 0xF DUP3 DUP2 SLOAD DUP2 LT PUSH2 0x1005 JUMPI PUSH2 0x1004 PUSH2 0x6269 JUMP JUMPDEST JUMPDEST SWAP1 PUSH0 MSTORE PUSH1 0x20 PUSH0 KECCAK256 ADD SLOAD SWAP1 POP PUSH0 PUSH2 0x101B DUP9 DUP4 PUSH2 0xB4A JUMP JUMPDEST SWAP1 POP PUSH0 DUP2 GT ISZERO PUSH2 0x10A9 JUMPI PUSH1 0x40 MLOAD DUP1 PUSH1 0x80 ADD PUSH1 0x40 MSTORE DUP1 DUP4 DUP2 MSTORE PUSH1 0x20 ADD DUP3 DUP2 MSTORE PUSH1 0x20 ADD PUSH2 0x1045 DUP5 PUSH2 0xE3F JUMP JUMPDEST DUP2 MSTORE PUSH1 0x20 ADD PUSH1 0xD PUSH0 DUP6 DUP2 MSTORE PUSH1 0x20 ADD SWAP1 DUP2 MSTORE PUSH1 0x20 ADD PUSH0 KECCAK256 PUSH1 0x40 MLOAD DUP1 PUSH1 0x40 ADD PUSH1 0x40 MSTORE SWAP1 DUP2 PUSH0 DUP3 ADD SLOAD DUP2 MSTORE PUSH1 0x20 ADD PUSH1 0x1 DUP3 ADD SLOAD DUP2 MSTORE POP POP DUP2 MSTORE POP DUP6 DUP6 DUP2 MLOAD DUP2 LT PUSH2 0x108F JUMPI PUSH2 0x108E PUSH2 0x6269 JUMP JUMPDEST JUMPDEST PUSH1 0x20 MUL PUSH1 0x20 ADD ADD DUP2 SWAP1 MSTORE POP DUP4 DUP1 PUSH2 0x10A5 SWAP1 PUSH2 0x67E8 JUMP JUMPDEST SWAP5 POP POP JUMPDEST POP POP DUP1 DUP1 PUSH1 0x1 ADD SWAP2 POP POP PUSH2 0xFE3 JUMP JUMPDEST POP DUP2 SWAP4 POP POP POP POP SWAP2 SWAP1 POP JUMP JUMPDEST PUSH32 0x9F2DF0FED2C77648DE5860A4CC508CD0818C85B8B8A1AB4CEEEF8D981C8956A6 PUSH2 0x10EE DUP2 PUSH2 0x3225 JUMP JUMPDEST PUSH2 0x10FA DUP6 DUP6 DUP6 DUP6 PUSH2 0x339B JUMP JUMPDEST POP POP POP POP POP JUMP JUMPDEST PUSH0 DUP1 PUSH0 DUP4 DUP2 MSTORE PUSH1 0x20 ADD SWAP1 DUP2 MSTORE PUSH1 0x20 ADD PUSH0 KECCAK256 PUSH1 0x1 ADD SLOAD SWAP1 POP SWAP2 SWAP1 POP JUMP JUMPDEST PUSH1 0xD PUSH1 0x20 MSTORE DUP1 PUSH0 MSTORE PUSH1 0x40 PUSH0 KECCAK256 PUSH0 SWAP2 POP SWAP1 POP DUP1 PUSH0 ADD SLOAD SWAP1 DUP1 PUSH1 0x1 ADD SLOAD SWAP1 POP DUP3 JUMP JUMPDEST PUSH0 PUSH2 0x1146 PUSH2 0x341E JUMP JUMPDEST SWAP1 POP DUP1 PUSH20 0xFFFFFFFFFFFFFFFFFFFFFFFFFFFFFFFFFFFFFFFF AND DUP7 PUSH20 0xFFFFFFFFFFFFFFFFFFFFFFFFFFFFFFFFFFFFFFFF AND EQ ISZERO DUP1 ISZERO PUSH2 0x118B JUMPI POP PUSH2 0x1189 DUP7 DUP3 PUSH2 0x2DD5 JUMP JUMPDEST ISZERO JUMPDEST ISZERO PUSH2 0x11CF JUMPI DUP1 DUP7 PUSH1 0x40 MLOAD PUSH32 0xE237D92200000000000000000000000000000000000000000000000000000000 DUP2 MSTORE PUSH1 0x4 ADD PUSH2 0x11C6 SWAP3 SWAP2 SWAP1 PUSH2 0x682F JUMP JUMPDEST PUSH1 0x40 MLOAD DUP1 SWAP2 SUB SWAP1 REVERT JUMPDEST PUSH2 0x11DC DUP7 DUP7 DUP7 DUP7 DUP7 PUSH2 0x3425 JUMP JUMPDEST POP POP POP POP POP POP JUMP JUMPDEST PUSH2 0x11ED DUP3 PUSH2 0x1101 JUMP JUMPDEST PUSH2 0x11F6 DUP2 PUSH2 0x3225 JUMP JUMPDEST PUSH2 0x1200 DUP4 DUP4 PUSH2 0x3519 JUMP JUMPDEST POP POP POP POP JUMP JUMPDEST PUSH1 0x10 DUP2 DUP2 SLOAD DUP2 LT PUSH2 0x1215 JUMPI PUSH0 DUP1 REVERT JUMPDEST SWAP1 PUSH0 MSTORE PUSH1 0x20 PUSH0 KECCAK256 ADD PUSH0 SWAP2 POP SWAP1 POP DUP1 SLOAD PUSH2 0x122D SWAP1 PUSH2 0x62C3 JUMP JUMPDEST DUP1 PUSH1 0x1F ADD PUSH1 0x20 DUP1 SWAP2 DIV MUL PUSH1 0x20 ADD PUSH1 0x40 MLOAD SWAP1 DUP2 ADD PUSH1 0x40 MSTORE DUP1 SWAP3 SWAP2 SWAP1 DUP2 DUP2 MSTORE PUSH1 0x20 ADD DUP3 DUP1 SLOAD PUSH2 0x1259 SWAP1 PUSH2 0x62C3 JUMP JUMPDEST DUP1 ISZERO PUSH2 0x12A4 JUMPI DUP1 PUSH1 0x1F LT PUSH2 0x127B JUMPI PUSH2 0x100 DUP1 DUP4 SLOAD DIV MUL DUP4 MSTORE SWAP2 PUSH1 0x20 ADD SWAP2 PUSH2 0x12A4 JUMP JUMPDEST DUP3 ADD SWAP2 SWAP1 PUSH0 MSTORE PUSH1 0x20 PUSH0 KECCAK256 SWAP1 JUMPDEST DUP2 SLOAD DUP2 MSTORE SWAP1 PUSH1 0x1 ADD SWAP1 PUSH1 0x20 ADD DUP1 DUP4 GT PUSH2 0x1287 JUMPI DUP3 SWAP1 SUB PUSH1 0x1F AND DUP3 ADD SWAP2 JUMPDEST POP POP POP POP POP DUP2 JUMP JUMPDEST PUSH0 DUP1 SHL PUSH2 0x12B8 DUP2 PUSH2 0x3225 JUMP JUMPDEST PUSH0 PUSH20 0xFFFFFFFFFFFFFFFFFFFFFFFFFFFFFFFFFFFFFFFF AND DUP5 PUSH20 0xFFFFFFFFFFFFFFFFFFFFFFFFFFFFFFFFFFFFFFFF AND SUB PUSH2 0x1326 JUMPI PUSH1 0x40 MLOAD PUSH32 0x8C379A000000000000000000000000000000000000000000000000000000000 DUP2 MSTORE PUSH1 0x4 ADD PUSH2 0x131D SWAP1 PUSH2 0x68C6 JUMP JUMPDEST PUSH1 0x40 MLOAD DUP1 SWAP2 SUB SWAP1 REVERT JUMPDEST PUSH0 DUP3 GT PUSH2 0x1368 JUMPI PUSH1 0x40 MLOAD PUSH32 0x8C379A000000000000000000000000000000000000000000000000000000000 DUP2 MSTORE PUSH1 0x4 ADD PUSH2 0x135F SWAP1 PUSH2 0x6954 JUMP JUMPDEST PUSH1 0x40 MLOAD DUP1 SWAP2 SUB SWAP1 REVERT JUMPDEST PUSH0 DUP1 JUMPDEST PUSH1 0xF DUP1 SLOAD SWAP1 POP DUP2 LT ISZERO PUSH2 0x13E2 JUMPI DUP5 DUP1 MLOAD SWAP1 PUSH1 0x20 ADD KECCAK256 PUSH2 0x13A5 PUSH1 0xF DUP4 DUP2 SLOAD DUP2 LT PUSH2 0x1397 JUMPI PUSH2 0x1396 PUSH2 0x6269 JUMP JUMPDEST JUMPDEST SWAP1 PUSH0 MSTORE PUSH1 0x20 PUSH0 KECCAK256 ADD SLOAD PUSH2 0xE3F JUMP JUMPDEST DUP1 MLOAD SWAP1 PUSH1 0x20 ADD KECCAK256 SUB PUSH2 0x13D5 JUMPI PUSH1 0xF DUP2 DUP2 SLOAD DUP2 LT PUSH2 0x13C5 JUMPI PUSH2 0x13C4 PUSH2 0x6269 JUMP JUMPDEST JUMPDEST SWAP1 PUSH0 MSTORE PUSH1 0x20 PUSH0 KECCAK256 ADD SLOAD SWAP2 POP PUSH2 0x13E2 JUMP JUMPDEST DUP1 DUP1 PUSH1 0x1 ADD SWAP2 POP POP PUSH2 0x136B JUMP JUMPDEST POP PUSH0 DUP2 SUB PUSH2 0x1425 JUMPI PUSH1 0x40 MLOAD PUSH32 0x8C379A000000000000000000000000000000000000000000000000000000000 DUP2 MSTORE PUSH1 0x4 ADD PUSH2 0x141C SWAP1 PUSH2 0x69E2 JUMP JUMPDEST PUSH1 0x40 MLOAD DUP1 SWAP2 SUB SWAP1 REVERT JUMPDEST DUP3 PUSH2 0x1430 ADDRESS DUP4 PUSH2 0xB4A JUMP JUMPDEST LT ISZERO PUSH2 0x1471 JUMPI PUSH1 0x40 MLOAD PUSH32 0x8C379A000000000000000000000000000000000000000000000000000000000 DUP2 MSTORE PUSH1 0x4 ADD PUSH2 0x1468 SWAP1 PUSH2 0x6A70 JUMP JUMPDEST PUSH1 0x40 MLOAD DUP1 SWAP2 SUB SWAP1 REVERT JUMPDEST PUSH2 0x148C ADDRESS DUP7 DUP4 DUP7 PUSH1 0x40 MLOAD DUP1 PUSH1 0x20 ADD PUSH1 0x40 MSTORE DUP1 PUSH0 DUP2 MSTORE POP PUSH2 0x2E78 JUMP JUMPDEST POP POP POP POP POP JUMP JUMPDEST PUSH2 0x149B PUSH2 0x341E JUMP JUMPDEST PUSH20 0xFFFFFFFFFFFFFFFFFFFFFFFFFFFFFFFFFFFFFFFF AND DUP2 PUSH20 0xFFFFFFFFFFFFFFFFFFFFFFFFFFFFFFFFFFFFFFFF AND EQ PUSH2 0x14FF JUMPI PUSH1 0x40 MLOAD PUSH32 0x6697B23200000000000000000000000000000000000000000000000000000000 DUP2 MSTORE PUSH1 0x4 ADD PUSH1 0x40 MLOAD DUP1 SWAP2 SUB SWAP1 REVERT JUMPDEST PUSH2 0x1509 DUP3 DUP3 PUSH2 0x3602 JUMP JUMPDEST POP POP POP JUMP JUMPDEST PUSH0 DUP1 SHL PUSH2 0x151A DUP2 PUSH2 0x3225 JUMP JUMPDEST PUSH2 0x1522 PUSH2 0x36EB JUMP JUMPDEST POP JUMP JUMPDEST PUSH1 0x60 DUP2 MLOAD DUP4 MLOAD EQ PUSH2 0x1571 JUMPI DUP2 MLOAD DUP4 MLOAD PUSH1 0x40 MLOAD PUSH32 0x5B05999100000000000000000000000000000000000000000000000000000000 DUP2 MSTORE PUSH1 0x4 ADD PUSH2 0x1568 SWAP3 SWAP2 SWAP1 PUSH2 0x6A8E JUMP JUMPDEST PUSH1 0x40 MLOAD DUP1 SWAP2 SUB SWAP1 REVERT JUMPDEST PUSH0 DUP4 MLOAD PUSH8 0xFFFFFFFFFFFFFFFF DUP2 GT ISZERO PUSH2 0x158D JUMPI PUSH2 0x158C PUSH2 0x4C7C JUMP JUMPDEST JUMPDEST PUSH1 0x40 MLOAD SWAP1 DUP1 DUP3 MSTORE DUP1 PUSH1 0x20 MUL PUSH1 0x20 ADD DUP3 ADD PUSH1 0x40 MSTORE DUP1 ISZERO PUSH2 0x15BB JUMPI DUP2 PUSH1 0x20 ADD PUSH1 0x20 DUP3 MUL DUP1 CALLDATASIZE DUP4 CALLDATACOPY DUP1 DUP3 ADD SWAP2 POP POP SWAP1 POP JUMPDEST POP SWAP1 POP PUSH0 JUMPDEST DUP5 MLOAD DUP2 LT ISZERO PUSH2 0x1621 JUMPI PUSH2 0x15F7 PUSH2 0x15DF DUP3 DUP8 PUSH2 0x374C SWAP1 SWAP2 SWAP1 PUSH4 0xFFFFFFFF AND JUMP JUMPDEST PUSH2 0x15F2 DUP4 DUP8 PUSH2 0x375F SWAP1 SWAP2 SWAP1 PUSH4 0xFFFFFFFF AND JUMP JUMPDEST PUSH2 0xB4A JUMP JUMPDEST DUP3 DUP3 DUP2 MLOAD DUP2 LT PUSH2 0x160A JUMPI PUSH2 0x1609 PUSH2 0x6269 JUMP JUMPDEST JUMPDEST PUSH1 0x20 MUL PUSH1 0x20 ADD ADD DUP2 DUP2 MSTORE POP POP DUP1 PUSH1 0x1 ADD SWAP1 POP PUSH2 0x15C0 JUMP JUMPDEST POP DUP1 SWAP2 POP POP SWAP3 SWAP2 POP POP JUMP JUMPDEST PUSH0 DUP1 PUSH2 0x1637 DUP4 PUSH2 0x249B JUMP JUMPDEST GT SWAP1 POP SWAP2 SWAP1 POP JUMP JUMPDEST PUSH2 0x1647 PUSH2 0x4A21 JUMP JUMPDEST PUSH0 PUSH1 0xC PUSH0 DUP5 DUP2 MSTORE PUSH1 0x20 ADD SWAP1 DUP2 MSTORE PUSH1 0x20 ADD PUSH0 KECCAK256 PUSH0 ADD SLOAD SUB PUSH2 0x169C JUMPI PUSH1 0x40 MLOAD PUSH32 0x8C379A000000000000000000000000000000000000000000000000000000000 DUP2 MSTORE PUSH1 0x4 ADD PUSH2 0x1693 SWAP1 PUSH2 0x6B25 JUMP JUMPDEST PUSH1 0x40 MLOAD DUP1 SWAP2 SUB SWAP1 REVERT JUMPDEST PUSH1 0xC PUSH0 DUP4 DUP2 MSTORE PUSH1 0x20 ADD SWAP1 DUP2 MSTORE PUSH1 0x20 ADD PUSH0 KECCAK256 PUSH1 0x40 MLOAD DUP1 PUSH1 0x40 ADD PUSH1 0x40 MSTORE SWAP1 DUP2 PUSH0 DUP3 ADD SLOAD DUP2 MSTORE PUSH1 0x20 ADD PUSH1 0x1 DUP3 ADD DUP1 SLOAD PUSH2 0x16D1 SWAP1 PUSH2 0x62C3 JUMP JUMPDEST DUP1 PUSH1 0x1F ADD PUSH1 0x20 DUP1 SWAP2 DIV MUL PUSH1 0x20 ADD PUSH1 0x40 MLOAD SWAP1 DUP2 ADD PUSH1 0x40 MSTORE DUP1 SWAP3 SWAP2 SWAP1 DUP2 DUP2 MSTORE PUSH1 0x20 ADD DUP3 DUP1 SLOAD PUSH2 0x16FD SWAP1 PUSH2 0x62C3 JUMP JUMPDEST DUP1 ISZERO PUSH2 0x1748 JUMPI DUP1 PUSH1 0x1F LT PUSH2 0x171F JUMPI PUSH2 0x100 DUP1 DUP4 SLOAD DIV MUL DUP4 MSTORE SWAP2 PUSH1 0x20 ADD SWAP2 PUSH2 0x1748 JUMP JUMPDEST DUP3 ADD SWAP2 SWAP1 PUSH0 MSTORE PUSH1 0x20 PUSH0 KECCAK256 SWAP1 JUMPDEST DUP2 SLOAD DUP2 MSTORE SWAP1 PUSH1 0x1 ADD SWAP1 PUSH1 0x20 ADD DUP1 DUP4 GT PUSH2 0x172B JUMPI DUP3 SWAP1 SUB PUSH1 0x1F AND DUP3 ADD SWAP2 JUMPDEST POP POP POP POP POP DUP2 MSTORE POP POP SWAP1 POP SWAP2 SWAP1 POP JUMP JUMPDEST PUSH0 PUSH1 0x1 PUSH0 SWAP1 SLOAD SWAP1 PUSH2 0x100 EXP SWAP1 DIV PUSH1 0xFF AND SWAP1 POP SWAP1 JUMP JUMPDEST PUSH1 0x60 PUSH0 PUSH1 0xE DUP1 SLOAD SWAP1 POP PUSH8 0xFFFFFFFFFFFFFFFF DUP2 GT ISZERO PUSH2 0x178F JUMPI PUSH2 0x178E PUSH2 0x4C7C JUMP JUMPDEST JUMPDEST PUSH1 0x40 MLOAD SWAP1 DUP1 DUP3 MSTORE DUP1 PUSH1 0x20 MUL PUSH1 0x20 ADD DUP3 ADD PUSH1 0x40 MSTORE DUP1 ISZERO PUSH2 0x17C8 JUMPI DUP2 PUSH1 0x20 ADD JUMPDEST PUSH2 0x17B5 PUSH2 0x4A21 JUMP JUMPDEST DUP2 MSTORE PUSH1 0x20 ADD SWAP1 PUSH1 0x1 SWAP1 SUB SWAP1 DUP2 PUSH2 0x17AD JUMPI SWAP1 POP JUMPDEST POP SWAP1 POP PUSH0 JUMPDEST PUSH1 0xE DUP1 SLOAD SWAP1 POP DUP2 LT ISZERO PUSH2 0x18D6 JUMPI PUSH1 0xC PUSH0 PUSH1 0xE DUP4 DUP2 SLOAD DUP2 LT PUSH2 0x17F1 JUMPI PUSH2 0x17F0 PUSH2 0x6269 JUMP JUMPDEST JUMPDEST SWAP1 PUSH0 MSTORE PUSH1 0x20 PUSH0 KECCAK256 ADD SLOAD DUP2 MSTORE PUSH1 0x20 ADD SWAP1 DUP2 MSTORE PUSH1 0x20 ADD PUSH0 KECCAK256 PUSH1 0x40 MLOAD DUP1 PUSH1 0x40 ADD PUSH1 0x40 MSTORE SWAP1 DUP2 PUSH0 DUP3 ADD SLOAD DUP2 MSTORE PUSH1 0x20 ADD PUSH1 0x1 DUP3 ADD DUP1 SLOAD PUSH2 0x182B SWAP1 PUSH2 0x62C3 JUMP JUMPDEST DUP1 PUSH1 0x1F ADD PUSH1 0x20 DUP1 SWAP2 DIV MUL PUSH1 0x20 ADD PUSH1 0x40 MLOAD SWAP1 DUP2 ADD PUSH1 0x40 MSTORE DUP1 SWAP3 SWAP2 SWAP1 DUP2 DUP2 MSTORE PUSH1 0x20 ADD DUP3 DUP1 SLOAD PUSH2 0x1857 SWAP1 PUSH2 0x62C3 JUMP JUMPDEST DUP1 ISZERO PUSH2 0x18A2 JUMPI DUP1 PUSH1 0x1F LT PUSH2 0x1879 JUMPI PUSH2 0x100 DUP1 DUP4 SLOAD DIV MUL DUP4 MSTORE SWAP2 PUSH1 0x20 ADD SWAP2 PUSH2 0x18A2 JUMP JUMPDEST DUP3 ADD SWAP2 SWAP1 PUSH0 MSTORE PUSH1 0x20 PUSH0 KECCAK256 SWAP1 JUMPDEST DUP2 SLOAD DUP2 MSTORE SWAP1 PUSH1 0x1 ADD SWAP1 PUSH1 0x20 ADD DUP1 DUP4 GT PUSH2 0x1885 JUMPI DUP3 SWAP1 SUB PUSH1 0x1F AND DUP3 ADD SWAP2 JUMPDEST POP POP POP POP POP DUP2 MSTORE POP POP DUP3 DUP3 DUP2 MLOAD DUP2 LT PUSH2 0x18BE JUMPI PUSH2 0x18BD PUSH2 0x6269 JUMP JUMPDEST JUMPDEST PUSH1 0x20 MUL PUSH1 0x20 ADD ADD DUP2 SWAP1 MSTORE POP DUP1 DUP1 PUSH1 0x1 ADD SWAP2 POP POP PUSH2 0x17CD JUMP JUMPDEST POP DUP1 SWAP2 POP POP SWAP1 JUMP JUMPDEST PUSH2 0x18E6 PUSH2 0x341E JUMP JUMPDEST PUSH20 0xFFFFFFFFFFFFFFFFFFFFFFFFFFFFFFFFFFFFFFFF AND DUP4 PUSH20 0xFFFFFFFFFFFFFFFFFFFFFFFFFFFFFFFFFFFFFFFF AND EQ ISZERO DUP1 ISZERO PUSH2 0x192F JUMPI POP PUSH2 0x192D DUP4 PUSH2 0x1928 PUSH2 0x341E JUMP JUMPDEST PUSH2 0x2DD5 JUMP JUMPDEST ISZERO JUMPDEST ISZERO PUSH2 0x197A JUMPI PUSH2 0x193C PUSH2 0x341E JUMP JUMPDEST DUP4 PUSH1 0x40 MLOAD PUSH32 0xE237D92200000000000000000000000000000000000000000000000000000000 DUP2 MSTORE PUSH1 0x4 ADD PUSH2 0x1971 SWAP3 SWAP2 SWAP1 PUSH2 0x682F JUMP JUMPDEST PUSH1 0x40 MLOAD DUP1 SWAP2 SUB SWAP1 REVERT JUMPDEST PUSH2 0x1985 DUP4 DUP4 DUP4 PUSH2 0x3772 JUMP JUMPDEST POP POP POP JUMP JUMPDEST PUSH0 DUP1 SHL PUSH2 0x1996 DUP2 PUSH2 0x3225 JUMP JUMPDEST PUSH0 JUMPDEST PUSH1 0xE DUP1 SLOAD SWAP1 POP DUP2 LT ISZERO PUSH2 0x1AFE JUMPI PUSH0 PUSH1 0xE DUP3 DUP2 SLOAD DUP2 LT PUSH2 0x19BA JUMPI PUSH2 0x19B9 PUSH2 0x6269 JUMP JUMPDEST JUMPDEST SWAP1 PUSH0 MSTORE PUSH1 0x20 PUSH0 KECCAK256 ADD SLOAD SWAP1 POP DUP4 DUP1 MLOAD SWAP1 PUSH1 0x20 ADD KECCAK256 PUSH1 0xC PUSH0 DUP4 DUP2 MSTORE PUSH1 0x20 ADD SWAP1 DUP2 MSTORE PUSH1 0x20 ADD PUSH0 KECCAK256 PUSH1 0x1 ADD PUSH1 0x40 MLOAD PUSH2 0x19EE SWAP2 SWAP1 PUSH2 0x638F JUMP JUMPDEST PUSH1 0x40 MLOAD DUP1 SWAP2 SUB SWAP1 KECCAK256 SUB PUSH2 0x1AF0 JUMPI PUSH1 0xC PUSH0 DUP3 DUP2 MSTORE PUSH1 0x20 ADD SWAP1 DUP2 MSTORE PUSH1 0x20 ADD PUSH0 KECCAK256 PUSH0 DUP1 DUP3 ADD PUSH0 SWAP1 SSTORE PUSH1 0x1 DUP3 ADD PUSH0 PUSH2 0x1A22 SWAP2 SWAP1 PUSH2 0x4A3A JUMP JUMPDEST POP POP PUSH1 0x1 PUSH1 0xE DUP1 SLOAD SWAP1 POP PUSH2 0x1A36 SWAP2 SWAP1 PUSH2 0x6B43 JUMP JUMPDEST DUP3 LT ISZERO PUSH2 0x1A8C JUMPI PUSH1 0xE PUSH1 0x1 PUSH1 0xE DUP1 SLOAD SWAP1 POP PUSH2 0x1A51 SWAP2 SWAP1 PUSH2 0x6B43 JUMP JUMPDEST DUP2 SLOAD DUP2 LT PUSH2 0x1A62 JUMPI PUSH2 0x1A61 PUSH2 0x6269 JUMP JUMPDEST JUMPDEST SWAP1 PUSH0 MSTORE PUSH1 0x20 PUSH0 KECCAK256 ADD SLOAD PUSH1 0xE DUP4 DUP2 SLOAD DUP2 LT PUSH2 0x1A7F JUMPI PUSH2 0x1A7E PUSH2 0x6269 JUMP JUMPDEST JUMPDEST SWAP1 PUSH0 MSTORE PUSH1 0x20 PUSH0 KECCAK256 ADD DUP2 SWAP1 SSTORE POP JUMPDEST PUSH1 0xE DUP1 SLOAD DUP1 PUSH2 0x1A9E JUMPI PUSH2 0x1A9D PUSH2 0x6B76 JUMP JUMPDEST JUMPDEST PUSH1 0x1 SWAP1 SUB DUP2 DUP2 SWAP1 PUSH0 MSTORE PUSH1 0x20 PUSH0 KECCAK256 ADD PUSH0 SWAP1 SSTORE SWAP1 SSTORE DUP1 PUSH32 0xF2C458821D360029E0B4D57E1F001B05DB9D486EF001529D2E931753D7CF32F4 DUP6 PUSH1 0x40 MLOAD PUSH2 0x1AE1 SWAP2 SWAP1 PUSH2 0x4E61 JUMP JUMPDEST PUSH1 0x40 MLOAD DUP1 SWAP2 SUB SWAP1 LOG2 POP POP PUSH2 0x1B3A JUMP JUMPDEST POP DUP1 DUP1 PUSH1 0x1 ADD SWAP2 POP POP PUSH2 0x1998 JUMP JUMPDEST POP PUSH1 0x40 MLOAD PUSH32 0x8C379A000000000000000000000000000000000000000000000000000000000 DUP2 MSTORE PUSH1 0x4 ADD PUSH2 0x1B31 SWAP1 PUSH2 0x6C13 JUMP JUMPDEST PUSH1 0x40 MLOAD DUP1 SWAP2 SUB SWAP1 REVERT JUMPDEST POP POP JUMP JUMPDEST PUSH32 0x9F2DF0FED2C77648DE5860A4CC508CD0818C85B8B8A1AB4CEEEF8D981C8956A6 PUSH2 0x1B68 DUP2 PUSH2 0x3225 JUMP JUMPDEST PUSH2 0x1B74 DUP6 DUP6 DUP6 DUP6 PUSH2 0x3802 JUMP JUMPDEST POP POP POP POP POP JUMP JUMPDEST PUSH0 PUSH2 0x1B86 ADDRESS CALLER PUSH2 0x2DD5 JUMP JUMPDEST SWAP1 POP SWAP1 JUMP JUMPDEST PUSH0 DUP1 SHL PUSH2 0x1B97 DUP2 PUSH2 0x3225 JUMP JUMPDEST PUSH2 0x1B9F PUSH2 0x3897 JUMP JUMPDEST POP JUMP JUMPDEST PUSH1 0x60 PUSH0 PUSH2 0x1BAE DUP4 PUSH2 0x249B JUMP JUMPDEST GT PUSH2 0x1BEE JUMPI PUSH1 0x40 MLOAD PUSH32 0x8C379A000000000000000000000000000000000000000000000000000000000 DUP2 MSTORE PUSH1 0x4 ADD PUSH2 0x1BE5 SWAP1 PUSH2 0x6CA1 JUMP JUMPDEST PUSH1 0x40 MLOAD DUP1 SWAP2 SUB SWAP1 REVERT JUMPDEST PUSH1 0x11 PUSH0 DUP4 DUP2 MSTORE PUSH1 0x20 ADD SWAP1 DUP2 MSTORE PUSH1 0x20 ADD PUSH0 KECCAK256 DUP1 SLOAD DUP1 PUSH1 0x20 MUL PUSH1 0x20 ADD PUSH1 0x40 MLOAD SWAP1 DUP2 ADD PUSH1 0x40 MSTORE DUP1 SWAP3 SWAP2 SWAP1 DUP2 DUP2 MSTORE PUSH1 0x20 ADD PUSH0 SWAP1 JUMPDEST DUP3 DUP3 LT ISZERO PUSH2 0x1D0B JUMPI DUP4 DUP3 SWAP1 PUSH0 MSTORE PUSH1 0x20 PUSH0 KECCAK256 SWAP1 PUSH1 0x4 MUL ADD PUSH1 0x40 MLOAD DUP1 PUSH1 0x80 ADD PUSH1 0x40 MSTORE SWAP1 DUP2 PUSH0 DUP3 ADD PUSH0 SWAP1 SLOAD SWAP1 PUSH2 0x100 EXP SWAP1 DIV PUSH20 0xFFFFFFFFFFFFFFFFFFFFFFFFFFFFFFFFFFFFFFFF AND PUSH20 0xFFFFFFFFFFFFFFFFFFFFFFFFFFFFFFFFFFFFFFFF AND PUSH20 0xFFFFFFFFFFFFFFFFFFFFFFFFFFFFFFFFFFFFFFFF AND DUP2 MSTORE PUSH1 0x20 ADD PUSH1 0x1 DUP3 ADD PUSH0 SWAP1 SLOAD SWAP1 PUSH2 0x100 EXP SWAP1 DIV PUSH20 0xFFFFFFFFFFFFFFFFFFFFFFFFFFFFFFFFFFFFFFFF AND PUSH20 0xFFFFFFFFFFFFFFFFFFFFFFFFFFFFFFFFFFFFFFFF AND PUSH20 0xFFFFFFFFFFFFFFFFFFFFFFFFFFFFFFFFFFFFFFFF AND DUP2 MSTORE PUSH1 0x20 ADD PUSH1 0x2 DUP3 ADD SLOAD DUP2 MSTORE PUSH1 0x20 ADD PUSH1 0x3 DUP3 ADD SLOAD DUP2 MSTORE POP POP DUP2 MSTORE PUSH1 0x20 ADD SWAP1 PUSH1 0x1 ADD SWAP1 PUSH2 0x1C1E JUMP JUMPDEST POP POP POP POP SWAP1 POP SWAP2 SWAP1 POP JUMP JUMPDEST PUSH0 DUP1 PUSH0 DUP5 DUP2 MSTORE PUSH1 0x20 ADD SWAP1 DUP2 MSTORE PUSH1 0x20 ADD PUSH0 KECCAK256 PUSH0 ADD PUSH0 DUP4 PUSH20 0xFFFFFFFFFFFFFFFFFFFFFFFFFFFFFFFFFFFFFFFF AND PUSH20 0xFFFFFFFFFFFFFFFFFFFFFFFFFFFFFFFFFFFFFFFF AND DUP2 MSTORE PUSH1 0x20 ADD SWAP1 DUP2 MSTORE PUSH1 0x20 ADD PUSH0 KECCAK256 PUSH0 SWAP1 SLOAD SWAP1 PUSH2 0x100 EXP SWAP1 DIV PUSH1 0xFF AND SWAP1 POP SWAP3 SWAP2 POP POP JUMP JUMPDEST PUSH0 DUP1 SHL PUSH2 0x1D85 DUP2 PUSH2 0x3225 JUMP JUMPDEST PUSH0 DUP3 MLOAD GT PUSH2 0x1DC8 JUMPI PUSH1 0x40 MLOAD PUSH32 0x8C379A000000000000000000000000000000000000000000000000000000000 DUP2 MSTORE PUSH1 0x4 ADD PUSH2 0x1DBF SWAP1 PUSH2 0x6D2F JUMP JUMPDEST PUSH1 0x40 MLOAD DUP1 SWAP2 SUB SWAP1 REVERT JUMPDEST PUSH0 JUMPDEST PUSH1 0x10 DUP1 SLOAD SWAP1 POP DUP2 LT ISZERO PUSH2 0x1EF9 JUMPI DUP3 DUP1 MLOAD SWAP1 PUSH1 0x20 ADD KECCAK256 PUSH1 0x10 DUP3 DUP2 SLOAD DUP2 LT PUSH2 0x1DF3 JUMPI PUSH2 0x1DF2 PUSH2 0x6269 JUMP JUMPDEST JUMPDEST SWAP1 PUSH0 MSTORE PUSH1 0x20 PUSH0 KECCAK256 ADD PUSH1 0x40 MLOAD PUSH2 0x1E08 SWAP2 SWAP1 PUSH2 0x638F JUMP JUMPDEST PUSH1 0x40 MLOAD DUP1 SWAP2 SUB SWAP1 KECCAK256 SUB PUSH2 0x1EEC JUMPI PUSH1 0x10 PUSH1 0x1 PUSH1 0x10 DUP1 SLOAD SWAP1 POP PUSH2 0x1E29 SWAP2 SWAP1 PUSH2 0x6B43 JUMP JUMPDEST DUP2 SLOAD DUP2 LT PUSH2 0x1E3A JUMPI PUSH2 0x1E39 PUSH2 0x6269 JUMP JUMPDEST JUMPDEST SWAP1 PUSH0 MSTORE PUSH1 0x20 PUSH0 KECCAK256 ADD PUSH1 0x10 DUP3 DUP2 SLOAD DUP2 LT PUSH2 0x1E56 JUMPI PUSH2 0x1E55 PUSH2 0x6269 JUMP JUMPDEST JUMPDEST SWAP1 PUSH0 MSTORE PUSH1 0x20 PUSH0 KECCAK256 ADD SWAP1 DUP2 PUSH2 0x1E6A SWAP2 SWAP1 PUSH2 0x6D74 JUMP JUMPDEST POP PUSH1 0x10 DUP1 SLOAD DUP1 PUSH2 0x1E7D JUMPI PUSH2 0x1E7C PUSH2 0x6B76 JUMP JUMPDEST JUMPDEST PUSH1 0x1 SWAP1 SUB DUP2 DUP2 SWAP1 PUSH0 MSTORE PUSH1 0x20 PUSH0 KECCAK256 ADD PUSH0 PUSH2 0x1E96 SWAP2 SWAP1 PUSH2 0x4A3A JUMP JUMPDEST SWAP1 SSTORE CALLER PUSH20 0xFFFFFFFFFFFFFFFFFFFFFFFFFFFFFFFFFFFFFFFF AND PUSH32 0xE29642266027CB54AE2F8DFFF02A7147B64461546559736868A4A962AC7E4CA DUP5 PUSH1 0x40 MLOAD PUSH2 0x1EDE SWAP2 SWAP1 PUSH2 0x4E61 JUMP JUMPDEST PUSH1 0x40 MLOAD DUP1 SWAP2 SUB SWAP1 LOG2 POP PUSH2 0x1F35 JUMP JUMPDEST DUP1 DUP1 PUSH1 0x1 ADD SWAP2 POP POP PUSH2 0x1DCA JUMP JUMPDEST POP PUSH1 0x40 MLOAD PUSH32 0x8C379A000000000000000000000000000000000000000000000000000000000 DUP2 MSTORE PUSH1 0x4 ADD PUSH2 0x1F2C SWAP1 PUSH2 0x6EA3 JUMP JUMPDEST PUSH1 0x40 MLOAD DUP1 SWAP2 SUB SWAP1 REVERT JUMPDEST POP POP JUMP JUMPDEST PUSH0 PUSH20 0xFFFFFFFFFFFFFFFFFFFFFFFFFFFFFFFFFFFFFFFF AND DUP3 PUSH20 0xFFFFFFFFFFFFFFFFFFFFFFFFFFFFFFFFFFFFFFFF AND SUB PUSH2 0x1FA7 JUMPI PUSH1 0x40 MLOAD PUSH32 0x8C379A000000000000000000000000000000000000000000000000000000000 DUP2 MSTORE PUSH1 0x4 ADD PUSH2 0x1F9E SWAP1 PUSH2 0x6F31 JUMP JUMPDEST PUSH1 0x40 MLOAD DUP1 SWAP2 SUB SWAP1 REVERT JUMPDEST PUSH2 0x1FB2 ADDRESS DUP4 DUP4 PUSH2 0x38F8 JUMP JUMPDEST DUP2 PUSH20 0xFFFFFFFFFFFFFFFFFFFFFFFFFFFFFFFFFFFFFFFF AND PUSH32 0x8D3369E8CE7E1085710A510CA605F9599E0AE164E4C5A0C65B8106D6681F8EFE DUP3 PUSH1 0x40 MLOAD PUSH2 0x1FF8 SWAP2 SWAP1 PUSH2 0x4C4B JUMP JUMPDEST PUSH1 0x40 MLOAD DUP1 SWAP2 SUB SWAP1 LOG2 POP POP JUMP JUMPDEST PUSH0 DUP1 SHL DUP2 JUMP JUMPDEST PUSH2 0x201C PUSH2 0x2015 PUSH2 0x341E JUMP JUMPDEST DUP4 DUP4 PUSH2 0x38F8 JUMP JUMPDEST POP POP JUMP JUMPDEST PUSH1 0x60 PUSH0 CALLER SWAP1 POP PUSH0 DUP1 JUMPDEST PUSH1 0xF DUP1 SLOAD SWAP1 POP DUP2 LT ISZERO PUSH2 0x207F JUMPI PUSH0 PUSH2 0x205D DUP5 PUSH1 0xF DUP5 DUP2 SLOAD DUP2 LT PUSH2 0x204F JUMPI PUSH2 0x204E PUSH2 0x6269 JUMP JUMPDEST JUMPDEST SWAP1 PUSH0 MSTORE PUSH1 0x20 PUSH0 KECCAK256 ADD SLOAD PUSH2 0xB4A JUMP JUMPDEST GT ISZERO PUSH2 0x2072 JUMPI DUP2 DUP1 PUSH2 0x206E SWAP1 PUSH2 0x67E8 JUMP JUMPDEST SWAP3 POP POP JUMPDEST DUP1 DUP1 PUSH1 0x1 ADD SWAP2 POP POP PUSH2 0x2029 JUMP JUMPDEST POP PUSH0 DUP2 PUSH8 0xFFFFFFFFFFFFFFFF DUP2 GT ISZERO PUSH2 0x209B JUMPI PUSH2 0x209A PUSH2 0x4C7C JUMP JUMPDEST JUMPDEST PUSH1 0x40 MLOAD SWAP1 DUP1 DUP3 MSTORE DUP1 PUSH1 0x20 MUL PUSH1 0x20 ADD DUP3 ADD PUSH1 0x40 MSTORE DUP1 ISZERO PUSH2 0x20D4 JUMPI DUP2 PUSH1 0x20 ADD JUMPDEST PUSH2 0x20C1 PUSH2 0x49F5 JUMP JUMPDEST DUP2 MSTORE PUSH1 0x20 ADD SWAP1 PUSH1 0x1 SWAP1 SUB SWAP1 DUP2 PUSH2 0x20B9 JUMPI SWAP1 POP JUMPDEST POP SWAP1 POP PUSH0 DUP1 JUMPDEST PUSH1 0xF DUP1 SLOAD SWAP1 POP DUP2 LT ISZERO PUSH2 0x21AF JUMPI PUSH0 PUSH1 0xF DUP3 DUP2 SLOAD DUP2 LT PUSH2 0x20FC JUMPI PUSH2 0x20FB PUSH2 0x6269 JUMP JUMPDEST JUMPDEST SWAP1 PUSH0 MSTORE PUSH1 0x20 PUSH0 KECCAK256 ADD SLOAD SWAP1 POP PUSH0 PUSH2 0x2112 DUP8 DUP4 PUSH2 0xB4A JUMP JUMPDEST SWAP1 POP PUSH0 DUP2 GT ISZERO PUSH2 0x21A0 JUMPI PUSH1 0x40 MLOAD DUP1 PUSH1 0x80 ADD PUSH1 0x40 MSTORE DUP1 DUP4 DUP2 MSTORE PUSH1 0x20 ADD DUP3 DUP2 MSTORE PUSH1 0x20 ADD PUSH2 0x213C DUP5 PUSH2 0xE3F JUMP JUMPDEST DUP2 MSTORE PUSH1 0x20 ADD PUSH1 0xD PUSH0 DUP6 DUP2 MSTORE PUSH1 0x20 ADD SWAP1 DUP2 MSTORE PUSH1 0x20 ADD PUSH0 KECCAK256 PUSH1 0x40 MLOAD DUP1 PUSH1 0x40 ADD PUSH1 0x40 MSTORE SWAP1 DUP2 PUSH0 DUP3 ADD SLOAD DUP2 MSTORE PUSH1 0x20 ADD PUSH1 0x1 DUP3 ADD SLOAD DUP2 MSTORE POP POP DUP2 MSTORE POP DUP6 DUP6 DUP2 MLOAD DUP2 LT PUSH2 0x2186 JUMPI PUSH2 0x2185 PUSH2 0x6269 JUMP JUMPDEST JUMPDEST PUSH1 0x20 MUL PUSH1 0x20 ADD ADD DUP2 SWAP1 MSTORE POP DUP4 DUP1 PUSH2 0x219C SWAP1 PUSH2 0x67E8 JUMP JUMPDEST SWAP5 POP POP JUMPDEST POP POP DUP1 DUP1 PUSH1 0x1 ADD SWAP2 POP POP PUSH2 0x20DA JUMP JUMPDEST POP DUP2 SWAP5 POP POP POP POP POP SWAP1 JUMP JUMPDEST PUSH0 DUP1 SHL PUSH2 0x21C6 DUP2 PUSH2 0x3225 JUMP JUMPDEST PUSH2 0x21D0 DUP4 DUP4 PUSH2 0x3519 JUMP JUMPDEST POP POP POP POP JUMP JUMPDEST PUSH1 0x60 PUSH0 DUP1 JUMPDEST PUSH1 0xF DUP1 SLOAD SWAP1 POP DUP2 LT ISZERO PUSH2 0x2231 JUMPI PUSH0 PUSH2 0x220F ADDRESS PUSH1 0xF DUP5 DUP2 SLOAD DUP2 LT PUSH2 0x2201 JUMPI PUSH2 0x2200 PUSH2 0x6269 JUMP JUMPDEST JUMPDEST SWAP1 PUSH0 MSTORE PUSH1 0x20 PUSH0 KECCAK256 ADD SLOAD PUSH2 0xB4A JUMP JUMPDEST GT ISZERO PUSH2 0x2224 JUMPI DUP2 DUP1 PUSH2 0x2220 SWAP1 PUSH2 0x67E8 JUMP JUMPDEST SWAP3 POP POP JUMPDEST DUP1 DUP1 PUSH1 0x1 ADD SWAP2 POP POP PUSH2 0x21DB JUMP JUMPDEST POP PUSH0 DUP2 PUSH8 0xFFFFFFFFFFFFFFFF DUP2 GT ISZERO PUSH2 0x224D JUMPI PUSH2 0x224C PUSH2 0x4C7C JUMP JUMPDEST JUMPDEST PUSH1 0x40 MLOAD SWAP1 DUP1 DUP3 MSTORE DUP1 PUSH1 0x20 MUL PUSH1 0x20 ADD DUP3 ADD PUSH1 0x40 MSTORE DUP1 ISZERO PUSH2 0x2286 JUMPI DUP2 PUSH1 0x20 ADD JUMPDEST PUSH2 0x2273 PUSH2 0x49F5 JUMP JUMPDEST DUP2 MSTORE PUSH1 0x20 ADD SWAP1 PUSH1 0x1 SWAP1 SUB SWAP1 DUP2 PUSH2 0x226B JUMPI SWAP1 POP JUMPDEST POP SWAP1 POP PUSH0 DUP1 JUMPDEST PUSH1 0xF DUP1 SLOAD SWAP1 POP DUP2 LT ISZERO PUSH2 0x2361 JUMPI PUSH0 PUSH1 0xF DUP3 DUP2 SLOAD DUP2 LT PUSH2 0x22AE JUMPI PUSH2 0x22AD PUSH2 0x6269 JUMP JUMPDEST JUMPDEST SWAP1 PUSH0 MSTORE PUSH1 0x20 PUSH0 KECCAK256 ADD SLOAD SWAP1 POP PUSH0 PUSH2 0x22C4 ADDRESS DUP4 PUSH2 0xB4A JUMP JUMPDEST SWAP1 POP PUSH0 DUP2 GT ISZERO PUSH2 0x2352 JUMPI PUSH1 0x40 MLOAD DUP1 PUSH1 0x80 ADD PUSH1 0x40 MSTORE DUP1 DUP4 DUP2 MSTORE PUSH1 0x20 ADD DUP3 DUP2 MSTORE PUSH1 0x20 ADD PUSH2 0x22EE DUP5 PUSH2 0xE3F JUMP JUMPDEST DUP2 MSTORE PUSH1 0x20 ADD PUSH1 0xD PUSH0 DUP6 DUP2 MSTORE PUSH1 0x20 ADD SWAP1 DUP2 MSTORE PUSH1 0x20 ADD PUSH0 KECCAK256 PUSH1 0x40 MLOAD DUP1 PUSH1 0x40 ADD PUSH1 0x40 MSTORE SWAP1 DUP2 PUSH0 DUP3 ADD SLOAD DUP2 MSTORE PUSH1 0x20 ADD PUSH1 0x1 DUP3 ADD SLOAD DUP2 MSTORE POP POP DUP2 MSTORE POP DUP6 DUP6 DUP2 MLOAD DUP2 LT PUSH2 0x2338 JUMPI PUSH2 0x2337 PUSH2 0x6269 JUMP JUMPDEST JUMPDEST PUSH1 0x20 MUL PUSH1 0x20 ADD ADD DUP2 SWAP1 MSTORE POP DUP4 DUP1 PUSH2 0x234E SWAP1 PUSH2 0x67E8 JUMP JUMPDEST SWAP5 POP POP JUMPDEST POP POP DUP1 DUP1 PUSH1 0x1 ADD SWAP2 POP POP PUSH2 0x228C JUMP JUMPDEST POP DUP2 SWAP4 POP POP POP POP SWAP1 JUMP JUMPDEST PUSH1 0xE DUP2 DUP2 SLOAD DUP2 LT PUSH2 0x237A JUMPI PUSH0 DUP1 REVERT JUMPDEST SWAP1 PUSH0 MSTORE PUSH1 0x20 PUSH0 KECCAK256 ADD PUSH0 SWAP2 POP SWAP1 POP SLOAD DUP2 JUMP JUMPDEST PUSH1 0x60 PUSH0 PUSH1 0xC PUSH0 DUP5 DUP2 MSTORE PUSH1 0x20 ADD SWAP1 DUP2 MSTORE PUSH1 0x20 ADD PUSH0 KECCAK256 PUSH0 ADD SLOAD SUB PUSH2 0x23E2 JUMPI PUSH1 0x40 MLOAD PUSH32 0x8C379A000000000000000000000000000000000000000000000000000000000 DUP2 MSTORE PUSH1 0x4 ADD PUSH2 0x23D9 SWAP1 PUSH2 0x6B25 JUMP JUMPDEST PUSH1 0x40 MLOAD DUP1 SWAP2 SUB SWAP1 REVERT JUMPDEST PUSH1 0xC PUSH0 DUP4 DUP2 MSTORE PUSH1 0x20 ADD SWAP1 DUP2 MSTORE PUSH1 0x20 ADD PUSH0 KECCAK256 PUSH1 0x1 ADD DUP1 SLOAD PUSH2 0x2401 SWAP1 PUSH2 0x62C3 JUMP JUMPDEST DUP1 PUSH1 0x1F ADD PUSH1 0x20 DUP1 SWAP2 DIV MUL PUSH1 0x20 ADD PUSH1 0x40 MLOAD SWAP1 DUP2 ADD PUSH1 0x40 MSTORE DUP1 SWAP3 SWAP2 SWAP1 DUP2 DUP2 MSTORE PUSH1 0x20 ADD DUP3 DUP1 SLOAD PUSH2 0x242D SWAP1 PUSH2 0x62C3 JUMP JUMPDEST DUP1 ISZERO PUSH2 0x2478 JUMPI DUP1 PUSH1 0x1F LT PUSH2 0x244F JUMPI PUSH2 0x100 DUP1 DUP4 SLOAD DIV MUL DUP4 MSTORE SWAP2 PUSH1 0x20 ADD SWAP2 PUSH2 0x2478 JUMP JUMPDEST DUP3 ADD SWAP2 SWAP1 PUSH0 MSTORE PUSH1 0x20 PUSH0 KECCAK256 SWAP1 JUMPDEST DUP2 SLOAD DUP2 MSTORE SWAP1 PUSH1 0x1 ADD SWAP1 PUSH1 0x20 ADD DUP1 DUP4 GT PUSH2 0x245B JUMPI DUP3 SWAP1 SUB PUSH1 0x1F AND DUP3 ADD SWAP2 JUMPDEST POP POP POP POP POP SWAP1 POP SWAP2 SWAP1 POP JUMP JUMPDEST PUSH0 PUSH4 0xBC197C81 PUSH1 0xE0 SHL SWAP1 POP SWAP9 SWAP8 POP POP POP POP POP POP POP POP JUMP JUMPDEST PUSH0 PUSH1 0x7 PUSH0 DUP4 DUP2 MSTORE PUSH1 0x20 ADD SWAP1 DUP2 MSTORE PUSH1 0x20 ADD PUSH0 KECCAK256 SLOAD SWAP1 POP SWAP2 SWAP1 POP JUMP JUMPDEST PUSH32 0x9F2DF0FED2C77648DE5860A4CC508CD0818C85B8B8A1AB4CEEEF8D981C8956A6 PUSH2 0x24DF DUP2 PUSH2 0x3225 JUMP JUMPDEST PUSH0 DUP1 JUMPDEST PUSH1 0xE DUP1 SLOAD SWAP1 POP DUP2 LT ISZERO PUSH2 0x2585 JUMPI DUP4 DUP1 MLOAD SWAP1 PUSH1 0x20 ADD KECCAK256 PUSH1 0xC PUSH0 PUSH1 0xE DUP5 DUP2 SLOAD DUP2 LT PUSH2 0x250E JUMPI PUSH2 0x250D PUSH2 0x6269 JUMP JUMPDEST JUMPDEST SWAP1 PUSH0 MSTORE PUSH1 0x20 PUSH0 KECCAK256 ADD SLOAD DUP2 MSTORE PUSH1 0x20 ADD SWAP1 DUP2 MSTORE PUSH1 0x20 ADD PUSH0 KECCAK256 PUSH1 0x1 ADD PUSH1 0x40 MLOAD PUSH2 0x2534 SWAP2 SWAP1 PUSH2 0x638F JUMP JUMPDEST PUSH1 0x40 MLOAD DUP1 SWAP2 SUB SWAP1 KECCAK256 SUB PUSH2 0x2578 JUMPI PUSH1 0xC PUSH0 PUSH1 0xE DUP4 DUP2 SLOAD DUP2 LT PUSH2 0x2558 JUMPI PUSH2 0x2557 PUSH2 0x6269 JUMP JUMPDEST JUMPDEST SWAP1 PUSH0 MSTORE PUSH1 0x20 PUSH0 KECCAK256 ADD SLOAD DUP2 MSTORE PUSH1 0x20 ADD SWAP1 DUP2 MSTORE PUSH1 0x20 ADD PUSH0 KECCAK256 PUSH0 ADD SLOAD SWAP2 POP PUSH2 0x2585 JUMP JUMPDEST DUP1 DUP1 PUSH1 0x1 ADD SWAP2 POP POP PUSH2 0x24E2 JUMP JUMPDEST POP PUSH0 DUP2 SUB PUSH2 0x25C8 JUMPI PUSH1 0x40 MLOAD PUSH32 0x8C379A000000000000000000000000000000000000000000000000000000000 DUP2 MSTORE PUSH1 0x4 ADD PUSH2 0x25BF SWAP1 PUSH2 0x6FBF JUMP JUMPDEST PUSH1 0x40 MLOAD DUP1 SWAP2 SUB SWAP1 REVERT JUMPDEST PUSH2 0x25D2 PUSH1 0x9 PUSH2 0x3239 JUMP JUMPDEST PUSH0 PUSH2 0x25DD PUSH1 0x9 PUSH2 0x324D JUMP JUMPDEST SWAP1 POP PUSH2 0x25F9 ADDRESS DUP3 DUP9 PUSH1 0x40 MLOAD DUP1 PUSH1 0x20 ADD PUSH1 0x40 MSTORE DUP1 PUSH0 DUP2 MSTORE POP PUSH2 0x3802 JUMP JUMPDEST PUSH2 0x2603 DUP2 DUP9 PUSH2 0x3338 JUMP JUMPDEST PUSH0 PUSH1 0xD PUSH0 DUP4 DUP2 MSTORE PUSH1 0x20 ADD SWAP1 DUP2 MSTORE PUSH1 0x20 ADD PUSH0 KECCAK256 SWAP1 POP DUP6 DUP2 PUSH0 ADD DUP2 SWAP1 SSTORE POP DUP3 DUP2 PUSH1 0x1 ADD DUP2 SWAP1 SSTORE POP PUSH1 0xF DUP3 SWAP1 DUP1 PUSH1 0x1 DUP2 SLOAD ADD DUP1 DUP3 SSTORE DUP1 SWAP2 POP POP PUSH1 0x1 SWAP1 SUB SWAP1 PUSH0 MSTORE PUSH1 0x20 PUSH0 KECCAK256 ADD PUSH0 SWAP1 SWAP2 SWAP1 SWAP2 SWAP1 SWAP2 POP SSTORE ADDRESS PUSH20 0xFFFFFFFFFFFFFFFFFFFFFFFFFFFFFFFFFFFFFFFF AND PUSH32 0xAFDE70C98492A2CA81A3E5545BED44EFEB0747A64B5E63A918DF2E9D8E83EF35 DUP4 DUP9 DUP11 PUSH1 0x40 MLOAD PUSH2 0x2698 SWAP4 SWAP3 SWAP2 SWAP1 PUSH2 0x6FDD JUMP JUMPDEST PUSH1 0x40 MLOAD DUP1 SWAP2 SUB SWAP1 LOG2 POP POP POP POP POP POP POP POP JUMP JUMPDEST PUSH1 0x60 PUSH0 PUSH1 0xF DUP1 SLOAD SWAP1 POP PUSH8 0xFFFFFFFFFFFFFFFF DUP2 GT ISZERO PUSH2 0x26CC JUMPI PUSH2 0x26CB PUSH2 0x4C7C JUMP JUMPDEST JUMPDEST PUSH1 0x40 MLOAD SWAP1 DUP1 DUP3 MSTORE DUP1 PUSH1 0x20 MUL PUSH1 0x20 ADD DUP3 ADD PUSH1 0x40 MSTORE DUP1 ISZERO PUSH2 0x2705 JUMPI DUP2 PUSH1 0x20 ADD JUMPDEST PUSH2 0x26F2 PUSH2 0x4A77 JUMP JUMPDEST DUP2 MSTORE PUSH1 0x20 ADD SWAP1 PUSH1 0x1 SWAP1 SUB SWAP1 DUP2 PUSH2 0x26EA JUMPI SWAP1 POP JUMPDEST POP SWAP1 POP PUSH0 JUMPDEST PUSH1 0xF DUP1 SLOAD SWAP1 POP DUP2 LT ISZERO PUSH2 0x278D JUMPI PUSH1 0xD PUSH0 PUSH1 0xF DUP4 DUP2 SLOAD DUP2 LT PUSH2 0x272E JUMPI PUSH2 0x272D PUSH2 0x6269 JUMP JUMPDEST JUMPDEST SWAP1 PUSH0 MSTORE PUSH1 0x20 PUSH0 KECCAK256 ADD SLOAD DUP2 MSTORE PUSH1 0x20 ADD SWAP1 DUP2 MSTORE PUSH1 0x20 ADD PUSH0 KECCAK256 PUSH1 0x40 MLOAD DUP1 PUSH1 0x40 ADD PUSH1 0x40 MSTORE SWAP1 DUP2 PUSH0 DUP3 ADD SLOAD DUP2 MSTORE PUSH1 0x20 ADD PUSH1 0x1 DUP3 ADD SLOAD DUP2 MSTORE POP POP DUP3 DUP3 DUP2 MLOAD DUP2 LT PUSH2 0x2775 JUMPI PUSH2 0x2774 PUSH2 0x6269 JUMP JUMPDEST JUMPDEST PUSH1 0x20 MUL PUSH1 0x20 ADD ADD DUP2 SWAP1 MSTORE POP DUP1 DUP1 PUSH1 0x1 ADD SWAP2 POP POP PUSH2 0x270A JUMP JUMPDEST POP DUP1 SWAP2 POP POP SWAP1 JUMP JUMPDEST PUSH32 0xE926D122B799DCBE5C2ECCDF60AE0AEFBB1A4BC75A7848BB07BEFECF8C775F5C DUP2 JUMP JUMPDEST PUSH32 0x9F2DF0FED2C77648DE5860A4CC508CD0818C85B8B8A1AB4CEEEF8D981C8956A6 DUP2 JUMP JUMPDEST PUSH2 0x27E6 DUP3 PUSH2 0x1101 JUMP JUMPDEST PUSH2 0x27EF DUP2 PUSH2 0x3225 JUMP JUMPDEST PUSH2 0x27F9 DUP4 DUP4 PUSH2 0x3602 JUMP JUMPDEST POP POP POP POP JUMP JUMPDEST PUSH1 0xF DUP2 DUP2 SLOAD DUP2 LT PUSH2 0x280E JUMPI PUSH0 DUP1 REVERT JUMPDEST SWAP1 PUSH0 MSTORE PUSH1 0x20 PUSH0 KECCAK256 ADD PUSH0 SWAP2 POP SWAP1 POP SLOAD DUP2 JUMP JUMPDEST PUSH1 0x60 PUSH1 0x10 DUP1 SLOAD DUP1 PUSH1 0x20 MUL PUSH1 0x20 ADD PUSH1 0x40 MLOAD SWAP1 DUP2 ADD PUSH1 0x40 MSTORE DUP1 SWAP3 SWAP2 SWAP1 DUP2 DUP2 MSTORE PUSH1 0x20 ADD PUSH0 SWAP1 JUMPDEST DUP3 DUP3 LT ISZERO PUSH2 0x28EA JUMPI DUP4 DUP3 SWAP1 PUSH0 MSTORE PUSH1 0x20 PUSH0 KECCAK256 ADD DUP1 SLOAD PUSH2 0x285F SWAP1 PUSH2 0x62C3 JUMP JUMPDEST DUP1 PUSH1 0x1F ADD PUSH1 0x20 DUP1 SWAP2 DIV MUL PUSH1 0x20 ADD PUSH1 0x40 MLOAD SWAP1 DUP2 ADD PUSH1 0x40 MSTORE DUP1 SWAP3 SWAP2 SWAP1 DUP2 DUP2 MSTORE PUSH1 0x20 ADD DUP3 DUP1 SLOAD PUSH2 0x288B SWAP1 PUSH2 0x62C3 JUMP JUMPDEST DUP1 ISZERO PUSH2 0x28D6 JUMPI DUP1 PUSH1 0x1F LT PUSH2 0x28AD JUMPI PUSH2 0x100 DUP1 DUP4 SLOAD DIV MUL DUP4 MSTORE SWAP2 PUSH1 0x20 ADD SWAP2 PUSH2 0x28D6 JUMP JUMPDEST DUP3 ADD SWAP2 SWAP1 PUSH0 MSTORE PUSH1 0x20 PUSH0 KECCAK256 SWAP1 JUMPDEST DUP2 SLOAD DUP2 MSTORE SWAP1 PUSH1 0x1 ADD SWAP1 PUSH1 0x20 ADD DUP1 DUP4 GT PUSH2 0x28B9 JUMPI DUP3 SWAP1 SUB PUSH1 0x1F AND DUP3 ADD SWAP2 JUMPDEST POP POP POP POP POP DUP2 MSTORE PUSH1 0x20 ADD SWAP1 PUSH1 0x1 ADD SWAP1 PUSH2 0x2842 JUMP JUMPDEST POP POP POP POP SWAP1 POP SWAP1 JUMP JUMPDEST PUSH1 0x11 PUSH1 0x20 MSTORE DUP2 PUSH0 MSTORE PUSH1 0x40 PUSH0 KECCAK256 DUP2 DUP2 SLOAD DUP2 LT PUSH2 0x290C JUMPI PUSH0 DUP1 REVERT JUMPDEST SWAP1 PUSH0 MSTORE PUSH1 0x20 PUSH0 KECCAK256 SWAP1 PUSH1 0x4 MUL ADD PUSH0 SWAP2 POP SWAP2 POP POP DUP1 PUSH0 ADD PUSH0 SWAP1 SLOAD SWAP1 PUSH2 0x100 EXP SWAP1 DIV PUSH20 0xFFFFFFFFFFFFFFFFFFFFFFFFFFFFFFFFFFFFFFFF AND SWAP1 DUP1 PUSH1 0x1 ADD PUSH0 SWAP1 SLOAD SWAP1 PUSH2 0x100 EXP SWAP1 DIV PUSH20 0xFFFFFFFFFFFFFFFFFFFFFFFFFFFFFFFFFFFFFFFF AND SWAP1 DUP1 PUSH1 0x2 ADD SLOAD SWAP1 DUP1 PUSH1 0x3 ADD SLOAD SWAP1 POP DUP5 JUMP JUMPDEST PUSH2 0x297F PUSH2 0x4A77 JUMP JUMPDEST PUSH0 PUSH2 0x2989 DUP4 PUSH2 0x249B JUMP JUMPDEST GT PUSH2 0x29C9 JUMPI PUSH1 0x40 MLOAD PUSH32 0x8C379A000000000000000000000000000000000000000000000000000000000 DUP2 MSTORE PUSH1 0x4 ADD PUSH2 0x29C0 SWAP1 PUSH2 0x6CA1 JUMP JUMPDEST PUSH1 0x40 MLOAD DUP1 SWAP2 SUB SWAP1 REVERT JUMPDEST PUSH1 0xD PUSH0 DUP4 DUP2 MSTORE PUSH1 0x20 ADD SWAP1 DUP2 MSTORE PUSH1 0x20 ADD PUSH0 KECCAK256 PUSH1 0x40 MLOAD DUP1 PUSH1 0x40 ADD PUSH1 0x40 MSTORE SWAP1 DUP2 PUSH0 DUP3 ADD SLOAD DUP2 MSTORE PUSH1 0x20 ADD PUSH1 0x1 DUP3 ADD SLOAD DUP2 MSTORE POP POP SWAP1 POP SWAP2 SWAP1 POP JUMP JUMPDEST PUSH0 PUSH20 0xFFFFFFFFFFFFFFFFFFFFFFFFFFFFFFFFFFFFFFFF AND DUP4 PUSH20 0xFFFFFFFFFFFFFFFFFFFFFFFFFFFFFFFFFFFFFFFF AND SUB PUSH2 0x2A6D JUMPI PUSH1 0x40 MLOAD PUSH32 0x8C379A000000000000000000000000000000000000000000000000000000000 DUP2 MSTORE PUSH1 0x4 ADD PUSH2 0x2A64 SWAP1 PUSH2 0x68C6 JUMP JUMPDEST PUSH1 0x40 MLOAD DUP1 SWAP2 SUB SWAP1 REVERT JUMPDEST PUSH0 DUP3 GT PUSH2 0x2AAF JUMPI PUSH1 0x40 MLOAD PUSH32 0x8C379A000000000000000000000000000000000000000000000000000000000 DUP2 MSTORE PUSH1 0x4 ADD PUSH2 0x2AA6 SWAP1 PUSH2 0x6954 JUMP JUMPDEST PUSH1 0x40 MLOAD DUP1 SWAP2 SUB SWAP1 REVERT JUMPDEST PUSH0 DUP5 SWAP1 POP DUP3 DUP2 PUSH20 0xFFFFFFFFFFFFFFFFFFFFFFFFFFFFFFFFFFFFFFFF AND PUSH4 0x70A08231 CALLER PUSH1 0x40 MLOAD DUP3 PUSH4 0xFFFFFFFF AND PUSH1 0xE0 SHL DUP2 MSTORE PUSH1 0x4 ADD PUSH2 0x2AED SWAP2 SWAP1 PUSH2 0x7012 JUMP JUMPDEST PUSH1 0x20 PUSH1 0x40 MLOAD DUP1 DUP4 SUB DUP2 DUP7 GAS STATICCALL ISZERO DUP1 ISZERO PUSH2 0x2B08 JUMPI RETURNDATASIZE PUSH0 DUP1 RETURNDATACOPY RETURNDATASIZE PUSH0 REVERT JUMPDEST POP POP POP POP PUSH1 0x40 MLOAD RETURNDATASIZE PUSH1 0x1F NOT PUSH1 0x1F DUP3 ADD AND DUP3 ADD DUP1 PUSH1 0x40 MSTORE POP DUP2 ADD SWAP1 PUSH2 0x2B2C SWAP2 SWAP1 PUSH2 0x703F JUMP JUMPDEST LT ISZERO PUSH2 0x2B6D JUMPI PUSH1 0x40 MLOAD PUSH32 0x8C379A000000000000000000000000000000000000000000000000000000000 DUP2 MSTORE PUSH1 0x4 ADD PUSH2 0x2B64 SWAP1 PUSH2 0x70DA JUMP JUMPDEST PUSH1 0x40 MLOAD DUP1 SWAP2 SUB SWAP1 REVERT JUMPDEST DUP3 DUP2 PUSH20 0xFFFFFFFFFFFFFFFFFFFFFFFFFFFFFFFFFFFFFFFF AND PUSH4 0xDD62ED3E CALLER ADDRESS PUSH1 0x40 MLOAD DUP4 PUSH4 0xFFFFFFFF AND PUSH1 0xE0 SHL DUP2 MSTORE PUSH1 0x4 ADD PUSH2 0x2BA9 SWAP3 SWAP2 SWAP1 PUSH2 0x682F JUMP JUMPDEST PUSH1 0x20 PUSH1 0x40 MLOAD DUP1 DUP4 SUB DUP2 DUP7 GAS STATICCALL ISZERO DUP1 ISZERO PUSH2 0x2BC4 JUMPI RETURNDATASIZE PUSH0 DUP1 RETURNDATACOPY RETURNDATASIZE PUSH0 REVERT JUMPDEST POP POP POP POP PUSH1 0x40 MLOAD RETURNDATASIZE PUSH1 0x1F NOT PUSH1 0x1F DUP3 ADD AND DUP3 ADD DUP1 PUSH1 0x40 MSTORE POP DUP2 ADD SWAP1 PUSH2 0x2BE8 SWAP2 SWAP1 PUSH2 0x703F JUMP JUMPDEST LT ISZERO PUSH2 0x2C29 JUMPI PUSH1 0x40 MLOAD PUSH32 0x8C379A000000000000000000000000000000000000000000000000000000000 DUP2 MSTORE PUSH1 0x4 ADD PUSH2 0x2C20 SWAP1 PUSH2 0x7168 JUMP JUMPDEST PUSH1 0x40 MLOAD DUP1 SWAP2 SUB SWAP1 REVERT JUMPDEST DUP1 PUSH20 0xFFFFFFFFFFFFFFFFFFFFFFFFFFFFFFFFFFFFFFFF AND PUSH4 0x23B872DD CALLER DUP7 DUP7 PUSH1 0x40 MLOAD DUP5 PUSH4 0xFFFFFFFF AND PUSH1 0xE0 SHL DUP2 MSTORE PUSH1 0x4 ADD PUSH2 0x2C66 SWAP4 SWAP3 SWAP2 SWAP1 PUSH2 0x7186 JUMP JUMPDEST PUSH1 0x20 PUSH1 0x40 MLOAD DUP1 DUP4 SUB DUP2 PUSH0 DUP8 GAS CALL ISZERO DUP1 ISZERO PUSH2 0x2C82 JUMPI RETURNDATASIZE PUSH0 DUP1 RETURNDATACOPY RETURNDATASIZE PUSH0 REVERT JUMPDEST POP POP POP POP PUSH1 0x40 MLOAD RETURNDATASIZE PUSH1 0x1F NOT PUSH1 0x1F DUP3 ADD AND DUP3 ADD DUP1 PUSH1 0x40 MSTORE POP DUP2 ADD SWAP1 PUSH2 0x2CA6 SWAP2 SWAP1 PUSH2 0x71CF JUMP JUMPDEST POP PUSH0 DUP1 JUMPDEST PUSH1 0xF DUP1 SLOAD SWAP1 POP DUP2 LT ISZERO PUSH2 0x2D21 JUMPI DUP4 DUP1 MLOAD SWAP1 PUSH1 0x20 ADD KECCAK256 PUSH2 0x2CE4 PUSH1 0xF DUP4 DUP2 SLOAD DUP2 LT PUSH2 0x2CD6 JUMPI PUSH2 0x2CD5 PUSH2 0x6269 JUMP JUMPDEST JUMPDEST SWAP1 PUSH0 MSTORE PUSH1 0x20 PUSH0 KECCAK256 ADD SLOAD PUSH2 0xE3F JUMP JUMPDEST DUP1 MLOAD SWAP1 PUSH1 0x20 ADD KECCAK256 SUB PUSH2 0x2D14 JUMPI PUSH1 0xF DUP2 DUP2 SLOAD DUP2 LT PUSH2 0x2D04 JUMPI PUSH2 0x2D03 PUSH2 0x6269 JUMP JUMPDEST JUMPDEST SWAP1 PUSH0 MSTORE PUSH1 0x20 PUSH0 KECCAK256 ADD SLOAD SWAP2 POP PUSH2 0x2D21 JUMP JUMPDEST DUP1 DUP1 PUSH1 0x1 ADD SWAP2 POP POP PUSH2 0x2CAA JUMP JUMPDEST POP PUSH0 DUP2 SUB PUSH2 0x2D64 JUMPI PUSH1 0x40 MLOAD PUSH32 0x8C379A000000000000000000000000000000000000000000000000000000000 DUP2 MSTORE PUSH1 0x4 ADD PUSH2 0x2D5B SWAP1 PUSH2 0x69E2 JUMP JUMPDEST PUSH1 0x40 MLOAD DUP1 SWAP2 SUB SWAP1 REVERT JUMPDEST PUSH1 0x1 PUSH2 0x2D70 ADDRESS DUP4 PUSH2 0xB4A JUMP JUMPDEST LT ISZERO PUSH2 0x2DB1 JUMPI PUSH1 0x40 MLOAD PUSH32 0x8C379A000000000000000000000000000000000000000000000000000000000 DUP2 MSTORE PUSH1 0x4 ADD PUSH2 0x2DA8 SWAP1 PUSH2 0x6A70 JUMP JUMPDEST PUSH1 0x40 MLOAD DUP1 SWAP2 SUB SWAP1 REVERT JUMPDEST PUSH2 0x2DCD ADDRESS CALLER DUP4 PUSH1 0x1 PUSH1 0x40 MLOAD DUP1 PUSH1 0x20 ADD PUSH1 0x40 MSTORE DUP1 PUSH0 DUP2 MSTORE POP PUSH2 0x2E78 JUMP JUMPDEST POP POP POP POP POP POP JUMP JUMPDEST PUSH0 PUSH1 0x3 PUSH0 DUP5 PUSH20 0xFFFFFFFFFFFFFFFFFFFFFFFFFFFFFFFFFFFFFFFF AND PUSH20 0xFFFFFFFFFFFFFFFFFFFFFFFFFFFFFFFFFFFFFFFF AND DUP2 MSTORE PUSH1 0x20 ADD SWAP1 DUP2 MSTORE PUSH1 0x20 ADD PUSH0 KECCAK256 PUSH0 DUP4 PUSH20 0xFFFFFFFFFFFFFFFFFFFFFFFFFFFFFFFFFFFFFFFF AND PUSH20 0xFFFFFFFFFFFFFFFFFFFFFFFFFFFFFFFFFFFFFFFF AND DUP2 MSTORE PUSH1 0x20 ADD SWAP1 DUP2 MSTORE PUSH1 0x20 ADD PUSH0 KECCAK256 PUSH0 SWAP1 SLOAD SWAP1 PUSH2 0x100 EXP SWAP1 DIV PUSH1 0xFF AND SWAP1 POP SWAP3 SWAP2 POP POP JUMP JUMPDEST PUSH0 PUSH4 0xF23A6E61 PUSH1 0xE0 SHL SWAP1 POP SWAP7 SWAP6 POP POP POP POP POP POP JUMP JUMPDEST PUSH0 PUSH2 0x2E81 PUSH2 0x341E JUMP JUMPDEST SWAP1 POP DUP1 PUSH20 0xFFFFFFFFFFFFFFFFFFFFFFFFFFFFFFFFFFFFFFFF AND DUP7 PUSH20 0xFFFFFFFFFFFFFFFFFFFFFFFFFFFFFFFFFFFFFFFF AND EQ ISZERO DUP1 ISZERO PUSH2 0x2EC6 JUMPI POP PUSH2 0x2EC4 DUP7 DUP3 PUSH2 0x2DD5 JUMP JUMPDEST ISZERO JUMPDEST ISZERO PUSH2 0x2F0A JUMPI DUP1 DUP7 PUSH1 0x40 MLOAD PUSH32 0xE237D92200000000000000000000000000000000000000000000000000000000 DUP2 MSTORE PUSH1 0x4 ADD PUSH2 0x2F01 SWAP3 SWAP2 SWAP1 PUSH2 0x682F JUMP JUMPDEST PUSH1 0x40 MLOAD DUP1 SWAP2 SUB SWAP1 REVERT JUMPDEST PUSH2 0x2F17 DUP7 DUP7 DUP7 DUP7 DUP7 PUSH2 0x3A61 JUMP JUMPDEST POP POP POP POP POP POP JUMP JUMPDEST PUSH2 0x2F27 PUSH2 0x341E JUMP JUMPDEST PUSH20 0xFFFFFFFFFFFFFFFFFFFFFFFFFFFFFFFFFFFFFFFF AND DUP4 PUSH20 0xFFFFFFFFFFFFFFFFFFFFFFFFFFFFFFFFFFFFFFFF AND EQ ISZERO DUP1 ISZERO PUSH2 0x2F70 JUMPI POP PUSH2 0x2F6E DUP4 PUSH2 0x2F69 PUSH2 0x341E JUMP JUMPDEST PUSH2 0x2DD5 JUMP JUMPDEST ISZERO JUMPDEST ISZERO PUSH2 0x2FBB JUMPI PUSH2 0x2F7D PUSH2 0x341E JUMP JUMPDEST DUP4 PUSH1 0x40 MLOAD PUSH32 0xE237D92200000000000000000000000000000000000000000000000000000000 DUP2 MSTORE PUSH1 0x4 ADD PUSH2 0x2FB2 SWAP3 SWAP2 SWAP1 PUSH2 0x682F JUMP JUMPDEST PUSH1 0x40 MLOAD DUP1 SWAP2 SUB SWAP1 REVERT JUMPDEST PUSH2 0x2FC6 DUP4 DUP4 DUP4 PUSH2 0x3B67 JUMP JUMPDEST POP POP POP JUMP JUMPDEST PUSH0 DUP1 SHL PUSH2 0x2FD7 DUP2 PUSH2 0x3225 JUMP JUMPDEST PUSH0 DUP3 MLOAD GT PUSH2 0x301A JUMPI PUSH1 0x40 MLOAD PUSH32 0x8C379A000000000000000000000000000000000000000000000000000000000 DUP2 MSTORE PUSH1 0x4 ADD PUSH2 0x3011 SWAP1 PUSH2 0x6D2F JUMP JUMPDEST PUSH1 0x40 MLOAD DUP1 SWAP2 SUB SWAP1 REVERT JUMPDEST PUSH1 0x10 DUP3 SWAP1 DUP1 PUSH1 0x1 DUP2 SLOAD ADD DUP1 DUP3 SSTORE DUP1 SWAP2 POP POP PUSH1 0x1 SWAP1 SUB SWAP1 PUSH0 MSTORE PUSH1 0x20 PUSH0 KECCAK256 ADD PUSH0 SWAP1 SWAP2 SWAP1 SWAP2 SWAP1 SWAP2 POP SWAP1 DUP2 PUSH2 0x304B SWAP2 SWAP1 PUSH2 0x65D0 JUMP JUMPDEST POP CALLER PUSH20 0xFFFFFFFFFFFFFFFFFFFFFFFFFFFFFFFFFFFFFFFF AND PUSH32 0x4B33DAFB50DAC5530C30ACA4E4069FD67A18220888B874B8519558D1769D49A1 DUP4 PUSH1 0x40 MLOAD PUSH2 0x3092 SWAP2 SWAP1 PUSH2 0x4E61 JUMP JUMPDEST PUSH1 0x40 MLOAD DUP1 SWAP2 SUB SWAP1 LOG2 POP POP JUMP JUMPDEST PUSH1 0xC PUSH1 0x20 MSTORE DUP1 PUSH0 MSTORE PUSH1 0x40 PUSH0 KECCAK256 PUSH0 SWAP2 POP SWAP1 POP DUP1 PUSH0 ADD SLOAD SWAP1 DUP1 PUSH1 0x1 ADD DUP1 SLOAD PUSH2 0x30C3 SWAP1 PUSH2 0x62C3 JUMP JUMPDEST DUP1 PUSH1 0x1F ADD PUSH1 0x20 DUP1 SWAP2 DIV MUL PUSH1 0x20 ADD PUSH1 0x40 MLOAD SWAP1 DUP2 ADD PUSH1 0x40 MSTORE DUP1 SWAP3 SWAP2 SWAP1 DUP2 DUP2 MSTORE PUSH1 0x20 ADD DUP3 DUP1 SLOAD PUSH2 0x30EF SWAP1 PUSH2 0x62C3 JUMP JUMPDEST DUP1 ISZERO PUSH2 0x313A JUMPI DUP1 PUSH1 0x1F LT PUSH2 0x3111 JUMPI PUSH2 0x100 DUP1 DUP4 SLOAD DIV MUL DUP4 MSTORE SWAP2 PUSH1 0x20 ADD SWAP2 PUSH2 0x313A JUMP JUMPDEST DUP3 ADD SWAP2 SWAP1 PUSH0 MSTORE PUSH1 0x20 PUSH0 KECCAK256 SWAP1 JUMPDEST DUP2 SLOAD DUP2 MSTORE SWAP1 PUSH1 0x1 ADD SWAP1 PUSH1 0x20 ADD DUP1 DUP4 GT PUSH2 0x311D JUMPI DUP3 SWAP1 SUB PUSH1 0x1F AND DUP3 ADD SWAP2 JUMPDEST POP POP POP POP POP SWAP1 POP DUP3 JUMP JUMPDEST PUSH0 PUSH32 0xD9B67A2600000000000000000000000000000000000000000000000000000000 PUSH28 0xFFFFFFFFFFFFFFFFFFFFFFFFFFFFFFFFFFFFFFFFFFFFFFFFFFFFFFFF NOT AND DUP3 PUSH28 0xFFFFFFFFFFFFFFFFFFFFFFFFFFFFFFFFFFFFFFFFFFFFFFFFFFFFFFFF NOT AND EQ DUP1 PUSH2 0x320E JUMPI POP PUSH32 0xE89341C00000000000000000000000000000000000000000000000000000000 PUSH28 0xFFFFFFFFFFFFFFFFFFFFFFFFFFFFFFFFFFFFFFFFFFFFFFFFFFFFFFFF NOT AND DUP3 PUSH28 0xFFFFFFFFFFFFFFFFFFFFFFFFFFFFFFFFFFFFFFFFFFFFFFFFFFFFFFFF NOT AND EQ JUMPDEST DUP1 PUSH2 0x321E JUMPI POP PUSH2 0x321D DUP3 PUSH2 0x3C09 JUMP JUMPDEST JUMPDEST SWAP1 POP SWAP2 SWAP1 POP JUMP JUMPDEST PUSH2 0x3236 DUP2 PUSH2 0x3231 PUSH2 0x341E JUMP JUMPDEST PUSH2 0x3C82 JUMP JUMPDEST POP JUMP JUMPDEST PUSH1 0x1 DUP2 PUSH0 ADD PUSH0 DUP3 DUP3 SLOAD ADD SWAP3 POP POP DUP2 SWAP1 SSTORE POP POP JUMP JUMPDEST PUSH0 DUP2 PUSH0 ADD SLOAD SWAP1 POP SWAP2 SWAP1 POP JUMP JUMPDEST PUSH1 0x60 PUSH0 PUSH1 0x6 PUSH0 DUP5 DUP2 MSTORE PUSH1 0x20 ADD SWAP1 DUP2 MSTORE PUSH1 0x20 ADD PUSH0 KECCAK256 DUP1 SLOAD PUSH2 0x3278 SWAP1 PUSH2 0x62C3 JUMP JUMPDEST DUP1 PUSH1 0x1F ADD PUSH1 0x20 DUP1 SWAP2 DIV MUL PUSH1 0x20 ADD PUSH1 0x40 MLOAD SWAP1 DUP2 ADD PUSH1 0x40 MSTORE DUP1 SWAP3 SWAP2 SWAP1 DUP2 DUP2 MSTORE PUSH1 0x20 ADD DUP3 DUP1 SLOAD PUSH2 0x32A4 SWAP1 PUSH2 0x62C3 JUMP JUMPDEST DUP1 ISZERO PUSH2 0x32EF JUMPI DUP1 PUSH1 0x1F LT PUSH2 0x32C6 JUMPI PUSH2 0x100 DUP1 DUP4 SLOAD DIV MUL DUP4 MSTORE SWAP2 PUSH1 0x20 ADD SWAP2 PUSH2 0x32EF JUMP JUMPDEST DUP3 ADD SWAP2 SWAP1 PUSH0 MSTORE PUSH1 0x20 PUSH0 KECCAK256 SWAP1 JUMPDEST DUP2 SLOAD DUP2 MSTORE SWAP1 PUSH1 0x1 ADD SWAP1 PUSH1 0x20 ADD DUP1 DUP4 GT PUSH2 0x32D2 JUMPI DUP3 SWAP1 SUB PUSH1 0x1F AND DUP3 ADD SWAP2 JUMPDEST POP POP POP POP POP SWAP1 POP PUSH0 DUP2 MLOAD GT PUSH2 0x330C JUMPI PUSH2 0x3307 DUP4 PUSH2 0x3CD3 JUMP JUMPDEST PUSH2 0x3330 JUMP JUMPDEST PUSH1 0x5 DUP2 PUSH1 0x40 MLOAD PUSH1 0x20 ADD PUSH2 0x3320 SWAP3 SWAP2 SWAP1 PUSH2 0x72B4 JUMP JUMPDEST PUSH1 0x40 MLOAD PUSH1 0x20 DUP2 DUP4 SUB SUB DUP2 MSTORE SWAP1 PUSH1 0x40 MSTORE JUMPDEST SWAP2 POP POP SWAP2 SWAP1 POP JUMP JUMPDEST DUP1 PUSH1 0x6 PUSH0 DUP5 DUP2 MSTORE PUSH1 0x20 ADD SWAP1 DUP2 MSTORE PUSH1 0x20 ADD PUSH0 KECCAK256 SWAP1 DUP2 PUSH2 0x3356 SWAP2 SWAP1 PUSH2 0x65D0 JUMP JUMPDEST POP DUP2 PUSH32 0x6BB7FF708619BA0610CBA295A58592E0451DEE2622938C8755667688DAF3529B PUSH2 0x3382 DUP5 PUSH2 0xE3F JUMP JUMPDEST PUSH1 0x40 MLOAD PUSH2 0x338F SWAP2 SWAP1 PUSH2 0x4E61 JUMP JUMPDEST PUSH1 0x40 MLOAD DUP1 SWAP2 SUB SWAP1 LOG2 POP POP JUMP JUMPDEST PUSH0 PUSH20 0xFFFFFFFFFFFFFFFFFFFFFFFFFFFFFFFFFFFFFFFF AND DUP5 PUSH20 0xFFFFFFFFFFFFFFFFFFFFFFFFFFFFFFFFFFFFFFFF AND SUB PUSH2 0x340B JUMPI PUSH0 PUSH1 0x40 MLOAD PUSH32 0x57F447CE00000000000000000000000000000000000000000000000000000000 DUP2 MSTORE PUSH1 0x4 ADD PUSH2 0x3402 SWAP2 SWAP1 PUSH2 0x7012 JUMP JUMPDEST PUSH1 0x40 MLOAD DUP1 SWAP2 SUB SWAP1 REVERT JUMPDEST PUSH2 0x3418 PUSH0 DUP6 DUP6 DUP6 DUP6 PUSH2 0x3D65 JUMP JUMPDEST POP POP POP POP JUMP JUMPDEST PUSH0 CALLER SWAP1 POP SWAP1 JUMP JUMPDEST PUSH0 PUSH20 0xFFFFFFFFFFFFFFFFFFFFFFFFFFFFFFFFFFFFFFFF AND DUP5 PUSH20 0xFFFFFFFFFFFFFFFFFFFFFFFFFFFFFFFFFFFFFFFF AND SUB PUSH2 0x3495 JUMPI PUSH0 PUSH1 0x40 MLOAD PUSH32 0x57F447CE00000000000000000000000000000000000000000000000000000000 DUP2 MSTORE PUSH1 0x4 ADD PUSH2 0x348C SWAP2 SWAP1 PUSH2 0x7012 JUMP JUMPDEST PUSH1 0x40 MLOAD DUP1 SWAP2 SUB SWAP1 REVERT JUMPDEST PUSH0 PUSH20 0xFFFFFFFFFFFFFFFFFFFFFFFFFFFFFFFFFFFFFFFF AND DUP6 PUSH20 0xFFFFFFFFFFFFFFFFFFFFFFFFFFFFFFFFFFFFFFFF AND SUB PUSH2 0x3505 JUMPI PUSH0 PUSH1 0x40 MLOAD PUSH32 0x1A8351400000000000000000000000000000000000000000000000000000000 DUP2 MSTORE PUSH1 0x4 ADD PUSH2 0x34FC SWAP2 SWAP1 PUSH2 0x7012 JUMP JUMPDEST PUSH1 0x40 MLOAD DUP1 SWAP2 SUB SWAP1 REVERT JUMPDEST PUSH2 0x3512 DUP6 DUP6 DUP6 DUP6 DUP6 PUSH2 0x3D65 JUMP JUMPDEST POP POP POP POP POP JUMP JUMPDEST PUSH0 PUSH2 0x3524 DUP4 DUP4 PUSH2 0x1D16 JUMP JUMPDEST PUSH2 0x35F8 JUMPI PUSH1 0x1 PUSH0 DUP1 DUP6 DUP2 MSTORE PUSH1 0x20 ADD SWAP1 DUP2 MSTORE PUSH1 0x20 ADD PUSH0 KECCAK256 PUSH0 ADD PUSH0 DUP5 PUSH20 0xFFFFFFFFFFFFFFFFFFFFFFFFFFFFFFFFFFFFFFFF AND PUSH20 0xFFFFFFFFFFFFFFFFFFFFFFFFFFFFFFFFFFFFFFFF AND DUP2 MSTORE PUSH1 0x20 ADD SWAP1 DUP2 MSTORE PUSH1 0x20 ADD PUSH0 KECCAK256 PUSH0 PUSH2 0x100 EXP DUP2 SLOAD DUP2 PUSH1 0xFF MUL NOT AND SWAP1 DUP4 ISZERO ISZERO MUL OR SWAP1 SSTORE POP PUSH2 0x3595 PUSH2 0x341E JUMP JUMPDEST PUSH20 0xFFFFFFFFFFFFFFFFFFFFFFFFFFFFFFFFFFFFFFFF AND DUP3 PUSH20 0xFFFFFFFFFFFFFFFFFFFFFFFFFFFFFFFFFFFFFFFF AND DUP5 PUSH32 0x2F8788117E7EFF1D82E926EC794901D17C78024A50270940304540A733656F0D PUSH1 0x40 MLOAD PUSH1 0x40 MLOAD DUP1 SWAP2 SUB SWAP1 LOG4 PUSH1 0x1 SWAP1 POP PUSH2 0x35FC JUMP JUMPDEST PUSH0 SWAP1 POP JUMPDEST SWAP3 SWAP2 POP POP JUMP JUMPDEST PUSH0 PUSH2 0x360D DUP4 DUP4 PUSH2 0x1D16 JUMP JUMPDEST ISZERO PUSH2 0x36E1 JUMPI PUSH0 DUP1 PUSH0 DUP6 DUP2 MSTORE PUSH1 0x20 ADD SWAP1 DUP2 MSTORE PUSH1 0x20 ADD PUSH0 KECCAK256 PUSH0 ADD PUSH0 DUP5 PUSH20 0xFFFFFFFFFFFFFFFFFFFFFFFFFFFFFFFFFFFFFFFF AND PUSH20 0xFFFFFFFFFFFFFFFFFFFFFFFFFFFFFFFFFFFFFFFF AND DUP2 MSTORE PUSH1 0x20 ADD SWAP1 DUP2 MSTORE PUSH1 0x20 ADD PUSH0 KECCAK256 PUSH0 PUSH2 0x100 EXP DUP2 SLOAD DUP2 PUSH1 0xFF MUL NOT AND SWAP1 DUP4 ISZERO ISZERO MUL OR SWAP1 SSTORE POP PUSH2 0x367E PUSH2 0x341E JUMP JUMPDEST PUSH20 0xFFFFFFFFFFFFFFFFFFFFFFFFFFFFFFFFFFFFFFFF AND DUP3 PUSH20 0xFFFFFFFFFFFFFFFFFFFFFFFFFFFFFFFFFFFFFFFF AND DUP5 PUSH32 0xF6391F5C32D9C69D2A47EA670B442974B53935D1EDC7FD64EB21E047A839171B PUSH1 0x40 MLOAD PUSH1 0x40 MLOAD DUP1 SWAP2 SUB SWAP1 LOG4 PUSH1 0x1 SWAP1 POP PUSH2 0x36E5 JUMP JUMPDEST PUSH0 SWAP1 POP JUMPDEST SWAP3 SWAP2 POP POP JUMP JUMPDEST PUSH2 0x36F3 PUSH2 0x3E11 JUMP JUMPDEST PUSH0 PUSH1 0x1 PUSH0 PUSH2 0x100 EXP DUP2 SLOAD DUP2 PUSH1 0xFF MUL NOT AND SWAP1 DUP4 ISZERO ISZERO MUL OR SWAP1 SSTORE POP PUSH32 0x5DB9EE0A495BF2E6FF9C91A7834C1BA4FDD244A5E8AA4E537BD38AEAE4B073AA PUSH2 0x3735 PUSH2 0x341E JUMP JUMPDEST PUSH1 0x40 MLOAD PUSH2 0x3742 SWAP2 SWAP1 PUSH2 0x7012 JUMP JUMPDEST PUSH1 0x40 MLOAD DUP1 SWAP2 SUB SWAP1 LOG1 JUMP JUMPDEST PUSH0 PUSH1 0x20 DUP3 MUL PUSH1 0x20 DUP5 ADD ADD MLOAD SWAP1 POP SWAP3 SWAP2 POP POP JUMP JUMPDEST PUSH0 PUSH1 0x20 DUP3 MUL PUSH1 0x20 DUP5 ADD ADD MLOAD SWAP1 POP SWAP3 SWAP2 POP POP JUMP JUMPDEST PUSH0 PUSH20 0xFFFFFFFFFFFFFFFFFFFFFFFFFFFFFFFFFFFFFFFF AND DUP4 PUSH20 0xFFFFFFFFFFFFFFFFFFFFFFFFFFFFFFFFFFFFFFFF AND SUB PUSH2 0x37E2 JUMPI PUSH0 PUSH1 0x40 MLOAD PUSH32 0x1A8351400000000000000000000000000000000000000000000000000000000 DUP2 MSTORE PUSH1 0x4 ADD PUSH2 0x37D9 SWAP2 SWAP1 PUSH2 0x7012 JUMP JUMPDEST PUSH1 0x40 MLOAD DUP1 SWAP2 SUB SWAP1 REVERT JUMPDEST PUSH2 0x37FD DUP4 PUSH0 DUP5 DUP5 PUSH1 0x40 MLOAD DUP1 PUSH1 0x20 ADD PUSH1 0x40 MSTORE DUP1 PUSH0 DUP2 MSTORE POP PUSH2 0x3D65 JUMP JUMPDEST POP POP POP JUMP JUMPDEST PUSH0 PUSH20 0xFFFFFFFFFFFFFFFFFFFFFFFFFFFFFFFFFFFFFFFF AND DUP5 PUSH20 0xFFFFFFFFFFFFFFFFFFFFFFFFFFFFFFFFFFFFFFFF AND SUB PUSH2 0x3872 JUMPI PUSH0 PUSH1 0x40 MLOAD PUSH32 0x57F447CE00000000000000000000000000000000000000000000000000000000 DUP2 MSTORE PUSH1 0x4 ADD PUSH2 0x3869 SWAP2 SWAP1 PUSH2 0x7012 JUMP JUMPDEST PUSH1 0x40 MLOAD DUP1 SWAP2 SUB SWAP1 REVERT JUMPDEST PUSH0 DUP1 PUSH2 0x387E DUP6 DUP6 PUSH2 0x3E5A JUMP JUMPDEST SWAP2 POP SWAP2 POP PUSH2 0x388F PUSH0 DUP8 DUP5 DUP5 DUP8 PUSH2 0x3D65 JUMP JUMPDEST POP POP POP POP POP POP JUMP JUMPDEST PUSH2 0x389F PUSH2 0x3E8A JUMP JUMPDEST PUSH1 0x1 DUP1 PUSH0 PUSH2 0x100 EXP DUP2 SLOAD DUP2 PUSH1 0xFF MUL NOT AND SWAP1 DUP4 ISZERO ISZERO MUL OR SWAP1 SSTORE POP PUSH32 0x62E78CEA01BEE320CD4E420270B5EA74000D11B0C9F74754EBDBFC544B05A258 PUSH2 0x38E1 PUSH2 0x341E JUMP JUMPDEST PUSH1 0x40 MLOAD PUSH2 0x38EE SWAP2 SWAP1 PUSH2 0x7012 JUMP JUMPDEST PUSH1 0x40 MLOAD DUP1 SWAP2 SUB SWAP1 LOG1 JUMP JUMPDEST PUSH0 PUSH20 0xFFFFFFFFFFFFFFFFFFFFFFFFFFFFFFFFFFFFFFFF AND DUP3 PUSH20 0xFFFFFFFFFFFFFFFFFFFFFFFFFFFFFFFFFFFFFFFF AND SUB PUSH2 0x3968 JUMPI PUSH0 PUSH1 0x40 MLOAD PUSH32 0xCED3E10000000000000000000000000000000000000000000000000000000000 DUP2 MSTORE PUSH1 0x4 ADD PUSH2 0x395F SWAP2 SWAP1 PUSH2 0x7012 JUMP JUMPDEST PUSH1 0x40 MLOAD DUP1 SWAP2 SUB SWAP1 REVERT JUMPDEST DUP1 PUSH1 0x3 PUSH0 DUP6 PUSH20 0xFFFFFFFFFFFFFFFFFFFFFFFFFFFFFFFFFFFFFFFF AND PUSH20 0xFFFFFFFFFFFFFFFFFFFFFFFFFFFFFFFFFFFFFFFF AND DUP2 MSTORE PUSH1 0x20 ADD SWAP1 DUP2 MSTORE PUSH1 0x20 ADD PUSH0 KECCAK256 PUSH0 DUP5 PUSH20 0xFFFFFFFFFFFFFFFFFFFFFFFFFFFFFFFFFFFFFFFF AND PUSH20 0xFFFFFFFFFFFFFFFFFFFFFFFFFFFFFFFFFFFFFFFF AND DUP2 MSTORE PUSH1 0x20 ADD SWAP1 DUP2 MSTORE PUSH1 0x20 ADD PUSH0 KECCAK256 PUSH0 PUSH2 0x100 EXP DUP2 SLOAD DUP2 PUSH1 0xFF MUL NOT AND SWAP1 DUP4 ISZERO ISZERO MUL OR SWAP1 SSTORE POP DUP2 PUSH20 0xFFFFFFFFFFFFFFFFFFFFFFFFFFFFFFFFFFFFFFFF AND DUP4 PUSH20 0xFFFFFFFFFFFFFFFFFFFFFFFFFFFFFFFFFFFFFFFF AND PUSH32 0x17307EAB39AB6107E8899845AD3D59BD9653F200F220920489CA2B5937696C31 DUP4 PUSH1 0x40 MLOAD PUSH2 0x3A54 SWAP2 SWAP1 PUSH2 0x4C4B JUMP JUMPDEST PUSH1 0x40 MLOAD DUP1 SWAP2 SUB SWAP1 LOG3 POP POP POP JUMP JUMPDEST PUSH0 PUSH20 0xFFFFFFFFFFFFFFFFFFFFFFFFFFFFFFFFFFFFFFFF AND DUP5 PUSH20 0xFFFFFFFFFFFFFFFFFFFFFFFFFFFFFFFFFFFFFFFF AND SUB PUSH2 0x3AD1 JUMPI PUSH0 PUSH1 0x40 MLOAD PUSH32 0x57F447CE00000000000000000000000000000000000000000000000000000000 DUP2 MSTORE PUSH1 0x4 ADD PUSH2 0x3AC8 SWAP2 SWAP1 PUSH2 0x7012 JUMP JUMPDEST PUSH1 0x40 MLOAD DUP1 SWAP2 SUB SWAP1 REVERT JUMPDEST PUSH0 PUSH20 0xFFFFFFFFFFFFFFFFFFFFFFFFFFFFFFFFFFFFFFFF AND DUP6 PUSH20 0xFFFFFFFFFFFFFFFFFFFFFFFFFFFFFFFFFFFFFFFF AND SUB PUSH2 0x3B41 JUMPI PUSH0 PUSH1 0x40 MLOAD PUSH32 0x1A8351400000000000000000000000000000000000000000000000000000000 DUP2 MSTORE PUSH1 0x4 ADD PUSH2 0x3B38 SWAP2 SWAP1 PUSH2 0x7012 JUMP JUMPDEST PUSH1 0x40 MLOAD DUP1 SWAP2 SUB SWAP1 REVERT JUMPDEST PUSH0 DUP1 PUSH2 0x3B4D DUP6 DUP6 PUSH2 0x3E5A JUMP JUMPDEST SWAP2 POP SWAP2 POP PUSH2 0x3B5E DUP8 DUP8 DUP5 DUP5 DUP8 PUSH2 0x3D65 JUMP JUMPDEST POP POP POP POP POP POP POP JUMP JUMPDEST PUSH0 PUSH20 0xFFFFFFFFFFFFFFFFFFFFFFFFFFFFFFFFFFFFFFFF AND DUP4 PUSH20 0xFFFFFFFFFFFFFFFFFFFFFFFFFFFFFFFFFFFFFFFF AND SUB PUSH2 0x3BD7 JUMPI PUSH0 PUSH1 0x40 MLOAD PUSH32 0x1A8351400000000000000000000000000000000000000000000000000000000 DUP2 MSTORE PUSH1 0x4 ADD PUSH2 0x3BCE SWAP2 SWAP1 PUSH2 0x7012 JUMP JUMPDEST PUSH1 0x40 MLOAD DUP1 SWAP2 SUB SWAP1 REVERT JUMPDEST PUSH0 DUP1 PUSH2 0x3BE3 DUP5 DUP5 PUSH2 0x3E5A JUMP JUMPDEST SWAP2 POP SWAP2 POP PUSH2 0x3C02 DUP6 PUSH0 DUP5 DUP5 PUSH1 0x40 MLOAD DUP1 PUSH1 0x20 ADD PUSH1 0x40 MSTORE DUP1 PUSH0 DUP2 MSTORE POP PUSH2 0x3D65 JUMP JUMPDEST POP POP POP POP POP JUMP JUMPDEST PUSH0 PUSH32 0x7965DB0B00000000000000000000000000000000000000000000000000000000 PUSH28 0xFFFFFFFFFFFFFFFFFFFFFFFFFFFFFFFFFFFFFFFFFFFFFFFFFFFFFFFF NOT AND DUP3 PUSH28 0xFFFFFFFFFFFFFFFFFFFFFFFFFFFFFFFFFFFFFFFFFFFFFFFFFFFFFFFF NOT AND EQ DUP1 PUSH2 0x3C7B JUMPI POP PUSH2 0x3C7A DUP3 PUSH2 0x3ED4 JUMP JUMPDEST JUMPDEST SWAP1 POP SWAP2 SWAP1 POP JUMP JUMPDEST PUSH2 0x3C8C DUP3 DUP3 PUSH2 0x1D16 JUMP JUMPDEST PUSH2 0x3CCF JUMPI DUP1 DUP3 PUSH1 0x40 MLOAD PUSH32 0xE2517D3F00000000000000000000000000000000000000000000000000000000 DUP2 MSTORE PUSH1 0x4 ADD PUSH2 0x3CC6 SWAP3 SWAP2 SWAP1 PUSH2 0x72D7 JUMP JUMPDEST PUSH1 0x40 MLOAD DUP1 SWAP2 SUB SWAP1 REVERT JUMPDEST POP POP JUMP JUMPDEST PUSH1 0x60 PUSH1 0x4 DUP1 SLOAD PUSH2 0x3CE2 SWAP1 PUSH2 0x62C3 JUMP JUMPDEST DUP1 PUSH1 0x1F ADD PUSH1 0x20 DUP1 SWAP2 DIV MUL PUSH1 0x20 ADD PUSH1 0x40 MLOAD SWAP1 DUP2 ADD PUSH1 0x40 MSTORE DUP1 SWAP3 SWAP2 SWAP1 DUP2 DUP2 MSTORE PUSH1 0x20 ADD DUP3 DUP1 SLOAD PUSH2 0x3D0E SWAP1 PUSH2 0x62C3 JUMP JUMPDEST DUP1 ISZERO PUSH2 0x3D59 JUMPI DUP1 PUSH1 0x1F LT PUSH2 0x3D30 JUMPI PUSH2 0x100 DUP1 DUP4 SLOAD DIV MUL DUP4 MSTORE SWAP2 PUSH1 0x20 ADD SWAP2 PUSH2 0x3D59 JUMP JUMPDEST DUP3 ADD SWAP2 SWAP1 PUSH0 MSTORE PUSH1 0x20 PUSH0 KECCAK256 SWAP1 JUMPDEST DUP2 SLOAD DUP2 MSTORE SWAP1 PUSH1 0x1 ADD SWAP1 PUSH1 0x20 ADD DUP1 DUP4 GT PUSH2 0x3D3C JUMPI DUP3 SWAP1 SUB PUSH1 0x1F AND DUP3 ADD SWAP2 JUMPDEST POP POP POP POP POP SWAP1 POP SWAP2 SWAP1 POP JUMP JUMPDEST PUSH2 0x3D71 DUP6 DUP6 DUP6 DUP6 PUSH2 0x3F3D JUMP JUMPDEST PUSH0 PUSH20 0xFFFFFFFFFFFFFFFFFFFFFFFFFFFFFFFFFFFFFFFF AND DUP5 PUSH20 0xFFFFFFFFFFFFFFFFFFFFFFFFFFFFFFFFFFFFFFFF AND EQ PUSH2 0x3E0A JUMPI PUSH0 PUSH2 0x3DAD PUSH2 0x341E JUMP JUMPDEST SWAP1 POP PUSH1 0x1 DUP5 MLOAD SUB PUSH2 0x3DF9 JUMPI PUSH0 PUSH2 0x3DCC PUSH0 DUP7 PUSH2 0x375F SWAP1 SWAP2 SWAP1 PUSH4 0xFFFFFFFF AND JUMP JUMPDEST SWAP1 POP PUSH0 PUSH2 0x3DE2 PUSH0 DUP7 PUSH2 0x375F SWAP1 SWAP2 SWAP1 PUSH4 0xFFFFFFFF AND JUMP JUMPDEST SWAP1 POP PUSH2 0x3DF2 DUP4 DUP10 DUP10 DUP6 DUP6 DUP10 PUSH2 0x4187 JUMP JUMPDEST POP POP PUSH2 0x3E08 JUMP JUMPDEST PUSH2 0x3E07 DUP2 DUP8 DUP8 DUP8 DUP8 DUP8 PUSH2 0x4336 JUMP JUMPDEST JUMPDEST POP JUMPDEST POP POP POP POP POP JUMP JUMPDEST PUSH2 0x3E19 PUSH2 0x1758 JUMP JUMPDEST PUSH2 0x3E58 JUMPI PUSH1 0x40 MLOAD PUSH32 0x8C379A000000000000000000000000000000000000000000000000000000000 DUP2 MSTORE PUSH1 0x4 ADD PUSH2 0x3E4F SWAP1 PUSH2 0x7348 JUMP JUMPDEST PUSH1 0x40 MLOAD DUP1 SWAP2 SUB SWAP1 REVERT JUMPDEST JUMP JUMPDEST PUSH1 0x60 DUP1 PUSH1 0x40 MLOAD SWAP2 POP PUSH1 0x1 DUP3 MSTORE DUP4 PUSH1 0x20 DUP4 ADD MSTORE PUSH1 0x40 DUP3 ADD SWAP1 POP PUSH1 0x1 DUP2 MSTORE DUP3 PUSH1 0x20 DUP3 ADD MSTORE PUSH1 0x40 DUP2 ADD PUSH1 0x40 MSTORE SWAP3 POP SWAP3 SWAP1 POP JUMP JUMPDEST PUSH2 0x3E92 PUSH2 0x1758 JUMP JUMPDEST ISZERO PUSH2 0x3ED2 JUMPI PUSH1 0x40 MLOAD PUSH32 0x8C379A000000000000000000000000000000000000000000000000000000000 DUP2 MSTORE PUSH1 0x4 ADD PUSH2 0x3EC9 SWAP1 PUSH2 0x73B0 JUMP JUMPDEST PUSH1 0x40 MLOAD DUP1 SWAP2 SUB SWAP1 REVERT JUMPDEST JUMP JUMPDEST PUSH0 PUSH32 0x1FFC9A700000000000000000000000000000000000000000000000000000000 PUSH28 0xFFFFFFFFFFFFFFFFFFFFFFFFFFFFFFFFFFFFFFFFFFFFFFFFFFFFFFFF NOT AND DUP3 PUSH28 0xFFFFFFFFFFFFFFFFFFFFFFFFFFFFFFFFFFFFFFFFFFFFFFFFFFFFFFFF NOT AND EQ SWAP1 POP SWAP2 SWAP1 POP JUMP JUMPDEST PUSH2 0x3F45 PUSH2 0x3E8A JUMP JUMPDEST PUSH2 0x3F51 DUP5 DUP5 DUP5 DUP5 PUSH2 0x44E5 JUMP JUMPDEST PUSH0 JUMPDEST DUP3 MLOAD DUP2 LT ISZERO PUSH2 0x4180 JUMPI PUSH0 DUP3 DUP3 DUP2 MLOAD DUP2 LT PUSH2 0x3F70 JUMPI PUSH2 0x3F6F PUSH2 0x6269 JUMP JUMPDEST JUMPDEST PUSH1 0x20 MUL PUSH1 0x20 ADD ADD MLOAD GT ISZERO PUSH2 0x4173 JUMPI PUSH1 0x11 PUSH0 DUP5 DUP4 DUP2 MLOAD DUP2 LT PUSH2 0x3F94 JUMPI PUSH2 0x3F93 PUSH2 0x6269 JUMP JUMPDEST JUMPDEST PUSH1 0x20 MUL PUSH1 0x20 ADD ADD MLOAD DUP2 MSTORE PUSH1 0x20 ADD SWAP1 DUP2 MSTORE PUSH1 0x20 ADD PUSH0 KECCAK256 PUSH1 0x40 MLOAD DUP1 PUSH1 0x80 ADD PUSH1 0x40 MSTORE DUP1 DUP8 PUSH20 0xFFFFFFFFFFFFFFFFFFFFFFFFFFFFFFFFFFFFFFFF AND DUP2 MSTORE PUSH1 0x20 ADD DUP7 PUSH20 0xFFFFFFFFFFFFFFFFFFFFFFFFFFFFFFFFFFFFFFFF AND DUP2 MSTORE PUSH1 0x20 ADD DUP5 DUP5 DUP2 MLOAD DUP2 LT PUSH2 0x3FFF JUMPI PUSH2 0x3FFE PUSH2 0x6269 JUMP JUMPDEST JUMPDEST PUSH1 0x20 MUL PUSH1 0x20 ADD ADD MLOAD DUP2 MSTORE PUSH1 0x20 ADD TIMESTAMP DUP2 MSTORE POP SWAP1 DUP1 PUSH1 0x1 DUP2 SLOAD ADD DUP1 DUP3 SSTORE DUP1 SWAP2 POP POP PUSH1 0x1 SWAP1 SUB SWAP1 PUSH0 MSTORE PUSH1 0x20 PUSH0 KECCAK256 SWAP1 PUSH1 0x4 MUL ADD PUSH0 SWAP1 SWAP2 SWAP1 SWAP2 SWAP1 SWAP2 POP PUSH0 DUP3 ADD MLOAD DUP2 PUSH0 ADD PUSH0 PUSH2 0x100 EXP DUP2 SLOAD DUP2 PUSH20 0xFFFFFFFFFFFFFFFFFFFFFFFFFFFFFFFFFFFFFFFF MUL NOT AND SWAP1 DUP4 PUSH20 0xFFFFFFFFFFFFFFFFFFFFFFFFFFFFFFFFFFFFFFFF AND MUL OR SWAP1 SSTORE POP PUSH1 0x20 DUP3 ADD MLOAD DUP2 PUSH1 0x1 ADD PUSH0 PUSH2 0x100 EXP DUP2 SLOAD DUP2 PUSH20 0xFFFFFFFFFFFFFFFFFFFFFFFFFFFFFFFFFFFFFFFF MUL NOT AND SWAP1 DUP4 PUSH20 0xFFFFFFFFFFFFFFFFFFFFFFFFFFFFFFFFFFFFFFFF AND MUL OR SWAP1 SSTORE POP PUSH1 0x40 DUP3 ADD MLOAD DUP2 PUSH1 0x2 ADD SSTORE PUSH1 0x60 DUP3 ADD MLOAD DUP2 PUSH1 0x3 ADD SSTORE POP POP DUP4 PUSH20 0xFFFFFFFFFFFFFFFFFFFFFFFFFFFFFFFFFFFFFFFF AND DUP6 PUSH20 0xFFFFFFFFFFFFFFFFFFFFFFFFFFFFFFFFFFFFFFFF AND DUP5 DUP4 DUP2 MLOAD DUP2 LT PUSH2 0x4117 JUMPI PUSH2 0x4116 PUSH2 0x6269 JUMP JUMPDEST JUMPDEST PUSH1 0x20 MUL PUSH1 0x20 ADD ADD MLOAD PUSH32 0x3599ACC8EA36ACF6564C059F8A072F8E7844E39A6F1E8D3BE1BCBF6DCCECFB00 DUP6 DUP6 DUP2 MLOAD DUP2 LT PUSH2 0x4153 JUMPI PUSH2 0x4152 PUSH2 0x6269 JUMP JUMPDEST JUMPDEST PUSH1 0x20 MUL PUSH1 0x20 ADD ADD MLOAD TIMESTAMP PUSH1 0x40 MLOAD PUSH2 0x416A SWAP3 SWAP2 SWAP1 PUSH2 0x6A8E JUMP JUMPDEST PUSH1 0x40 MLOAD DUP1 SWAP2 SUB SWAP1 LOG4 JUMPDEST DUP1 DUP1 PUSH1 0x1 ADD SWAP2 POP POP PUSH2 0x3F53 JUMP JUMPDEST POP POP POP POP POP JUMP JUMPDEST PUSH0 DUP5 PUSH20 0xFFFFFFFFFFFFFFFFFFFFFFFFFFFFFFFFFFFFFFFF AND EXTCODESIZE GT ISZERO PUSH2 0x432E JUMPI DUP4 PUSH20 0xFFFFFFFFFFFFFFFFFFFFFFFFFFFFFFFFFFFFFFFF AND PUSH4 0xF23A6E61 DUP8 DUP8 DUP7 DUP7 DUP7 PUSH1 0x40 MLOAD DUP7 PUSH4 0xFFFFFFFF AND PUSH1 0xE0 SHL DUP2 MSTORE PUSH1 0x4 ADD PUSH2 0x41E7 SWAP6 SWAP5 SWAP4 SWAP3 SWAP2 SWAP1 PUSH2 0x7420 JUMP JUMPDEST PUSH1 0x20 PUSH1 0x40 MLOAD DUP1 DUP4 SUB DUP2 PUSH0 DUP8 GAS CALL SWAP3 POP POP POP DUP1 ISZERO PUSH2 0x4222 JUMPI POP PUSH1 0x40 MLOAD RETURNDATASIZE PUSH1 0x1F NOT PUSH1 0x1F DUP3 ADD AND DUP3 ADD DUP1 PUSH1 0x40 MSTORE POP DUP2 ADD SWAP1 PUSH2 0x421F SWAP2 SWAP1 PUSH2 0x748C JUMP JUMPDEST PUSH1 0x1 JUMPDEST PUSH2 0x42A3 JUMPI RETURNDATASIZE DUP1 PUSH0 DUP2 EQ PUSH2 0x4250 JUMPI PUSH1 0x40 MLOAD SWAP2 POP PUSH1 0x1F NOT PUSH1 0x3F RETURNDATASIZE ADD AND DUP3 ADD PUSH1 0x40 MSTORE RETURNDATASIZE DUP3 MSTORE RETURNDATASIZE PUSH0 PUSH1 0x20 DUP5 ADD RETURNDATACOPY PUSH2 0x4255 JUMP JUMPDEST PUSH1 0x60 SWAP2 POP JUMPDEST POP PUSH0 DUP2 MLOAD SUB PUSH2 0x429B JUMPI DUP5 PUSH1 0x40 MLOAD PUSH32 0x57F447CE00000000000000000000000000000000000000000000000000000000 DUP2 MSTORE PUSH1 0x4 ADD PUSH2 0x4292 SWAP2 SWAP1 PUSH2 0x7012 JUMP JUMPDEST PUSH1 0x40 MLOAD DUP1 SWAP2 SUB SWAP1 REVERT JUMPDEST DUP1 MLOAD PUSH1 0x20 DUP3 ADD REVERT JUMPDEST PUSH4 0xF23A6E61 PUSH1 0xE0 SHL PUSH28 0xFFFFFFFFFFFFFFFFFFFFFFFFFFFFFFFFFFFFFFFFFFFFFFFFFFFFFFFF NOT AND DUP2 PUSH28 0xFFFFFFFFFFFFFFFFFFFFFFFFFFFFFFFFFFFFFFFFFFFFFFFFFFFFFFFF NOT AND EQ PUSH2 0x432C JUMPI DUP5 PUSH1 0x40 MLOAD PUSH32 0x57F447CE00000000000000000000000000000000000000000000000000000000 DUP2 MSTORE PUSH1 0x4 ADD PUSH2 0x4323 SWAP2 SWAP1 PUSH2 0x7012 JUMP JUMPDEST PUSH1 0x40 MLOAD DUP1 SWAP2 SUB SWAP1 REVERT JUMPDEST POP JUMPDEST POP POP POP POP POP POP JUMP JUMPDEST PUSH0 DUP5 PUSH20 0xFFFFFFFFFFFFFFFFFFFFFFFFFFFFFFFFFFFFFFFF AND EXTCODESIZE GT ISZERO PUSH2 0x44DD JUMPI DUP4 PUSH20 0xFFFFFFFFFFFFFFFFFFFFFFFFFFFFFFFFFFFFFFFF AND PUSH4 0xBC197C81 DUP8 DUP8 DUP7 DUP7 DUP7 PUSH1 0x40 MLOAD DUP7 PUSH4 0xFFFFFFFF AND PUSH1 0xE0 SHL DUP2 MSTORE PUSH1 0x4 ADD PUSH2 0x4396 SWAP6 SWAP5 SWAP4 SWAP3 SWAP2 SWAP1 PUSH2 0x74B7 JUMP JUMPDEST PUSH1 0x20 PUSH1 0x40 MLOAD DUP1 DUP4 SUB DUP2 PUSH0 DUP8 GAS CALL SWAP3 POP POP POP DUP1 ISZERO PUSH2 0x43D1 JUMPI POP PUSH1 0x40 MLOAD RETURNDATASIZE PUSH1 0x1F NOT PUSH1 0x1F DUP3 ADD AND DUP3 ADD DUP1 PUSH1 0x40 MSTORE POP DUP2 ADD SWAP1 PUSH2 0x43CE SWAP2 SWAP1 PUSH2 0x748C JUMP JUMPDEST PUSH1 0x1 JUMPDEST PUSH2 0x4452 JUMPI RETURNDATASIZE DUP1 PUSH0 DUP2 EQ PUSH2 0x43FF JUMPI PUSH1 0x40 MLOAD SWAP2 POP PUSH1 0x1F NOT PUSH1 0x3F RETURNDATASIZE ADD AND DUP3 ADD PUSH1 0x40 MSTORE RETURNDATASIZE DUP3 MSTORE RETURNDATASIZE PUSH0 PUSH1 0x20 DUP5 ADD RETURNDATACOPY PUSH2 0x4404 JUMP JUMPDEST PUSH1 0x60 SWAP2 POP JUMPDEST POP PUSH0 DUP2 MLOAD SUB PUSH2 0x444A JUMPI DUP5 PUSH1 0x40 MLOAD PUSH32 0x57F447CE00000000000000000000000000000000000000000000000000000000 DUP2 MSTORE PUSH1 0x4 ADD PUSH2 0x4441 SWAP2 SWAP1 PUSH2 0x7012 JUMP JUMPDEST PUSH1 0x40 MLOAD DUP1 SWAP2 SUB SWAP1 REVERT JUMPDEST DUP1 MLOAD PUSH1 0x20 DUP3 ADD REVERT JUMPDEST PUSH4 0xBC197C81 PUSH1 0xE0 SHL PUSH28 0xFFFFFFFFFFFFFFFFFFFFFFFFFFFFFFFFFFFFFFFFFFFFFFFFFFFFFFFF NOT AND DUP2 PUSH28 0xFFFFFFFFFFFFFFFFFFFFFFFFFFFFFFFFFFFFFFFFFFFFFFFFFFFFFFFF NOT AND EQ PUSH2 0x44DB JUMPI DUP5 PUSH1 0x40 MLOAD PUSH32 0x57F447CE00000000000000000000000000000000000000000000000000000000 DUP2 MSTORE PUSH1 0x4 ADD PUSH2 0x44D2 SWAP2 SWAP1 PUSH2 0x7012 JUMP JUMPDEST PUSH1 0x40 MLOAD DUP1 SWAP2 SUB SWAP1 REVERT JUMPDEST POP JUMPDEST POP POP POP POP POP POP JUMP JUMPDEST PUSH2 0x44F1 DUP5 DUP5 DUP5 DUP5 PUSH2 0x4662 JUMP JUMPDEST PUSH0 PUSH20 0xFFFFFFFFFFFFFFFFFFFFFFFFFFFFFFFFFFFFFFFF AND DUP5 PUSH20 0xFFFFFFFFFFFFFFFFFFFFFFFFFFFFFFFFFFFFFFFF AND SUB PUSH2 0x45B4 JUMPI PUSH0 DUP1 JUMPDEST DUP4 MLOAD DUP2 LT ISZERO PUSH2 0x4599 JUMPI PUSH0 PUSH2 0x4544 DUP3 DUP6 PUSH2 0x375F SWAP1 SWAP2 SWAP1 PUSH4 0xFFFFFFFF AND JUMP JUMPDEST SWAP1 POP DUP1 PUSH1 0x7 PUSH0 PUSH2 0x455D DUP6 DUP10 PUSH2 0x375F SWAP1 SWAP2 SWAP1 PUSH4 0xFFFFFFFF AND JUMP JUMPDEST DUP2 MSTORE PUSH1 0x20 ADD SWAP1 DUP2 MSTORE PUSH1 0x20 ADD PUSH0 KECCAK256 PUSH0 DUP3 DUP3 SLOAD PUSH2 0x4578 SWAP2 SWAP1 PUSH2 0x751D JUMP JUMPDEST SWAP3 POP POP DUP2 SWAP1 SSTORE POP DUP1 DUP4 PUSH2 0x458B SWAP2 SWAP1 PUSH2 0x751D JUMP JUMPDEST SWAP3 POP POP DUP1 PUSH1 0x1 ADD SWAP1 POP PUSH2 0x4527 JUMP JUMPDEST POP DUP1 PUSH1 0x8 PUSH0 DUP3 DUP3 SLOAD PUSH2 0x45AB SWAP2 SWAP1 PUSH2 0x751D JUMP JUMPDEST SWAP3 POP POP DUP2 SWAP1 SSTORE POP POP JUMPDEST PUSH0 PUSH20 0xFFFFFFFFFFFFFFFFFFFFFFFFFFFFFFFFFFFFFFFF AND DUP4 PUSH20 0xFFFFFFFFFFFFFFFFFFFFFFFFFFFFFFFFFFFFFFFF AND SUB PUSH2 0x465C JUMPI PUSH0 DUP1 JUMPDEST DUP4 MLOAD DUP2 LT ISZERO PUSH2 0x464A JUMPI PUSH0 PUSH2 0x4607 DUP3 DUP6 PUSH2 0x375F SWAP1 SWAP2 SWAP1 PUSH4 0xFFFFFFFF AND JUMP JUMPDEST SWAP1 POP DUP1 PUSH1 0x7 PUSH0 PUSH2 0x4620 DUP6 DUP10 PUSH2 0x375F SWAP1 SWAP2 SWAP1 PUSH4 0xFFFFFFFF AND JUMP JUMPDEST DUP2 MSTORE PUSH1 0x20 ADD SWAP1 DUP2 MSTORE PUSH1 0x20 ADD PUSH0 KECCAK256 PUSH0 DUP3 DUP3 SLOAD SUB SWAP3 POP POP DUP2 SWAP1 SSTORE POP DUP1 DUP4 ADD SWAP3 POP POP DUP1 PUSH1 0x1 ADD SWAP1 POP PUSH2 0x45EA JUMP JUMPDEST POP DUP1 PUSH1 0x8 PUSH0 DUP3 DUP3 SLOAD SUB SWAP3 POP POP DUP2 SWAP1 SSTORE POP POP JUMPDEST POP POP POP POP JUMP JUMPDEST DUP1 MLOAD DUP3 MLOAD EQ PUSH2 0x46AC JUMPI DUP2 MLOAD DUP2 MLOAD PUSH1 0x40 MLOAD PUSH32 0x5B05999100000000000000000000000000000000000000000000000000000000 DUP2 MSTORE PUSH1 0x4 ADD PUSH2 0x46A3 SWAP3 SWAP2 SWAP1 PUSH2 0x6A8E JUMP JUMPDEST PUSH1 0x40 MLOAD DUP1 SWAP2 SUB SWAP1 REVERT JUMPDEST PUSH0 PUSH2 0x46B5 PUSH2 0x341E JUMP JUMPDEST SWAP1 POP PUSH0 JUMPDEST DUP4 MLOAD DUP2 LT ISZERO PUSH2 0x48B4 JUMPI PUSH0 PUSH2 0x46D6 DUP3 DUP7 PUSH2 0x375F SWAP1 SWAP2 SWAP1 PUSH4 0xFFFFFFFF AND JUMP JUMPDEST SWAP1 POP PUSH0 PUSH2 0x46EC DUP4 DUP7 PUSH2 0x375F SWAP1 SWAP2 SWAP1 PUSH4 0xFFFFFFFF AND JUMP JUMPDEST SWAP1 POP PUSH0 PUSH20 0xFFFFFFFFFFFFFFFFFFFFFFFFFFFFFFFFFFFFFFFF AND DUP9 PUSH20 0xFFFFFFFFFFFFFFFFFFFFFFFFFFFFFFFFFFFFFFFF AND EQ PUSH2 0x4811 JUMPI PUSH0 PUSH1 0x2 PUSH0 DUP5 DUP2 MSTORE PUSH1 0x20 ADD SWAP1 DUP2 MSTORE PUSH1 0x20 ADD PUSH0 KECCAK256 PUSH0 DUP11 PUSH20 0xFFFFFFFFFFFFFFFFFFFFFFFFFFFFFFFFFFFFFFFF AND PUSH20 0xFFFFFFFFFFFFFFFFFFFFFFFFFFFFFFFFFFFFFFFF AND DUP2 MSTORE PUSH1 0x20 ADD SWAP1 DUP2 MSTORE PUSH1 0x20 ADD PUSH0 KECCAK256 SLOAD SWAP1 POP DUP2 DUP2 LT ISZERO PUSH2 0x47BC JUMPI DUP9 DUP2 DUP4 DUP6 PUSH1 0x40 MLOAD PUSH32 0x3DEE4C500000000000000000000000000000000000000000000000000000000 DUP2 MSTORE PUSH1 0x4 ADD PUSH2 0x47B3 SWAP5 SWAP4 SWAP3 SWAP2 SWAP1 PUSH2 0x7550 JUMP JUMPDEST PUSH1 0x40 MLOAD DUP1 SWAP2 SUB SWAP1 REVERT JUMPDEST DUP2 DUP2 SUB PUSH1 0x2 PUSH0 DUP6 DUP2 MSTORE PUSH1 0x20 ADD SWAP1 DUP2 MSTORE PUSH1 0x20 ADD PUSH0 KECCAK256 PUSH0 DUP12 PUSH20 0xFFFFFFFFFFFFFFFFFFFFFFFFFFFFFFFFFFFFFFFF AND PUSH20 0xFFFFFFFFFFFFFFFFFFFFFFFFFFFFFFFFFFFFFFFF AND DUP2 MSTORE PUSH1 0x20 ADD SWAP1 DUP2 MSTORE PUSH1 0x20 ADD PUSH0 KECCAK256 DUP2 SWAP1 SSTORE POP POP JUMPDEST PUSH0 PUSH20 0xFFFFFFFFFFFFFFFFFFFFFFFFFFFFFFFFFFFFFFFF AND DUP8 PUSH20 0xFFFFFFFFFFFFFFFFFFFFFFFFFFFFFFFFFFFFFFFF AND EQ PUSH2 0x48A7 JUMPI DUP1 PUSH1 0x2 PUSH0 DUP5 DUP2 MSTORE PUSH1 0x20 ADD SWAP1 DUP2 MSTORE PUSH1 0x20 ADD PUSH0 KECCAK256 PUSH0 DUP10 PUSH20 0xFFFFFFFFFFFFFFFFFFFFFFFFFFFFFFFFFFFFFFFF AND PUSH20 0xFFFFFFFFFFFFFFFFFFFFFFFFFFFFFFFFFFFFFFFF AND DUP2 MSTORE PUSH1 0x20 ADD SWAP1 DUP2 MSTORE PUSH1 0x20 ADD PUSH0 KECCAK256 PUSH0 DUP3 DUP3 SLOAD PUSH2 0x489F SWAP2 SWAP1 PUSH2 0x751D JUMP JUMPDEST SWAP3 POP POP DUP2 SWAP1 SSTORE POP JUMPDEST POP POP DUP1 PUSH1 0x1 ADD SWAP1 POP PUSH2 0x46B9 JUMP JUMPDEST POP PUSH1 0x1 DUP4 MLOAD SUB PUSH2 0x496F JUMPI PUSH0 PUSH2 0x48D2 PUSH0 DUP6 PUSH2 0x375F SWAP1 SWAP2 SWAP1 PUSH4 0xFFFFFFFF AND JUMP JUMPDEST SWAP1 POP PUSH0 PUSH2 0x48E8 PUSH0 DUP6 PUSH2 0x375F SWAP1 SWAP2 SWAP1 PUSH4 0xFFFFFFFF AND JUMP JUMPDEST SWAP1 POP DUP6 PUSH20 0xFFFFFFFFFFFFFFFFFFFFFFFFFFFFFFFFFFFFFFFF AND DUP8 PUSH20 0xFFFFFFFFFFFFFFFFFFFFFFFFFFFFFFFFFFFFFFFF AND DUP5 PUSH20 0xFFFFFFFFFFFFFFFFFFFFFFFFFFFFFFFFFFFFFFFF AND PUSH32 0xC3D58168C5AE7397731D063D5BBF3D657854427343F4C083240F7AACAA2D0F62 DUP6 DUP6 PUSH1 0x40 MLOAD PUSH2 0x4960 SWAP3 SWAP2 SWAP1 PUSH2 0x6A8E JUMP JUMPDEST PUSH1 0x40 MLOAD DUP1 SWAP2 SUB SWAP1 LOG4 POP POP PUSH2 0x49EE JUMP JUMPDEST DUP4 PUSH20 0xFFFFFFFFFFFFFFFFFFFFFFFFFFFFFFFFFFFFFFFF AND DUP6 PUSH20 0xFFFFFFFFFFFFFFFFFFFFFFFFFFFFFFFFFFFFFFFF AND DUP3 PUSH20 0xFFFFFFFFFFFFFFFFFFFFFFFFFFFFFFFFFFFFFFFF AND PUSH32 0x4A39DC06D4C0DBC64B70AF90FD698A233A518AA5D07E595D983B8C0526C8F7FB DUP7 DUP7 PUSH1 0x40 MLOAD PUSH2 0x49E5 SWAP3 SWAP2 SWAP1 PUSH2 0x7593 JUMP JUMPDEST PUSH1 0x40 MLOAD DUP1 SWAP2 SUB SWAP1 LOG4 JUMPDEST POP POP POP POP POP JUMP JUMPDEST PUSH1 0x40 MLOAD DUP1 PUSH1 0x80 ADD PUSH1 0x40 MSTORE DUP1 PUSH0 DUP2 MSTORE PUSH1 0x20 ADD PUSH0 DUP2 MSTORE PUSH1 0x20 ADD PUSH1 0x60 DUP2 MSTORE PUSH1 0x20 ADD PUSH2 0x4A1B PUSH2 0x4A77 JUMP JUMPDEST DUP2 MSTORE POP SWAP1 JUMP JUMPDEST PUSH1 0x40 MLOAD DUP1 PUSH1 0x40 ADD PUSH1 0x40 MSTORE DUP1 PUSH0 DUP2 MSTORE PUSH1 0x20 ADD PUSH1 0x60 DUP2 MSTORE POP SWAP1 JUMP JUMPDEST POP DUP1 SLOAD PUSH2 0x4A46 SWAP1 PUSH2 0x62C3 JUMP JUMPDEST PUSH0 DUP3 SSTORE DUP1 PUSH1 0x1F LT PUSH2 0x4A57 JUMPI POP PUSH2 0x4A74 JUMP JUMPDEST PUSH1 0x1F ADD PUSH1 0x20 SWAP1 DIV SWAP1 PUSH0 MSTORE PUSH1 0x20 PUSH0 KECCAK256 SWAP1 DUP2 ADD SWAP1 PUSH2 0x4A73 SWAP2 SWAP1 PUSH2 0x4A92 JUMP JUMPDEST JUMPDEST POP JUMP JUMPDEST PUSH1 0x40 MLOAD DUP1 PUSH1 0x40 ADD PUSH1 0x40 MSTORE DUP1 PUSH0 DUP1 NOT AND DUP2 MSTORE PUSH1 0x20 ADD PUSH0 DUP2 MSTORE POP SWAP1 JUMP JUMPDEST JUMPDEST DUP1 DUP3 GT ISZERO PUSH2 0x4AA9 JUMPI PUSH0 DUP2 PUSH0 SWAP1 SSTORE POP PUSH1 0x1 ADD PUSH2 0x4A93 JUMP JUMPDEST POP SWAP1 JUMP JUMPDEST PUSH0 PUSH1 0x40 MLOAD SWAP1 POP SWAP1 JUMP JUMPDEST PUSH0 DUP1 REVERT JUMPDEST PUSH0 DUP1 REVERT JUMPDEST PUSH0 PUSH20 0xFFFFFFFFFFFFFFFFFFFFFFFFFFFFFFFFFFFFFFFF DUP3 AND SWAP1 POP SWAP2 SWAP1 POP JUMP JUMPDEST PUSH0 PUSH2 0x4AE7 DUP3 PUSH2 0x4ABE JUMP JUMPDEST SWAP1 POP SWAP2 SWAP1 POP JUMP JUMPDEST PUSH2 0x4AF7 DUP2 PUSH2 0x4ADD JUMP JUMPDEST DUP2 EQ PUSH2 0x4B01 JUMPI PUSH0 DUP1 REVERT JUMPDEST POP JUMP JUMPDEST PUSH0 DUP2 CALLDATALOAD SWAP1 POP PUSH2 0x4B12 DUP2 PUSH2 0x4AEE JUMP JUMPDEST SWAP3 SWAP2 POP POP JUMP JUMPDEST PUSH0 DUP2 SWAP1 POP SWAP2 SWAP1 POP JUMP JUMPDEST PUSH2 0x4B2A DUP2 PUSH2 0x4B18 JUMP JUMPDEST DUP2 EQ PUSH2 0x4B34 JUMPI PUSH0 DUP1 REVERT JUMPDEST POP JUMP JUMPDEST PUSH0 DUP2 CALLDATALOAD SWAP1 POP PUSH2 0x4B45 DUP2 PUSH2 0x4B21 JUMP JUMPDEST SWAP3 SWAP2 POP POP JUMP JUMPDEST PUSH0 DUP1 PUSH1 0x40 DUP4 DUP6 SUB SLT ISZERO PUSH2 0x4B61 JUMPI PUSH2 0x4B60 PUSH2 0x4AB6 JUMP JUMPDEST JUMPDEST PUSH0 PUSH2 0x4B6E DUP6 DUP3 DUP7 ADD PUSH2 0x4B04 JUMP JUMPDEST SWAP3 POP POP PUSH1 0x20 PUSH2 0x4B7F DUP6 DUP3 DUP7 ADD PUSH2 0x4B37 JUMP JUMPDEST SWAP2 POP POP SWAP3 POP SWAP3 SWAP1 POP JUMP JUMPDEST PUSH2 0x4B92 DUP2 PUSH2 0x4B18 JUMP JUMPDEST DUP3 MSTORE POP POP JUMP JUMPDEST PUSH0 PUSH1 0x20 DUP3 ADD SWAP1 POP PUSH2 0x4BAB PUSH0 DUP4 ADD DUP5 PUSH2 0x4B89 JUMP JUMPDEST SWAP3 SWAP2 POP POP JUMP JUMPDEST PUSH0 PUSH32 0xFFFFFFFF00000000000000000000000000000000000000000000000000000000 DUP3 AND SWAP1 POP SWAP2 SWAP1 POP JUMP JUMPDEST PUSH2 0x4BE5 DUP2 PUSH2 0x4BB1 JUMP JUMPDEST DUP2 EQ PUSH2 0x4BEF JUMPI PUSH0 DUP1 REVERT JUMPDEST POP JUMP JUMPDEST PUSH0 DUP2 CALLDATALOAD SWAP1 POP PUSH2 0x4C00 DUP2 PUSH2 0x4BDC JUMP JUMPDEST SWAP3 SWAP2 POP POP JUMP JUMPDEST PUSH0 PUSH1 0x20 DUP3 DUP5 SUB SLT ISZERO PUSH2 0x4C1B JUMPI PUSH2 0x4C1A PUSH2 0x4AB6 JUMP JUMPDEST JUMPDEST PUSH0 PUSH2 0x4C28 DUP5 DUP3 DUP6 ADD PUSH2 0x4BF2 JUMP JUMPDEST SWAP2 POP POP SWAP3 SWAP2 POP POP JUMP JUMPDEST PUSH0 DUP2 ISZERO ISZERO SWAP1 POP SWAP2 SWAP1 POP JUMP JUMPDEST PUSH2 0x4C45 DUP2 PUSH2 0x4C31 JUMP JUMPDEST DUP3 MSTORE POP POP JUMP JUMPDEST PUSH0 PUSH1 0x20 DUP3 ADD SWAP1 POP PUSH2 0x4C5E PUSH0 DUP4 ADD DUP5 PUSH2 0x4C3C JUMP JUMPDEST SWAP3 SWAP2 POP POP JUMP JUMPDEST PUSH0 DUP1 REVERT JUMPDEST PUSH0 DUP1 REVERT JUMPDEST PUSH0 PUSH1 0x1F NOT PUSH1 0x1F DUP4 ADD AND SWAP1 POP SWAP2 SWAP1 POP JUMP JUMPDEST PUSH32 0x4E487B7100000000000000000000000000000000000000000000000000000000 PUSH0 MSTORE PUSH1 0x41 PUSH1 0x4 MSTORE PUSH1 0x24 PUSH0 REVERT JUMPDEST PUSH2 0x4CB2 DUP3 PUSH2 0x4C6C JUMP JUMPDEST DUP2 ADD DUP2 DUP2 LT PUSH8 0xFFFFFFFFFFFFFFFF DUP3 GT OR ISZERO PUSH2 0x4CD1 JUMPI PUSH2 0x4CD0 PUSH2 0x4C7C JUMP JUMPDEST JUMPDEST DUP1 PUSH1 0x40 MSTORE POP POP POP JUMP JUMPDEST PUSH0 PUSH2 0x4CE3 PUSH2 0x4AAD JUMP JUMPDEST SWAP1 POP PUSH2 0x4CEF DUP3 DUP3 PUSH2 0x4CA9 JUMP JUMPDEST SWAP2 SWAP1 POP JUMP JUMPDEST PUSH0 PUSH8 0xFFFFFFFFFFFFFFFF DUP3 GT ISZERO PUSH2 0x4D0E JUMPI PUSH2 0x4D0D PUSH2 0x4C7C JUMP JUMPDEST JUMPDEST PUSH2 0x4D17 DUP3 PUSH2 0x4C6C JUMP JUMPDEST SWAP1 POP PUSH1 0x20 DUP2 ADD SWAP1 POP SWAP2 SWAP1 POP JUMP JUMPDEST DUP3 DUP2 DUP4 CALLDATACOPY PUSH0 DUP4 DUP4 ADD MSTORE POP POP POP JUMP JUMPDEST PUSH0 PUSH2 0x4D44 PUSH2 0x4D3F DUP5 PUSH2 0x4CF4 JUMP JUMPDEST PUSH2 0x4CDA JUMP JUMPDEST SWAP1 POP DUP3 DUP2 MSTORE PUSH1 0x20 DUP2 ADD DUP5 DUP5 DUP5 ADD GT ISZERO PUSH2 0x4D60 JUMPI PUSH2 0x4D5F PUSH2 0x4C68 JUMP JUMPDEST JUMPDEST PUSH2 0x4D6B DUP5 DUP3 DUP6 PUSH2 0x4D24 JUMP JUMPDEST POP SWAP4 SWAP3 POP POP POP JUMP JUMPDEST PUSH0 DUP3 PUSH1 0x1F DUP4 ADD SLT PUSH2 0x4D87 JUMPI PUSH2 0x4D86 PUSH2 0x4C64 JUMP JUMPDEST JUMPDEST DUP2 CALLDATALOAD PUSH2 0x4D97 DUP5 DUP3 PUSH1 0x20 DUP7 ADD PUSH2 0x4D32 JUMP JUMPDEST SWAP2 POP POP SWAP3 SWAP2 POP POP JUMP JUMPDEST PUSH0 PUSH1 0x20 DUP3 DUP5 SUB SLT ISZERO PUSH2 0x4DB5 JUMPI PUSH2 0x4DB4 PUSH2 0x4AB6 JUMP JUMPDEST JUMPDEST PUSH0 DUP3 ADD CALLDATALOAD PUSH8 0xFFFFFFFFFFFFFFFF DUP2 GT ISZERO PUSH2 0x4DD2 JUMPI PUSH2 0x4DD1 PUSH2 0x4ABA JUMP JUMPDEST JUMPDEST PUSH2 0x4DDE DUP5 DUP3 DUP6 ADD PUSH2 0x4D73 JUMP JUMPDEST SWAP2 POP POP SWAP3 SWAP2 POP POP JUMP JUMPDEST PUSH0 DUP2 MLOAD SWAP1 POP SWAP2 SWAP1 POP JUMP JUMPDEST PUSH0 DUP3 DUP3 MSTORE PUSH1 0x20 DUP3 ADD SWAP1 POP SWAP3 SWAP2 POP POP JUMP JUMPDEST PUSH0 JUMPDEST DUP4 DUP2 LT ISZERO PUSH2 0x4E1E JUMPI DUP1 DUP3 ADD MLOAD DUP2 DUP5 ADD MSTORE PUSH1 0x20 DUP2 ADD SWAP1 POP PUSH2 0x4E03 JUMP JUMPDEST PUSH0 DUP5 DUP5 ADD MSTORE POP POP POP POP JUMP JUMPDEST PUSH0 PUSH2 0x4E33 DUP3 PUSH2 0x4DE7 JUMP JUMPDEST PUSH2 0x4E3D DUP2 DUP6 PUSH2 0x4DF1 JUMP JUMPDEST SWAP4 POP PUSH2 0x4E4D DUP2 DUP6 PUSH1 0x20 DUP7 ADD PUSH2 0x4E01 JUMP JUMPDEST PUSH2 0x4E56 DUP2 PUSH2 0x4C6C JUMP JUMPDEST DUP5 ADD SWAP2 POP POP SWAP3 SWAP2 POP POP JUMP JUMPDEST PUSH0 PUSH1 0x20 DUP3 ADD SWAP1 POP DUP2 DUP2 SUB PUSH0 DUP4 ADD MSTORE PUSH2 0x4E79 DUP2 DUP5 PUSH2 0x4E29 JUMP JUMPDEST SWAP1 POP SWAP3 SWAP2 POP POP JUMP JUMPDEST PUSH0 PUSH1 0x20 DUP3 DUP5 SUB SLT ISZERO PUSH2 0x4E96 JUMPI PUSH2 0x4E95 PUSH2 0x4AB6 JUMP JUMPDEST JUMPDEST PUSH0 PUSH2 0x4EA3 DUP5 DUP3 DUP6 ADD PUSH2 0x4B37 JUMP JUMPDEST SWAP2 POP POP SWAP3 SWAP2 POP POP JUMP JUMPDEST PUSH0 DUP1 PUSH1 0x40 DUP4 DUP6 SUB SLT ISZERO PUSH2 0x4EC2 JUMPI PUSH2 0x4EC1 PUSH2 0x4AB6 JUMP JUMPDEST JUMPDEST PUSH0 PUSH2 0x4ECF DUP6 DUP3 DUP7 ADD PUSH2 0x4B37 JUMP JUMPDEST SWAP3 POP POP PUSH1 0x20 DUP4 ADD CALLDATALOAD PUSH8 0xFFFFFFFFFFFFFFFF DUP2 GT ISZERO PUSH2 0x4EF0 JUMPI PUSH2 0x4EEF PUSH2 0x4ABA JUMP JUMPDEST JUMPDEST PUSH2 0x4EFC DUP6 DUP3 DUP7 ADD PUSH2 0x4D73 JUMP JUMPDEST SWAP2 POP POP SWAP3 POP SWAP3 SWAP1 POP JUMP JUMPDEST PUSH0 PUSH1 0x20 DUP3 DUP5 SUB SLT ISZERO PUSH2 0x4F1B JUMPI PUSH2 0x4F1A PUSH2 0x4AB6 JUMP JUMPDEST JUMPDEST PUSH0 PUSH2 0x4F28 DUP5 DUP3 DUP6 ADD PUSH2 0x4B04 JUMP JUMPDEST SWAP2 POP POP SWAP3 SWAP2 POP POP JUMP JUMPDEST PUSH0 DUP2 MLOAD SWAP1 POP SWAP2 SWAP1 POP JUMP JUMPDEST PUSH0 DUP3 DUP3 MSTORE PUSH1 0x20 DUP3 ADD SWAP1 POP SWAP3 SWAP2 POP POP JUMP JUMPDEST PUSH0 DUP2 SWAP1 POP PUSH1 0x20 DUP3 ADD SWAP1 POP SWAP2 SWAP1 POP JUMP JUMPDEST PUSH2 0x4F63 DUP2 PUSH2 0x4B18 JUMP JUMPDEST DUP3 MSTORE POP POP JUMP JUMPDEST PUSH0 DUP3 DUP3 MSTORE PUSH1 0x20 DUP3 ADD SWAP1 POP SWAP3 SWAP2 POP POP JUMP JUMPDEST PUSH0 PUSH2 0x4F83 DUP3 PUSH2 0x4DE7 JUMP JUMPDEST PUSH2 0x4F8D DUP2 DUP6 PUSH2 0x4F69 JUMP JUMPDEST SWAP4 POP PUSH2 0x4F9D DUP2 DUP6 PUSH1 0x20 DUP7 ADD PUSH2 0x4E01 JUMP JUMPDEST PUSH2 0x4FA6 DUP2 PUSH2 0x4C6C JUMP JUMPDEST DUP5 ADD SWAP2 POP POP SWAP3 SWAP2 POP POP JUMP JUMPDEST PUSH0 DUP2 SWAP1 POP SWAP2 SWAP1 POP JUMP JUMPDEST PUSH2 0x4FC3 DUP2 PUSH2 0x4FB1 JUMP JUMPDEST DUP3 MSTORE POP POP JUMP JUMPDEST PUSH1 0x40 DUP3 ADD PUSH0 DUP3 ADD MLOAD PUSH2 0x4FDD PUSH0 DUP6 ADD DUP3 PUSH2 0x4FBA JUMP JUMPDEST POP PUSH1 0x20 DUP3 ADD MLOAD PUSH2 0x4FF0 PUSH1 0x20 DUP6 ADD DUP3 PUSH2 0x4F5A JUMP JUMPDEST POP POP POP POP JUMP JUMPDEST PUSH0 PUSH1 0xA0 DUP4 ADD PUSH0 DUP4 ADD MLOAD PUSH2 0x500B PUSH0 DUP7 ADD DUP3 PUSH2 0x4F5A JUMP JUMPDEST POP PUSH1 0x20 DUP4 ADD MLOAD PUSH2 0x501E PUSH1 0x20 DUP7 ADD DUP3 PUSH2 0x4F5A JUMP JUMPDEST POP PUSH1 0x40 DUP4 ADD MLOAD DUP5 DUP3 SUB PUSH1 0x40 DUP7 ADD MSTORE PUSH2 0x5036 DUP3 DUP3 PUSH2 0x4F79 JUMP JUMPDEST SWAP2 POP POP PUSH1 0x60 DUP4 ADD MLOAD PUSH2 0x504B PUSH1 0x60 DUP7 ADD DUP3 PUSH2 0x4FC9 JUMP JUMPDEST POP DUP1 SWAP2 POP POP SWAP3 SWAP2 POP POP JUMP JUMPDEST PUSH0 PUSH2 0x5061 DUP4 DUP4 PUSH2 0x4FF6 JUMP JUMPDEST SWAP1 POP SWAP3 SWAP2 POP POP JUMP JUMPDEST PUSH0 PUSH1 0x20 DUP3 ADD SWAP1 POP SWAP2 SWAP1 POP JUMP JUMPDEST PUSH0 PUSH2 0x507F DUP3 PUSH2 0x4F31 JUMP JUMPDEST PUSH2 0x5089 DUP2 DUP6 PUSH2 0x4F3B JUMP JUMPDEST SWAP4 POP DUP4 PUSH1 0x20 DUP3 MUL DUP6 ADD PUSH2 0x509B DUP6 PUSH2 0x4F4B JUMP JUMPDEST DUP1 PUSH0 JUMPDEST DUP6 DUP2 LT ISZERO PUSH2 0x50D6 JUMPI DUP5 DUP5 SUB DUP10 MSTORE DUP2 MLOAD PUSH2 0x50B7 DUP6 DUP3 PUSH2 0x5056 JUMP JUMPDEST SWAP5 POP PUSH2 0x50C2 DUP4 PUSH2 0x5069 JUMP JUMPDEST SWAP3 POP PUSH1 0x20 DUP11 ADD SWAP10 POP POP PUSH1 0x1 DUP2 ADD SWAP1 POP PUSH2 0x509E JUMP JUMPDEST POP DUP3 SWAP8 POP DUP8 SWAP6 POP POP POP POP POP POP SWAP3 SWAP2 POP POP JUMP JUMPDEST PUSH0 PUSH1 0x20 DUP3 ADD SWAP1 POP DUP2 DUP2 SUB PUSH0 DUP4 ADD MSTORE PUSH2 0x5100 DUP2 DUP5 PUSH2 0x5075 JUMP JUMPDEST SWAP1 POP SWAP3 SWAP2 POP POP JUMP JUMPDEST PUSH0 PUSH8 0xFFFFFFFFFFFFFFFF DUP3 GT ISZERO PUSH2 0x5122 JUMPI PUSH2 0x5121 PUSH2 0x4C7C JUMP JUMPDEST JUMPDEST PUSH1 0x20 DUP3 MUL SWAP1 POP PUSH1 0x20 DUP2 ADD SWAP1 POP SWAP2 SWAP1 POP JUMP JUMPDEST PUSH0 DUP1 REVERT JUMPDEST PUSH0 PUSH2 0x5149 PUSH2 0x5144 DUP5 PUSH2 0x5108 JUMP JUMPDEST PUSH2 0x4CDA JUMP JUMPDEST SWAP1 POP DUP1 DUP4 DUP3 MSTORE PUSH1 0x20 DUP3 ADD SWAP1 POP PUSH1 0x20 DUP5 MUL DUP4 ADD DUP6 DUP2 GT ISZERO PUSH2 0x516C JUMPI PUSH2 0x516B PUSH2 0x5133 JUMP JUMPDEST JUMPDEST DUP4 JUMPDEST DUP2 DUP2 LT ISZERO PUSH2 0x5195 JUMPI DUP1 PUSH2 0x5181 DUP9 DUP3 PUSH2 0x4B37 JUMP JUMPDEST DUP5 MSTORE PUSH1 0x20 DUP5 ADD SWAP4 POP POP PUSH1 0x20 DUP2 ADD SWAP1 POP PUSH2 0x516E JUMP JUMPDEST POP POP POP SWAP4 SWAP3 POP POP POP JUMP JUMPDEST PUSH0 DUP3 PUSH1 0x1F DUP4 ADD SLT PUSH2 0x51B3 JUMPI PUSH2 0x51B2 PUSH2 0x4C64 JUMP JUMPDEST JUMPDEST DUP2 CALLDATALOAD PUSH2 0x51C3 DUP5 DUP3 PUSH1 0x20 DUP7 ADD PUSH2 0x5137 JUMP JUMPDEST SWAP2 POP POP SWAP3 SWAP2 POP POP JUMP JUMPDEST PUSH0 PUSH8 0xFFFFFFFFFFFFFFFF DUP3 GT ISZERO PUSH2 0x51E6 JUMPI PUSH2 0x51E5 PUSH2 0x4C7C JUMP JUMPDEST JUMPDEST PUSH2 0x51EF DUP3 PUSH2 0x4C6C JUMP JUMPDEST SWAP1 POP PUSH1 0x20 DUP2 ADD SWAP1 POP SWAP2 SWAP1 POP JUMP JUMPDEST PUSH0 PUSH2 0x520E PUSH2 0x5209 DUP5 PUSH2 0x51CC JUMP JUMPDEST PUSH2 0x4CDA JUMP JUMPDEST SWAP1 POP DUP3 DUP2 MSTORE PUSH1 0x20 DUP2 ADD DUP5 DUP5 DUP5 ADD GT ISZERO PUSH2 0x522A JUMPI PUSH2 0x5229 PUSH2 0x4C68 JUMP JUMPDEST JUMPDEST PUSH2 0x5235 DUP5 DUP3 DUP6 PUSH2 0x4D24 JUMP JUMPDEST POP SWAP4 SWAP3 POP POP POP JUMP JUMPDEST PUSH0 DUP3 PUSH1 0x1F DUP4 ADD SLT PUSH2 0x5251 JUMPI PUSH2 0x5250 PUSH2 0x4C64 JUMP JUMPDEST JUMPDEST DUP2 CALLDATALOAD PUSH2 0x5261 DUP5 DUP3 PUSH1 0x20 DUP7 ADD PUSH2 0x51FC JUMP JUMPDEST SWAP2 POP POP SWAP3 SWAP2 POP POP JUMP JUMPDEST PUSH0 DUP1 PUSH0 DUP1 PUSH1 0x80 DUP6 DUP8 SUB SLT ISZERO PUSH2 0x5282 JUMPI PUSH2 0x5281 PUSH2 0x4AB6 JUMP JUMPDEST JUMPDEST PUSH0 PUSH2 0x528F DUP8 DUP3 DUP9 ADD PUSH2 0x4B04 JUMP JUMPDEST SWAP5 POP POP PUSH1 0x20 DUP6 ADD CALLDATALOAD PUSH8 0xFFFFFFFFFFFFFFFF DUP2 GT ISZERO PUSH2 0x52B0 JUMPI PUSH2 0x52AF PUSH2 0x4ABA JUMP JUMPDEST JUMPDEST PUSH2 0x52BC DUP8 DUP3 DUP9 ADD PUSH2 0x519F JUMP JUMPDEST SWAP4 POP POP PUSH1 0x40 DUP6 ADD CALLDATALOAD PUSH8 0xFFFFFFFFFFFFFFFF DUP2 GT ISZERO PUSH2 0x52DD JUMPI PUSH2 0x52DC PUSH2 0x4ABA JUMP JUMPDEST JUMPDEST PUSH2 0x52E9 DUP8 DUP3 DUP9 ADD PUSH2 0x519F JUMP JUMPDEST SWAP3 POP POP PUSH1 0x60 DUP6 ADD CALLDATALOAD PUSH8 0xFFFFFFFFFFFFFFFF DUP2 GT ISZERO PUSH2 0x530A JUMPI PUSH2 0x5309 PUSH2 0x4ABA JUMP JUMPDEST JUMPDEST PUSH2 0x5316 DUP8 DUP3 DUP9 ADD PUSH2 0x523D JUMP JUMPDEST SWAP2 POP POP SWAP3 SWAP6 SWAP2 SWAP5 POP SWAP3 POP JUMP JUMPDEST PUSH2 0x532B DUP2 PUSH2 0x4FB1 JUMP JUMPDEST DUP2 EQ PUSH2 0x5335 JUMPI PUSH0 DUP1 REVERT JUMPDEST POP JUMP JUMPDEST PUSH0 DUP2 CALLDATALOAD SWAP1 POP PUSH2 0x5346 DUP2 PUSH2 0x5322 JUMP JUMPDEST SWAP3 SWAP2 POP POP JUMP JUMPDEST PUSH0 PUSH1 0x20 DUP3 DUP5 SUB SLT ISZERO PUSH2 0x5361 JUMPI PUSH2 0x5360 PUSH2 0x4AB6 JUMP JUMPDEST JUMPDEST PUSH0 PUSH2 0x536E DUP5 DUP3 DUP6 ADD PUSH2 0x5338 JUMP JUMPDEST SWAP2 POP POP SWAP3 SWAP2 POP POP JUMP JUMPDEST PUSH2 0x5380 DUP2 PUSH2 0x4FB1 JUMP JUMPDEST DUP3 MSTORE POP POP JUMP JUMPDEST PUSH0 PUSH1 0x20 DUP3 ADD SWAP1 POP PUSH2 0x5399 PUSH0 DUP4 ADD DUP5 PUSH2 0x5377 JUMP JUMPDEST SWAP3 SWAP2 POP POP JUMP JUMPDEST PUSH0 PUSH1 0x40 DUP3 ADD SWAP1 POP PUSH2 0x53B2 PUSH0 DUP4 ADD DUP6 PUSH2 0x5377 JUMP JUMPDEST PUSH2 0x53BF PUSH1 0x20 DUP4 ADD DUP5 PUSH2 0x4B89 JUMP JUMPDEST SWAP4 SWAP3 POP POP POP JUMP JUMPDEST PUSH0 DUP1 PUSH0 DUP1 PUSH0 PUSH1 0xA0 DUP7 DUP9 SUB SLT ISZERO PUSH2 0x53DF JUMPI PUSH2 0x53DE PUSH2 0x4AB6 JUMP JUMPDEST JUMPDEST PUSH0 PUSH2 0x53EC DUP9 DUP3 DUP10 ADD PUSH2 0x4B04 JUMP JUMPDEST SWAP6 POP POP PUSH1 0x20 PUSH2 0x53FD DUP9 DUP3 DUP10 ADD PUSH2 0x4B04 JUMP JUMPDEST SWAP5 POP POP PUSH1 0x40 DUP7 ADD CALLDATALOAD PUSH8 0xFFFFFFFFFFFFFFFF DUP2 GT ISZERO PUSH2 0x541E JUMPI PUSH2 0x541D PUSH2 0x4ABA JUMP JUMPDEST JUMPDEST PUSH2 0x542A DUP9 DUP3 DUP10 ADD PUSH2 0x519F JUMP JUMPDEST SWAP4 POP POP PUSH1 0x60 DUP7 ADD CALLDATALOAD PUSH8 0xFFFFFFFFFFFFFFFF DUP2 GT ISZERO PUSH2 0x544B JUMPI PUSH2 0x544A PUSH2 0x4ABA JUMP JUMPDEST JUMPDEST PUSH2 0x5457 DUP9 DUP3 DUP10 ADD PUSH2 0x519F JUMP JUMPDEST SWAP3 POP POP PUSH1 0x80 DUP7 ADD CALLDATALOAD PUSH8 0xFFFFFFFFFFFFFFFF DUP2 GT ISZERO PUSH2 0x5478 JUMPI PUSH2 0x5477 PUSH2 0x4ABA JUMP JUMPDEST JUMPDEST PUSH2 0x5484 DUP9 DUP3 DUP10 ADD PUSH2 0x523D JUMP JUMPDEST SWAP2 POP POP SWAP3 SWAP6 POP SWAP3 SWAP6 SWAP1 SWAP4 POP JUMP JUMPDEST PUSH0 DUP1 PUSH1 0x40 DUP4 DUP6 SUB SLT ISZERO PUSH2 0x54A7 JUMPI PUSH2 0x54A6 PUSH2 0x4AB6 JUMP JUMPDEST JUMPDEST PUSH0 PUSH2 0x54B4 DUP6 DUP3 DUP7 ADD PUSH2 0x5338 JUMP JUMPDEST SWAP3 POP POP PUSH1 0x20 PUSH2 0x54C5 DUP6 DUP3 DUP7 ADD PUSH2 0x4B04 JUMP JUMPDEST SWAP2 POP POP SWAP3 POP SWAP3 SWAP1 POP JUMP JUMPDEST PUSH0 DUP1 PUSH0 PUSH1 0x60 DUP5 DUP7 SUB SLT ISZERO PUSH2 0x54E6 JUMPI PUSH2 0x54E5 PUSH2 0x4AB6 JUMP JUMPDEST JUMPDEST PUSH0 PUSH2 0x54F3 DUP7 DUP3 DUP8 ADD PUSH2 0x4B04 JUMP JUMPDEST SWAP4 POP POP PUSH1 0x20 DUP5 ADD CALLDATALOAD PUSH8 0xFFFFFFFFFFFFFFFF DUP2 GT ISZERO PUSH2 0x5514 JUMPI PUSH2 0x5513 PUSH2 0x4ABA JUMP JUMPDEST JUMPDEST PUSH2 0x5520 DUP7 DUP3 DUP8 ADD PUSH2 0x4D73 JUMP JUMPDEST SWAP3 POP POP PUSH1 0x40 PUSH2 0x5531 DUP7 DUP3 DUP8 ADD PUSH2 0x4B37 JUMP JUMPDEST SWAP2 POP POP SWAP3 POP SWAP3 POP SWAP3 JUMP JUMPDEST PUSH0 PUSH8 0xFFFFFFFFFFFFFFFF DUP3 GT ISZERO PUSH2 0x5555 JUMPI PUSH2 0x5554 PUSH2 0x4C7C JUMP JUMPDEST JUMPDEST PUSH1 0x20 DUP3 MUL SWAP1 POP PUSH1 0x20 DUP2 ADD SWAP1 POP SWAP2 SWAP1 POP JUMP JUMPDEST PUSH0 PUSH2 0x5578 PUSH2 0x5573 DUP5 PUSH2 0x553B JUMP JUMPDEST PUSH2 0x4CDA JUMP JUMPDEST SWAP1 POP DUP1 DUP4 DUP3 MSTORE PUSH1 0x20 DUP3 ADD SWAP1 POP PUSH1 0x20 DUP5 MUL DUP4 ADD DUP6 DUP2 GT ISZERO PUSH2 0x559B JUMPI PUSH2 0x559A PUSH2 0x5133 JUMP JUMPDEST JUMPDEST DUP4 JUMPDEST DUP2 DUP2 LT ISZERO PUSH2 0x55C4 JUMPI DUP1 PUSH2 0x55B0 DUP9 DUP3 PUSH2 0x4B04 JUMP JUMPDEST DUP5 MSTORE PUSH1 0x20 DUP5 ADD SWAP4 POP POP PUSH1 0x20 DUP2 ADD SWAP1 POP PUSH2 0x559D JUMP JUMPDEST POP POP POP SWAP4 SWAP3 POP POP POP JUMP JUMPDEST PUSH0 DUP3 PUSH1 0x1F DUP4 ADD SLT PUSH2 0x55E2 JUMPI PUSH2 0x55E1 PUSH2 0x4C64 JUMP JUMPDEST JUMPDEST DUP2 CALLDATALOAD PUSH2 0x55F2 DUP5 DUP3 PUSH1 0x20 DUP7 ADD PUSH2 0x5566 JUMP JUMPDEST SWAP2 POP POP SWAP3 SWAP2 POP POP JUMP JUMPDEST PUSH0 DUP1 PUSH1 0x40 DUP4 DUP6 SUB SLT ISZERO PUSH2 0x5611 JUMPI PUSH2 0x5610 PUSH2 0x4AB6 JUMP JUMPDEST JUMPDEST PUSH0 DUP4 ADD CALLDATALOAD PUSH8 0xFFFFFFFFFFFFFFFF DUP2 GT ISZERO PUSH2 0x562E JUMPI PUSH2 0x562D PUSH2 0x4ABA JUMP JUMPDEST JUMPDEST PUSH2 0x563A DUP6 DUP3 DUP7 ADD PUSH2 0x55CE JUMP JUMPDEST SWAP3 POP POP PUSH1 0x20 DUP4 ADD CALLDATALOAD PUSH8 0xFFFFFFFFFFFFFFFF DUP2 GT ISZERO PUSH2 0x565B JUMPI PUSH2 0x565A PUSH2 0x4ABA JUMP JUMPDEST JUMPDEST PUSH2 0x5667 DUP6 DUP3 DUP7 ADD PUSH2 0x519F JUMP JUMPDEST SWAP2 POP POP SWAP3 POP SWAP3 SWAP1 POP JUMP JUMPDEST PUSH0 DUP2 MLOAD SWAP1 POP SWAP2 SWAP1 POP JUMP JUMPDEST PUSH0 DUP3 DUP3 MSTORE PUSH1 0x20 DUP3 ADD SWAP1 POP SWAP3 SWAP2 POP POP JUMP JUMPDEST PUSH0 DUP2 SWAP1 POP PUSH1 0x20 DUP3 ADD SWAP1 POP SWAP2 SWAP1 POP JUMP JUMPDEST PUSH0 PUSH2 0x56A5 DUP4 DUP4 PUSH2 0x4F5A JUMP JUMPDEST PUSH1 0x20 DUP4 ADD SWAP1 POP SWAP3 SWAP2 POP POP JUMP JUMPDEST PUSH0 PUSH1 0x20 DUP3 ADD SWAP1 POP SWAP2 SWAP1 POP JUMP JUMPDEST PUSH0 PUSH2 0x56C7 DUP3 PUSH2 0x5671 JUMP JUMPDEST PUSH2 0x56D1 DUP2 DUP6 PUSH2 0x567B JUMP JUMPDEST SWAP4 POP PUSH2 0x56DC DUP4 PUSH2 0x568B JUMP JUMPDEST DUP1 PUSH0 JUMPDEST DUP4 DUP2 LT ISZERO PUSH2 0x570C JUMPI DUP2 MLOAD PUSH2 0x56F3 DUP9 DUP3 PUSH2 0x569A JUMP JUMPDEST SWAP8 POP PUSH2 0x56FE DUP4 PUSH2 0x56B1 JUMP JUMPDEST SWAP3 POP POP PUSH1 0x1 DUP2 ADD SWAP1 POP PUSH2 0x56DF JUMP JUMPDEST POP DUP6 SWAP4 POP POP POP POP SWAP3 SWAP2 POP POP JUMP JUMPDEST PUSH0 PUSH1 0x20 DUP3 ADD SWAP1 POP DUP2 DUP2 SUB PUSH0 DUP4 ADD MSTORE PUSH2 0x5731 DUP2 DUP5 PUSH2 0x56BD JUMP JUMPDEST SWAP1 POP SWAP3 SWAP2 POP POP JUMP JUMPDEST PUSH0 PUSH1 0x40 DUP4 ADD PUSH0 DUP4 ADD MLOAD PUSH2 0x574E PUSH0 DUP7 ADD DUP3 PUSH2 0x4F5A JUMP JUMPDEST POP PUSH1 0x20 DUP4 ADD MLOAD DUP5 DUP3 SUB PUSH1 0x20 DUP7 ADD MSTORE PUSH2 0x5766 DUP3 DUP3 PUSH2 0x4F79 JUMP JUMPDEST SWAP2 POP POP DUP1 SWAP2 POP POP SWAP3 SWAP2 POP POP JUMP JUMPDEST PUSH0 PUSH1 0x20 DUP3 ADD SWAP1 POP DUP2 DUP2 SUB PUSH0 DUP4 ADD MSTORE PUSH2 0x578B DUP2 DUP5 PUSH2 0x5739 JUMP JUMPDEST SWAP1 POP SWAP3 SWAP2 POP POP JUMP JUMPDEST PUSH0 DUP2 MLOAD SWAP1 POP SWAP2 SWAP1 POP JUMP JUMPDEST PUSH0 DUP3 DUP3 MSTORE PUSH1 0x20 DUP3 ADD SWAP1 POP SWAP3 SWAP2 POP POP JUMP JUMPDEST PUSH0 DUP2 SWAP1 POP PUSH1 0x20 DUP3 ADD SWAP1 POP SWAP2 SWAP1 POP JUMP JUMPDEST PUSH0 PUSH1 0x40 DUP4 ADD PUSH0 DUP4 ADD MLOAD PUSH2 0x57D1 PUSH0 DUP7 ADD DUP3 PUSH2 0x4F5A JUMP JUMPDEST POP PUSH1 0x20 DUP4 ADD MLOAD DUP5 DUP3 SUB PUSH1 0x20 DUP7 ADD MSTORE PUSH2 0x57E9 DUP3 DUP3 PUSH2 0x4F79 JUMP JUMPDEST SWAP2 POP POP DUP1 SWAP2 POP POP SWAP3 SWAP2 POP POP JUMP JUMPDEST PUSH0 PUSH2 0x5801 DUP4 DUP4 PUSH2 0x57BC JUMP JUMPDEST SWAP1 POP SWAP3 SWAP2 POP POP JUMP JUMPDEST PUSH0 PUSH1 0x20 DUP3 ADD SWAP1 POP SWAP2 SWAP1 POP JUMP JUMPDEST PUSH0 PUSH2 0x581F DUP3 PUSH2 0x5793 JUMP JUMPDEST PUSH2 0x5829 DUP2 DUP6 PUSH2 0x579D JUMP JUMPDEST SWAP4 POP DUP4 PUSH1 0x20 DUP3 MUL DUP6 ADD PUSH2 0x583B DUP6 PUSH2 0x57AD JUMP JUMPDEST DUP1 PUSH0 JUMPDEST DUP6 DUP2 LT ISZERO PUSH2 0x5876 JUMPI DUP5 DUP5 SUB DUP10 MSTORE DUP2 MLOAD PUSH2 0x5857 DUP6 DUP3 PUSH2 0x57F6 JUMP JUMPDEST SWAP5 POP PUSH2 0x5862 DUP4 PUSH2 0x5809 JUMP JUMPDEST SWAP3 POP PUSH1 0x20 DUP11 ADD SWAP10 POP POP PUSH1 0x1 DUP2 ADD SWAP1 POP PUSH2 0x583E JUMP JUMPDEST POP DUP3 SWAP8 POP DUP8 SWAP6 POP POP POP POP POP POP SWAP3 SWAP2 POP POP JUMP JUMPDEST PUSH0 PUSH1 0x20 DUP3 ADD SWAP1 POP DUP2 DUP2 SUB PUSH0 DUP4 ADD MSTORE PUSH2 0x58A0 DUP2 DUP5 PUSH2 0x5815 JUMP JUMPDEST SWAP1 POP SWAP3 SWAP2 POP POP JUMP JUMPDEST PUSH0 DUP1 PUSH0 PUSH1 0x60 DUP5 DUP7 SUB SLT ISZERO PUSH2 0x58BF JUMPI PUSH2 0x58BE PUSH2 0x4AB6 JUMP JUMPDEST JUMPDEST PUSH0 PUSH2 0x58CC DUP7 DUP3 DUP8 ADD PUSH2 0x4B04 JUMP JUMPDEST SWAP4 POP POP PUSH1 0x20 DUP5 ADD CALLDATALOAD PUSH8 0xFFFFFFFFFFFFFFFF DUP2 GT ISZERO PUSH2 0x58ED JUMPI PUSH2 0x58EC PUSH2 0x4ABA JUMP JUMPDEST JUMPDEST PUSH2 0x58F9 DUP7 DUP3 DUP8 ADD PUSH2 0x519F JUMP JUMPDEST SWAP3 POP POP PUSH1 0x40 DUP5 ADD CALLDATALOAD PUSH8 0xFFFFFFFFFFFFFFFF DUP2 GT ISZERO PUSH2 0x591A JUMPI PUSH2 0x5919 PUSH2 0x4ABA JUMP JUMPDEST JUMPDEST PUSH2 0x5926 DUP7 DUP3 DUP8 ADD PUSH2 0x519F JUMP JUMPDEST SWAP2 POP POP SWAP3 POP SWAP3 POP SWAP3 JUMP JUMPDEST PUSH0 DUP1 PUSH0 DUP1 PUSH1 0x80 DUP6 DUP8 SUB SLT ISZERO PUSH2 0x5948 JUMPI PUSH2 0x5947 PUSH2 0x4AB6 JUMP JUMPDEST JUMPDEST PUSH0 PUSH2 0x5955 DUP8 DUP3 DUP9 ADD PUSH2 0x4B04 JUMP JUMPDEST SWAP5 POP POP PUSH1 0x20 PUSH2 0x5966 DUP8 DUP3 DUP9 ADD PUSH2 0x4B37 JUMP JUMPDEST SWAP4 POP POP PUSH1 0x40 PUSH2 0x5977 DUP8 DUP3 DUP9 ADD PUSH2 0x4B37 JUMP JUMPDEST SWAP3 POP POP PUSH1 0x60 DUP6 ADD CALLDATALOAD PUSH8 0xFFFFFFFFFFFFFFFF DUP2 GT ISZERO PUSH2 0x5998 JUMPI PUSH2 0x5997 PUSH2 0x4ABA JUMP JUMPDEST JUMPDEST PUSH2 0x59A4 DUP8 DUP3 DUP9 ADD PUSH2 0x523D JUMP JUMPDEST SWAP2 POP POP SWAP3 SWAP6 SWAP2 SWAP5 POP SWAP3 POP JUMP JUMPDEST PUSH0 DUP2 MLOAD SWAP1 POP SWAP2 SWAP1 POP JUMP JUMPDEST PUSH0 DUP3 DUP3 MSTORE PUSH1 0x20 DUP3 ADD SWAP1 POP SWAP3 SWAP2 POP POP JUMP JUMPDEST PUSH0 DUP2 SWAP1 POP PUSH1 0x20 DUP3 ADD SWAP1 POP SWAP2 SWAP1 POP JUMP JUMPDEST PUSH2 0x59E2 DUP2 PUSH2 0x4ADD JUMP JUMPDEST DUP3 MSTORE POP POP JUMP JUMPDEST PUSH1 0x80 DUP3 ADD PUSH0 DUP3 ADD MLOAD PUSH2 0x59FC PUSH0 DUP6 ADD DUP3 PUSH2 0x59D9 JUMP JUMPDEST POP PUSH1 0x20 DUP3 ADD MLOAD PUSH2 0x5A0F PUSH1 0x20 DUP6 ADD DUP3 PUSH2 0x59D9 JUMP JUMPDEST POP PUSH1 0x40 DUP3 ADD MLOAD PUSH2 0x5A22 PUSH1 0x40 DUP6 ADD DUP3 PUSH2 0x4F5A JUMP JUMPDEST POP PUSH1 0x60 DUP3 ADD MLOAD PUSH2 0x5A35 PUSH1 0x60 DUP6 ADD DUP3 PUSH2 0x4F5A JUMP JUMPDEST POP POP POP POP JUMP JUMPDEST PUSH0 PUSH2 0x5A46 DUP4 DUP4 PUSH2 0x59E8 JUMP JUMPDEST PUSH1 0x80 DUP4 ADD SWAP1 POP SWAP3 SWAP2 POP POP JUMP JUMPDEST PUSH0 PUSH1 0x20 DUP3 ADD SWAP1 POP SWAP2 SWAP1 POP JUMP JUMPDEST PUSH0 PUSH2 0x5A68 DUP3 PUSH2 0x59B0 JUMP JUMPDEST PUSH2 0x5A72 DUP2 DUP6 PUSH2 0x59BA JUMP JUMPDEST SWAP4 POP PUSH2 0x5A7D DUP4 PUSH2 0x59CA JUMP JUMPDEST DUP1 PUSH0 JUMPDEST DUP4 DUP2 LT ISZERO PUSH2 0x5AAD JUMPI DUP2 MLOAD PUSH2 0x5A94 DUP9 DUP3 PUSH2 0x5A3B JUMP JUMPDEST SWAP8 POP PUSH2 0x5A9F DUP4 PUSH2 0x5A52 JUMP JUMPDEST SWAP3 POP POP PUSH1 0x1 DUP2 ADD SWAP1 POP PUSH2 0x5A80 JUMP JUMPDEST POP DUP6 SWAP4 POP POP POP POP SWAP3 SWAP2 POP POP JUMP JUMPDEST PUSH0 PUSH1 0x20 DUP3 ADD SWAP1 POP DUP2 DUP2 SUB PUSH0 DUP4 ADD MSTORE PUSH2 0x5AD2 DUP2 DUP5 PUSH2 0x5A5E JUMP JUMPDEST SWAP1 POP SWAP3 SWAP2 POP POP JUMP JUMPDEST PUSH2 0x5AE3 DUP2 PUSH2 0x4C31 JUMP JUMPDEST DUP2 EQ PUSH2 0x5AED JUMPI PUSH0 DUP1 REVERT JUMPDEST POP JUMP JUMPDEST PUSH0 DUP2 CALLDATALOAD SWAP1 POP PUSH2 0x5AFE DUP2 PUSH2 0x5ADA JUMP JUMPDEST SWAP3 SWAP2 POP POP JUMP JUMPDEST PUSH0 DUP1 PUSH1 0x40 DUP4 DUP6 SUB SLT ISZERO PUSH2 0x5B1A JUMPI PUSH2 0x5B19 PUSH2 0x4AB6 JUMP JUMPDEST JUMPDEST PUSH0 PUSH2 0x5B27 DUP6 DUP3 DUP7 ADD PUSH2 0x4B04 JUMP JUMPDEST SWAP3 POP POP PUSH1 0x20 PUSH2 0x5B38 DUP6 DUP3 DUP7 ADD PUSH2 0x5AF0 JUMP JUMPDEST SWAP2 POP POP SWAP3 POP SWAP3 SWAP1 POP JUMP JUMPDEST PUSH0 DUP1 REVERT JUMPDEST PUSH0 DUP1 DUP4 PUSH1 0x1F DUP5 ADD SLT PUSH2 0x5B5B JUMPI PUSH2 0x5B5A PUSH2 0x4C64 JUMP JUMPDEST JUMPDEST DUP3 CALLDATALOAD SWAP1 POP PUSH8 0xFFFFFFFFFFFFFFFF DUP2 GT ISZERO PUSH2 0x5B78 JUMPI PUSH2 0x5B77 PUSH2 0x5B42 JUMP JUMPDEST JUMPDEST PUSH1 0x20 DUP4 ADD SWAP2 POP DUP4 PUSH1 0x20 DUP3 MUL DUP4 ADD GT ISZERO PUSH2 0x5B94 JUMPI PUSH2 0x5B93 PUSH2 0x5133 JUMP JUMPDEST JUMPDEST SWAP3 POP SWAP3 SWAP1 POP JUMP JUMPDEST PUSH0 DUP1 DUP4 PUSH1 0x1F DUP5 ADD SLT PUSH2 0x5BB0 JUMPI PUSH2 0x5BAF PUSH2 0x4C64 JUMP JUMPDEST JUMPDEST DUP3 CALLDATALOAD SWAP1 POP PUSH8 0xFFFFFFFFFFFFFFFF DUP2 GT ISZERO PUSH2 0x5BCD JUMPI PUSH2 0x5BCC PUSH2 0x5B42 JUMP JUMPDEST JUMPDEST PUSH1 0x20 DUP4 ADD SWAP2 POP DUP4 PUSH1 0x1 DUP3 MUL DUP4 ADD GT ISZERO PUSH2 0x5BE9 JUMPI PUSH2 0x5BE8 PUSH2 0x5133 JUMP JUMPDEST JUMPDEST SWAP3 POP SWAP3 SWAP1 POP JUMP JUMPDEST PUSH0 DUP1 PUSH0 DUP1 PUSH0 DUP1 PUSH0 DUP1 PUSH1 0xA0 DUP10 DUP12 SUB SLT ISZERO PUSH2 0x5C0C JUMPI PUSH2 0x5C0B PUSH2 0x4AB6 JUMP JUMPDEST JUMPDEST PUSH0 PUSH2 0x5C19 DUP12 DUP3 DUP13 ADD PUSH2 0x4B04 JUMP JUMPDEST SWAP9 POP POP PUSH1 0x20 PUSH2 0x5C2A DUP12 DUP3 DUP13 ADD PUSH2 0x4B04 JUMP JUMPDEST SWAP8 POP POP PUSH1 0x40 DUP10 ADD CALLDATALOAD PUSH8 0xFFFFFFFFFFFFFFFF DUP2 GT ISZERO PUSH2 0x5C4B JUMPI PUSH2 0x5C4A PUSH2 0x4ABA JUMP JUMPDEST JUMPDEST PUSH2 0x5C57 DUP12 DUP3 DUP13 ADD PUSH2 0x5B46 JUMP JUMPDEST SWAP7 POP SWAP7 POP POP PUSH1 0x60 DUP10 ADD CALLDATALOAD PUSH8 0xFFFFFFFFFFFFFFFF DUP2 GT ISZERO PUSH2 0x5C7A JUMPI PUSH2 0x5C79 PUSH2 0x4ABA JUMP JUMPDEST JUMPDEST PUSH2 0x5C86 DUP12 DUP3 DUP13 ADD PUSH2 0x5B46 JUMP JUMPDEST SWAP5 POP SWAP5 POP POP PUSH1 0x80 DUP10 ADD CALLDATALOAD PUSH8 0xFFFFFFFFFFFFFFFF DUP2 GT ISZERO PUSH2 0x5CA9 JUMPI PUSH2 0x5CA8 PUSH2 0x4ABA JUMP JUMPDEST JUMPDEST PUSH2 0x5CB5 DUP12 DUP3 DUP13 ADD PUSH2 0x5B9B JUMP JUMPDEST SWAP3 POP SWAP3 POP POP SWAP3 SWAP6 SWAP9 POP SWAP3 SWAP6 SWAP9 SWAP1 SWAP4 SWAP7 POP JUMP JUMPDEST PUSH2 0x5CD0 DUP2 PUSH2 0x4BB1 JUMP JUMPDEST DUP3 MSTORE POP POP JUMP JUMPDEST PUSH0 PUSH1 0x20 DUP3 ADD SWAP1 POP PUSH2 0x5CE9 PUSH0 DUP4 ADD DUP5 PUSH2 0x5CC7 JUMP JUMPDEST SWAP3 SWAP2 POP POP JUMP JUMPDEST PUSH0 DUP1 PUSH0 DUP1 PUSH1 0x80 DUP6 DUP8 SUB SLT ISZERO PUSH2 0x5D07 JUMPI PUSH2 0x5D06 PUSH2 0x4AB6 JUMP JUMPDEST JUMPDEST PUSH0 DUP6 ADD CALLDATALOAD PUSH8 0xFFFFFFFFFFFFFFFF DUP2 GT ISZERO PUSH2 0x5D24 JUMPI PUSH2 0x5D23 PUSH2 0x4ABA JUMP JUMPDEST JUMPDEST PUSH2 0x5D30 DUP8 DUP3 DUP9 ADD PUSH2 0x4D73 JUMP JUMPDEST SWAP5 POP POP PUSH1 0x20 PUSH2 0x5D41 DUP8 DUP3 DUP9 ADD PUSH2 0x4B37 JUMP JUMPDEST SWAP4 POP POP PUSH1 0x40 PUSH2 0x5D52 DUP8 DUP3 DUP9 ADD PUSH2 0x5338 JUMP JUMPDEST SWAP3 POP POP PUSH1 0x60 DUP6 ADD CALLDATALOAD PUSH8 0xFFFFFFFFFFFFFFFF DUP2 GT ISZERO PUSH2 0x5D73 JUMPI PUSH2 0x5D72 PUSH2 0x4ABA JUMP JUMPDEST JUMPDEST PUSH2 0x5D7F DUP8 DUP3 DUP9 ADD PUSH2 0x4D73 JUMP JUMPDEST SWAP2 POP POP SWAP3 SWAP6 SWAP2 SWAP5 POP SWAP3 POP JUMP JUMPDEST PUSH0 DUP2 MLOAD SWAP1 POP SWAP2 SWAP1 POP JUMP JUMPDEST PUSH0 DUP3 DUP3 MSTORE PUSH1 0x20 DUP3 ADD SWAP1 POP SWAP3 SWAP2 POP POP JUMP JUMPDEST PUSH0 DUP2 SWAP1 POP PUSH1 0x20 DUP3 ADD SWAP1 POP SWAP2 SWAP1 POP JUMP JUMPDEST PUSH0 PUSH2 0x5DBF DUP4 DUP4 PUSH2 0x4FC9 JUMP JUMPDEST PUSH1 0x40 DUP4 ADD SWAP1 POP SWAP3 SWAP2 POP POP JUMP JUMPDEST PUSH0 PUSH1 0x20 DUP3 ADD SWAP1 POP SWAP2 SWAP1 POP JUMP JUMPDEST PUSH0 PUSH2 0x5DE1 DUP3 PUSH2 0x5D8B JUMP JUMPDEST PUSH2 0x5DEB DUP2 DUP6 PUSH2 0x5D95 JUMP JUMPDEST SWAP4 POP PUSH2 0x5DF6 DUP4 PUSH2 0x5DA5 JUMP JUMPDEST DUP1 PUSH0 JUMPDEST DUP4 DUP2 LT ISZERO PUSH2 0x5E26 JUMPI DUP2 MLOAD PUSH2 0x5E0D DUP9 DUP3 PUSH2 0x5DB4 JUMP JUMPDEST SWAP8 POP PUSH2 0x5E18 DUP4 PUSH2 0x5DCB JUMP JUMPDEST SWAP3 POP POP PUSH1 0x1 DUP2 ADD SWAP1 POP PUSH2 0x5DF9 JUMP JUMPDEST POP DUP6 SWAP4 POP POP POP POP SWAP3 SWAP2 POP POP JUMP JUMPDEST PUSH0 PUSH1 0x20 DUP3 ADD SWAP1 POP DUP2 DUP2 SUB PUSH0 DUP4 ADD MSTORE PUSH2 0x5E4B DUP2 DUP5 PUSH2 0x5DD7 JUMP JUMPDEST SWAP1 POP SWAP3 SWAP2 POP POP JUMP JUMPDEST PUSH0 DUP2 MLOAD SWAP1 POP SWAP2 SWAP1 POP JUMP JUMPDEST PUSH0 DUP3 DUP3 MSTORE PUSH1 0x20 DUP3 ADD SWAP1 POP SWAP3 SWAP2 POP POP JUMP JUMPDEST PUSH0 DUP2 SWAP1 POP PUSH1 0x20 DUP3 ADD SWAP1 POP SWAP2 SWAP1 POP JUMP JUMPDEST PUSH0 PUSH2 0x5E87 DUP4 DUP4 PUSH2 0x4F79 JUMP JUMPDEST SWAP1 POP SWAP3 SWAP2 POP POP JUMP JUMPDEST PUSH0 PUSH1 0x20 DUP3 ADD SWAP1 POP SWAP2 SWAP1 POP JUMP JUMPDEST PUSH0 PUSH2 0x5EA5 DUP3 PUSH2 0x5E53 JUMP JUMPDEST PUSH2 0x5EAF DUP2 DUP6 PUSH2 0x5E5D JUMP JUMPDEST SWAP4 POP DUP4 PUSH1 0x20 DUP3 MUL DUP6 ADD PUSH2 0x5EC1 DUP6 PUSH2 0x5E6D JUMP JUMPDEST DUP1 PUSH0 JUMPDEST DUP6 DUP2 LT ISZERO PUSH2 0x5EFC JUMPI DUP5 DUP5 SUB DUP10 MSTORE DUP2 MLOAD PUSH2 0x5EDD DUP6 DUP3 PUSH2 0x5E7C JUMP JUMPDEST SWAP5 POP PUSH2 0x5EE8 DUP4 PUSH2 0x5E8F JUMP JUMPDEST SWAP3 POP PUSH1 0x20 DUP11 ADD SWAP10 POP POP PUSH1 0x1 DUP2 ADD SWAP1 POP PUSH2 0x5EC4 JUMP JUMPDEST POP DUP3 SWAP8 POP DUP8 SWAP6 POP POP POP POP POP POP SWAP3 SWAP2 POP POP JUMP JUMPDEST PUSH0 PUSH1 0x20 DUP3 ADD SWAP1 POP DUP2 DUP2 SUB PUSH0 DUP4 ADD MSTORE PUSH2 0x5F26 DUP2 DUP5 PUSH2 0x5E9B JUMP JUMPDEST SWAP1 POP SWAP3 SWAP2 POP POP JUMP JUMPDEST PUSH0 DUP1 PUSH1 0x40 DUP4 DUP6 SUB SLT ISZERO PUSH2 0x5F44 JUMPI PUSH2 0x5F43 PUSH2 0x4AB6 JUMP JUMPDEST JUMPDEST PUSH0 PUSH2 0x5F51 DUP6 DUP3 DUP7 ADD PUSH2 0x4B37 JUMP JUMPDEST SWAP3 POP POP PUSH1 0x20 PUSH2 0x5F62 DUP6 DUP3 DUP7 ADD PUSH2 0x4B37 JUMP JUMPDEST SWAP2 POP POP SWAP3 POP SWAP3 SWAP1 POP JUMP JUMPDEST PUSH2 0x5F75 DUP2 PUSH2 0x4ADD JUMP JUMPDEST DUP3 MSTORE POP POP JUMP JUMPDEST PUSH0 PUSH1 0x80 DUP3 ADD SWAP1 POP PUSH2 0x5F8E PUSH0 DUP4 ADD DUP8 PUSH2 0x5F6C JUMP JUMPDEST PUSH2 0x5F9B PUSH1 0x20 DUP4 ADD DUP7 PUSH2 0x5F6C JUMP JUMPDEST PUSH2 0x5FA8 PUSH1 0x40 DUP4 ADD DUP6 PUSH2 0x4B89 JUMP JUMPDEST PUSH2 0x5FB5 PUSH1 0x60 DUP4 ADD DUP5 PUSH2 0x4B89 JUMP JUMPDEST SWAP6 SWAP5 POP POP POP POP POP JUMP JUMPDEST PUSH1 0x40 DUP3 ADD PUSH0 DUP3 ADD MLOAD PUSH2 0x5FD2 PUSH0 DUP6 ADD DUP3 PUSH2 0x4FBA JUMP JUMPDEST POP PUSH1 0x20 DUP3 ADD MLOAD PUSH2 0x5FE5 PUSH1 0x20 DUP6 ADD DUP3 PUSH2 0x4F5A JUMP JUMPDEST POP POP POP POP JUMP JUMPDEST PUSH0 PUSH1 0x40 DUP3 ADD SWAP1 POP PUSH2 0x5FFE PUSH0 DUP4 ADD DUP5 PUSH2 0x5FBE JUMP JUMPDEST SWAP3 SWAP2 POP POP JUMP JUMPDEST PUSH0 DUP1 PUSH0 DUP1 PUSH1 0x80 DUP6 DUP8 SUB SLT ISZERO PUSH2 0x601C JUMPI PUSH2 0x601B PUSH2 0x4AB6 JUMP JUMPDEST JUMPDEST PUSH0 PUSH2 0x6029 DUP8 DUP3 DUP9 ADD PUSH2 0x4B04 JUMP JUMPDEST SWAP5 POP POP PUSH1 0x20 PUSH2 0x603A DUP8 DUP3 DUP9 ADD PUSH2 0x4B04 JUMP JUMPDEST SWAP4 POP POP PUSH1 0x40 PUSH2 0x604B DUP8 DUP3 DUP9 ADD PUSH2 0x4B37 JUMP JUMPDEST SWAP3 POP POP PUSH1 0x60 DUP6 ADD CALLDATALOAD PUSH8 0xFFFFFFFFFFFFFFFF DUP2 GT ISZERO PUSH2 0x606C JUMPI PUSH2 0x606B PUSH2 0x4ABA JUMP JUMPDEST JUMPDEST PUSH2 0x6078 DUP8 DUP3 DUP9 ADD PUSH2 0x4D73 JUMP JUMPDEST SWAP2 POP POP SWAP3 SWAP6 SWAP2 SWAP5 POP SWAP3 POP JUMP JUMPDEST PUSH0 DUP1 PUSH1 0x40 DUP4 DUP6 SUB SLT ISZERO PUSH2 0x609A JUMPI PUSH2 0x6099 PUSH2 0x4AB6 JUMP JUMPDEST JUMPDEST PUSH0 PUSH2 0x60A7 DUP6 DUP3 DUP7 ADD PUSH2 0x4B04 JUMP JUMPDEST SWAP3 POP POP PUSH1 0x20 PUSH2 0x60B8 DUP6 DUP3 DUP7 ADD PUSH2 0x4B04 JUMP JUMPDEST SWAP2 POP POP SWAP3 POP SWAP3 SWAP1 POP JUMP JUMPDEST PUSH0 DUP1 PUSH0 DUP1 PUSH0 DUP1 PUSH1 0xA0 DUP8 DUP10 SUB SLT ISZERO PUSH2 0x60DC JUMPI PUSH2 0x60DB PUSH2 0x4AB6 JUMP JUMPDEST JUMPDEST PUSH0 PUSH2 0x60E9 DUP10 DUP3 DUP11 ADD PUSH2 0x4B04 JUMP JUMPDEST SWAP7 POP POP PUSH1 0x20 PUSH2 0x60FA DUP10 DUP3 DUP11 ADD PUSH2 0x4B04 JUMP JUMPDEST SWAP6 POP POP PUSH1 0x40 PUSH2 0x610B DUP10 DUP3 DUP11 ADD PUSH2 0x4B37 JUMP JUMPDEST SWAP5 POP POP PUSH1 0x60 PUSH2 0x611C DUP10 DUP3 DUP11 ADD PUSH2 0x4B37 JUMP JUMPDEST SWAP4 POP POP PUSH1 0x80 DUP8 ADD CALLDATALOAD PUSH8 0xFFFFFFFFFFFFFFFF DUP2 GT ISZERO PUSH2 0x613D JUMPI PUSH2 0x613C PUSH2 0x4ABA JUMP JUMPDEST JUMPDEST PUSH2 0x6149 DUP10 DUP3 DUP11 ADD PUSH2 0x5B9B JUMP JUMPDEST SWAP3 POP SWAP3 POP POP SWAP3 SWAP6 POP SWAP3 SWAP6 POP SWAP3 SWAP6 JUMP JUMPDEST PUSH0 DUP1 PUSH0 DUP1 PUSH0 PUSH1 0xA0 DUP7 DUP9 SUB SLT ISZERO PUSH2 0x6171 JUMPI PUSH2 0x6170 PUSH2 0x4AB6 JUMP JUMPDEST JUMPDEST PUSH0 PUSH2 0x617E DUP9 DUP3 DUP10 ADD PUSH2 0x4B04 JUMP JUMPDEST SWAP6 POP POP PUSH1 0x20 PUSH2 0x618F DUP9 DUP3 DUP10 ADD PUSH2 0x4B04 JUMP JUMPDEST SWAP5 POP POP PUSH1 0x40 PUSH2 0x61A0 DUP9 DUP3 DUP10 ADD PUSH2 0x4B37 JUMP JUMPDEST SWAP4 POP POP PUSH1 0x60 PUSH2 0x61B1 DUP9 DUP3 DUP10 ADD PUSH2 0x4B37 JUMP JUMPDEST SWAP3 POP POP PUSH1 0x80 DUP7 ADD CALLDATALOAD PUSH8 0xFFFFFFFFFFFFFFFF DUP2 GT ISZERO PUSH2 0x61D2 JUMPI PUSH2 0x61D1 PUSH2 0x4ABA JUMP JUMPDEST JUMPDEST PUSH2 0x61DE DUP9 DUP3 DUP10 ADD PUSH2 0x523D JUMP JUMPDEST SWAP2 POP POP SWAP3 SWAP6 POP SWAP3 SWAP6 SWAP1 SWAP4 POP JUMP JUMPDEST PUSH0 DUP1 PUSH0 PUSH1 0x60 DUP5 DUP7 SUB SLT ISZERO PUSH2 0x6202 JUMPI PUSH2 0x6201 PUSH2 0x4AB6 JUMP JUMPDEST JUMPDEST PUSH0 PUSH2 0x620F DUP7 DUP3 DUP8 ADD PUSH2 0x4B04 JUMP JUMPDEST SWAP4 POP POP PUSH1 0x20 PUSH2 0x6220 DUP7 DUP3 DUP8 ADD PUSH2 0x4B37 JUMP JUMPDEST SWAP3 POP POP PUSH1 0x40 PUSH2 0x6231 DUP7 DUP3 DUP8 ADD PUSH2 0x4B37 JUMP JUMPDEST SWAP2 POP POP SWAP3 POP SWAP3 POP SWAP3 JUMP JUMPDEST PUSH0 PUSH1 0x40 DUP3 ADD SWAP1 POP PUSH2 0x624E PUSH0 DUP4 ADD DUP6 PUSH2 0x4B89 JUMP JUMPDEST DUP2 DUP2 SUB PUSH1 0x20 DUP4 ADD MSTORE PUSH2 0x6260 DUP2 DUP5 PUSH2 0x4E29 JUMP JUMPDEST SWAP1 POP SWAP4 SWAP3 POP POP POP JUMP JUMPDEST PUSH32 0x4E487B7100000000000000000000000000000000000000000000000000000000 PUSH0 MSTORE PUSH1 0x32 PUSH1 0x4 MSTORE PUSH1 0x24 PUSH0 REVERT JUMPDEST PUSH32 0x4E487B7100000000000000000000000000000000000000000000000000000000 PUSH0 MSTORE PUSH1 0x22 PUSH1 0x4 MSTORE PUSH1 0x24 PUSH0 REVERT JUMPDEST PUSH0 PUSH1 0x2 DUP3 DIV SWAP1 POP PUSH1 0x1 DUP3 AND DUP1 PUSH2 0x62DA JUMPI PUSH1 0x7F DUP3 AND SWAP2 POP JUMPDEST PUSH1 0x20 DUP3 LT DUP2 SUB PUSH2 0x62ED JUMPI PUSH2 0x62EC PUSH2 0x6296 JUMP JUMPDEST JUMPDEST POP SWAP2 SWAP1 POP JUMP JUMPDEST PUSH0 DUP2 SWAP1 POP SWAP3 SWAP2 POP POP JUMP JUMPDEST PUSH0 DUP2 SWAP1 POP DUP2 PUSH0 MSTORE PUSH1 0x20 PUSH0 KECCAK256 SWAP1 POP SWAP2 SWAP1 POP JUMP JUMPDEST PUSH0 DUP2 SLOAD PUSH2 0x631B DUP2 PUSH2 0x62C3 JUMP JUMPDEST PUSH2 0x6325 DUP2 DUP7 PUSH2 0x62F3 JUMP JUMPDEST SWAP5 POP PUSH1 0x1 DUP3 AND PUSH0 DUP2 EQ PUSH2 0x633F JUMPI PUSH1 0x1 DUP2 EQ PUSH2 0x6354 JUMPI PUSH2 0x6386 JUMP JUMPDEST PUSH1 0xFF NOT DUP4 AND DUP7 MSTORE DUP2 ISZERO ISZERO DUP3 MUL DUP7 ADD SWAP4 POP PUSH2 0x6386 JUMP JUMPDEST PUSH2 0x635D DUP6 PUSH2 0x62FD JUMP JUMPDEST PUSH0 JUMPDEST DUP4 DUP2 LT ISZERO PUSH2 0x637E JUMPI DUP2 SLOAD DUP2 DUP10 ADD MSTORE PUSH1 0x1 DUP3 ADD SWAP2 POP PUSH1 0x20 DUP2 ADD SWAP1 POP PUSH2 0x635F JUMP JUMPDEST DUP4 DUP9 ADD SWAP6 POP POP POP JUMPDEST POP POP POP SWAP3 SWAP2 POP POP JUMP JUMPDEST PUSH0 PUSH2 0x639A DUP3 DUP5 PUSH2 0x630F JUMP JUMPDEST SWAP2 POP DUP2 SWAP1 POP SWAP3 SWAP2 POP POP JUMP JUMPDEST PUSH32 0x53686172656431313535546F6B656E3A204475706C6963617465207375666669 PUSH0 DUP3 ADD MSTORE PUSH32 0x7820646574656374656400000000000000000000000000000000000000000000 PUSH1 0x20 DUP3 ADD MSTORE POP JUMP JUMPDEST PUSH0 PUSH2 0x63FF PUSH1 0x2A DUP4 PUSH2 0x4DF1 JUMP JUMPDEST SWAP2 POP PUSH2 0x640A DUP3 PUSH2 0x63A5 JUMP JUMPDEST PUSH1 0x40 DUP3 ADD SWAP1 POP SWAP2 SWAP1 POP JUMP JUMPDEST PUSH0 PUSH1 0x20 DUP3 ADD SWAP1 POP DUP2 DUP2 SUB PUSH0 DUP4 ADD MSTORE PUSH2 0x642C DUP2 PUSH2 0x63F3 JUMP JUMPDEST SWAP1 POP SWAP2 SWAP1 POP JUMP JUMPDEST PUSH0 DUP2 SWAP1 POP DUP2 PUSH0 MSTORE PUSH1 0x20 PUSH0 KECCAK256 SWAP1 POP SWAP2 SWAP1 POP JUMP JUMPDEST PUSH0 PUSH1 0x20 PUSH1 0x1F DUP4 ADD DIV SWAP1 POP SWAP2 SWAP1 POP JUMP JUMPDEST PUSH0 DUP3 DUP3 SHL SWAP1 POP SWAP3 SWAP2 POP POP JUMP JUMPDEST PUSH0 PUSH1 0x8 DUP4 MUL PUSH2 0x648F PUSH32 0xFFFFFFFFFFFFFFFFFFFFFFFFFFFFFFFFFFFFFFFFFFFFFFFFFFFFFFFFFFFFFFFF DUP3 PUSH2 0x6454 JUMP JUMPDEST PUSH2 0x6499 DUP7 DUP4 PUSH2 0x6454 JUMP JUMPDEST SWAP6 POP DUP1 NOT DUP5 AND SWAP4 POP DUP1 DUP7 AND DUP5 OR SWAP3 POP POP POP SWAP4 SWAP3 POP POP POP JUMP JUMPDEST PUSH0 DUP2 SWAP1 POP SWAP2 SWAP1 POP JUMP JUMPDEST PUSH0 PUSH2 0x64D4 PUSH2 0x64CF PUSH2 0x64CA DUP5 PUSH2 0x4B18 JUMP JUMPDEST PUSH2 0x64B1 JUMP JUMPDEST PUSH2 0x4B18 JUMP JUMPDEST SWAP1 POP SWAP2 SWAP1 POP JUMP JUMPDEST PUSH0 DUP2 SWAP1 POP SWAP2 SWAP1 POP JUMP JUMPDEST PUSH2 0x64ED DUP4 PUSH2 0x64BA JUMP JUMPDEST PUSH2 0x6501 PUSH2 0x64F9 DUP3 PUSH2 0x64DB JUMP JUMPDEST DUP5 DUP5 SLOAD PUSH2 0x6460 JUMP JUMPDEST DUP3 SSTORE POP POP POP POP JUMP JUMPDEST PUSH0 SWAP1 JUMP JUMPDEST PUSH2 0x6515 PUSH2 0x6509 JUMP JUMPDEST PUSH2 0x6520 DUP2 DUP5 DUP5 PUSH2 0x64E4 JUMP JUMPDEST POP POP POP JUMP JUMPDEST JUMPDEST DUP2 DUP2 LT ISZERO PUSH2 0x6543 JUMPI PUSH2 0x6538 PUSH0 DUP3 PUSH2 0x650D JUMP JUMPDEST PUSH1 0x1 DUP2 ADD SWAP1 POP PUSH2 0x6526 JUMP JUMPDEST POP POP JUMP JUMPDEST PUSH1 0x1F DUP3 GT ISZERO PUSH2 0x6588 JUMPI PUSH2 0x6559 DUP2 PUSH2 0x6433 JUMP JUMPDEST PUSH2 0x6562 DUP5 PUSH2 0x6445 JUMP JUMPDEST DUP2 ADD PUSH1 0x20 DUP6 LT ISZERO PUSH2 0x6571 JUMPI DUP2 SWAP1 POP JUMPDEST PUSH2 0x6585 PUSH2 0x657D DUP6 PUSH2 0x6445 JUMP JUMPDEST DUP4 ADD DUP3 PUSH2 0x6525 JUMP JUMPDEST POP POP JUMPDEST POP POP POP JUMP JUMPDEST PUSH0 DUP3 DUP3 SHR SWAP1 POP SWAP3 SWAP2 POP POP JUMP JUMPDEST PUSH0 PUSH2 0x65A8 PUSH0 NOT DUP5 PUSH1 0x8 MUL PUSH2 0x658D JUMP JUMPDEST NOT DUP1 DUP4 AND SWAP2 POP POP SWAP3 SWAP2 POP POP JUMP JUMPDEST PUSH0 PUSH2 0x65C0 DUP4 DUP4 PUSH2 0x6599 JUMP JUMPDEST SWAP2 POP DUP3 PUSH1 0x2 MUL DUP3 OR SWAP1 POP SWAP3 SWAP2 POP POP JUMP JUMPDEST PUSH2 0x65D9 DUP3 PUSH2 0x4DE7 JUMP JUMPDEST PUSH8 0xFFFFFFFFFFFFFFFF DUP2 GT ISZERO PUSH2 0x65F2 JUMPI PUSH2 0x65F1 PUSH2 0x4C7C JUMP JUMPDEST JUMPDEST PUSH2 0x65FC DUP3 SLOAD PUSH2 0x62C3 JUMP JUMPDEST PUSH2 0x6607 DUP3 DUP3 DUP6 PUSH2 0x6547 JUMP JUMPDEST PUSH0 PUSH1 0x20 SWAP1 POP PUSH1 0x1F DUP4 GT PUSH1 0x1 DUP2 EQ PUSH2 0x6638 JUMPI PUSH0 DUP5 ISZERO PUSH2 0x6626 JUMPI DUP3 DUP8 ADD MLOAD SWAP1 POP JUMPDEST PUSH2 0x6630 DUP6 DUP3 PUSH2 0x65B5 JUMP JUMPDEST DUP7 SSTORE POP PUSH2 0x6697 JUMP JUMPDEST PUSH1 0x1F NOT DUP5 AND PUSH2 0x6646 DUP7 PUSH2 0x6433 JUMP JUMPDEST PUSH0 JUMPDEST DUP3 DUP2 LT ISZERO PUSH2 0x666D JUMPI DUP5 DUP10 ADD MLOAD DUP3 SSTORE PUSH1 0x1 DUP3 ADD SWAP2 POP PUSH1 0x20 DUP6 ADD SWAP5 POP PUSH1 0x20 DUP2 ADD SWAP1 POP PUSH2 0x6648 JUMP JUMPDEST DUP7 DUP4 LT ISZERO PUSH2 0x668A JUMPI DUP5 DUP10 ADD MLOAD PUSH2 0x6686 PUSH1 0x1F DUP10 AND DUP3 PUSH2 0x6599 JUMP JUMPDEST DUP4 SSTORE POP JUMPDEST PUSH1 0x1 PUSH1 0x2 DUP9 MUL ADD DUP9 SSTORE POP POP POP JUMPDEST POP POP POP POP POP POP JUMP JUMPDEST PUSH32 0x53686172656431313535546F6B656E3A2055524920736574206F66206E6F6E65 PUSH0 DUP3 ADD MSTORE PUSH32 0x78697374656E7420746F6B656E00000000000000000000000000000000000000 PUSH1 0x20 DUP3 ADD MSTORE POP JUMP JUMPDEST PUSH0 PUSH2 0x66F9 PUSH1 0x2D DUP4 PUSH2 0x4DF1 JUMP JUMPDEST SWAP2 POP PUSH2 0x6704 DUP3 PUSH2 0x669F JUMP JUMPDEST PUSH1 0x40 DUP3 ADD SWAP1 POP SWAP2 SWAP1 POP JUMP JUMPDEST PUSH0 PUSH1 0x20 DUP3 ADD SWAP1 POP DUP2 DUP2 SUB PUSH0 DUP4 ADD MSTORE PUSH2 0x6726 DUP2 PUSH2 0x66ED JUMP JUMPDEST SWAP1 POP SWAP2 SWAP1 POP JUMP JUMPDEST PUSH32 0x53686172656431313535546F6B656E3A20496E76616C6964206163636F756E74 PUSH0 DUP3 ADD MSTORE PUSH32 0x2061646472657373000000000000000000000000000000000000000000000000 PUSH1 0x20 DUP3 ADD MSTORE POP JUMP JUMPDEST PUSH0 PUSH2 0x6787 PUSH1 0x28 DUP4 PUSH2 0x4DF1 JUMP JUMPDEST SWAP2 POP PUSH2 0x6792 DUP3 PUSH2 0x672D JUMP JUMPDEST PUSH1 0x40 DUP3 ADD SWAP1 POP SWAP2 SWAP1 POP JUMP JUMPDEST PUSH0 PUSH1 0x20 DUP3 ADD SWAP1 POP DUP2 DUP2 SUB PUSH0 DUP4 ADD MSTORE PUSH2 0x67B4 DUP2 PUSH2 0x677B JUMP JUMPDEST SWAP1 POP SWAP2 SWAP1 POP JUMP JUMPDEST PUSH32 0x4E487B7100000000000000000000000000000000000000000000000000000000 PUSH0 MSTORE PUSH1 0x11 PUSH1 0x4 MSTORE PUSH1 0x24 PUSH0 REVERT JUMPDEST PUSH0 PUSH2 0x67F2 DUP3 PUSH2 0x4B18 JUMP JUMPDEST SWAP2 POP PUSH32 0xFFFFFFFFFFFFFFFFFFFFFFFFFFFFFFFFFFFFFFFFFFFFFFFFFFFFFFFFFFFFFFFF DUP3 SUB PUSH2 0x6824 JUMPI PUSH2 0x6823 PUSH2 0x67BB JUMP JUMPDEST JUMPDEST PUSH1 0x1 DUP3 ADD SWAP1 POP SWAP2 SWAP1 POP JUMP JUMPDEST PUSH0 PUSH1 0x40 DUP3 ADD SWAP1 POP PUSH2 0x6842 PUSH0 DUP4 ADD DUP6 PUSH2 0x5F6C JUMP JUMPDEST PUSH2 0x684F PUSH1 0x20 DUP4 ADD DUP5 PUSH2 0x5F6C JUMP JUMPDEST SWAP4 SWAP3 POP POP POP JUMP JUMPDEST PUSH32 0x53686172656431313535546F6B656E3A20496E76616C69642072656369706965 PUSH0 DUP3 ADD MSTORE PUSH32 0x6E74206164647265737300000000000000000000000000000000000000000000 PUSH1 0x20 DUP3 ADD MSTORE POP JUMP JUMPDEST PUSH0 PUSH2 0x68B0 PUSH1 0x2A DUP4 PUSH2 0x4DF1 JUMP JUMPDEST SWAP2 POP PUSH2 0x68BB DUP3 PUSH2 0x6856 JUMP JUMPDEST PUSH1 0x40 DUP3 ADD SWAP1 POP SWAP2 SWAP1 POP JUMP JUMPDEST PUSH0 PUSH1 0x20 DUP3 ADD SWAP1 POP DUP2 DUP2 SUB PUSH0 DUP4 ADD MSTORE PUSH2 0x68DD DUP2 PUSH2 0x68A4 JUMP JUMPDEST SWAP1 POP SWAP2 SWAP1 POP JUMP JUMPDEST PUSH32 0x53686172656431313535546F6B656E3A205472616E7366657220616D6F756E74 PUSH0 DUP3 ADD MSTORE PUSH32 0x206D7573742062652067726561746572207468616E2030000000000000000000 PUSH1 0x20 DUP3 ADD MSTORE POP JUMP JUMPDEST PUSH0 PUSH2 0x693E PUSH1 0x37 DUP4 PUSH2 0x4DF1 JUMP JUMPDEST SWAP2 POP PUSH2 0x6949 DUP3 PUSH2 0x68E4 JUMP JUMPDEST PUSH1 0x40 DUP3 ADD SWAP1 POP SWAP2 SWAP1 POP JUMP JUMPDEST PUSH0 PUSH1 0x20 DUP3 ADD SWAP1 POP DUP2 DUP2 SUB PUSH0 DUP4 ADD MSTORE PUSH2 0x696B DUP2 PUSH2 0x6932 JUMP JUMPDEST SWAP1 POP SWAP2 SWAP1 POP JUMP JUMPDEST PUSH32 0x53686172656431313535546F6B656E3A204E4654207769746820737065636966 PUSH0 DUP3 ADD MSTORE PUSH32 0x6965642055524920646F6573206E6F7420657869737400000000000000000000 PUSH1 0x20 DUP3 ADD MSTORE POP JUMP JUMPDEST PUSH0 PUSH2 0x69CC PUSH1 0x36 DUP4 PUSH2 0x4DF1 JUMP JUMPDEST SWAP2 POP PUSH2 0x69D7 DUP3 PUSH2 0x6972 JUMP JUMPDEST PUSH1 0x40 DUP3 ADD SWAP1 POP SWAP2 SWAP1 POP JUMP JUMPDEST PUSH0 PUSH1 0x20 DUP3 ADD SWAP1 POP DUP2 DUP2 SUB PUSH0 DUP4 ADD MSTORE PUSH2 0x69F9 DUP2 PUSH2 0x69C0 JUMP JUMPDEST SWAP1 POP SWAP2 SWAP1 POP JUMP JUMPDEST PUSH32 0x53686172656431313535546F6B656E3A20496E73756666696369656E74204E46 PUSH0 DUP3 ADD MSTORE PUSH32 0x542062616C616E63650000000000000000000000000000000000000000000000 PUSH1 0x20 DUP3 ADD MSTORE POP JUMP JUMPDEST PUSH0 PUSH2 0x6A5A PUSH1 0x29 DUP4 PUSH2 0x4DF1 JUMP JUMPDEST SWAP2 POP PUSH2 0x6A65 DUP3 PUSH2 0x6A00 JUMP JUMPDEST PUSH1 0x40 DUP3 ADD SWAP1 POP SWAP2 SWAP1 POP JUMP JUMPDEST PUSH0 PUSH1 0x20 DUP3 ADD SWAP1 POP DUP2 DUP2 SUB PUSH0 DUP4 ADD MSTORE PUSH2 0x6A87 DUP2 PUSH2 0x6A4E JUMP JUMPDEST SWAP1 POP SWAP2 SWAP1 POP JUMP JUMPDEST PUSH0 PUSH1 0x40 DUP3 ADD SWAP1 POP PUSH2 0x6AA1 PUSH0 DUP4 ADD DUP6 PUSH2 0x4B89 JUMP JUMPDEST PUSH2 0x6AAE PUSH1 0x20 DUP4 ADD DUP5 PUSH2 0x4B89 JUMP JUMPDEST SWAP4 SWAP3 POP POP POP JUMP JUMPDEST PUSH32 0x53686172656431313535546F6B656E3A20436F6C6C656374696F6E20646F6573 PUSH0 DUP3 ADD MSTORE PUSH32 0x206E6F7420657869737400000000000000000000000000000000000000000000 PUSH1 0x20 DUP3 ADD MSTORE POP JUMP JUMPDEST PUSH0 PUSH2 0x6B0F PUSH1 0x2A DUP4 PUSH2 0x4DF1 JUMP JUMPDEST SWAP2 POP PUSH2 0x6B1A DUP3 PUSH2 0x6AB5 JUMP JUMPDEST PUSH1 0x40 DUP3 ADD SWAP1 POP SWAP2 SWAP1 POP JUMP JUMPDEST PUSH0 PUSH1 0x20 DUP3 ADD SWAP1 POP DUP2 DUP2 SUB PUSH0 DUP4 ADD MSTORE PUSH2 0x6B3C DUP2 PUSH2 0x6B03 JUMP JUMPDEST SWAP1 POP SWAP2 SWAP1 POP JUMP JUMPDEST PUSH0 PUSH2 0x6B4D DUP3 PUSH2 0x4B18 JUMP JUMPDEST SWAP2 POP PUSH2 0x6B58 DUP4 PUSH2 0x4B18 JUMP JUMPDEST SWAP3 POP DUP3 DUP3 SUB SWAP1 POP DUP2 DUP2 GT ISZERO PUSH2 0x6B70 JUMPI PUSH2 0x6B6F PUSH2 0x67BB JUMP JUMPDEST JUMPDEST SWAP3 SWAP2 POP POP JUMP JUMPDEST PUSH32 0x4E487B7100000000000000000000000000000000000000000000000000000000 PUSH0 MSTORE PUSH1 0x31 PUSH1 0x4 MSTORE PUSH1 0x24 PUSH0 REVERT JUMPDEST PUSH32 0x53686172656431313535546F6B656E3A20436F6C6C656374696F6E2077697468 PUSH0 DUP3 ADD MSTORE PUSH32 0x20737566666978206E6F7420666F756E64000000000000000000000000000000 PUSH1 0x20 DUP3 ADD MSTORE POP JUMP JUMPDEST PUSH0 PUSH2 0x6BFD PUSH1 0x31 DUP4 PUSH2 0x4DF1 JUMP JUMPDEST SWAP2 POP PUSH2 0x6C08 DUP3 PUSH2 0x6BA3 JUMP JUMPDEST PUSH1 0x40 DUP3 ADD SWAP1 POP SWAP2 SWAP1 POP JUMP JUMPDEST PUSH0 PUSH1 0x20 DUP3 ADD SWAP1 POP DUP2 DUP2 SUB PUSH0 DUP4 ADD MSTORE PUSH2 0x6C2A DUP2 PUSH2 0x6BF1 JUMP JUMPDEST SWAP1 POP SWAP2 SWAP1 POP JUMP JUMPDEST PUSH32 0x53686172656431313535546F6B656E3A204E6F6E6578697374656E7420746F6B PUSH0 DUP3 ADD MSTORE PUSH32 0x656E000000000000000000000000000000000000000000000000000000000000 PUSH1 0x20 DUP3 ADD MSTORE POP JUMP JUMPDEST PUSH0 PUSH2 0x6C8B PUSH1 0x22 DUP4 PUSH2 0x4DF1 JUMP JUMPDEST SWAP2 POP PUSH2 0x6C96 DUP3 PUSH2 0x6C31 JUMP JUMPDEST PUSH1 0x40 DUP3 ADD SWAP1 POP SWAP2 SWAP1 POP JUMP JUMPDEST PUSH0 PUSH1 0x20 DUP3 ADD SWAP1 POP DUP2 DUP2 SUB PUSH0 DUP4 ADD MSTORE PUSH2 0x6CB8 DUP2 PUSH2 0x6C7F JUMP JUMPDEST SWAP1 POP SWAP2 SWAP1 POP JUMP JUMPDEST PUSH32 0x53686172656431313535546F6B656E3A20446174612063616E6E6F7420626520 PUSH0 DUP3 ADD MSTORE PUSH32 0x656D707479000000000000000000000000000000000000000000000000000000 PUSH1 0x20 DUP3 ADD MSTORE POP JUMP JUMPDEST PUSH0 PUSH2 0x6D19 PUSH1 0x25 DUP4 PUSH2 0x4DF1 JUMP JUMPDEST SWAP2 POP PUSH2 0x6D24 DUP3 PUSH2 0x6CBF JUMP JUMPDEST PUSH1 0x40 DUP3 ADD SWAP1 POP SWAP2 SWAP1 POP JUMP JUMPDEST PUSH0 PUSH1 0x20 DUP3 ADD SWAP1 POP DUP2 DUP2 SUB PUSH0 DUP4 ADD MSTORE PUSH2 0x6D46 DUP2 PUSH2 0x6D0D JUMP JUMPDEST SWAP1 POP SWAP2 SWAP1 POP JUMP JUMPDEST PUSH0 DUP2 SLOAD SWAP1 POP PUSH2 0x6D5B DUP2 PUSH2 0x62C3 JUMP JUMPDEST SWAP1 POP SWAP2 SWAP1 POP JUMP JUMPDEST PUSH0 DUP2 SWAP1 POP DUP2 PUSH0 MSTORE PUSH1 0x20 PUSH0 KECCAK256 SWAP1 POP SWAP2 SWAP1 POP JUMP JUMPDEST DUP2 DUP2 SUB PUSH2 0x6D82 JUMPI POP POP PUSH2 0x6E57 JUMP JUMPDEST PUSH2 0x6D8B DUP3 PUSH2 0x6D4D JUMP JUMPDEST PUSH8 0xFFFFFFFFFFFFFFFF DUP2 GT ISZERO PUSH2 0x6DA4 JUMPI PUSH2 0x6DA3 PUSH2 0x4C7C JUMP JUMPDEST JUMPDEST PUSH2 0x6DAE DUP3 SLOAD PUSH2 0x62C3 JUMP JUMPDEST PUSH2 0x6DB9 DUP3 DUP3 DUP6 PUSH2 0x6547 JUMP JUMPDEST PUSH0 PUSH1 0x1F DUP4 GT PUSH1 0x1 DUP2 EQ PUSH2 0x6DE6 JUMPI PUSH0 DUP5 ISZERO PUSH2 0x6DD4 JUMPI DUP3 DUP8 ADD SLOAD SWAP1 POP JUMPDEST PUSH2 0x6DDE DUP6 DUP3 PUSH2 0x65B5 JUMP JUMPDEST DUP7 SSTORE POP PUSH2 0x6E50 JUMP JUMPDEST PUSH1 0x1F NOT DUP5 AND PUSH2 0x6DF4 DUP8 PUSH2 0x6D62 JUMP JUMPDEST SWAP7 POP PUSH2 0x6DFF DUP7 PUSH2 0x6433 JUMP JUMPDEST PUSH0 JUMPDEST DUP3 DUP2 LT ISZERO PUSH2 0x6E26 JUMPI DUP5 DUP10 ADD SLOAD DUP3 SSTORE PUSH1 0x1 DUP3 ADD SWAP2 POP PUSH1 0x1 DUP6 ADD SWAP5 POP PUSH1 0x20 DUP2 ADD SWAP1 POP PUSH2 0x6E01 JUMP JUMPDEST DUP7 DUP4 LT ISZERO PUSH2 0x6E43 JUMPI DUP5 DUP10 ADD SLOAD PUSH2 0x6E3F PUSH1 0x1F DUP10 AND DUP3 PUSH2 0x6599 JUMP JUMPDEST DUP4 SSTORE POP JUMPDEST PUSH1 0x1 PUSH1 0x2 DUP9 MUL ADD DUP9 SSTORE POP POP POP JUMPDEST POP POP POP POP POP POP JUMPDEST JUMP JUMPDEST PUSH32 0x53686172656431313535546F6B656E3A2044617461206E6F7420666F756E6400 PUSH0 DUP3 ADD MSTORE POP JUMP JUMPDEST PUSH0 PUSH2 0x6E8D PUSH1 0x1F DUP4 PUSH2 0x4DF1 JUMP JUMPDEST SWAP2 POP PUSH2 0x6E98 DUP3 PUSH2 0x6E59 JUMP JUMPDEST PUSH1 0x20 DUP3 ADD SWAP1 POP SWAP2 SWAP1 POP JUMP JUMPDEST PUSH0 PUSH1 0x20 DUP3 ADD SWAP1 POP DUP2 DUP2 SUB PUSH0 DUP4 ADD MSTORE PUSH2 0x6EBA DUP2 PUSH2 0x6E81 JUMP JUMPDEST SWAP1 POP SWAP2 SWAP1 POP JUMP JUMPDEST PUSH32 0x53686172656431313535546F6B656E3A20496E76616C6964206F70657261746F PUSH0 DUP3 ADD MSTORE PUSH32 0x7220616464726573730000000000000000000000000000000000000000000000 PUSH1 0x20 DUP3 ADD MSTORE POP JUMP JUMPDEST PUSH0 PUSH2 0x6F1B PUSH1 0x29 DUP4 PUSH2 0x4DF1 JUMP JUMPDEST SWAP2 POP PUSH2 0x6F26 DUP3 PUSH2 0x6EC1 JUMP JUMPDEST PUSH1 0x40 DUP3 ADD SWAP1 POP SWAP2 SWAP1 POP JUMP JUMPDEST PUSH0 PUSH1 0x20 DUP3 ADD SWAP1 POP DUP2 DUP2 SUB PUSH0 DUP4 ADD MSTORE PUSH2 0x6F48 DUP2 PUSH2 0x6F0F JUMP JUMPDEST SWAP1 POP SWAP2 SWAP1 POP JUMP JUMPDEST PUSH32 0x53686172656431313535546F6B656E3A20436F6C6C656374696F6E2077697468 PUSH0 DUP3 ADD MSTORE PUSH32 0x2073756666697820646F6573206E6F7420657869737400000000000000000000 PUSH1 0x20 DUP3 ADD MSTORE POP JUMP JUMPDEST PUSH0 PUSH2 0x6FA9 PUSH1 0x36 DUP4 PUSH2 0x4DF1 JUMP JUMPDEST SWAP2 POP PUSH2 0x6FB4 DUP3 PUSH2 0x6F4F JUMP JUMPDEST PUSH1 0x40 DUP3 ADD SWAP1 POP SWAP2 SWAP1 POP JUMP JUMPDEST PUSH0 PUSH1 0x20 DUP3 ADD SWAP1 POP DUP2 DUP2 SUB PUSH0 DUP4 ADD MSTORE PUSH2 0x6FD6 DUP2 PUSH2 0x6F9D JUMP JUMPDEST SWAP1 POP SWAP2 SWAP1 POP JUMP JUMPDEST PUSH0 PUSH1 0x60 DUP3 ADD SWAP1 POP PUSH2 0x6FF0 PUSH0 DUP4 ADD DUP7 PUSH2 0x4B89 JUMP JUMPDEST PUSH2 0x6FFD PUSH1 0x20 DUP4 ADD DUP6 PUSH2 0x5377 JUMP JUMPDEST PUSH2 0x700A PUSH1 0x40 DUP4 ADD DUP5 PUSH2 0x4B89 JUMP JUMPDEST SWAP5 SWAP4 POP POP POP POP JUMP JUMPDEST PUSH0 PUSH1 0x20 DUP3 ADD SWAP1 POP PUSH2 0x7025 PUSH0 DUP4 ADD DUP5 PUSH2 0x5F6C JUMP JUMPDEST SWAP3 SWAP2 POP POP JUMP JUMPDEST PUSH0 DUP2 MLOAD SWAP1 POP PUSH2 0x7039 DUP2 PUSH2 0x4B21 JUMP JUMPDEST SWAP3 SWAP2 POP POP JUMP JUMPDEST PUSH0 PUSH1 0x20 DUP3 DUP5 SUB SLT ISZERO PUSH2 0x7054 JUMPI PUSH2 0x7053 PUSH2 0x4AB6 JUMP JUMPDEST JUMPDEST PUSH0 PUSH2 0x7061 DUP5 DUP3 DUP6 ADD PUSH2 0x702B JUMP JUMPDEST SWAP2 POP POP SWAP3 SWAP2 POP POP JUMP JUMPDEST PUSH32 0x53686172656431313535546F6B656E3A20496E73756666696369656E74204552 PUSH0 DUP3 ADD MSTORE PUSH32 0x4332302062616C616E6365000000000000000000000000000000000000000000 PUSH1 0x20 DUP3 ADD MSTORE POP JUMP JUMPDEST PUSH0 PUSH2 0x70C4 PUSH1 0x2B DUP4 PUSH2 0x4DF1 JUMP JUMPDEST SWAP2 POP PUSH2 0x70CF DUP3 PUSH2 0x706A JUMP JUMPDEST PUSH1 0x40 DUP3 ADD SWAP1 POP SWAP2 SWAP1 POP JUMP JUMPDEST PUSH0 PUSH1 0x20 DUP3 ADD SWAP1 POP DUP2 DUP2 SUB PUSH0 DUP4 ADD MSTORE PUSH2 0x70F1 DUP2 PUSH2 0x70B8 JUMP JUMPDEST SWAP1 POP SWAP2 SWAP1 POP JUMP JUMPDEST PUSH32 0x53686172656431313535546F6B656E3A20496E73756666696369656E74204552 PUSH0 DUP3 ADD MSTORE PUSH32 0x43323020616C6C6F77616E636500000000000000000000000000000000000000 PUSH1 0x20 DUP3 ADD MSTORE POP JUMP JUMPDEST PUSH0 PUSH2 0x7152 PUSH1 0x2D DUP4 PUSH2 0x4DF1 JUMP JUMPDEST SWAP2 POP PUSH2 0x715D DUP3 PUSH2 0x70F8 JUMP JUMPDEST PUSH1 0x40 DUP3 ADD SWAP1 POP SWAP2 SWAP1 POP JUMP JUMPDEST PUSH0 PUSH1 0x20 DUP3 ADD SWAP1 POP DUP2 DUP2 SUB PUSH0 DUP4 ADD MSTORE PUSH2 0x717F DUP2 PUSH2 0x7146 JUMP JUMPDEST SWAP1 POP SWAP2 SWAP1 POP JUMP JUMPDEST PUSH0 PUSH1 0x60 DUP3 ADD SWAP1 POP PUSH2 0x7199 PUSH0 DUP4 ADD DUP7 PUSH2 0x5F6C JUMP JUMPDEST PUSH2 0x71A6 PUSH1 0x20 DUP4 ADD DUP6 PUSH2 0x5F6C JUMP JUMPDEST PUSH2 0x71B3 PUSH1 0x40 DUP4 ADD DUP5 PUSH2 0x4B89 JUMP JUMPDEST SWAP5 SWAP4 POP POP POP POP JUMP JUMPDEST PUSH0 DUP2 MLOAD SWAP1 POP PUSH2 0x71C9 DUP2 PUSH2 0x5ADA JUMP JUMPDEST SWAP3 SWAP2 POP POP JUMP JUMPDEST PUSH0 PUSH1 0x20 DUP3 DUP5 SUB SLT ISZERO PUSH2 0x71E4 JUMPI PUSH2 0x71E3 PUSH2 0x4AB6 JUMP JUMPDEST JUMPDEST PUSH0 PUSH2 0x71F1 DUP5 DUP3 DUP6 ADD PUSH2 0x71BB JUMP JUMPDEST SWAP2 POP POP SWAP3 SWAP2 POP POP JUMP JUMPDEST PUSH0 DUP2 SWAP1 POP SWAP3 SWAP2 POP POP JUMP JUMPDEST PUSH0 DUP2 SLOAD PUSH2 0x7210 DUP2 PUSH2 0x62C3 JUMP JUMPDEST PUSH2 0x721A DUP2 DUP7 PUSH2 0x71FA JUMP JUMPDEST SWAP5 POP PUSH1 0x1 DUP3 AND PUSH0 DUP2 EQ PUSH2 0x7234 JUMPI PUSH1 0x1 DUP2 EQ PUSH2 0x7249 JUMPI PUSH2 0x727B JUMP JUMPDEST PUSH1 0xFF NOT DUP4 AND DUP7 MSTORE DUP2 ISZERO ISZERO DUP3 MUL DUP7 ADD SWAP4 POP PUSH2 0x727B JUMP JUMPDEST PUSH2 0x7252 DUP6 PUSH2 0x6433 JUMP JUMPDEST PUSH0 JUMPDEST DUP4 DUP2 LT ISZERO PUSH2 0x7273 JUMPI DUP2 SLOAD DUP2 DUP10 ADD MSTORE PUSH1 0x1 DUP3 ADD SWAP2 POP PUSH1 0x20 DUP2 ADD SWAP1 POP PUSH2 0x7254 JUMP JUMPDEST DUP4 DUP9 ADD SWAP6 POP POP POP JUMPDEST POP POP POP SWAP3 SWAP2 POP POP JUMP JUMPDEST PUSH0 PUSH2 0x728E DUP3 PUSH2 0x4DE7 JUMP JUMPDEST PUSH2 0x7298 DUP2 DUP6 PUSH2 0x71FA JUMP JUMPDEST SWAP4 POP PUSH2 0x72A8 DUP2 DUP6 PUSH1 0x20 DUP7 ADD PUSH2 0x4E01 JUMP JUMPDEST DUP1 DUP5 ADD SWAP2 POP POP SWAP3 SWAP2 POP POP JUMP JUMPDEST PUSH0 PUSH2 0x72BF DUP3 DUP6 PUSH2 0x7204 JUMP JUMPDEST SWAP2 POP PUSH2 0x72CB DUP3 DUP5 PUSH2 0x7284 JUMP JUMPDEST SWAP2 POP DUP2 SWAP1 POP SWAP4 SWAP3 POP POP POP JUMP JUMPDEST PUSH0 PUSH1 0x40 DUP3 ADD SWAP1 POP PUSH2 0x72EA PUSH0 DUP4 ADD DUP6 PUSH2 0x5F6C JUMP JUMPDEST PUSH2 0x72F7 PUSH1 0x20 DUP4 ADD DUP5 PUSH2 0x5377 JUMP JUMPDEST SWAP4 SWAP3 POP POP POP JUMP JUMPDEST PUSH32 0x5061757361626C653A206E6F7420706175736564000000000000000000000000 PUSH0 DUP3 ADD MSTORE POP JUMP JUMPDEST PUSH0 PUSH2 0x7332 PUSH1 0x14 DUP4 PUSH2 0x4DF1 JUMP JUMPDEST SWAP2 POP PUSH2 0x733D DUP3 PUSH2 0x72FE JUMP JUMPDEST PUSH1 0x20 DUP3 ADD SWAP1 POP SWAP2 SWAP1 POP JUMP JUMPDEST PUSH0 PUSH1 0x20 DUP3 ADD SWAP1 POP DUP2 DUP2 SUB PUSH0 DUP4 ADD MSTORE PUSH2 0x735F DUP2 PUSH2 0x7326 JUMP JUMPDEST SWAP1 POP SWAP2 SWAP1 POP JUMP JUMPDEST PUSH32 0x5061757361626C653A2070617573656400000000000000000000000000000000 PUSH0 DUP3 ADD MSTORE POP JUMP JUMPDEST PUSH0 PUSH2 0x739A PUSH1 0x10 DUP4 PUSH2 0x4DF1 JUMP JUMPDEST SWAP2 POP PUSH2 0x73A5 DUP3 PUSH2 0x7366 JUMP JUMPDEST PUSH1 0x20 DUP3 ADD SWAP1 POP SWAP2 SWAP1 POP JUMP JUMPDEST PUSH0 PUSH1 0x20 DUP3 ADD SWAP1 POP DUP2 DUP2 SUB PUSH0 DUP4 ADD MSTORE PUSH2 0x73C7 DUP2 PUSH2 0x738E JUMP JUMPDEST SWAP1 POP SWAP2 SWAP1 POP JUMP JUMPDEST PUSH0 DUP2 MLOAD SWAP1 POP SWAP2 SWAP1 POP JUMP JUMPDEST PUSH0 DUP3 DUP3 MSTORE PUSH1 0x20 DUP3 ADD SWAP1 POP SWAP3 SWAP2 POP POP JUMP JUMPDEST PUSH0 PUSH2 0x73F2 DUP3 PUSH2 0x73CE JUMP JUMPDEST PUSH2 0x73FC DUP2 DUP6 PUSH2 0x73D8 JUMP JUMPDEST SWAP4 POP PUSH2 0x740C DUP2 DUP6 PUSH1 0x20 DUP7 ADD PUSH2 0x4E01 JUMP JUMPDEST PUSH2 0x7415 DUP2 PUSH2 0x4C6C JUMP JUMPDEST DUP5 ADD SWAP2 POP POP SWAP3 SWAP2 POP POP JUMP JUMPDEST PUSH0 PUSH1 0xA0 DUP3 ADD SWAP1 POP PUSH2 0x7433 PUSH0 DUP4 ADD DUP9 PUSH2 0x5F6C JUMP JUMPDEST PUSH2 0x7440 PUSH1 0x20 DUP4 ADD DUP8 PUSH2 0x5F6C JUMP JUMPDEST PUSH2 0x744D PUSH1 0x40 DUP4 ADD DUP7 PUSH2 0x4B89 JUMP JUMPDEST PUSH2 0x745A PUSH1 0x60 DUP4 ADD DUP6 PUSH2 0x4B89 JUMP JUMPDEST DUP2 DUP2 SUB PUSH1 0x80 DUP4 ADD MSTORE PUSH2 0x746C DUP2 DUP5 PUSH2 0x73E8 JUMP JUMPDEST SWAP1 POP SWAP7 SWAP6 POP POP POP POP POP POP JUMP JUMPDEST PUSH0 DUP2 MLOAD SWAP1 POP PUSH2 0x7486 DUP2 PUSH2 0x4BDC JUMP JUMPDEST SWAP3 SWAP2 POP POP JUMP JUMPDEST PUSH0 PUSH1 0x20 DUP3 DUP5 SUB SLT ISZERO PUSH2 0x74A1 JUMPI PUSH2 0x74A0 PUSH2 0x4AB6 JUMP JUMPDEST JUMPDEST PUSH0 PUSH2 0x74AE DUP5 DUP3 DUP6 ADD PUSH2 0x7478 JUMP JUMPDEST SWAP2 POP POP SWAP3 SWAP2 POP POP JUMP JUMPDEST PUSH0 PUSH1 0xA0 DUP3 ADD SWAP1 POP PUSH2 0x74CA PUSH0 DUP4 ADD DUP9 PUSH2 0x5F6C JUMP JUMPDEST PUSH2 0x74D7 PUSH1 0x20 DUP4 ADD DUP8 PUSH2 0x5F6C JUMP JUMPDEST DUP2 DUP2 SUB PUSH1 0x40 DUP4 ADD MSTORE PUSH2 0x74E9 DUP2 DUP7 PUSH2 0x56BD JUMP JUMPDEST SWAP1 POP DUP2 DUP2 SUB PUSH1 0x60 DUP4 ADD MSTORE PUSH2 0x74FD DUP2 DUP6 PUSH2 0x56BD JUMP JUMPDEST SWAP1 POP DUP2 DUP2 SUB PUSH1 0x80 DUP4 ADD MSTORE PUSH2 0x7511 DUP2 DUP5 PUSH2 0x73E8 JUMP JUMPDEST SWAP1 POP SWAP7 SWAP6 POP POP POP POP POP POP JUMP JUMPDEST PUSH0 PUSH2 0x7527 DUP3 PUSH2 0x4B18 JUMP JUMPDEST SWAP2 POP PUSH2 0x7532 DUP4 PUSH2 0x4B18 JUMP JUMPDEST SWAP3 POP DUP3 DUP3 ADD SWAP1 POP DUP1 DUP3 GT ISZERO PUSH2 0x754A JUMPI PUSH2 0x7549 PUSH2 0x67BB JUMP JUMPDEST JUMPDEST SWAP3 SWAP2 POP POP JUMP JUMPDEST PUSH0 PUSH1 0x80 DUP3 ADD SWAP1 POP PUSH2 0x7563 PUSH0 DUP4 ADD DUP8 PUSH2 0x5F6C JUMP JUMPDEST PUSH2 0x7570 PUSH1 0x20 DUP4 ADD DUP7 PUSH2 0x4B89 JUMP JUMPDEST PUSH2 0x757D PUSH1 0x40 DUP4 ADD DUP6 PUSH2 0x4B89 JUMP JUMPDEST PUSH2 0x758A PUSH1 0x60 DUP4 ADD DUP5 PUSH2 0x4B89 JUMP JUMPDEST SWAP6 SWAP5 POP POP POP POP POP JUMP JUMPDEST PUSH0 PUSH1 0x40 DUP3 ADD SWAP1 POP DUP2 DUP2 SUB PUSH0 DUP4 ADD MSTORE PUSH2 0x75AB DUP2 DUP6 PUSH2 0x56BD JUMP JUMPDEST SWAP1 POP DUP2 DUP2 SUB PUSH1 0x20 DUP4 ADD MSTORE PUSH2 0x75BF DUP2 DUP5 PUSH2 0x56BD JUMP JUMPDEST SWAP1 POP SWAP4 SWAP3 POP POP POP JUMP INVALID LOG2 PUSH5 0x6970667358 0x22 SLT KECCAK256 DUP10 GT SWAP5 DUP15 0xEC PUSH5 0xB367247C59 DUP12 PUSH18 0x40753A7ABDD541A231B6282C1D29F863D1E6 SSTORE PUSH5 0x736F6C6343 STOP ADDMOD XOR STOP CALLER "
		},
		"gasEstimates": {
			"creation": {
				"codeDepositCost": "6041200",
				"executionCost": "infinite",
				"totalCost": "infinite"
			},
			"external": {
				"COLLECTION_CREATOR_ROLE()": "393",
				"DEFAULT_ADMIN_ROLE()": "398",
				"MINTER_ROLE()": "415",
				"NFTList(address)": "infinite",
				"approveOperatorForContractNFTs(address,bool)": "infinite",
				"balanceOf(address,uint256)": "infinite",
				"balanceOfBatch(address[],uint256[])": "infinite",
				"burn(address,uint256,uint256)": "infinite",
				"burnBatch(address,uint256[],uint256[])": "infinite",
				"collectionDatas(uint256)": "infinite",
				"collectionIds(uint256)": "infinite",
				"collections(uint256)": "infinite",
				"createCollection(string)": "infinite",
				"deleteCollectionBySuffix(string)": "infinite",
				"deleteDataByValue(string)": "infinite",
				"exists(uint256)": "2913",
				"getAllCollectionDatas()": "infinite",
				"getAllCollections()": "infinite",
				"getAllStoredData()": "infinite",
				"getCollection(uint256)": "infinite",
				"getCollectionData(uint256)": "infinite",
				"getCollectionSuffix(uint256)": "infinite",
				"getContractNFTs()": "infinite",
				"getRoleAdmin(bytes32)": "infinite",
				"getTransferHistory(uint256)": "infinite",
				"getUser_NFTList()": "infinite",
				"grantRole(bytes32,address)": "infinite",
				"grantRoleTo(bytes32,address)": "infinite",
				"hasRole(bytes32,address)": "3191",
				"isApprovedForAll(address,address)": "infinite",
				"isOperatorApprovedForContractNFTs()": "2783",
				"mint(address,uint256,uint256,bytes)": "infinite",
				"mintBatch(address,uint256[],uint256[],bytes)": "infinite",
				"name()": "infinite",
				"onERC1155BatchReceived(address,address,uint256[],uint256[],bytes)": "infinite",
				"onERC1155Received(address,address,uint256,uint256,bytes)": "infinite",
				"pause()": "infinite",
				"paused()": "2607",
				"renounceRole(bytes32,address)": "infinite",
				"revokeRole(bytes32,address)": "infinite",
				"safeBatchTransferFrom(address,address,uint256[],uint256[],bytes)": "infinite",
				"safeCast(string,uint256,bytes32,string)": "infinite",
				"safeTransferFrom(address,address,uint256,uint256,bytes)": "infinite",
				"setApprovalForAll(address,bool)": "infinite",
				"setTokenURI(uint256,string)": "infinite",
				"storeData(string)": "infinite",
				"storedData(uint256)": "infinite",
				"supportsInterface(bytes4)": "1031",
				"tokenIds(uint256)": "infinite",
				"totalSupply()": "2567",
				"totalSupply(uint256)": "infinite",
				"transferERC20(address,address,uint256,string)": "infinite",
				"transferHistory(uint256,uint256)": "infinite",
				"transferNFTByURI(address,string,uint256)": "infinite",
				"unpause()": "infinite",
				"uri(uint256)": "infinite"
			},
			"internal": {
				"_update(address,address,uint256[] memory,uint256[] memory)": "infinite"
			}
		},
		"methodIdentifiers": {
			"COLLECTION_CREATOR_ROLE()": "caff99ce",
			"DEFAULT_ADMIN_ROLE()": "a217fddf",
			"MINTER_ROLE()": "d5391393",
			"NFTList(address)": "1f43cf85",
			"approveOperatorForContractNFTs(address,bool)": "9dd6a449",
			"balanceOf(address,uint256)": "00fdd58e",
			"balanceOfBatch(address[],uint256[])": "4e1273f4",
			"burn(address,uint256,uint256)": "f5298aca",
			"burnBatch(address,uint256[],uint256[])": "6b20c454",
			"collectionDatas(uint256)": "258672aa",
			"collectionIds(uint256)": "a9b566a3",
			"collections(uint256)": "fdbda0ec",
			"createCollection(string)": "059dfe13",
			"deleteCollectionBySuffix(string)": "70164f0e",
			"deleteDataByValue(string)": "9cdf0f46",
			"exists(uint256)": "4f558e79",
			"getAllCollectionDatas()": "c71d0ea3",
			"getAllCollections()": "6804a958",
			"getAllStoredData()": "dd5b3a65",
			"getCollection(uint256)": "5a1f3c28",
			"getCollectionData(uint256)": "df6f5b20",
			"getCollectionSuffix(uint256)": "b21fa654",
			"getContractNFTs()": "a7098728",
			"getRoleAdmin(bytes32)": "248a9ca3",
			"getTransferHistory(uint256)": "8bb27d02",
			"getUser_NFTList()": "a3e1ff32",
			"grantRole(bytes32,address)": "2f2ff15d",
			"grantRoleTo(bytes32,address)": "a5e2361d",
			"hasRole(bytes32,address)": "91d14854",
			"isApprovedForAll(address,address)": "e985e9c5",
			"isOperatorApprovedForContractNFTs()": "77e1b4ca",
			"mint(address,uint256,uint256,bytes)": "731133e9",
			"mintBatch(address,uint256[],uint256[],bytes)": "1f7fdffa",
			"name()": "06fdde03",
			"onERC1155BatchReceived(address,address,uint256[],uint256[],bytes)": "bc197c81",
			"onERC1155Received(address,address,uint256,uint256,bytes)": "f23a6e61",
			"pause()": "8456cb59",
			"paused()": "5c975abb",
			"renounceRole(bytes32,address)": "36568abe",
			"revokeRole(bytes32,address)": "d547741f",
			"safeBatchTransferFrom(address,address,uint256[],uint256[],bytes)": "2eb2c2d6",
			"safeCast(string,uint256,bytes32,string)": "be7cf750",
			"safeTransferFrom(address,address,uint256,uint256,bytes)": "f242432a",
			"setApprovalForAll(address,bool)": "a22cb465",
			"setTokenURI(uint256,string)": "162094c4",
			"storeData(string)": "fb218f5f",
			"storedData(uint256)": "30377174",
			"supportsInterface(bytes4)": "01ffc9a7",
			"tokenIds(uint256)": "d58778d6",
			"totalSupply()": "18160ddd",
			"totalSupply(uint256)": "bd85b039",
			"transferERC20(address,address,uint256,string)": "e22c4515",
			"transferHistory(uint256,uint256)": "dedaff54",
			"transferNFTByURI(address,string,uint256)": "3038bfdf",
			"unpause()": "3f4ba83a",
			"uri(uint256)": "0e89341c"
		}
	},
	"abi": [
		{
			"inputs": [],
			"stateMutability": "nonpayable",
			"type": "constructor"
		},
		{
			"inputs": [],
			"name": "AccessControlBadConfirmation",
			"type": "error"
		},
		{
			"inputs": [
				{
					"internalType": "address",
					"name": "account",
					"type": "address"
				},
				{
					"internalType": "bytes32",
					"name": "neededRole",
					"type": "bytes32"
				}
			],
			"name": "AccessControlUnauthorizedAccount",
			"type": "error"
		},
		{
			"inputs": [
				{
					"internalType": "address",
					"name": "sender",
					"type": "address"
				},
				{
					"internalType": "uint256",
					"name": "balance",
					"type": "uint256"
				},
				{
					"internalType": "uint256",
					"name": "needed",
					"type": "uint256"
				},
				{
					"internalType": "uint256",
					"name": "tokenId",
					"type": "uint256"
				}
			],
			"name": "ERC1155InsufficientBalance",
			"type": "error"
		},
		{
			"inputs": [
				{
					"internalType": "address",
					"name": "approver",
					"type": "address"
				}
			],
			"name": "ERC1155InvalidApprover",
			"type": "error"
		},
		{
			"inputs": [
				{
					"internalType": "uint256",
					"name": "idsLength",
					"type": "uint256"
				},
				{
					"internalType": "uint256",
					"name": "valuesLength",
					"type": "uint256"
				}
			],
			"name": "ERC1155InvalidArrayLength",
			"type": "error"
		},
		{
			"inputs": [
				{
					"internalType": "address",
					"name": "operator",
					"type": "address"
				}
			],
			"name": "ERC1155InvalidOperator",
			"type": "error"
		},
		{
			"inputs": [
				{
					"internalType": "address",
					"name": "receiver",
					"type": "address"
				}
			],
			"name": "ERC1155InvalidReceiver",
			"type": "error"
		},
		{
			"inputs": [
				{
					"internalType": "address",
					"name": "sender",
					"type": "address"
				}
			],
			"name": "ERC1155InvalidSender",
			"type": "error"
		},
		{
			"inputs": [
				{
					"internalType": "address",
					"name": "operator",
					"type": "address"
				},
				{
					"internalType": "address",
					"name": "owner",
					"type": "address"
				}
			],
			"name": "ERC1155MissingApprovalForAll",
			"type": "error"
		},
		{
			"anonymous": false,
			"inputs": [
				{
					"indexed": true,
					"internalType": "address",
					"name": "account",
					"type": "address"
				},
				{
					"indexed": true,
					"internalType": "address",
					"name": "operator",
					"type": "address"
				},
				{
					"indexed": false,
					"internalType": "bool",
					"name": "approved",
					"type": "bool"
				}
			],
			"name": "ApprovalForAll",
			"type": "event"
		},
		{
			"anonymous": false,
			"inputs": [
				{
					"indexed": true,
					"internalType": "uint256",
					"name": "collectionId",
					"type": "uint256"
				},
				{
					"indexed": false,
					"internalType": "string",
					"name": "suffix",
					"type": "string"
				}
			],
			"name": "CollectionCreated",
			"type": "event"
		},
		{
			"anonymous": false,
			"inputs": [
				{
					"indexed": true,
					"internalType": "uint256",
					"name": "collectionId",
					"type": "uint256"
				},
				{
					"indexed": false,
					"internalType": "string",
					"name": "suffix",
					"type": "string"
				}
			],
			"name": "CollectionDeleted",
			"type": "event"
		},
		{
			"anonymous": false,
			"inputs": [
				{
					"indexed": true,
					"internalType": "address",
					"name": "account",
					"type": "address"
				},
				{
					"indexed": false,
					"internalType": "uint256",
					"name": "tokenId",
					"type": "uint256"
				},
				{
					"indexed": false,
					"internalType": "bytes32",
					"name": "collectionURI",
					"type": "bytes32"
				},
				{
					"indexed": false,
					"internalType": "uint256",
					"name": "amount",
					"type": "uint256"
				}
			],
			"name": "CollectionURIMinted",
			"type": "event"
		},
		{
			"anonymous": false,
			"inputs": [
				{
					"indexed": true,
					"internalType": "address",
					"name": "account",
					"type": "address"
				},
				{
					"indexed": false,
					"internalType": "string",
					"name": "data",
					"type": "string"
				}
			],
			"name": "DataDeleted",
			"type": "event"
		},
		{
			"anonymous": false,
			"inputs": [
				{
					"indexed": true,
					"internalType": "address",
					"name": "account",
					"type": "address"
				},
				{
					"indexed": false,
					"internalType": "string",
					"name": "data",
					"type": "string"
				}
			],
			"name": "DataStored",
			"type": "event"
		},
		{
			"anonymous": false,
			"inputs": [
				{
					"indexed": true,
					"internalType": "address",
					"name": "operator",
					"type": "address"
				},
				{
					"indexed": false,
					"internalType": "bool",
					"name": "approved",
					"type": "bool"
				}
			],
			"name": "OperatorApprovedForContractNFTs",
			"type": "event"
		},
		{
			"anonymous": false,
			"inputs": [
				{
					"indexed": false,
					"internalType": "address",
					"name": "account",
					"type": "address"
				}
			],
			"name": "Paused",
			"type": "event"
		},
		{
			"anonymous": false,
			"inputs": [
				{
					"indexed": true,
					"internalType": "bytes32",
					"name": "role",
					"type": "bytes32"
				},
				{
					"indexed": true,
					"internalType": "bytes32",
					"name": "previousAdminRole",
					"type": "bytes32"
				},
				{
					"indexed": true,
					"internalType": "bytes32",
					"name": "newAdminRole",
					"type": "bytes32"
				}
			],
			"name": "RoleAdminChanged",
			"type": "event"
		},
		{
			"anonymous": false,
			"inputs": [
				{
					"indexed": true,
					"internalType": "bytes32",
					"name": "role",
					"type": "bytes32"
				},
				{
					"indexed": true,
					"internalType": "address",
					"name": "account",
					"type": "address"
				},
				{
					"indexed": true,
					"internalType": "address",
					"name": "sender",
					"type": "address"
				}
			],
			"name": "RoleGranted",
			"type": "event"
		},
		{
			"anonymous": false,
			"inputs": [
				{
					"indexed": true,
					"internalType": "bytes32",
					"name": "role",
					"type": "bytes32"
				},
				{
					"indexed": true,
					"internalType": "address",
					"name": "account",
					"type": "address"
				},
				{
					"indexed": true,
					"internalType": "address",
					"name": "sender",
					"type": "address"
				}
			],
			"name": "RoleRevoked",
			"type": "event"
		},
		{
			"anonymous": false,
			"inputs": [
				{
					"indexed": true,
					"internalType": "address",
					"name": "operator",
					"type": "address"
				},
				{
					"indexed": true,
					"internalType": "address",
					"name": "from",
					"type": "address"
				},
				{
					"indexed": true,
					"internalType": "address",
					"name": "to",
					"type": "address"
				},
				{
					"indexed": false,
					"internalType": "uint256[]",
					"name": "ids",
					"type": "uint256[]"
				},
				{
					"indexed": false,
					"internalType": "uint256[]",
					"name": "values",
					"type": "uint256[]"
				}
			],
			"name": "TransferBatch",
			"type": "event"
		},
		{
			"anonymous": false,
			"inputs": [
				{
					"indexed": true,
					"internalType": "uint256",
					"name": "tokenId",
					"type": "uint256"
				},
				{
					"indexed": true,
					"internalType": "address",
					"name": "from",
					"type": "address"
				},
				{
					"indexed": true,
					"internalType": "address",
					"name": "to",
					"type": "address"
				},
				{
					"indexed": false,
					"internalType": "uint256",
					"name": "amount",
					"type": "uint256"
				},
				{
					"indexed": false,
					"internalType": "uint256",
					"name": "timestamp",
					"type": "uint256"
				}
			],
			"name": "TransferRecorded",
			"type": "event"
		},
		{
			"anonymous": false,
			"inputs": [
				{
					"indexed": true,
					"internalType": "address",
					"name": "operator",
					"type": "address"
				},
				{
					"indexed": true,
					"internalType": "address",
					"name": "from",
					"type": "address"
				},
				{
					"indexed": true,
					"internalType": "address",
					"name": "to",
					"type": "address"
				},
				{
					"indexed": false,
					"internalType": "uint256",
					"name": "id",
					"type": "uint256"
				},
				{
					"indexed": false,
					"internalType": "uint256",
					"name": "value",
					"type": "uint256"
				}
			],
			"name": "TransferSingle",
			"type": "event"
		},
		{
			"anonymous": false,
			"inputs": [
				{
					"indexed": false,
					"internalType": "string",
					"name": "value",
					"type": "string"
				},
				{
					"indexed": true,
					"internalType": "uint256",
					"name": "id",
					"type": "uint256"
				}
			],
			"name": "URI",
			"type": "event"
		},
		{
			"anonymous": false,
			"inputs": [
				{
					"indexed": false,
					"internalType": "address",
					"name": "account",
					"type": "address"
				}
			],
			"name": "Unpaused",
			"type": "event"
		},
		{
			"inputs": [],
			"name": "COLLECTION_CREATOR_ROLE",
			"outputs": [
				{
					"internalType": "bytes32",
					"name": "",
					"type": "bytes32"
				}
			],
			"stateMutability": "view",
			"type": "function"
		},
		{
			"inputs": [],
			"name": "DEFAULT_ADMIN_ROLE",
			"outputs": [
				{
					"internalType": "bytes32",
					"name": "",
					"type": "bytes32"
				}
			],
			"stateMutability": "view",
			"type": "function"
		},
		{
			"inputs": [],
			"name": "MINTER_ROLE",
			"outputs": [
				{
					"internalType": "bytes32",
					"name": "",
					"type": "bytes32"
				}
			],
			"stateMutability": "view",
			"type": "function"
		},
		{
			"inputs": [
				{
					"internalType": "address",
					"name": "account",
					"type": "address"
				}
			],
			"name": "NFTList",
			"outputs": [
				{
					"components": [
						{
							"internalType": "uint256",
							"name": "tokenId",
							"type": "uint256"
						},
						{
							"internalType": "uint256",
							"name": "amount",
							"type": "uint256"
						},
						{
							"internalType": "string",
							"name": "uri",
							"type": "string"
						},
						{
							"components": [
								{
									"internalType": "bytes32",
									"name": "cid",
									"type": "bytes32"
								},
								{
									"internalType": "uint256",
									"name": "collectionId",
									"type": "uint256"
								}
							],
							"internalType": "struct Shared1155Token.CollectionData",
							"name": "collectionData",
							"type": "tuple"
						}
					],
					"internalType": "struct Shared1155Token.NFTDetails[]",
					"name": "",
					"type": "tuple[]"
				}
			],
			"stateMutability": "view",
			"type": "function"
		},
		{
			"inputs": [
				{
					"internalType": "address",
					"name": "operator",
					"type": "address"
				},
				{
					"internalType": "bool",
					"name": "approved",
					"type": "bool"
				}
			],
			"name": "approveOperatorForContractNFTs",
			"outputs": [],
			"stateMutability": "nonpayable",
			"type": "function"
		},
		{
			"inputs": [
				{
					"internalType": "address",
					"name": "account",
					"type": "address"
				},
				{
					"internalType": "uint256",
					"name": "id",
					"type": "uint256"
				}
			],
			"name": "balanceOf",
			"outputs": [
				{
					"internalType": "uint256",
					"name": "",
					"type": "uint256"
				}
			],
			"stateMutability": "view",
			"type": "function"
		},
		{
			"inputs": [
				{
					"internalType": "address[]",
					"name": "accounts",
					"type": "address[]"
				},
				{
					"internalType": "uint256[]",
					"name": "ids",
					"type": "uint256[]"
				}
			],
			"name": "balanceOfBatch",
			"outputs": [
				{
					"internalType": "uint256[]",
					"name": "",
					"type": "uint256[]"
				}
			],
			"stateMutability": "view",
			"type": "function"
		},
		{
			"inputs": [
				{
					"internalType": "address",
					"name": "account",
					"type": "address"
				},
				{
					"internalType": "uint256",
					"name": "id",
					"type": "uint256"
				},
				{
					"internalType": "uint256",
					"name": "value",
					"type": "uint256"
				}
			],
			"name": "burn",
			"outputs": [],
			"stateMutability": "nonpayable",
			"type": "function"
		},
		{
			"inputs": [
				{
					"internalType": "address",
					"name": "account",
					"type": "address"
				},
				{
					"internalType": "uint256[]",
					"name": "ids",
					"type": "uint256[]"
				},
				{
					"internalType": "uint256[]",
					"name": "values",
					"type": "uint256[]"
				}
			],
			"name": "burnBatch",
			"outputs": [],
			"stateMutability": "nonpayable",
			"type": "function"
		},
		{
			"inputs": [
				{
					"internalType": "uint256",
					"name": "",
					"type": "uint256"
				}
			],
			"name": "collectionDatas",
			"outputs": [
				{
					"internalType": "bytes32",
					"name": "cid",
					"type": "bytes32"
				},
				{
					"internalType": "uint256",
					"name": "collectionId",
					"type": "uint256"
				}
			],
			"stateMutability": "view",
			"type": "function"
		},
		{
			"inputs": [
				{
					"internalType": "uint256",
					"name": "",
					"type": "uint256"
				}
			],
			"name": "collectionIds",
			"outputs": [
				{
					"internalType": "uint256",
					"name": "",
					"type": "uint256"
				}
			],
			"stateMutability": "view",
			"type": "function"
		},
		{
			"inputs": [
				{
					"internalType": "uint256",
					"name": "",
					"type": "uint256"
				}
			],
			"name": "collections",
			"outputs": [
				{
					"internalType": "uint256",
					"name": "id",
					"type": "uint256"
				},
				{
					"internalType": "string",
					"name": "suffix",
					"type": "string"
				}
			],
			"stateMutability": "view",
			"type": "function"
		},
		{
			"inputs": [
				{
					"internalType": "string",
					"name": "suffix",
					"type": "string"
				}
			],
			"name": "createCollection",
			"outputs": [],
			"stateMutability": "nonpayable",
			"type": "function"
		},
		{
			"inputs": [
				{
					"internalType": "string",
					"name": "suffix",
					"type": "string"
				}
			],
			"name": "deleteCollectionBySuffix",
			"outputs": [],
			"stateMutability": "nonpayable",
			"type": "function"
		},
		{
			"inputs": [
				{
					"internalType": "string",
					"name": "data",
					"type": "string"
				}
			],
			"name": "deleteDataByValue",
			"outputs": [],
			"stateMutability": "nonpayable",
			"type": "function"
		},
		{
			"inputs": [
				{
					"internalType": "uint256",
					"name": "id",
					"type": "uint256"
				}
			],
			"name": "exists",
			"outputs": [
				{
					"internalType": "bool",
					"name": "",
					"type": "bool"
				}
			],
			"stateMutability": "view",
			"type": "function"
		},
		{
			"inputs": [],
			"name": "getAllCollectionDatas",
			"outputs": [
				{
					"components": [
						{
							"internalType": "bytes32",
							"name": "cid",
							"type": "bytes32"
						},
						{
							"internalType": "uint256",
							"name": "collectionId",
							"type": "uint256"
						}
					],
					"internalType": "struct Shared1155Token.CollectionData[]",
					"name": "",
					"type": "tuple[]"
				}
			],
			"stateMutability": "view",
			"type": "function"
		},
		{
			"inputs": [],
			"name": "getAllCollections",
			"outputs": [
				{
					"components": [
						{
							"internalType": "uint256",
							"name": "id",
							"type": "uint256"
						},
						{
							"internalType": "string",
							"name": "suffix",
							"type": "string"
						}
					],
					"internalType": "struct Shared1155Token.Collection[]",
					"name": "",
					"type": "tuple[]"
				}
			],
			"stateMutability": "view",
			"type": "function"
		},
		{
			"inputs": [],
			"name": "getAllStoredData",
			"outputs": [
				{
					"internalType": "string[]",
					"name": "",
					"type": "string[]"
				}
			],
			"stateMutability": "view",
			"type": "function"
		},
		{
			"inputs": [
				{
					"internalType": "uint256",
					"name": "collectionId",
					"type": "uint256"
				}
			],
			"name": "getCollection",
			"outputs": [
				{
					"components": [
						{
							"internalType": "uint256",
							"name": "id",
							"type": "uint256"
						},
						{
							"internalType": "string",
							"name": "suffix",
							"type": "string"
						}
					],
					"internalType": "struct Shared1155Token.Collection",
					"name": "",
					"type": "tuple"
				}
			],
			"stateMutability": "view",
			"type": "function"
		},
		{
			"inputs": [
				{
					"internalType": "uint256",
					"name": "tokenId",
					"type": "uint256"
				}
			],
			"name": "getCollectionData",
			"outputs": [
				{
					"components": [
						{
							"internalType": "bytes32",
							"name": "cid",
							"type": "bytes32"
						},
						{
							"internalType": "uint256",
							"name": "collectionId",
							"type": "uint256"
						}
					],
					"internalType": "struct Shared1155Token.CollectionData",
					"name": "",
					"type": "tuple"
				}
			],
			"stateMutability": "view",
			"type": "function"
		},
		{
			"inputs": [
				{
					"internalType": "uint256",
					"name": "collectionId",
					"type": "uint256"
				}
			],
			"name": "getCollectionSuffix",
			"outputs": [
				{
					"internalType": "string",
					"name": "",
					"type": "string"
				}
			],
			"stateMutability": "view",
			"type": "function"
		},
		{
			"inputs": [],
			"name": "getContractNFTs",
			"outputs": [
				{
					"components": [
						{
							"internalType": "uint256",
							"name": "tokenId",
							"type": "uint256"
						},
						{
							"internalType": "uint256",
							"name": "amount",
							"type": "uint256"
						},
						{
							"internalType": "string",
							"name": "uri",
							"type": "string"
						},
						{
							"components": [
								{
									"internalType": "bytes32",
									"name": "cid",
									"type": "bytes32"
								},
								{
									"internalType": "uint256",
									"name": "collectionId",
									"type": "uint256"
								}
							],
							"internalType": "struct Shared1155Token.CollectionData",
							"name": "collectionData",
							"type": "tuple"
						}
					],
					"internalType": "struct Shared1155Token.NFTDetails[]",
					"name": "",
					"type": "tuple[]"
				}
			],
			"stateMutability": "view",
			"type": "function"
		},
		{
			"inputs": [
				{
					"internalType": "bytes32",
					"name": "role",
					"type": "bytes32"
				}
			],
			"name": "getRoleAdmin",
			"outputs": [
				{
					"internalType": "bytes32",
					"name": "",
					"type": "bytes32"
				}
			],
			"stateMutability": "view",
			"type": "function"
		},
		{
			"inputs": [
				{
					"internalType": "uint256",
					"name": "tokenId",
					"type": "uint256"
				}
			],
			"name": "getTransferHistory",
			"outputs": [
				{
					"components": [
						{
							"internalType": "address",
							"name": "from",
							"type": "address"
						},
						{
							"internalType": "address",
							"name": "to",
							"type": "address"
						},
						{
							"internalType": "uint256",
							"name": "amount",
							"type": "uint256"
						},
						{
							"internalType": "uint256",
							"name": "timestamp",
							"type": "uint256"
						}
					],
					"internalType": "struct Shared1155Token.TransferRecord[]",
					"name": "",
					"type": "tuple[]"
				}
			],
			"stateMutability": "view",
			"type": "function"
		},
		{
			"inputs": [],
			"name": "getUser_NFTList",
			"outputs": [
				{
					"components": [
						{
							"internalType": "uint256",
							"name": "tokenId",
							"type": "uint256"
						},
						{
							"internalType": "uint256",
							"name": "amount",
							"type": "uint256"
						},
						{
							"internalType": "string",
							"name": "uri",
							"type": "string"
						},
						{
							"components": [
								{
									"internalType": "bytes32",
									"name": "cid",
									"type": "bytes32"
								},
								{
									"internalType": "uint256",
									"name": "collectionId",
									"type": "uint256"
								}
							],
							"internalType": "struct Shared1155Token.CollectionData",
							"name": "collectionData",
							"type": "tuple"
						}
					],
					"internalType": "struct Shared1155Token.NFTDetails[]",
					"name": "",
					"type": "tuple[]"
				}
			],
			"stateMutability": "view",
			"type": "function"
		},
		{
			"inputs": [
				{
					"internalType": "bytes32",
					"name": "role",
					"type": "bytes32"
				},
				{
					"internalType": "address",
					"name": "account",
					"type": "address"
				}
			],
			"name": "grantRole",
			"outputs": [],
			"stateMutability": "nonpayable",
			"type": "function"
		},
		{
			"inputs": [
				{
					"internalType": "bytes32",
					"name": "role",
					"type": "bytes32"
				},
				{
					"internalType": "address",
					"name": "account",
					"type": "address"
				}
			],
			"name": "grantRoleTo",
			"outputs": [],
			"stateMutability": "nonpayable",
			"type": "function"
		},
		{
			"inputs": [
				{
					"internalType": "bytes32",
					"name": "role",
					"type": "bytes32"
				},
				{
					"internalType": "address",
					"name": "account",
					"type": "address"
				}
			],
			"name": "hasRole",
			"outputs": [
				{
					"internalType": "bool",
					"name": "",
					"type": "bool"
				}
			],
			"stateMutability": "view",
			"type": "function"
		},
		{
			"inputs": [
				{
					"internalType": "address",
					"name": "account",
					"type": "address"
				},
				{
					"internalType": "address",
					"name": "operator",
					"type": "address"
				}
			],
			"name": "isApprovedForAll",
			"outputs": [
				{
					"internalType": "bool",
					"name": "",
					"type": "bool"
				}
			],
			"stateMutability": "view",
			"type": "function"
		},
		{
			"inputs": [],
			"name": "isOperatorApprovedForContractNFTs",
			"outputs": [
				{
					"internalType": "bool",
					"name": "",
					"type": "bool"
				}
			],
			"stateMutability": "view",
			"type": "function"
		},
		{
			"inputs": [
				{
					"internalType": "address",
					"name": "account",
					"type": "address"
				},
				{
					"internalType": "uint256",
					"name": "id",
					"type": "uint256"
				},
				{
					"internalType": "uint256",
					"name": "amount",
					"type": "uint256"
				},
				{
					"internalType": "bytes",
					"name": "data",
					"type": "bytes"
				}
			],
			"name": "mint",
			"outputs": [],
			"stateMutability": "nonpayable",
			"type": "function"
		},
		{
			"inputs": [
				{
					"internalType": "address",
					"name": "to",
					"type": "address"
				},
				{
					"internalType": "uint256[]",
					"name": "ids",
					"type": "uint256[]"
				},
				{
					"internalType": "uint256[]",
					"name": "amounts",
					"type": "uint256[]"
				},
				{
					"internalType": "bytes",
					"name": "data",
					"type": "bytes"
				}
			],
			"name": "mintBatch",
			"outputs": [],
			"stateMutability": "nonpayable",
			"type": "function"
		},
		{
			"inputs": [],
			"name": "name",
			"outputs": [
				{
					"internalType": "string",
					"name": "",
					"type": "string"
				}
			],
			"stateMutability": "view",
			"type": "function"
		},
		{
			"inputs": [
				{
					"internalType": "address",
					"name": "operator",
					"type": "address"
				},
				{
					"internalType": "address",
					"name": "from",
					"type": "address"
				},
				{
					"internalType": "uint256[]",
					"name": "ids",
					"type": "uint256[]"
				},
				{
					"internalType": "uint256[]",
					"name": "values",
					"type": "uint256[]"
				},
				{
					"internalType": "bytes",
					"name": "data",
					"type": "bytes"
				}
			],
			"name": "onERC1155BatchReceived",
			"outputs": [
				{
					"internalType": "bytes4",
					"name": "",
					"type": "bytes4"
				}
			],
			"stateMutability": "nonpayable",
			"type": "function"
		},
		{
			"inputs": [
				{
					"internalType": "address",
					"name": "operator",
					"type": "address"
				},
				{
					"internalType": "address",
					"name": "from",
					"type": "address"
				},
				{
					"internalType": "uint256",
					"name": "id",
					"type": "uint256"
				},
				{
					"internalType": "uint256",
					"name": "value",
					"type": "uint256"
				},
				{
					"internalType": "bytes",
					"name": "data",
					"type": "bytes"
				}
			],
			"name": "onERC1155Received",
			"outputs": [
				{
					"internalType": "bytes4",
					"name": "",
					"type": "bytes4"
				}
			],
			"stateMutability": "nonpayable",
			"type": "function"
		},
		{
			"inputs": [],
			"name": "pause",
			"outputs": [],
			"stateMutability": "nonpayable",
			"type": "function"
		},
		{
			"inputs": [],
			"name": "paused",
			"outputs": [
				{
					"internalType": "bool",
					"name": "",
					"type": "bool"
				}
			],
			"stateMutability": "view",
			"type": "function"
		},
		{
			"inputs": [
				{
					"internalType": "bytes32",
					"name": "role",
					"type": "bytes32"
				},
				{
					"internalType": "address",
					"name": "callerConfirmation",
					"type": "address"
				}
			],
			"name": "renounceRole",
			"outputs": [],
			"stateMutability": "nonpayable",
			"type": "function"
		},
		{
			"inputs": [
				{
					"internalType": "bytes32",
					"name": "role",
					"type": "bytes32"
				},
				{
					"internalType": "address",
					"name": "account",
					"type": "address"
				}
			],
			"name": "revokeRole",
			"outputs": [],
			"stateMutability": "nonpayable",
			"type": "function"
		},
		{
			"inputs": [
				{
					"internalType": "address",
					"name": "from",
					"type": "address"
				},
				{
					"internalType": "address",
					"name": "to",
					"type": "address"
				},
				{
					"internalType": "uint256[]",
					"name": "ids",
					"type": "uint256[]"
				},
				{
					"internalType": "uint256[]",
					"name": "values",
					"type": "uint256[]"
				},
				{
					"internalType": "bytes",
					"name": "data",
					"type": "bytes"
				}
			],
			"name": "safeBatchTransferFrom",
			"outputs": [],
			"stateMutability": "nonpayable",
			"type": "function"
		},
		{
			"inputs": [
				{
					"internalType": "string",
					"name": "tokenURI",
					"type": "string"
				},
				{
					"internalType": "uint256",
					"name": "amount",
					"type": "uint256"
				},
				{
					"internalType": "bytes32",
					"name": "cid",
					"type": "bytes32"
				},
				{
					"internalType": "string",
					"name": "suffix",
					"type": "string"
				}
			],
			"name": "safeCast",
			"outputs": [],
			"stateMutability": "nonpayable",
			"type": "function"
		},
		{
			"inputs": [
				{
					"internalType": "address",
					"name": "from",
					"type": "address"
				},
				{
					"internalType": "address",
					"name": "to",
					"type": "address"
				},
				{
					"internalType": "uint256",
					"name": "id",
					"type": "uint256"
				},
				{
					"internalType": "uint256",
					"name": "value",
					"type": "uint256"
				},
				{
					"internalType": "bytes",
					"name": "data",
					"type": "bytes"
				}
			],
			"name": "safeTransferFrom",
			"outputs": [],
			"stateMutability": "nonpayable",
			"type": "function"
		},
		{
			"inputs": [
				{
					"internalType": "address",
					"name": "operator",
					"type": "address"
				},
				{
					"internalType": "bool",
					"name": "approved",
					"type": "bool"
				}
			],
			"name": "setApprovalForAll",
			"outputs": [],
			"stateMutability": "nonpayable",
			"type": "function"
		},
		{
			"inputs": [
				{
					"internalType": "uint256",
					"name": "tokenId",
					"type": "uint256"
				},
				{
					"internalType": "string",
					"name": "newURI",
					"type": "string"
				}
			],
			"name": "setTokenURI",
			"outputs": [],
			"stateMutability": "nonpayable",
			"type": "function"
		},
		{
			"inputs": [
				{
					"internalType": "string",
					"name": "data",
					"type": "string"
				}
			],
			"name": "storeData",
			"outputs": [],
			"stateMutability": "nonpayable",
			"type": "function"
		},
		{
			"inputs": [
				{
					"internalType": "uint256",
					"name": "",
					"type": "uint256"
				}
			],
			"name": "storedData",
			"outputs": [
				{
					"internalType": "string",
					"name": "",
					"type": "string"
				}
			],
			"stateMutability": "view",
			"type": "function"
		},
		{
			"inputs": [
				{
					"internalType": "bytes4",
					"name": "interfaceId",
					"type": "bytes4"
				}
			],
			"name": "supportsInterface",
			"outputs": [
				{
					"internalType": "bool",
					"name": "",
					"type": "bool"
				}
			],
			"stateMutability": "view",
			"type": "function"
		},
		{
			"inputs": [
				{
					"internalType": "uint256",
					"name": "",
					"type": "uint256"
				}
			],
			"name": "tokenIds",
			"outputs": [
				{
					"internalType": "uint256",
					"name": "",
					"type": "uint256"
				}
			],
			"stateMutability": "view",
			"type": "function"
		},
		{
			"inputs": [],
			"name": "totalSupply",
			"outputs": [
				{
					"internalType": "uint256",
					"name": "",
					"type": "uint256"
				}
			],
			"stateMutability": "view",
			"type": "function"
		},
		{
			"inputs": [
				{
					"internalType": "uint256",
					"name": "id",
					"type": "uint256"
				}
			],
			"name": "totalSupply",
			"outputs": [
				{
					"internalType": "uint256",
					"name": "",
					"type": "uint256"
				}
			],
			"stateMutability": "view",
			"type": "function"
		},
		{
			"inputs": [
				{
					"internalType": "address",
					"name": "tokenAddress",
					"type": "address"
				},
				{
					"internalType": "address",
					"name": "to",
					"type": "address"
				},
				{
					"internalType": "uint256",
					"name": "amount",
					"type": "uint256"
				},
				{
					"internalType": "string",
					"name": "targetURI",
					"type": "string"
				}
			],
			"name": "transferERC20",
			"outputs": [],
			"stateMutability": "nonpayable",
			"type": "function"
		},
		{
			"inputs": [
				{
					"internalType": "uint256",
					"name": "",
					"type": "uint256"
				},
				{
					"internalType": "uint256",
					"name": "",
					"type": "uint256"
				}
			],
			"name": "transferHistory",
			"outputs": [
				{
					"internalType": "address",
					"name": "from",
					"type": "address"
				},
				{
					"internalType": "address",
					"name": "to",
					"type": "address"
				},
				{
					"internalType": "uint256",
					"name": "amount",
					"type": "uint256"
				},
				{
					"internalType": "uint256",
					"name": "timestamp",
					"type": "uint256"
				}
			],
			"stateMutability": "view",
			"type": "function"
		},
		{
			"inputs": [
				{
					"internalType": "address",
					"name": "to",
					"type": "address"
				},
				{
					"internalType": "string",
					"name": "targetURI",
					"type": "string"
				},
				{
					"internalType": "uint256",
					"name": "amount",
					"type": "uint256"
				}
			],
			"name": "transferNFTByURI",
			"outputs": [],
			"stateMutability": "nonpayable",
			"type": "function"
		},
		{
			"inputs": [],
			"name": "unpause",
			"outputs": [],
			"stateMutability": "nonpayable",
			"type": "function"
		},
		{
			"inputs": [
				{
					"internalType": "uint256",
					"name": "tokenId",
					"type": "uint256"
				}
			],
			"name": "uri",
			"outputs": [
				{
					"internalType": "string",
					"name": "",
					"type": "string"
				}
			],
			"stateMutability": "view",
			"type": "function"
		}
	]
}